{
  "address": "0xc6D79381512871Ad76094d32441f375a8e72Cd8b",
  "abi": [
    {
      "anonymous": false,
      "inputs": [
        {
          "indexed": false,
          "internalType": "address",
          "name": "previousAdmin",
          "type": "address"
        },
        {
          "indexed": false,
          "internalType": "address",
          "name": "newAdmin",
          "type": "address"
        }
      ],
      "name": "AdminChanged",
      "type": "event"
    },
    {
      "anonymous": false,
      "inputs": [
        {
          "indexed": true,
          "internalType": "address",
          "name": "owner",
          "type": "address"
        },
        {
          "indexed": true,
          "internalType": "address",
          "name": "approved",
          "type": "address"
        },
        {
          "indexed": true,
          "internalType": "uint256",
          "name": "tokenId",
          "type": "uint256"
        }
      ],
      "name": "Approval",
      "type": "event"
    },
    {
      "anonymous": false,
      "inputs": [
        {
          "indexed": true,
          "internalType": "address",
          "name": "owner",
          "type": "address"
        },
        {
          "indexed": true,
          "internalType": "address",
          "name": "operator",
          "type": "address"
        },
        {
          "indexed": false,
          "internalType": "bool",
          "name": "approved",
          "type": "bool"
        }
      ],
      "name": "ApprovalForAll",
      "type": "event"
    },
    {
      "anonymous": false,
      "inputs": [
        {
          "indexed": true,
          "internalType": "address",
          "name": "beacon",
          "type": "address"
        }
      ],
      "name": "BeaconUpgraded",
      "type": "event"
    },
    {
      "anonymous": false,
      "inputs": [
        {
          "indexed": true,
          "internalType": "uint256",
          "name": "tokenId",
          "type": "uint256"
        },
        {
          "indexed": true,
          "internalType": "bytes32",
          "name": "contentHash",
          "type": "bytes32"
        },
        {
          "indexed": false,
          "internalType": "string",
          "name": "contentURI",
          "type": "string"
        }
      ],
      "name": "ContentUpdated",
      "type": "event"
    },
    {
      "anonymous": false,
      "inputs": [
        {
          "indexed": true,
          "internalType": "uint256",
          "name": "tokenId",
          "type": "uint256"
        },
        {
          "indexed": true,
          "internalType": "address",
          "name": "creator",
          "type": "address"
        }
      ],
      "name": "CreatorUpdated",
      "type": "event"
    },
    {
      "anonymous": false,
      "inputs": [
        {
          "indexed": true,
          "internalType": "bytes32",
          "name": "merkleRoot",
          "type": "bytes32"
        }
      ],
      "name": "MerkleRootUpdated",
      "type": "event"
    },
    {
      "anonymous": false,
      "inputs": [
        {
          "indexed": true,
          "internalType": "uint256",
          "name": "tokenId",
          "type": "uint256"
        },
        {
          "indexed": false,
          "internalType": "string",
          "name": "metadataURI",
          "type": "string"
        }
      ],
      "name": "MetadataUpdated",
      "type": "event"
    },
    {
      "anonymous": false,
      "inputs": [
        {
          "indexed": true,
          "internalType": "address",
          "name": "previousOwner",
          "type": "address"
        },
        {
          "indexed": true,
          "internalType": "address",
          "name": "newOwner",
          "type": "address"
        }
      ],
      "name": "OwnershipTransferred",
      "type": "event"
    },
    {
      "anonymous": false,
      "inputs": [
        {
          "indexed": true,
          "internalType": "uint256",
          "name": "tokenId",
          "type": "uint256"
        },
        {
          "indexed": true,
          "internalType": "address",
          "name": "payoutAddress",
          "type": "address"
        }
      ],
      "name": "RoyaltyUpdated",
      "type": "event"
    },
    {
      "anonymous": false,
      "inputs": [
        {
          "indexed": true,
          "internalType": "address",
          "name": "from",
          "type": "address"
        },
        {
          "indexed": true,
          "internalType": "address",
          "name": "to",
          "type": "address"
        },
        {
          "indexed": true,
          "internalType": "uint256",
          "name": "tokenId",
          "type": "uint256"
        }
      ],
      "name": "Transfer",
      "type": "event"
    },
    {
      "anonymous": false,
      "inputs": [
        {
          "indexed": true,
          "internalType": "address",
          "name": "implementation",
          "type": "address"
        }
      ],
      "name": "Upgraded",
      "type": "event"
    },
    {
      "inputs": [
        {
          "internalType": "address",
          "name": "to",
          "type": "address"
        },
        {
          "internalType": "uint256",
          "name": "tokenId",
          "type": "uint256"
        }
      ],
      "name": "approve",
      "outputs": [],
      "stateMutability": "nonpayable",
      "type": "function"
    },
    {
      "inputs": [
        {
          "internalType": "address",
          "name": "owner",
          "type": "address"
        }
      ],
      "name": "balanceOf",
      "outputs": [
        {
          "internalType": "uint256",
          "name": "",
          "type": "uint256"
        }
      ],
      "stateMutability": "view",
      "type": "function"
    },
    {
      "inputs": [
        {
          "internalType": "uint256",
          "name": "_tokenId",
          "type": "uint256"
        }
      ],
      "name": "burn",
      "outputs": [],
      "stateMutability": "nonpayable",
      "type": "function"
    },
    {
      "inputs": [
        {
          "internalType": "uint256",
          "name": "_tokenId",
          "type": "uint256"
        }
      ],
      "name": "creator",
      "outputs": [
        {
          "internalType": "address",
          "name": "",
          "type": "address"
        }
      ],
      "stateMutability": "view",
      "type": "function"
    },
    {
      "inputs": [
        {
          "internalType": "uint256",
          "name": "tokenId",
          "type": "uint256"
        }
      ],
      "name": "getApproved",
      "outputs": [
        {
          "internalType": "address",
          "name": "",
          "type": "address"
        }
      ],
      "stateMutability": "view",
      "type": "function"
    },
    {
      "inputs": [
        {
          "internalType": "string",
          "name": "_name",
          "type": "string"
        },
        {
          "internalType": "string",
          "name": "_symbol",
          "type": "string"
        }
      ],
      "name": "initialize",
      "outputs": [],
      "stateMutability": "nonpayable",
      "type": "function"
    },
    {
      "inputs": [
        {
          "internalType": "address",
          "name": "owner",
          "type": "address"
        },
        {
          "internalType": "address",
          "name": "operator",
          "type": "address"
        }
      ],
      "name": "isApprovedForAll",
      "outputs": [
        {
          "internalType": "bool",
          "name": "",
          "type": "bool"
        }
      ],
      "stateMutability": "view",
      "type": "function"
    },
    {
      "inputs": [],
      "name": "merkleRoot",
      "outputs": [
        {
          "internalType": "bytes32",
          "name": "",
          "type": "bytes32"
        }
      ],
      "stateMutability": "view",
      "type": "function"
    },
    {
      "inputs": [
        {
          "components": [
            {
              "internalType": "string",
              "name": "metadataURI",
              "type": "string"
            },
            {
              "internalType": "address",
              "name": "creator",
              "type": "address"
            },
            {
              "internalType": "address",
              "name": "royaltyPayout",
              "type": "address"
            },
            {
              "internalType": "uint16",
              "name": "royaltyBPS",
              "type": "uint16"
            }
          ],
          "internalType": "struct Catalog.TokenData",
          "name": "_data",
          "type": "tuple"
        },
        {
          "components": [
            {
              "internalType": "string",
              "name": "contentURI",
              "type": "string"
            },
            {
              "internalType": "bytes32",
              "name": "contentHash",
              "type": "bytes32"
            }
          ],
          "internalType": "struct Catalog.ContentData",
          "name": "_content",
          "type": "tuple"
        },
        {
          "internalType": "bytes32[]",
          "name": "_proof",
          "type": "bytes32[]"
        }
      ],
      "name": "mint",
      "outputs": [
        {
          "internalType": "uint256",
          "name": "",
          "type": "uint256"
        }
      ],
      "stateMutability": "nonpayable",
      "type": "function"
    },
    {
      "inputs": [],
      "name": "name",
      "outputs": [
        {
          "internalType": "string",
          "name": "",
          "type": "string"
        }
      ],
      "stateMutability": "view",
      "type": "function"
    },
    {
      "inputs": [],
      "name": "owner",
      "outputs": [
        {
          "internalType": "address",
          "name": "",
          "type": "address"
        }
      ],
      "stateMutability": "view",
      "type": "function"
    },
    {
      "inputs": [
        {
          "internalType": "uint256",
          "name": "tokenId",
          "type": "uint256"
        }
      ],
      "name": "ownerOf",
      "outputs": [
        {
          "internalType": "address",
          "name": "",
          "type": "address"
        }
      ],
      "stateMutability": "view",
      "type": "function"
    },
    {
      "inputs": [],
      "name": "proxiableUUID",
      "outputs": [
        {
          "internalType": "bytes32",
          "name": "",
          "type": "bytes32"
        }
      ],
      "stateMutability": "view",
      "type": "function"
    },
    {
      "inputs": [],
      "name": "renounceOwnership",
      "outputs": [],
      "stateMutability": "nonpayable",
      "type": "function"
    },
    {
      "inputs": [
        {
          "internalType": "uint256",
          "name": "_tokenId",
          "type": "uint256"
        },
        {
          "internalType": "uint256",
          "name": "_salePrice",
          "type": "uint256"
        }
      ],
      "name": "royaltyInfo",
      "outputs": [
        {
          "internalType": "address",
          "name": "receiver",
          "type": "address"
        },
        {
          "internalType": "uint256",
          "name": "royaltyAmount",
          "type": "uint256"
        }
      ],
      "stateMutability": "view",
      "type": "function"
    },
    {
      "inputs": [
        {
          "internalType": "uint256",
          "name": "_tokenId",
          "type": "uint256"
        }
      ],
      "name": "royaltyPayoutAddress",
      "outputs": [
        {
          "internalType": "address",
          "name": "",
          "type": "address"
        }
      ],
      "stateMutability": "view",
      "type": "function"
    },
    {
      "inputs": [
        {
          "internalType": "address",
          "name": "from",
          "type": "address"
        },
        {
          "internalType": "address",
          "name": "to",
          "type": "address"
        },
        {
          "internalType": "uint256",
          "name": "tokenId",
          "type": "uint256"
        }
      ],
      "name": "safeTransferFrom",
      "outputs": [],
      "stateMutability": "nonpayable",
      "type": "function"
    },
    {
      "inputs": [
        {
          "internalType": "address",
          "name": "from",
          "type": "address"
        },
        {
          "internalType": "address",
          "name": "to",
          "type": "address"
        },
        {
          "internalType": "uint256",
          "name": "tokenId",
          "type": "uint256"
        },
        {
          "internalType": "bytes",
          "name": "_data",
          "type": "bytes"
        }
      ],
      "name": "safeTransferFrom",
      "outputs": [],
      "stateMutability": "nonpayable",
      "type": "function"
    },
    {
      "inputs": [
        {
          "internalType": "address",
          "name": "operator",
          "type": "address"
        },
        {
          "internalType": "bool",
          "name": "approved",
          "type": "bool"
        }
      ],
      "name": "setApprovalForAll",
      "outputs": [],
      "stateMutability": "nonpayable",
      "type": "function"
    },
    {
      "inputs": [
        {
          "internalType": "bytes4",
          "name": "interfaceId",
          "type": "bytes4"
        }
      ],
      "name": "supportsInterface",
      "outputs": [
        {
          "internalType": "bool",
          "name": "",
          "type": "bool"
        }
      ],
      "stateMutability": "view",
      "type": "function"
    },
    {
      "inputs": [],
      "name": "symbol",
      "outputs": [
        {
          "internalType": "string",
          "name": "",
          "type": "string"
        }
      ],
      "stateMutability": "view",
      "type": "function"
    },
    {
      "inputs": [
        {
          "internalType": "uint256",
          "name": "_tokenId",
          "type": "uint256"
        }
      ],
      "name": "tokenURI",
      "outputs": [
        {
          "internalType": "string",
          "name": "",
          "type": "string"
        }
      ],
      "stateMutability": "view",
      "type": "function"
    },
    {
      "inputs": [
        {
          "internalType": "address",
          "name": "from",
          "type": "address"
        },
        {
          "internalType": "address",
          "name": "to",
          "type": "address"
        },
        {
          "internalType": "uint256",
          "name": "tokenId",
          "type": "uint256"
        }
      ],
      "name": "transferFrom",
      "outputs": [],
      "stateMutability": "nonpayable",
      "type": "function"
    },
    {
      "inputs": [
        {
          "internalType": "address",
          "name": "newOwner",
          "type": "address"
        }
      ],
      "name": "transferOwnership",
      "outputs": [],
      "stateMutability": "nonpayable",
      "type": "function"
    },
    {
      "inputs": [
        {
          "internalType": "uint256",
          "name": "_tokenId",
          "type": "uint256"
        },
        {
          "components": [
            {
              "internalType": "string",
              "name": "contentURI",
              "type": "string"
            },
            {
              "internalType": "bytes32",
              "name": "contentHash",
              "type": "bytes32"
            }
          ],
          "internalType": "struct Catalog.ContentData",
          "name": "_content",
          "type": "tuple"
        }
      ],
      "name": "updateContentURI",
      "outputs": [],
      "stateMutability": "nonpayable",
      "type": "function"
    },
    {
      "inputs": [
        {
          "internalType": "uint256",
          "name": "_tokenId",
          "type": "uint256"
        },
        {
          "internalType": "address",
          "name": "_creator",
          "type": "address"
        }
      ],
      "name": "updateCreator",
      "outputs": [],
      "stateMutability": "nonpayable",
      "type": "function"
    },
    {
      "inputs": [
        {
          "internalType": "uint256",
          "name": "_tokenId",
          "type": "uint256"
        },
        {
          "internalType": "string",
          "name": "_metadataURI",
          "type": "string"
        }
      ],
      "name": "updateMetadataURI",
      "outputs": [],
      "stateMutability": "nonpayable",
      "type": "function"
    },
    {
      "inputs": [
        {
          "internalType": "bytes32",
          "name": "_newRoot",
          "type": "bytes32"
        }
      ],
      "name": "updateRoot",
      "outputs": [],
      "stateMutability": "nonpayable",
      "type": "function"
    },
    {
      "inputs": [
        {
          "internalType": "uint256",
          "name": "_tokenId",
          "type": "uint256"
        },
        {
          "internalType": "address",
          "name": "_royaltyPayoutAddress",
          "type": "address"
        }
      ],
      "name": "updateRoyaltyInfo",
      "outputs": [],
      "stateMutability": "nonpayable",
      "type": "function"
    },
    {
      "inputs": [
        {
          "internalType": "address",
          "name": "newImplementation",
          "type": "address"
        }
      ],
      "name": "upgradeTo",
      "outputs": [],
      "stateMutability": "nonpayable",
      "type": "function"
    },
    {
      "inputs": [
        {
          "internalType": "address",
          "name": "newImplementation",
          "type": "address"
        },
        {
          "internalType": "bytes",
          "name": "data",
          "type": "bytes"
        }
      ],
      "name": "upgradeToAndCall",
      "outputs": [],
      "stateMutability": "payable",
      "type": "function"
    }
  ],
  "transactionHash": "0x150a20e1460809ff9aa3c85b0c1fa6c9cd033133626338ac458d3cf651252f61",
  "args": [],
  "numDeployments": 1,
  "solcInputHash": "8d43c7185a4c95d266ced02c20b2b2f9",
  "bytecode": "0x60a06040523060805234801561001457600080fd5b50608051612d3f61004c60003960008181610990015281816109d001528181610bf401528181610c340152610cc70152612d3f6000f3fe6080604052600436106101d85760003560e01c80636352211e11610102578063a22cb46511610095578063f2fde38b11610064578063f2fde38b146105a5578063f8361bab146105c5578063fb339e4c146105e5578063fbd8d2831461060557600080fd5b8063a22cb465146104fc578063b88d4fde1461051c578063c87b56dd1461053c578063e985e9c51461055c57600080fd5b80637f9c8413116100d15780637f9c8413146104895780638da5cb5b146104a95780638fe86b3f146104c757806395d89b41146104e757600080fd5b80636352211e14610414578063669d311c1461043457806370a0823114610454578063715018a61461047457600080fd5b80632eb4a7ab1161017a5780634cd88b76116101495780634cd88b76146103925780634f1ef286146103b2578063510b5158146103c557806352d1902d146103ff57600080fd5b80632eb4a7ab1461030d5780633659cfe61461033257806342842e0e1461035257806342966c681461037257600080fd5b8063095ea7b3116101b6578063095ea7b31461026c57806321ff99701461028e57806323b872dd146102ae5780632a55205a146102ce57600080fd5b806301ffc9a7146101dd57806306fdde0314610212578063081812fc14610234575b600080fd5b3480156101e957600080fd5b506101fd6101f8366004612226565b61063f565b60405190151581526020015b60405180910390f35b34801561021e57600080fd5b5061022761066a565b604051610209919061229b565b34801561024057600080fd5b5061025461024f3660046122ae565b6106fc565b6040516001600160a01b039091168152602001610209565b34801561027857600080fd5b5061028c6102873660046122dc565b610796565b005b34801561029a57600080fd5b5061028c6102a93660046122ae565b6108ab565b3480156102ba57600080fd5b5061028c6102c9366004612308565b610906565b3480156102da57600080fd5b506102ee6102e9366004612349565b610937565b604080516001600160a01b039093168352602083019190915201610209565b34801561031957600080fd5b5061032461012f5481565b604051908152602001610209565b34801561033e57600080fd5b5061028c61034d36600461236b565b610986565b34801561035e57600080fd5b5061028c61036d366004612308565b610a65565b34801561037e57600080fd5b5061028c61038d3660046122ae565b610a80565b34801561039e57600080fd5b5061028c6103ad36600461242b565b610b07565b61028c6103c036600461248f565b610bea565b3480156103d157600080fd5b506102546103e03660046122ae565b600090815261012d60205260409020600101546001600160a01b031690565b34801561040b57600080fd5b50610324610cba565b34801561042057600080fd5b5061025461042f3660046122ae565b610d6d565b34801561044057600080fd5b5061028c61044f3660046124d5565b610de4565b34801561046057600080fd5b5061032461046f36600461236b565b610e76565b34801561048057600080fd5b5061028c610efd565b34801561049557600080fd5b5061028c6104a436600461251d565b610f33565b3480156104b557600080fd5b506097546001600160a01b0316610254565b3480156104d357600080fd5b5061028c6104e236600461255a565b610fa8565b3480156104f357600080fd5b50610227611055565b34801561050857600080fd5b5061028c61051736600461258b565b611064565b34801561052857600080fd5b5061028c6105373660046125be565b61106f565b34801561054857600080fd5b506102276105573660046122ae565b6110a7565b34801561056857600080fd5b506101fd61057736600461262a565b6001600160a01b039182166000908152606a6020908152604080832093909416825291909152205460ff1690565b3480156105b157600080fd5b5061028c6105c036600461236b565b6111c5565b3480156105d157600080fd5b5061028c6105e03660046124d5565b61125d565b3480156105f157600080fd5b50610324610600366004612658565b6112ef565b34801561061157600080fd5b506102546106203660046122ae565b600090815261012d60205260409020600201546001600160a01b031690565b600063152a902d60e11b6001600160e01b0319831614806106645750610664826114a8565b92915050565b60606065805461067990612719565b80601f01602080910402602001604051908101604052809291908181526020018280546106a590612719565b80156106f25780601f106106c7576101008083540402835291602001916106f2565b820191906000526020600020905b8154815290600101906020018083116106d557829003601f168201915b5050505050905090565b6000818152606760205260408120546001600160a01b031661077a5760405162461bcd60e51b815260206004820152602c60248201527f4552433732313a20617070726f76656420717565727920666f72206e6f6e657860448201526b34b9ba32b73a103a37b5b2b760a11b60648201526084015b60405180910390fd5b506000908152606960205260409020546001600160a01b031690565b60006107a182610d6d565b9050806001600160a01b0316836001600160a01b03160361080e5760405162461bcd60e51b815260206004820152602160248201527f4552433732313a20617070726f76616c20746f2063757272656e74206f776e656044820152603960f91b6064820152608401610771565b336001600160a01b038216148061082a575061082a8133610577565b61089c5760405162461bcd60e51b815260206004820152603860248201527f4552433732313a20617070726f76652063616c6c6572206973206e6f74206f7760448201527f6e6572206e6f7220617070726f76656420666f7220616c6c00000000000000006064820152608401610771565b6108a683836114f8565b505050565b6097546001600160a01b031633146108d55760405162461bcd60e51b81526004016107719061274d565b60405181907f90004c04698bc3322499a575ed3752dd4abf33e0a7294c06a787a0fe01bea94190600090a261012f55565b6109103382611566565b61092c5760405162461bcd60e51b815260040161077190612782565b6108a6838383611659565b600082815261012d602052604081206002015481906001600160a01b038116906127109061097090600160a01b900461ffff16866127e9565b61097a9190612808565b915091505b9250929050565b6001600160a01b037f00000000000000000000000000000000000000000000000000000000000000001630036109ce5760405162461bcd60e51b81526004016107719061282a565b7f00000000000000000000000000000000000000000000000000000000000000006001600160a01b0316610a17600080516020612cc3833981519152546001600160a01b031690565b6001600160a01b031614610a3d5760405162461bcd60e51b815260040161077190612876565b610a46816117f5565b60408051600080825260208201909252610a629183919061181f565b50565b6108a68383836040518060200160405280600081525061106f565b600081815261012d60205260409020600101546001600160a01b031633148015610ac35750610aae81610d6d565b6001600160a01b0316336001600160a01b0316145b610afe5760405162461bcd60e51b815260206004820152600c60248201526b27b7363c9031b932b0ba37b960a11b6044820152606401610771565b610a628161198a565b600054610100900460ff16610b225760005460ff1615610b26565b303b155b610b895760405162461bcd60e51b815260206004820152602e60248201527f496e697469616c697a61626c653a20636f6e747261637420697320616c72656160448201526d191e481a5b9a5d1a585b1a5e995960921b6064820152608401610771565b600054610100900460ff16158015610bab576000805461ffff19166101011790555b610bb58383611a25565b610bbd611a56565b610bc5611a85565b610bd461012e80546001019055565b80156108a6576000805461ff0019169055505050565b6001600160a01b037f0000000000000000000000000000000000000000000000000000000000000000163003610c325760405162461bcd60e51b81526004016107719061282a565b7f00000000000000000000000000000000000000000000000000000000000000006001600160a01b0316610c7b600080516020612cc3833981519152546001600160a01b031690565b6001600160a01b031614610ca15760405162461bcd60e51b815260040161077190612876565b610caa826117f5565b610cb68282600161181f565b5050565b6000306001600160a01b037f00000000000000000000000000000000000000000000000000000000000000001614610d5a5760405162461bcd60e51b815260206004820152603860248201527f555550535570677261646561626c653a206d757374206e6f742062652063616c60448201527f6c6564207468726f7567682064656c656761746563616c6c00000000000000006064820152608401610771565b50600080516020612cc383398151915290565b6000818152606760205260408120546001600160a01b0316806106645760405162461bcd60e51b815260206004820152602960248201527f4552433732313a206f776e657220717565727920666f72206e6f6e657869737460448201526832b73a103a37b5b2b760b91b6064820152608401610771565b6097546001600160a01b03163314610e0e5760405162461bcd60e51b81526004016107719061274d565b6040516001600160a01b0382169083907f13ceafb5e8ec39102bd452913a5c00a05f3b060d636d3a567c1c80e8b4321fe790600090a3600091825261012d602052604090912060020180546001600160a01b0319166001600160a01b03909216919091179055565b60006001600160a01b038216610ee15760405162461bcd60e51b815260206004820152602a60248201527f4552433732313a2062616c616e636520717565727920666f7220746865207a65604482015269726f206164647265737360b01b6064820152608401610771565b506001600160a01b031660009081526068602052604090205490565b6097546001600160a01b03163314610f275760405162461bcd60e51b81526004016107719061274d565b610f316000611aac565b565b6097546001600160a01b03163314610f5d5760405162461bcd60e51b81526004016107719061274d565b6020810135827f0d555bd4628e8349ca5d17ca332d615c92b84cd24ab943921e8abcf6ae22c98b610f8e84806128c2565b604051610f9c929190612909565b60405180910390a35050565b600082815261012d60205260409020600101546001600160a01b03163314610ffd5760405162461bcd60e51b815260206004820152600860248201526710b1b932b0ba37b960c11b6044820152606401610771565b817f459157ba24c7ab9878b165ef465fa6ae2ab42bcd8445f576be378768b0c473098260405161102d919061229b565b60405180910390a2600082815261012d6020908152604090912082516108a692840190612177565b60606066805461067990612719565b610cb6338383611afe565b6110793383611566565b6110955760405162461bcd60e51b815260040161077190612782565b6110a184848484611bcc565b50505050565b6000818152606760205260409020546060906001600160a01b03166111265760405162461bcd60e51b815260206004820152602f60248201527f4552433732314d657461646174613a2055524920717565727920666f72206e6f60448201526e3732bc34b9ba32b73a103a37b5b2b760891b6064820152608401610771565b600082815261012d60205260409020805461114090612719565b80601f016020809104026020016040519081016040528092919081815260200182805461116c90612719565b80156111b95780601f1061118e576101008083540402835291602001916111b9565b820191906000526020600020905b81548152906001019060200180831161119c57829003601f168201915b50505050509050919050565b6097546001600160a01b031633146111ef5760405162461bcd60e51b81526004016107719061274d565b6001600160a01b0381166112545760405162461bcd60e51b815260206004820152602660248201527f4f776e61626c653a206e6577206f776e657220697320746865207a65726f206160448201526564647265737360d01b6064820152608401610771565b610a6281611aac565b6097546001600160a01b031633146112875760405162461bcd60e51b81526004016107719061274d565b6040516001600160a01b0382169083907fc0186d9ba7364ebd80a7010121367f481af81e1028bf368b2172fedf2c6fc7de90600090a3600091825261012d602052604090912060010180546001600160a01b0319166001600160a01b03909216919091179055565b60006113808383808060200260200160405190810160405280939291908181526020018383602002808284376000920191909152505061012f54915061133d90506040890160208a0161236b565b604051602001611365919060609190911b6bffffffffffffffffffffffff1916815260140190565b60405160208183030381529060405280519060200120611bff565b6113bb5760405162461bcd60e51b815260206004820152600c60248201526b10bb30b634b210383937b7b360a11b6044820152606401610771565b6127106113ce6080870160608801612948565b61ffff16106114125760405162461bcd60e51b815260206004820152601060248201526f0726f79616c747920213c2031303030360841b6044820152606401610771565b600061141e61012e5490565b905061142a3382611c17565b600081815261012d60205260409020869061144582826129ed565b50506020850135817f0d555bd4628e8349ca5d17ca332d615c92b84cd24ab943921e8abcf6ae22c98b61147888806128c2565b604051611486929190612909565b60405180910390a361149d61012e80546001019055565b90505b949350505050565b60006001600160e01b031982166380ac58cd60e01b14806114d957506001600160e01b03198216635b5e139f60e01b145b8061066457506301ffc9a760e01b6001600160e01b0319831614610664565b600081815260696020526040902080546001600160a01b0319166001600160a01b038416908117909155819061152d82610d6d565b6001600160a01b03167f8c5be1e5ebec7d5bd14f71427d1e84f3dd0314c0f7b2291e5b200ac8c7c3b92560405160405180910390a45050565b6000818152606760205260408120546001600160a01b03166115df5760405162461bcd60e51b815260206004820152602c60248201527f4552433732313a206f70657261746f7220717565727920666f72206e6f6e657860448201526b34b9ba32b73a103a37b5b2b760a11b6064820152608401610771565b60006115ea83610d6d565b9050806001600160a01b0316846001600160a01b031614806116255750836001600160a01b031661161a846106fc565b6001600160a01b0316145b806114a057506001600160a01b038082166000908152606a602090815260408083209388168352929052205460ff166114a0565b826001600160a01b031661166c82610d6d565b6001600160a01b0316146116d05760405162461bcd60e51b815260206004820152602560248201527f4552433732313a207472616e736665722066726f6d20696e636f72726563742060448201526437bbb732b960d91b6064820152608401610771565b6001600160a01b0382166117325760405162461bcd60e51b8152602060048201526024808201527f4552433732313a207472616e7366657220746f20746865207a65726f206164646044820152637265737360e01b6064820152608401610771565b61173d6000826114f8565b6001600160a01b0383166000908152606860205260408120805460019290611766908490612b38565b90915550506001600160a01b0382166000908152606860205260408120805460019290611794908490612b4f565b909155505060008181526067602052604080822080546001600160a01b0319166001600160a01b0386811691821790925591518493918716917fddf252ad1be2c89b69c2b068fc378daa952ba7f163c4a11628f55a4df523b3ef91a4505050565b6097546001600160a01b03163314610a625760405162461bcd60e51b81526004016107719061274d565b7f4910fdfa16fed3260ed0e7147f7cc6da11a60208b5b9406d12a635614ffd91435460ff1615611852576108a683611d59565b826001600160a01b03166352d1902d6040518163ffffffff1660e01b8152600401602060405180830381865afa9250505080156118ac575060408051601f3d908101601f191682019092526118a991810190612b67565b60015b61190f5760405162461bcd60e51b815260206004820152602e60248201527f45524331393637557067726164653a206e657720696d706c656d656e7461746960448201526d6f6e206973206e6f74205555505360901b6064820152608401610771565b600080516020612cc3833981519152811461197e5760405162461bcd60e51b815260206004820152602960248201527f45524331393637557067726164653a20756e737570706f727465642070726f786044820152681a58589b195555525160ba1b6064820152608401610771565b506108a6838383611df5565b600061199582610d6d565b90506119a26000836114f8565b6001600160a01b03811660009081526068602052604081208054600192906119cb908490612b38565b909155505060008281526067602052604080822080546001600160a01b0319169055518391906001600160a01b038416907fddf252ad1be2c89b69c2b068fc378daa952ba7f163c4a11628f55a4df523b3ef908390a45050565b600054610100900460ff16611a4c5760405162461bcd60e51b815260040161077190612b80565b610cb68282611e1a565b600054610100900460ff16611a7d5760405162461bcd60e51b815260040161077190612b80565b610f31611e68565b600054610100900460ff16610f315760405162461bcd60e51b815260040161077190612b80565b609780546001600160a01b038381166001600160a01b0319831681179093556040519116919082907f8be0079c531659141344cd1fd0a4f28419497f9722a3daafe3b4186f6b6457e090600090a35050565b816001600160a01b0316836001600160a01b031603611b5f5760405162461bcd60e51b815260206004820152601960248201527f4552433732313a20617070726f766520746f2063616c6c6572000000000000006044820152606401610771565b6001600160a01b038381166000818152606a6020908152604080832094871680845294825291829020805460ff191686151590811790915591519182527f17307eab39ab6107e8899845ad3d59bd9653f200f220920489ca2b5937696c31910160405180910390a3505050565b611bd7848484611659565b611be384848484611e98565b6110a15760405162461bcd60e51b815260040161077190612bcb565b600082611c0c8584611f96565b1490505b9392505050565b6001600160a01b038216611c6d5760405162461bcd60e51b815260206004820181905260248201527f4552433732313a206d696e7420746f20746865207a65726f20616464726573736044820152606401610771565b6000818152606760205260409020546001600160a01b031615611cd25760405162461bcd60e51b815260206004820152601c60248201527f4552433732313a20746f6b656e20616c7265616479206d696e746564000000006044820152606401610771565b6001600160a01b0382166000908152606860205260408120805460019290611cfb908490612b4f565b909155505060008181526067602052604080822080546001600160a01b0319166001600160a01b03861690811790915590518392907fddf252ad1be2c89b69c2b068fc378daa952ba7f163c4a11628f55a4df523b3ef908290a45050565b6001600160a01b0381163b611dc65760405162461bcd60e51b815260206004820152602d60248201527f455243313936373a206e657720696d706c656d656e746174696f6e206973206e60448201526c1bdd08184818dbdb9d1c9858dd609a1b6064820152608401610771565b600080516020612cc383398151915280546001600160a01b0319166001600160a01b0392909216919091179055565b611dfe8361200a565b600082511180611e0b5750805b156108a6576110a1838361204a565b600054610100900460ff16611e415760405162461bcd60e51b815260040161077190612b80565b8151611e54906065906020850190612177565b5080516108a6906066906020840190612177565b600054610100900460ff16611e8f5760405162461bcd60e51b815260040161077190612b80565b610f3133611aac565b60006001600160a01b0384163b15611f8e57604051630a85bd0160e11b81526001600160a01b0385169063150b7a0290611edc903390899088908890600401612c1d565b6020604051808303816000875af1925050508015611f17575060408051601f3d908101601f19168201909252611f1491810190612c5a565b60015b611f74573d808015611f45576040519150601f19603f3d011682016040523d82523d6000602084013e611f4a565b606091505b508051600003611f6c5760405162461bcd60e51b815260040161077190612bcb565b805181602001fd5b6001600160e01b031916630a85bd0160e11b1490506114a0565b5060016114a0565b600081815b8451811015612002576000858281518110611fb857611fb8612c77565b60200260200101519050808311611fde5760008381526020829052604090209250611fef565b600081815260208490526040902092505b5080611ffa81612c8d565b915050611f9b565b509392505050565b61201381611d59565b6040516001600160a01b038216907fbc7cd75a20ee27fd9adebab32041f755214dbc6bffa90cc0225b39da2e5c2d3b90600090a250565b60606001600160a01b0383163b6120b25760405162461bcd60e51b815260206004820152602660248201527f416464726573733a2064656c65676174652063616c6c20746f206e6f6e2d636f6044820152651b9d1c9858dd60d21b6064820152608401610771565b600080846001600160a01b0316846040516120cd9190612ca6565b600060405180830381855af49150503d8060008114612108576040519150601f19603f3d011682016040523d82523d6000602084013e61210d565b606091505b50915091506121358282604051806060016040528060278152602001612ce36027913961213e565b95945050505050565b6060831561214d575081611c10565b82511561215d5782518084602001fd5b8160405162461bcd60e51b8152600401610771919061229b565b82805461218390612719565b90600052602060002090601f0160209004810192826121a557600085556121eb565b82601f106121be57805160ff19168380011785556121eb565b828001600101855582156121eb579182015b828111156121eb5782518255916020019190600101906121d0565b506121f79291506121fb565b5090565b5b808211156121f757600081556001016121fc565b6001600160e01b031981168114610a6257600080fd5b60006020828403121561223857600080fd5b8135611c1081612210565b60005b8381101561225e578181015183820152602001612246565b838111156110a15750506000910152565b60008151808452612287816020860160208601612243565b601f01601f19169290920160200192915050565b602081526000611c10602083018461226f565b6000602082840312156122c057600080fd5b5035919050565b6001600160a01b0381168114610a6257600080fd5b600080604083850312156122ef57600080fd5b82356122fa816122c7565b946020939093013593505050565b60008060006060848603121561231d57600080fd5b8335612328816122c7565b92506020840135612338816122c7565b929592945050506040919091013590565b6000806040838503121561235c57600080fd5b50508035926020909101359150565b60006020828403121561237d57600080fd5b8135611c10816122c7565b634e487b7160e01b600052604160045260246000fd5b600082601f8301126123af57600080fd5b813567ffffffffffffffff808211156123ca576123ca612388565b604051601f8301601f19908116603f011681019082821181831017156123f2576123f2612388565b8160405283815286602085880101111561240b57600080fd5b836020870160208301376000602085830101528094505050505092915050565b6000806040838503121561243e57600080fd5b823567ffffffffffffffff8082111561245657600080fd5b6124628683870161239e565b9350602085013591508082111561247857600080fd5b506124858582860161239e565b9150509250929050565b600080604083850312156124a257600080fd5b82356124ad816122c7565b9150602083013567ffffffffffffffff8111156124c957600080fd5b6124858582860161239e565b600080604083850312156124e857600080fd5b8235915060208301356124fa816122c7565b809150509250929050565b60006040828403121561251757600080fd5b50919050565b6000806040838503121561253057600080fd5b82359150602083013567ffffffffffffffff81111561254e57600080fd5b61248585828601612505565b6000806040838503121561256d57600080fd5b82359150602083013567ffffffffffffffff8111156124c957600080fd5b6000806040838503121561259e57600080fd5b82356125a9816122c7565b9150602083013580151581146124fa57600080fd5b600080600080608085870312156125d457600080fd5b84356125df816122c7565b935060208501356125ef816122c7565b925060408501359150606085013567ffffffffffffffff81111561261257600080fd5b61261e8782880161239e565b91505092959194509250565b6000806040838503121561263d57600080fd5b8235612648816122c7565b915060208301356124fa816122c7565b6000806000806060858703121561266e57600080fd5b843567ffffffffffffffff8082111561268657600080fd5b908601906080828903121561269a57600080fd5b909450602086013590808211156126b057600080fd5b6126bc88838901612505565b945060408701359150808211156126d257600080fd5b818701915087601f8301126126e657600080fd5b8135818111156126f557600080fd5b8860208260051b850101111561270a57600080fd5b95989497505060200194505050565b600181811c9082168061272d57607f821691505b60208210810361251757634e487b7160e01b600052602260045260246000fd5b6020808252818101527f4f776e61626c653a2063616c6c6572206973206e6f7420746865206f776e6572604082015260600190565b60208082526031908201527f4552433732313a207472616e736665722063616c6c6572206973206e6f74206f6040820152701ddb995c881b9bdc88185c1c1c9bdd9959607a1b606082015260800190565b634e487b7160e01b600052601160045260246000fd5b6000816000190483118215151615612803576128036127d3565b500290565b60008261282557634e487b7160e01b600052601260045260246000fd5b500490565b6020808252602c908201527f46756e6374696f6e206d7573742062652063616c6c6564207468726f7567682060408201526b19195b1959d85d1958d85b1b60a21b606082015260800190565b6020808252602c908201527f46756e6374696f6e206d7573742062652063616c6c6564207468726f7567682060408201526b6163746976652070726f787960a01b606082015260800190565b6000808335601e198436030181126128d957600080fd5b83018035915067ffffffffffffffff8211156128f457600080fd5b60200191503681900382131561097f57600080fd5b60208152816020820152818360408301376000818301604090810191909152601f909201601f19160101919050565b61ffff81168114610a6257600080fd5b60006020828403121561295a57600080fd5b8135611c1081612938565b601f8211156108a657600081815260208120601f850160051c8101602086101561298c5750805b601f850160051c820191505b818110156129ab57828155600101612998565b505050505050565b60008135610664816122c7565b80546001600160a01b0319166001600160a01b0392909216919091179055565b6000813561066481612938565b8135601e19833603018112612a0157600080fd5b8201803567ffffffffffffffff811115612a1a57600080fd5b60208136038184011315612a2d57600080fd5b612a4182612a3b8654612719565b86612965565b6000601f831160018114612a775760008415612a5f57508482018301355b600019600386901b1c1916600185901b178655612ad4565b600086815260209020601f19851690835b82811015612aa9578785018601358255938501936001909101908501612a88565b5085821015612ac85760001960f88760031b161c198585890101351681555b505060018460011b0186555b5050612aed612ae48287016129b3565b600186016129c0565b50505060028101612b09612b03604085016129b3565b826129c0565b6108a6612b18606085016129e0565b82805461ffff60a01b191660a09290921b61ffff60a01b16919091179055565b600082821015612b4a57612b4a6127d3565b500390565b60008219821115612b6257612b626127d3565b500190565b600060208284031215612b7957600080fd5b5051919050565b6020808252602b908201527f496e697469616c697a61626c653a20636f6e7472616374206973206e6f74206960408201526a6e697469616c697a696e6760a81b606082015260800190565b60208082526032908201527f4552433732313a207472616e7366657220746f206e6f6e20455243373231526560408201527131b2b4bb32b91034b6b83632b6b2b73a32b960711b606082015260800190565b6001600160a01b0385811682528416602082015260408101839052608060608201819052600090612c509083018461226f565b9695505050505050565b600060208284031215612c6c57600080fd5b8151611c1081612210565b634e487b7160e01b600052603260045260246000fd5b600060018201612c9f57612c9f6127d3565b5060010190565b60008251612cb8818460208701612243565b919091019291505056fe360894a13ba1a3210667c828492db98dca3e2076cc3735a920a3ca505d382bbc416464726573733a206c6f772d6c6576656c2064656c65676174652063616c6c206661696c6564a26469706673582212201a99ab03cc8b1420528a1a4abc6ab564b0e91d07c4d1aa7ad85a8330ca02a01d64736f6c634300080d0033",
  "devdoc": {
    "author": ":   COMPUTER DATA (brett henderson) of @catalogworks",
    "details": ":   Upgradeable ERC721 Contract, inherits functionality from ERC721Upgradeable. Purpose built for optimization over the Zora V1 contracts. isian (iain nash) of Zora.  ---------------------------------------------------------------------------------------------------------------------    ",
    "kind": "dev",
    "methods": {
      "approve(address,uint256)": {
        "details": "See {IERC721-approve}."
      },
      "balanceOf(address)": {
        "details": "See {IERC721-balanceOf}."
      },
      "burn(uint256)": {
        "details": "burns given tokenId, restrited to owner and creator (when owned)",
        "params": {
          "_tokenId": "identifier of token to burn"
        }
      },
      "creator(uint256)": {
        "details": "basic public getter method for creator",
        "params": {
          "_tokenId": "identifier of token to get creator for"
        },
        "returns": {
          "_0": "creator address of given tokenId"
        }
      },
      "getApproved(uint256)": {
        "details": "See {IERC721-getApproved}."
      },
      "initialize(string,string)": {
        "details": "Initializes contract with default values, for upgradeable proxy purposes",
        "params": {
          "_name": "name of the contract",
          "_symbol": "symbol of the contract"
        }
      },
      "isApprovedForAll(address,address)": {
        "details": "See {IERC721-isApprovedForAll}."
      },
      "mint((string,address,address,uint16),(string,bytes32),bytes32[])": {
        "details": "mints a new token to allowlisted msg.sender with a valid merkle proof.  Emits a ContentUpdated event to trackcontentURI updates.",
        "params": {
          "_content": "input ContentData struct, containing contentURI, contentHash.  not stored in memory, only in calldata",
          "_data": "input TokenData struct, containing metadataURI, creator, royaltyPayout, royaltyBPS",
          "_proof": "merkle proof of artist wallet.  this is created off-chain.  e.g (proof = tree.getHexProof(keccak256(address)))"
        },
        "returns": {
          "_0": "tokenId of minted token (useful since we are not using Enumerable)"
        }
      },
      "name()": {
        "details": "See {IERC721Metadata-name}."
      },
      "owner()": {
        "details": "Returns the address of the current owner."
      },
      "ownerOf(uint256)": {
        "details": "See {IERC721-ownerOf}."
      },
      "proxiableUUID()": {
        "details": "Implementation of the ERC1822 {proxiableUUID} function. This returns the storage slot used by the implementation. It is used to validate that the this implementation remains valid after an upgrade. IMPORTANT: A proxy pointing at a proxiable contract should not be considered proxiable itself, because this risks bricking a proxy that upgrades to it, by delegating to itself until out of gas. Thus it is critical that this function revert if invoked through a proxy. This is guaranteed by the `notDelegated` modifier."
      },
      "renounceOwnership()": {
        "details": "Leaves the contract without owner. It will not be possible to call `onlyOwner` functions anymore. Can only be called by the current owner. NOTE: Renouncing ownership will leave the contract without an owner, thereby removing any functionality that is only available to the owner."
      },
      "royaltyInfo(uint256,uint256)": {
        "details": "override, conforms to EIP-2981",
        "params": {
          "_salePrice": "final sale price of token used to calculate royalty payout",
          "_tokenId": "token id corresponding to the token of which to get royalty information"
        }
      },
      "royaltyPayoutAddress(uint256)": {
        "details": "basic public getter method for royalty payout address ",
        "params": {
          "_tokenId": "identifier of token to get royalty payout address for"
        },
        "returns": {
          "_0": "royalty payout address of given tokenId"
        }
      },
      "safeTransferFrom(address,address,uint256)": {
        "details": "See {IERC721-safeTransferFrom}."
      },
      "safeTransferFrom(address,address,uint256,bytes)": {
        "details": "See {IERC721-safeTransferFrom}."
      },
      "setApprovalForAll(address,bool)": {
        "details": "See {IERC721-setApprovalForAll}."
      },
      "supportsInterface(bytes4)": {
        "details": "override ",
        "params": {
          "interfaceId": "id of interface to check"
        }
      },
      "symbol()": {
        "details": "See {IERC721Metadata-symbol}."
      },
      "tokenURI(uint256)": {
        "details": "override function, returns metadataURI of token stored in tokenData",
        "params": {
          "_tokenId": "token id corresponding to the token of which to get metadata from"
        },
        "returns": {
          "_0": "string containing metadata URI (example: 'ipfs:///...')"
        }
      },
      "transferFrom(address,address,uint256)": {
        "details": "See {IERC721-transferFrom}."
      },
      "transferOwnership(address)": {
        "details": "Transfers ownership of the contract to a new account (`newOwner`). Can only be called by the current owner."
      },
      "updateContentURI(uint256,(string,bytes32))": {
        "details": "access controlled function, restricted to owner/admim.",
        "params": {
          "_content": "struct containing new/updated contentURI and hash.",
          "_tokenId": "token id corresponding to the token to update"
        }
      },
      "updateCreator(uint256,address)": {
        "details": "access controlled function, restricted to owner/admim. used in case of compromised artist wallet.",
        "params": {
          "_creator": "address new creator of the token",
          "_tokenId": "token id corresponding to the token to update"
        }
      },
      "updateMetadataURI(uint256,string)": {
        "details": "access controlled, restricted to creator of token",
        "params": {
          "_metadataURI": "string containing new/updated metadata (e.g IPFS URI pointing to metadata.json)",
          "_tokenId": "token id corresponding to the token to update"
        }
      },
      "updateRoot(bytes32)": {
        "details": "access controlled function, restricted to owner/admim.",
        "params": {
          "_newRoot": "containing the new root hash, generated off-chain"
        }
      },
      "updateRoyaltyInfo(uint256,address)": {
        "details": "access controlled to owner only, subject to change.  this function allows for emergency royalty control (i.e compromised wallet)",
        "params": {
          "_royaltyPayoutAddress": "address of new royalty payout address",
          "_tokenId": "token id corresponding to the token of which to update royalty payout"
        }
      },
      "upgradeTo(address)": {
        "details": "Upgrade the implementation of the proxy to `newImplementation`. Calls {_authorizeUpgrade}. Emits an {Upgraded} event."
      },
      "upgradeToAndCall(address,bytes)": {
        "details": "Upgrade the implementation of the proxy to `newImplementation`, and subsequently execute the function call encoded in `data`. Calls {_authorizeUpgrade}. Emits an {Upgraded} event."
      }
    },
    "title": ":   Catalog",
    "version": 1
  },
  "userdoc": {
    "kind": "user",
    "methods": {
      "burn(uint256)": {
        "notice": "Burns a token, given input tokenId"
      },
      "creator(uint256)": {
        "notice": "returns the creator address of a given tokenId"
      },
      "initialize(string,string)": {
        "notice": "Initializes contract with default values, acts as a constructor"
      },
      "merkleRoot()": {
        "notice": "Merkle Root"
      },
      "mint((string,address,address,uint16),(string,bytes32),bytes32[])": {
        "notice": "mints a new token"
      },
      "royaltyInfo(uint256,uint256)": {
        "notice": "override function gets royalty information for a token (EIP-2981)"
      },
      "royaltyPayoutAddress(uint256)": {
        "notice": "gets the address of the royalty payout for a token"
      },
      "supportsInterface(bytes4)": {
        "notice": "override function to check if contract supports an interface"
      },
      "tokenURI(uint256)": {
        "notice": "override function to get the URI of a token. returns stored metadataURI"
      },
      "updateContentURI(uint256,(string,bytes32))": {
        "notice": "Emits an event to be used track content updates on a token"
      },
      "updateCreator(uint256,address)": {
        "notice": "updates the creator of a token, emits an event"
      },
      "updateMetadataURI(uint256,string)": {
        "notice": "updates the metadata URI of a token, emits an event"
      },
      "updateRoot(bytes32)": {
        "notice": "updates the merkleroot of the allowlistthis function is inherits from Angela.sol, and may not be necessary depending on role based configuration."
      },
      "updateRoyaltyInfo(uint256,address)": {
        "notice": "updates the royalty payout address and royalty BPS of a token, emits an event"
      }
    },
    "notice": "-------------------------------------------------------------------------------------------------------------------- ,, .g8\"\"\"bgd         mm            `7MM .dP'     `M         MM              MM dM'       ` ,6\"Yb.mmMMmm  ,6\"Yb.    MM  ,pW\"Wq.   .P\"Ybmmm MM         8)   MM  MM   8)   MM    MM 6W'   `Wb :MI  I8 MM.         ,pm9MM  MM    ,pm9MM    MM 8M     M8  WmmmP\" `Mb.     ,'8M   MM  MM   8M   MM    MM YA.   ,A9 8M `\"bmmmd' `Moo9^Yo.`Mbmo`Moo9^Yo..JMML.`Ybmd9'   YMMMMMb 6'     dP Ybmmmd'************************************************ LEGAL DISCLAIMER: https://catalog.works/terms************************************************ ---------------------------------------------------------------------------------------------------------------------                                                                                                                                                                                                                                                                                                                           :   Catalog Shared Creator Contract",
    "version": 1
  },
  "storageLayout": {
    "storage": [
      {
        "astId": 538,
        "contract": "contracts/catalog/Catalog.sol:Catalog",
        "label": "_initialized",
        "offset": 0,
        "slot": "0",
        "type": "t_bool"
      },
      {
        "astId": 541,
        "contract": "contracts/catalog/Catalog.sol:Catalog",
        "label": "_initializing",
        "offset": 1,
        "slot": "0",
        "type": "t_bool"
      },
      {
        "astId": 2077,
        "contract": "contracts/catalog/Catalog.sol:Catalog",
        "label": "__gap",
        "offset": 0,
        "slot": "1",
        "type": "t_array(t_uint256)50_storage"
      },
      {
        "astId": 2551,
        "contract": "contracts/catalog/Catalog.sol:Catalog",
        "label": "__gap",
        "offset": 0,
        "slot": "51",
        "type": "t_array(t_uint256)50_storage"
      },
      {
        "astId": 770,
        "contract": "contracts/catalog/Catalog.sol:Catalog",
        "label": "_name",
        "offset": 0,
        "slot": "101",
        "type": "t_string_storage"
      },
      {
        "astId": 772,
        "contract": "contracts/catalog/Catalog.sol:Catalog",
        "label": "_symbol",
        "offset": 0,
        "slot": "102",
        "type": "t_string_storage"
      },
      {
        "astId": 776,
        "contract": "contracts/catalog/Catalog.sol:Catalog",
        "label": "_owners",
        "offset": 0,
        "slot": "103",
        "type": "t_mapping(t_uint256,t_address)"
      },
      {
        "astId": 780,
        "contract": "contracts/catalog/Catalog.sol:Catalog",
        "label": "_balances",
        "offset": 0,
        "slot": "104",
        "type": "t_mapping(t_address,t_uint256)"
      },
      {
        "astId": 784,
        "contract": "contracts/catalog/Catalog.sol:Catalog",
        "label": "_tokenApprovals",
        "offset": 0,
        "slot": "105",
        "type": "t_mapping(t_uint256,t_address)"
      },
      {
        "astId": 790,
        "contract": "contracts/catalog/Catalog.sol:Catalog",
        "label": "_operatorApprovals",
        "offset": 0,
        "slot": "106",
        "type": "t_mapping(t_address,t_mapping(t_address,t_bool))"
      },
      {
        "astId": 1631,
        "contract": "contracts/catalog/Catalog.sol:Catalog",
        "label": "__gap",
        "offset": 0,
        "slot": "107",
        "type": "t_array(t_uint256)44_storage"
      },
      {
        "astId": 10,
        "contract": "contracts/catalog/Catalog.sol:Catalog",
        "label": "_owner",
        "offset": 0,
        "slot": "151",
        "type": "t_address"
      },
      {
        "astId": 122,
        "contract": "contracts/catalog/Catalog.sol:Catalog",
        "label": "__gap",
        "offset": 0,
        "slot": "152",
        "type": "t_array(t_uint256)49_storage"
      },
      {
        "astId": 520,
        "contract": "contracts/catalog/Catalog.sol:Catalog",
        "label": "__gap",
        "offset": 0,
        "slot": "201",
        "type": "t_array(t_uint256)50_storage"
      },
      {
        "astId": 740,
        "contract": "contracts/catalog/Catalog.sol:Catalog",
        "label": "__gap",
        "offset": 0,
        "slot": "251",
        "type": "t_array(t_uint256)50_storage"
      },
      {
        "astId": 2642,
        "contract": "contracts/catalog/Catalog.sol:Catalog",
        "label": "tokenData",
        "offset": 0,
        "slot": "301",
        "type": "t_mapping(t_uint256,t_struct(TokenData)2631_storage)"
      },
      {
        "astId": 2646,
        "contract": "contracts/catalog/Catalog.sol:Catalog",
        "label": "_tokenIdCounter",
        "offset": 0,
        "slot": "302",
        "type": "t_struct(Counter)2084_storage"
      },
      {
        "astId": 2649,
        "contract": "contracts/catalog/Catalog.sol:Catalog",
        "label": "merkleRoot",
        "offset": 0,
        "slot": "303",
        "type": "t_bytes32"
      }
    ],
    "types": {
      "t_address": {
        "encoding": "inplace",
        "label": "address",
        "numberOfBytes": "20"
      },
      "t_array(t_uint256)44_storage": {
        "base": "t_uint256",
        "encoding": "inplace",
        "label": "uint256[44]",
        "numberOfBytes": "1408"
      },
      "t_array(t_uint256)49_storage": {
        "base": "t_uint256",
        "encoding": "inplace",
        "label": "uint256[49]",
        "numberOfBytes": "1568"
      },
      "t_array(t_uint256)50_storage": {
        "base": "t_uint256",
        "encoding": "inplace",
        "label": "uint256[50]",
        "numberOfBytes": "1600"
      },
      "t_bool": {
        "encoding": "inplace",
        "label": "bool",
        "numberOfBytes": "1"
      },
      "t_bytes32": {
        "encoding": "inplace",
        "label": "bytes32",
        "numberOfBytes": "32"
      },
      "t_mapping(t_address,t_bool)": {
        "encoding": "mapping",
        "key": "t_address",
        "label": "mapping(address => bool)",
        "numberOfBytes": "32",
        "value": "t_bool"
      },
      "t_mapping(t_address,t_mapping(t_address,t_bool))": {
        "encoding": "mapping",
        "key": "t_address",
        "label": "mapping(address => mapping(address => bool))",
        "numberOfBytes": "32",
        "value": "t_mapping(t_address,t_bool)"
      },
      "t_mapping(t_address,t_uint256)": {
        "encoding": "mapping",
        "key": "t_address",
        "label": "mapping(address => uint256)",
        "numberOfBytes": "32",
        "value": "t_uint256"
      },
      "t_mapping(t_uint256,t_address)": {
        "encoding": "mapping",
        "key": "t_uint256",
        "label": "mapping(uint256 => address)",
        "numberOfBytes": "32",
        "value": "t_address"
      },
      "t_mapping(t_uint256,t_struct(TokenData)2631_storage)": {
        "encoding": "mapping",
        "key": "t_uint256",
        "label": "mapping(uint256 => struct Catalog.TokenData)",
        "numberOfBytes": "32",
        "value": "t_struct(TokenData)2631_storage"
      },
      "t_string_storage": {
        "encoding": "bytes",
        "label": "string",
        "numberOfBytes": "32"
      },
      "t_struct(Counter)2084_storage": {
        "encoding": "inplace",
        "label": "struct CountersUpgradeable.Counter",
        "members": [
          {
            "astId": 2083,
            "contract": "contracts/catalog/Catalog.sol:Catalog",
            "label": "_value",
            "offset": 0,
            "slot": "0",
            "type": "t_uint256"
          }
        ],
        "numberOfBytes": "32"
      },
      "t_struct(TokenData)2631_storage": {
        "encoding": "inplace",
        "label": "struct Catalog.TokenData",
        "members": [
          {
            "astId": 2624,
            "contract": "contracts/catalog/Catalog.sol:Catalog",
            "label": "metadataURI",
            "offset": 0,
            "slot": "0",
            "type": "t_string_storage"
          },
          {
            "astId": 2626,
            "contract": "contracts/catalog/Catalog.sol:Catalog",
            "label": "creator",
            "offset": 0,
            "slot": "1",
            "type": "t_address"
          },
          {
            "astId": 2628,
            "contract": "contracts/catalog/Catalog.sol:Catalog",
            "label": "royaltyPayout",
            "offset": 0,
            "slot": "2",
            "type": "t_address"
          },
          {
            "astId": 2630,
            "contract": "contracts/catalog/Catalog.sol:Catalog",
            "label": "royaltyBPS",
            "offset": 20,
            "slot": "2",
            "type": "t_uint16"
          }
        ],
        "numberOfBytes": "96"
      },
      "t_uint16": {
        "encoding": "inplace",
        "label": "uint16",
        "numberOfBytes": "2"
      },
      "t_uint256": {
        "encoding": "inplace",
        "label": "uint256",
        "numberOfBytes": "32"
      }
    }
  }
}