{
  "address": "0x159dbb36B8A169928D3Ff32e17E8a96Da072A58E",
  "abi": [
    {
      "anonymous": false,
      "inputs": [
        {
          "indexed": true,
          "internalType": "address",
          "name": "owner",
          "type": "address"
        },
        {
          "indexed": true,
          "internalType": "address",
          "name": "approved",
          "type": "address"
        },
        {
          "indexed": true,
          "internalType": "uint256",
          "name": "tokenId",
          "type": "uint256"
        }
      ],
      "name": "Approval",
      "type": "event"
    },
    {
      "anonymous": false,
      "inputs": [
        {
          "indexed": true,
          "internalType": "address",
          "name": "owner",
          "type": "address"
        },
        {
          "indexed": true,
          "internalType": "address",
          "name": "operator",
          "type": "address"
        },
        {
          "indexed": false,
          "internalType": "bool",
          "name": "approved",
          "type": "bool"
        }
      ],
      "name": "ApprovalForAll",
      "type": "event"
    },
    {
      "anonymous": false,
      "inputs": [
        {
          "indexed": true,
          "internalType": "uint256",
          "name": "tokenId",
          "type": "uint256"
        },
        {
          "indexed": false,
          "internalType": "string",
          "name": "metadataUri",
          "type": "string"
        }
      ],
      "name": "MetadataUpdated",
      "type": "event"
    },
    {
      "anonymous": false,
      "inputs": [
        {
          "indexed": true,
          "internalType": "address",
          "name": "previousOwner",
          "type": "address"
        },
        {
          "indexed": true,
          "internalType": "address",
          "name": "newOwner",
          "type": "address"
        }
      ],
      "name": "OwnershipTransferred",
      "type": "event"
    },
    {
      "anonymous": false,
      "inputs": [
        {
          "indexed": true,
          "internalType": "uint256",
          "name": "tokenId",
          "type": "uint256"
        },
        {
          "indexed": false,
          "internalType": "address",
          "name": "payout",
          "type": "address"
        }
      ],
      "name": "RoyaltyUpdated",
      "type": "event"
    },
    {
      "anonymous": false,
      "inputs": [
        {
          "indexed": true,
          "internalType": "address",
          "name": "from",
          "type": "address"
        },
        {
          "indexed": true,
          "internalType": "address",
          "name": "to",
          "type": "address"
        },
        {
          "indexed": true,
          "internalType": "uint256",
          "name": "tokenId",
          "type": "uint256"
        }
      ],
      "name": "Transfer",
      "type": "event"
    },
    {
      "inputs": [
        {
          "internalType": "address",
          "name": "to",
          "type": "address"
        },
        {
          "internalType": "uint256",
          "name": "tokenId",
          "type": "uint256"
        }
      ],
      "name": "approve",
      "outputs": [],
      "stateMutability": "nonpayable",
      "type": "function"
    },
    {
      "inputs": [
        {
          "internalType": "address",
          "name": "owner",
          "type": "address"
        }
      ],
      "name": "balanceOf",
      "outputs": [
        {
          "internalType": "uint256",
          "name": "",
          "type": "uint256"
        }
      ],
      "stateMutability": "view",
      "type": "function"
    },
    {
      "inputs": [
        {
          "internalType": "uint256",
          "name": "tokenId",
          "type": "uint256"
        }
      ],
      "name": "burn",
      "outputs": [],
      "stateMutability": "nonpayable",
      "type": "function"
    },
    {
      "inputs": [
        {
          "internalType": "uint256",
          "name": "tokenId",
          "type": "uint256"
        }
      ],
      "name": "content",
      "outputs": [
        {
          "components": [
            {
              "internalType": "string",
              "name": "uri",
              "type": "string"
            },
            {
              "internalType": "bytes32",
              "name": "hash",
              "type": "bytes32"
            },
            {
              "internalType": "string",
              "name": "mime",
              "type": "string"
            },
            {
              "internalType": "string",
              "name": "content",
              "type": "string"
            }
          ],
          "internalType": "struct ContentData",
          "name": "",
          "type": "tuple"
        }
      ],
      "stateMutability": "nonpayable",
      "type": "function"
    },
    {
      "inputs": [
        {
          "internalType": "uint256",
          "name": "tokenId",
          "type": "uint256"
        }
      ],
      "name": "getApproved",
      "outputs": [
        {
          "internalType": "address",
          "name": "",
          "type": "address"
        }
      ],
      "stateMutability": "view",
      "type": "function"
    },
    {
      "inputs": [
        {
          "internalType": "string",
          "name": "_name",
          "type": "string"
        },
        {
          "internalType": "string",
          "name": "_symbol",
          "type": "string"
        }
      ],
      "name": "initialize",
      "outputs": [],
      "stateMutability": "nonpayable",
      "type": "function"
    },
    {
      "inputs": [
        {
          "internalType": "address",
          "name": "owner",
          "type": "address"
        },
        {
          "internalType": "address",
          "name": "operator",
          "type": "address"
        }
      ],
      "name": "isApprovedForAll",
      "outputs": [
        {
          "internalType": "bool",
          "name": "",
          "type": "bool"
        }
      ],
      "stateMutability": "view",
      "type": "function"
    },
    {
      "inputs": [
        {
          "internalType": "string",
          "name": "contentUri",
          "type": "string"
        },
        {
          "internalType": "bytes32",
          "name": "_contentHash",
          "type": "bytes32"
        },
        {
          "internalType": "string",
          "name": "metadataUri",
          "type": "string"
        },
        {
          "internalType": "address",
          "name": "payout",
          "type": "address"
        },
        {
          "internalType": "uint16",
          "name": "royaltyBps",
          "type": "uint16"
        },
        {
          "internalType": "bytes32[]",
          "name": "merkleProof",
          "type": "bytes32[]"
        },
        {
          "internalType": "address[]",
          "name": "creators",
          "type": "address[]"
        }
      ],
      "name": "mint",
      "outputs": [
        {
          "internalType": "uint256",
          "name": "",
          "type": "uint256"
        }
      ],
      "stateMutability": "nonpayable",
      "type": "function"
    },
    {
      "inputs": [],
      "name": "name",
      "outputs": [
        {
          "internalType": "string",
          "name": "",
          "type": "string"
        }
      ],
      "stateMutability": "view",
      "type": "function"
    },
    {
      "inputs": [],
      "name": "owner",
      "outputs": [
        {
          "internalType": "address",
          "name": "",
          "type": "address"
        }
      ],
      "stateMutability": "view",
      "type": "function"
    },
    {
      "inputs": [
        {
          "internalType": "uint256",
          "name": "tokenId",
          "type": "uint256"
        }
      ],
      "name": "ownerOf",
      "outputs": [
        {
          "internalType": "address",
          "name": "",
          "type": "address"
        }
      ],
      "stateMutability": "view",
      "type": "function"
    },
    {
      "inputs": [],
      "name": "renounceOwnership",
      "outputs": [],
      "stateMutability": "nonpayable",
      "type": "function"
    },
    {
      "inputs": [
        {
          "internalType": "uint256",
          "name": "tokenId",
          "type": "uint256"
        },
        {
          "internalType": "uint256",
          "name": "salePrice",
          "type": "uint256"
        }
      ],
      "name": "royaltyInfo",
      "outputs": [
        {
          "internalType": "address",
          "name": "receiver",
          "type": "address"
        },
        {
          "internalType": "uint256",
          "name": "royaltyAmount",
          "type": "uint256"
        }
      ],
      "stateMutability": "view",
      "type": "function"
    },
    {
      "inputs": [
        {
          "internalType": "address",
          "name": "from",
          "type": "address"
        },
        {
          "internalType": "address",
          "name": "to",
          "type": "address"
        },
        {
          "internalType": "uint256",
          "name": "tokenId",
          "type": "uint256"
        }
      ],
      "name": "safeTransferFrom",
      "outputs": [],
      "stateMutability": "nonpayable",
      "type": "function"
    },
    {
      "inputs": [
        {
          "internalType": "address",
          "name": "from",
          "type": "address"
        },
        {
          "internalType": "address",
          "name": "to",
          "type": "address"
        },
        {
          "internalType": "uint256",
          "name": "tokenId",
          "type": "uint256"
        },
        {
          "internalType": "bytes",
          "name": "_data",
          "type": "bytes"
        }
      ],
      "name": "safeTransferFrom",
      "outputs": [],
      "stateMutability": "nonpayable",
      "type": "function"
    },
    {
      "inputs": [
        {
          "internalType": "bytes32",
          "name": "root",
          "type": "bytes32"
        }
      ],
      "name": "setAllowedMintersRoot",
      "outputs": [],
      "stateMutability": "nonpayable",
      "type": "function"
    },
    {
      "inputs": [
        {
          "internalType": "address",
          "name": "operator",
          "type": "address"
        },
        {
          "internalType": "bool",
          "name": "approved",
          "type": "bool"
        }
      ],
      "name": "setApprovalForAll",
      "outputs": [],
      "stateMutability": "nonpayable",
      "type": "function"
    },
    {
      "inputs": [
        {
          "internalType": "uint256",
          "name": "tokenId",
          "type": "uint256"
        },
        {
          "internalType": "address",
          "name": "newReceiver",
          "type": "address"
        }
      ],
      "name": "setTokenPayoutAdmin",
      "outputs": [],
      "stateMutability": "nonpayable",
      "type": "function"
    },
    {
      "inputs": [
        {
          "internalType": "bytes4",
          "name": "interfaceId",
          "type": "bytes4"
        }
      ],
      "name": "supportsInterface",
      "outputs": [
        {
          "internalType": "bool",
          "name": "",
          "type": "bool"
        }
      ],
      "stateMutability": "view",
      "type": "function"
    },
    {
      "inputs": [],
      "name": "symbol",
      "outputs": [
        {
          "internalType": "string",
          "name": "",
          "type": "string"
        }
      ],
      "stateMutability": "view",
      "type": "function"
    },
    {
      "inputs": [
        {
          "internalType": "uint256",
          "name": "tokenId",
          "type": "uint256"
        }
      ],
      "name": "tokenURI",
      "outputs": [
        {
          "internalType": "string",
          "name": "",
          "type": "string"
        }
      ],
      "stateMutability": "view",
      "type": "function"
    },
    {
      "inputs": [
        {
          "internalType": "address",
          "name": "from",
          "type": "address"
        },
        {
          "internalType": "address",
          "name": "to",
          "type": "address"
        },
        {
          "internalType": "uint256",
          "name": "tokenId",
          "type": "uint256"
        }
      ],
      "name": "transferFrom",
      "outputs": [],
      "stateMutability": "nonpayable",
      "type": "function"
    },
    {
      "inputs": [
        {
          "internalType": "address",
          "name": "newOwner",
          "type": "address"
        }
      ],
      "name": "transferOwnership",
      "outputs": [],
      "stateMutability": "nonpayable",
      "type": "function"
    },
    {
      "inputs": [
        {
          "internalType": "uint256",
          "name": "tokenId",
          "type": "uint256"
        },
        {
          "internalType": "string",
          "name": "newMetadataUri",
          "type": "string"
        }
      ],
      "name": "updateMetadataUri",
      "outputs": [],
      "stateMutability": "nonpayable",
      "type": "function"
    }
  ],
  "transactionHash": "0xe061d9aaffdfd60788d29e109c22ba33a54acc8a889be72d8a7b29c7c60e20da",
  "args": [],
  "solcInputHash": "78d14869a08985d80fc9c3af002974f2",
  "bytecode": "0x608060405234801561001057600080fd5b50612270806100206000396000f3fe608060405234801561001057600080fd5b50600436106101585760003560e01c806370a08231116100c3578063b88d4fde1161007c578063b88d4fde146102f0578063baa0b80614610303578063c87b56dd14610323578063e8b7388714610336578063e985e9c514610349578063f2fde38b1461035c57600080fd5b806370a0823114610291578063715018a6146102b25780638da5cb5b146102ba57806395d89b41146102c2578063a22cb465146102ca578063b2a28bb8146102dd57600080fd5b806342842e0e1161011557806342842e0e1461021f57806342966c68146102325780634cd88b7614610245578063593d624f146102585780635ac704401461026b5780636352211e1461027e57600080fd5b806301ffc9a71461015d57806306fdde0314610185578063081812fc1461019a578063095ea7b3146101c557806323b872dd146101da5780632a55205a146101ed575b600080fd5b61017061016b366004611c97565b61036f565b60405190151581526020015b60405180910390f35b61018d6103b6565b60405161017c9190611f27565b6101ad6101a8366004611c7e565b610448565b6040516001600160a01b03909116815260200161017c565b6101d86101d3366004611c54565b6104d5565b005b6101d86101e8366004611b60565b6105e6565b6102006101fb366004611e7b565b610617565b604080516001600160a01b03909316835260208301919091520161017c565b6101d861022d366004611b60565b610665565b6101d8610240366004611c7e565b610680565b6101d8610253366004611db7565b6106d0565b6101d8610266366004611c7e565b61074f565b6101d8610279366004611e3e565b610783565b6101ad61028c366004611c7e565b610835565b6102a461029f366004611b12565b6108ac565b60405190815260200161017c565b6101d8610933565b6101ad61096e565b61018d61097d565b6101d86102d8366004611c18565b61098c565b6101d86102eb366004611e1b565b61099b565b6101d86102fe366004611b9c565b610a31565b610316610311366004611c7e565b610a63565b60405161017c9190612097565b61018d610331366004611c7e565b610b6f565b6102a4610344366004611cd1565b610c37565b610170610357366004611b2d565b610e57565b6101d861036a366004611b12565b610e85565b600061037a82610f22565b8061039557506001600160e01b0319821663152a902d60e11b145b806103b057506001600160e01b03198216635d505c0360e11b145b92915050565b6060609780546103c590612172565b80601f01602080910402602001604051908101604052809291908181526020018280546103f190612172565b801561043e5780601f106104135761010080835404028352916020019161043e565b820191906000526020600020905b81548152906001019060200180831161042157829003601f168201915b5050505050905090565b600061045382610f72565b6104b95760405162461bcd60e51b815260206004820152602c60248201527f4552433732313a20617070726f76656420717565727920666f72206e6f6e657860448201526b34b9ba32b73a103a37b5b2b760a11b60648201526084015b60405180910390fd5b506000908152609b60205260409020546001600160a01b031690565b60006104e082610835565b9050806001600160a01b0316836001600160a01b0316141561054e5760405162461bcd60e51b815260206004820152602160248201527f4552433732313a20617070726f76616c20746f2063757272656e74206f776e656044820152603960f91b60648201526084016104b0565b336001600160a01b038216148061056a575061056a8133610e57565b6105d75760405162461bcd60e51b815260206004820152603860248201527f4552433732313a20617070726f76652063616c6c6572206973206e6f74206f776044820152771b995c881b9bdc88185c1c1c9bdd995908199bdc88185b1b60421b60648201526084016104b0565b6105e18383610f8f565b505050565b6105f03382610ffd565b61060c5760405162461bcd60e51b81526004016104b090612046565b6105e18383836110c7565b600082815260c9602052604081206003015481906001600160a01b038116906127109061064f90600160a01b900461ffff168661213c565b610659919061211a565b915091505b9250929050565b6105e183838360405180602001604052806000815250610a31565b61068a3382610ffd565b6106c45760405162461bcd60e51b815260206004820152600b60248201526a139bdd08185b1b1bddd95960aa1b60448201526064016104b0565b6106cd81611255565b50565b600054610100900460ff16806106e9575060005460ff16155b6107055760405162461bcd60e51b81526004016104b090611fc3565b600054610100900460ff16158015610727576000805461ffff19166101011790555b61073183836112de565b61073961134f565b80156105e1576000805461ff0019169055505050565b3361075861096e565b6001600160a01b03161461077e5760405162461bcd60e51b81526004016104b090612011565b60ca55565b8161078d81610f72565b6107a95760405162461bcd60e51b81526004016104b090611f3a565b336107b261096e565b6001600160a01b0316146107d85760405162461bcd60e51b81526004016104b090612011565b827f459157ba24c7ab9878b165ef465fa6ae2ab42bcd8445f576be378768b0c47309836040516108089190611f27565b60405180910390a2600083815260c960209081526040909120835161082f92850190611969565b50505050565b6000818152609960205260408120546001600160a01b0316806103b05760405162461bcd60e51b815260206004820152602960248201527f4552433732313a206f776e657220717565727920666f72206e6f6e657869737460448201526832b73a103a37b5b2b760b91b60648201526084016104b0565b60006001600160a01b0382166109175760405162461bcd60e51b815260206004820152602a60248201527f4552433732313a2062616c616e636520717565727920666f7220746865207a65604482015269726f206164647265737360b01b60648201526084016104b0565b506001600160a01b03166000908152609a602052604090205490565b3361093c61096e565b6001600160a01b0316146109625760405162461bcd60e51b81526004016104b090612011565b61096c60006113ca565b565b6033546001600160a01b031690565b6060609880546103c590612172565b61099733838361141c565b5050565b336109a461096e565b6001600160a01b0316146109ca5760405162461bcd60e51b81526004016104b090612011565b600082815260c9602090815260409182902060030180546001600160a01b0319166001600160a01b038516908117909155915191825283917f13ceafb5e8ec39102bd452913a5c00a05f3b060d636d3a567c1c80e8b4321fe7910160405180910390a25050565b610a3b3383610ffd565b610a575760405162461bcd60e51b81526004016104b090612046565b61082f848484846114e7565b6040805160808101825260608082526000602083015291810182905281810191909152604051806080016040528060c960008581526020019081526020016000206001018054610ab290612172565b80601f0160208091040260200160405190810160405280929190818152602001828054610ade90612172565b8015610b2b5780601f10610b0057610100808354040283529160200191610b2b565b820191906000526020600020905b815481529060010190602001808311610b0e57829003601f168201915b5050509183525050600093845260c9602090815260408086206002015482840152805180830182528681528184015280519182019052938452606001929092525090565b606081610b7b81610f72565b610b975760405162461bcd60e51b81526004016104b090611f3a565b600083815260c9602052604090208054610bb090612172565b80601f0160208091040260200160405190810160405280929190818152602001828054610bdc90612172565b8015610c295780601f10610bfe57610100808354040283529160200191610c29565b820191906000526020600020905b815481529060010190602001808311610c0c57829003601f168201915b505050505091505b50919050565b6040516bffffffffffffffffffffffff193360601b166020820152600090859085908390603401604051602081830303815290604052805190602001209050610cb78383808060200260200160405190810160405280939291908181526020018383602002808284376000920191909152505060ca54915084905061151a565b610cf15760405162461bcd60e51b815260206004820152600b60248201526a27b7363c9036b4b73a32b960a91b60448201526064016104b0565b6127108961ffff1610610d5d5760405162461bcd60e51b815260206004820152602e60248201527f526f79616c7479206e6565647320746f206265206c657373207468616e20313060448201526d303030206270732028313030252960901b60648201526084016104b0565b6000610d6860cb5490565b9050610d743382611530565b6040518060a001604052808d81526020018f81526020018e81526020018c6001600160a01b031681526020018b61ffff1681525060c960008381526020019081526020016000206000820151816000019080519060200190610dd7929190611969565b506020828101518051610df09260018501920190611969565b506040820151600282015560608201516003909101805460809093015161ffff16600160a01b026001600160b01b03199093166001600160a01b0390921691909117919091179055610e4660cb80546001019055565b9d9c50505050505050505050505050565b6001600160a01b039182166000908152609c6020908152604080832093909416825291909152205460ff1690565b33610e8e61096e565b6001600160a01b031614610eb45760405162461bcd60e51b81526004016104b090612011565b6001600160a01b038116610f195760405162461bcd60e51b815260206004820152602660248201527f4f776e61626c653a206e6577206f776e657220697320746865207a65726f206160448201526564647265737360d01b60648201526084016104b0565b6106cd816113ca565b60006001600160e01b031982166380ac58cd60e01b1480610f5357506001600160e01b03198216635b5e139f60e01b145b806103b057506301ffc9a760e01b6001600160e01b03198316146103b0565b6000908152609960205260409020546001600160a01b0316151590565b6000818152609b6020526040902080546001600160a01b0319166001600160a01b0384169081179091558190610fc482610835565b6001600160a01b03167f8c5be1e5ebec7d5bd14f71427d1e84f3dd0314c0f7b2291e5b200ac8c7c3b92560405160405180910390a45050565b600061100882610f72565b6110695760405162461bcd60e51b815260206004820152602c60248201527f4552433732313a206f70657261746f7220717565727920666f72206e6f6e657860448201526b34b9ba32b73a103a37b5b2b760a11b60648201526084016104b0565b600061107483610835565b9050806001600160a01b0316846001600160a01b031614806110af5750836001600160a01b03166110a484610448565b6001600160a01b0316145b806110bf57506110bf8185610e57565b949350505050565b826001600160a01b03166110da82610835565b6001600160a01b0316146111425760405162461bcd60e51b815260206004820152602960248201527f4552433732313a207472616e73666572206f6620746f6b656e2074686174206960448201526839903737ba1037bbb760b91b60648201526084016104b0565b6001600160a01b0382166111a45760405162461bcd60e51b8152602060048201526024808201527f4552433732313a207472616e7366657220746f20746865207a65726f206164646044820152637265737360e01b60648201526084016104b0565b6111af600082610f8f565b6001600160a01b0383166000908152609a602052604081208054600192906111d890849061215b565b90915550506001600160a01b0382166000908152609a60205260408120805460019290611206908490612102565b909155505060008181526099602052604080822080546001600160a01b0319166001600160a01b03868116918217909255915184939187169160008051602061221b83398151915291a4505050565b600061126082610835565b905061126d600083610f8f565b6001600160a01b0381166000908152609a6020526040812080546001929061129690849061215b565b909155505060008281526099602052604080822080546001600160a01b0319169055518391906001600160a01b0384169060008051602061221b833981519152908390a45050565b600054610100900460ff16806112f7575060005460ff16155b6113135760405162461bcd60e51b81526004016104b090611fc3565b600054610100900460ff16158015611335576000805461ffff19166101011790555b61133d611651565b611345611651565b61073983836116bb565b600054610100900460ff1680611368575060005460ff16155b6113845760405162461bcd60e51b81526004016104b090611fc3565b600054610100900460ff161580156113a6576000805461ffff19166101011790555b6113ae611651565b6113b6611750565b80156106cd576000805461ff001916905550565b603380546001600160a01b038381166001600160a01b0319831681179093556040519116919082907f8be0079c531659141344cd1fd0a4f28419497f9722a3daafe3b4186f6b6457e090600090a35050565b816001600160a01b0316836001600160a01b0316141561147a5760405162461bcd60e51b815260206004820152601960248201527822a9219b99189d1030b8383937bb32903a379031b0b63632b960391b60448201526064016104b0565b6001600160a01b038381166000818152609c6020908152604080832094871680845294825291829020805460ff191686151590811790915591519182527f17307eab39ab6107e8899845ad3d59bd9653f200f220920489ca2b5937696c31910160405180910390a3505050565b6114f28484846110c7565b6114fe848484846117b0565b61082f5760405162461bcd60e51b81526004016104b090611f71565b60008261152785846118bd565b14949350505050565b6001600160a01b0382166115865760405162461bcd60e51b815260206004820181905260248201527f4552433732313a206d696e7420746f20746865207a65726f206164647265737360448201526064016104b0565b61158f81610f72565b156115dc5760405162461bcd60e51b815260206004820152601c60248201527f4552433732313a20746f6b656e20616c7265616479206d696e7465640000000060448201526064016104b0565b6001600160a01b0382166000908152609a60205260408120805460019290611605908490612102565b909155505060008181526099602052604080822080546001600160a01b0319166001600160a01b038616908117909155905183929060008051602061221b833981519152908290a45050565b600054610100900460ff168061166a575060005460ff16155b6116865760405162461bcd60e51b81526004016104b090611fc3565b600054610100900460ff161580156113b6576000805461ffff191661010117905580156106cd576000805461ff001916905550565b600054610100900460ff16806116d4575060005460ff16155b6116f05760405162461bcd60e51b81526004016104b090611fc3565b600054610100900460ff16158015611712576000805461ffff19166101011790555b8251611725906097906020860190611969565b508151611739906098906020850190611969565b5080156105e1576000805461ff0019169055505050565b600054610100900460ff1680611769575060005460ff16155b6117855760405162461bcd60e51b81526004016104b090611fc3565b600054610100900460ff161580156117a7576000805461ffff19166101011790555b6113b6336113ca565b60006001600160a01b0384163b156118b257604051630a85bd0160e11b81526001600160a01b0385169063150b7a02906117f4903390899088908890600401611eea565b602060405180830381600087803b15801561180e57600080fd5b505af192505050801561183e575060408051601f3d908101601f1916820190925261183b91810190611cb4565b60015b611898573d80801561186c576040519150601f19603f3d011682016040523d82523d6000602084013e611871565b606091505b5080516118905760405162461bcd60e51b81526004016104b090611f71565b805181602001fd5b6001600160e01b031916630a85bd0160e11b1490506110bf565b506001949350505050565b600081815b84518110156119615760008582815181106118df576118df6121d8565b6020026020010151905080831161192157604080516020810185905290810182905260600160405160208183030381529060405280519060200120925061194e565b60408051602081018390529081018490526060016040516020818303038152906040528051906020012092505b5080611959816121a7565b9150506118c2565b509392505050565b82805461197590612172565b90600052602060002090601f01602090048101928261199757600085556119dd565b82601f106119b057805160ff19168380011785556119dd565b828001600101855582156119dd579182015b828111156119dd5782518255916020019190600101906119c2565b506119e99291506119ed565b5090565b5b808211156119e957600081556001016119ee565b600067ffffffffffffffff80841115611a1d57611a1d6121ee565b604051601f8501601f19908116603f01168101908282118183101715611a4557611a456121ee565b81604052809350858152868686011115611a5e57600080fd5b858560208301376000602087830101525050509392505050565b80356001600160a01b0381168114611a8f57600080fd5b919050565b60008083601f840112611aa657600080fd5b50813567ffffffffffffffff811115611abe57600080fd5b6020830191508360208260051b850101111561065e57600080fd5b600082601f830112611aea57600080fd5b611af983833560208501611a02565b9392505050565b803561ffff81168114611a8f57600080fd5b600060208284031215611b2457600080fd5b611af982611a78565b60008060408385031215611b4057600080fd5b611b4983611a78565b9150611b5760208401611a78565b90509250929050565b600080600060608486031215611b7557600080fd5b611b7e84611a78565b9250611b8c60208501611a78565b9150604084013590509250925092565b60008060008060808587031215611bb257600080fd5b611bbb85611a78565b9350611bc960208601611a78565b925060408501359150606085013567ffffffffffffffff811115611bec57600080fd5b8501601f81018713611bfd57600080fd5b611c0c87823560208401611a02565b91505092959194509250565b60008060408385031215611c2b57600080fd5b611c3483611a78565b915060208301358015158114611c4957600080fd5b809150509250929050565b60008060408385031215611c6757600080fd5b611c7083611a78565b946020939093013593505050565b600060208284031215611c9057600080fd5b5035919050565b600060208284031215611ca957600080fd5b8135611af981612204565b600060208284031215611cc657600080fd5b8151611af981612204565b600080600080600080600080600060e08a8c031215611cef57600080fd5b893567ffffffffffffffff80821115611d0757600080fd5b611d138d838e01611ad9565b9a5060208c0135995060408c0135915080821115611d3057600080fd5b611d3c8d838e01611ad9565b9850611d4a60608d01611a78565b9750611d5860808d01611b00565b965060a08c0135915080821115611d6e57600080fd5b611d7a8d838e01611a94565b909650945060c08c0135915080821115611d9357600080fd5b50611da08c828d01611a94565b915080935050809150509295985092959850929598565b60008060408385031215611dca57600080fd5b823567ffffffffffffffff80821115611de257600080fd5b611dee86838701611ad9565b93506020850135915080821115611e0457600080fd5b50611e1185828601611ad9565b9150509250929050565b60008060408385031215611e2e57600080fd5b82359150611b5760208401611a78565b60008060408385031215611e5157600080fd5b82359150602083013567ffffffffffffffff811115611e6f57600080fd5b611e1185828601611ad9565b60008060408385031215611e8e57600080fd5b50508035926020909101359150565b6000815180845260005b81811015611ec357602081850181015186830182015201611ea7565b81811115611ed5576000602083870101525b50601f01601f19169290920160200192915050565b6001600160a01b0385811682528416602082015260408101839052608060608201819052600090611f1d90830184611e9d565b9695505050505050565b602081526000611af96020830184611e9d565b6020808252601b908201527f517565727920666f72206e6f6e6578697374656e7420746f6b656e0000000000604082015260600190565b60208082526032908201527f4552433732313a207472616e7366657220746f206e6f6e20455243373231526560408201527131b2b4bb32b91034b6b83632b6b2b73a32b960711b606082015260800190565b6020808252602e908201527f496e697469616c697a61626c653a20636f6e747261637420697320616c72656160408201526d191e481a5b9a5d1a585b1a5e995960921b606082015260800190565b6020808252818101527f4f776e61626c653a2063616c6c6572206973206e6f7420746865206f776e6572604082015260600190565b60208082526031908201527f4552433732313a207472616e736665722063616c6c6572206973206e6f74206f6040820152701ddb995c881b9bdc88185c1c1c9bdd9959607a1b606082015260800190565b6020815260008251608060208401526120b360a0840182611e9d565b9050602084015160408401526040840151601f19808584030160608601526120db8383611e9d565b92506060860151915080858403016080860152506120f98282611e9d565b95945050505050565b60008219821115612115576121156121c2565b500190565b60008261213757634e487b7160e01b600052601260045260246000fd5b500490565b6000816000190483118215151615612156576121566121c2565b500290565b60008282101561216d5761216d6121c2565b500390565b600181811c9082168061218657607f821691505b60208210811415610c3157634e487b7160e01b600052602260045260246000fd5b60006000198214156121bb576121bb6121c2565b5060010190565b634e487b7160e01b600052601160045260246000fd5b634e487b7160e01b600052603260045260246000fd5b634e487b7160e01b600052604160045260246000fd5b6001600160e01b0319811681146106cd57600080fdfeddf252ad1be2c89b69c2b068fc378daa952ba7f163c4a11628f55a4df523b3efa2646970667358221220c9ed90163d5ec92df67db6740bc8f0278e0e090bc64cbc53dabe8f422fd1443b64736f6c63430008060033",
  "devdoc": {
    "kind": "dev",
    "methods": {
      "approve(address,uint256)": {
        "details": "See {IERC721-approve}."
      },
      "balanceOf(address)": {
        "details": "See {IERC721-balanceOf}."
      },
      "content(uint256)": {
        "params": {
          "tokenId": "token id to retrieve content for"
        },
        "returns": {
          "_0": "ContentData struct of content information"
        }
      },
      "getApproved(uint256)": {
        "details": "See {IERC721-getApproved}."
      },
      "initialize(string,string)": {
        "details": "Sets up ERC721 Token",
        "params": {
          "_name": "name of token",
          "_symbol": "symbol of token"
        }
      },
      "isApprovedForAll(address,address)": {
        "details": "See {IERC721-isApprovedForAll}."
      },
      "name()": {
        "details": "See {IERC721Metadata-name}."
      },
      "owner()": {
        "details": "Returns the address of the current owner."
      },
      "ownerOf(uint256)": {
        "details": "See {IERC721-ownerOf}."
      },
      "renounceOwnership()": {
        "details": "Leaves the contract without owner. It will not be possible to call `onlyOwner` functions anymore. Can only be called by the current owner. NOTE: Renouncing ownership will leave the contract without an owner, thereby removing any functionality that is only available to the owner."
      },
      "royaltyInfo(uint256,uint256)": {
        "details": "Called with the sale price to determine how much royalty is owed and to whom.",
        "params": {
          "salePrice": "- the sale price of the NFT asset specified by `tokenId`",
          "tokenId": "- the NFT asset queried for royalty information"
        },
        "returns": {
          "receiver": "- address of who should be sent the royalty payment",
          "royaltyAmount": "- the royalty payment amount for `salePrice`"
        }
      },
      "safeTransferFrom(address,address,uint256)": {
        "details": "See {IERC721-safeTransferFrom}."
      },
      "safeTransferFrom(address,address,uint256,bytes)": {
        "details": "See {IERC721-safeTransferFrom}."
      },
      "setApprovalForAll(address,bool)": {
        "details": "See {IERC721-setApprovalForAll}."
      },
      "setTokenPayoutAdmin(uint256,address)": {
        "params": {
          "newReceiver": "address new royalty receiver address"
        }
      },
      "supportsInterface(bytes4)": {
        "params": {
          "interfaceId": "interface id to see what is supported"
        }
      },
      "symbol()": {
        "details": "See {IERC721Metadata-symbol}."
      },
      "tokenURI(uint256)": {
        "params": {
          "tokenId": "token id to get uri for"
        }
      },
      "transferFrom(address,address,uint256)": {
        "details": "See {IERC721-transferFrom}."
      },
      "transferOwnership(address)": {
        "details": "Transfers ownership of the contract to a new account (`newOwner`). Can only be called by the current owner."
      },
      "updateMetadataUri(uint256,string)": {
        "params": {
          "newMetadataUri": "new metadata uri string",
          "tokenId": "token id to update the metadata for"
        }
      }
    },
    "version": 1
  },
  "userdoc": {
    "kind": "user",
    "methods": {
      "mint(string,bytes32,string,address,uint16,bytes32[],address[])": {
        "notice": "Mint from merkle proof"
      },
      "setTokenPayoutAdmin(uint256,address)": {
        "notice": "Only callable by owner"
      },
      "supportsInterface(bytes4)": {
        "notice": "Interface ERC165 spec calls"
      },
      "updateMetadataUri(uint256,string)": {
        "notice": "Updates the metadata uri to a new string for new schemas / adding licenses and metadata uri updates Only callable by the contract owner when they own the NFT or the creator when they own the NFT."
      }
    },
    "version": 1
  },
  "storageLayout": {
    "storage": [
      {
        "astId": 153,
        "contract": "contracts/zora/CatalogNFT.sol:CatalogNFT",
        "label": "_initialized",
        "offset": 0,
        "slot": "0",
        "type": "t_bool"
      },
      {
        "astId": 156,
        "contract": "contracts/zora/CatalogNFT.sol:CatalogNFT",
        "label": "_initializing",
        "offset": 1,
        "slot": "0",
        "type": "t_bool"
      },
      {
        "astId": 1503,
        "contract": "contracts/zora/CatalogNFT.sol:CatalogNFT",
        "label": "__gap",
        "offset": 0,
        "slot": "1",
        "type": "t_array(t_uint256)50_storage"
      },
      {
        "astId": 10,
        "contract": "contracts/zora/CatalogNFT.sol:CatalogNFT",
        "label": "_owner",
        "offset": 0,
        "slot": "51",
        "type": "t_address"
      },
      {
        "astId": 124,
        "contract": "contracts/zora/CatalogNFT.sol:CatalogNFT",
        "label": "__gap",
        "offset": 0,
        "slot": "52",
        "type": "t_array(t_uint256)49_storage"
      },
      {
        "astId": 1914,
        "contract": "contracts/zora/CatalogNFT.sol:CatalogNFT",
        "label": "__gap",
        "offset": 0,
        "slot": "101",
        "type": "t_array(t_uint256)50_storage"
      },
      {
        "astId": 222,
        "contract": "contracts/zora/CatalogNFT.sol:CatalogNFT",
        "label": "_name",
        "offset": 0,
        "slot": "151",
        "type": "t_string_storage"
      },
      {
        "astId": 224,
        "contract": "contracts/zora/CatalogNFT.sol:CatalogNFT",
        "label": "_symbol",
        "offset": 0,
        "slot": "152",
        "type": "t_string_storage"
      },
      {
        "astId": 228,
        "contract": "contracts/zora/CatalogNFT.sol:CatalogNFT",
        "label": "_owners",
        "offset": 0,
        "slot": "153",
        "type": "t_mapping(t_uint256,t_address)"
      },
      {
        "astId": 232,
        "contract": "contracts/zora/CatalogNFT.sol:CatalogNFT",
        "label": "_balances",
        "offset": 0,
        "slot": "154",
        "type": "t_mapping(t_address,t_uint256)"
      },
      {
        "astId": 236,
        "contract": "contracts/zora/CatalogNFT.sol:CatalogNFT",
        "label": "_tokenApprovals",
        "offset": 0,
        "slot": "155",
        "type": "t_mapping(t_uint256,t_address)"
      },
      {
        "astId": 242,
        "contract": "contracts/zora/CatalogNFT.sol:CatalogNFT",
        "label": "_operatorApprovals",
        "offset": 0,
        "slot": "156",
        "type": "t_mapping(t_address,t_mapping(t_address,t_bool))"
      },
      {
        "astId": 1053,
        "contract": "contracts/zora/CatalogNFT.sol:CatalogNFT",
        "label": "__gap",
        "offset": 0,
        "slot": "157",
        "type": "t_array(t_uint256)44_storage"
      },
      {
        "astId": 1985,
        "contract": "contracts/zora/CatalogNFT.sol:CatalogNFT",
        "label": "tokenInfo",
        "offset": 0,
        "slot": "201",
        "type": "t_mapping(t_uint256,t_struct(TokenInfo)1979_storage)"
      },
      {
        "astId": 1988,
        "contract": "contracts/zora/CatalogNFT.sol:CatalogNFT",
        "label": "allowedMintersRoot",
        "offset": 0,
        "slot": "202",
        "type": "t_bytes32"
      },
      {
        "astId": 1992,
        "contract": "contracts/zora/CatalogNFT.sol:CatalogNFT",
        "label": "tokenIdTracker",
        "offset": 0,
        "slot": "203",
        "type": "t_struct(Counter)1510_storage"
      }
    ],
    "types": {
      "t_address": {
        "encoding": "inplace",
        "label": "address",
        "numberOfBytes": "20"
      },
      "t_array(t_uint256)44_storage": {
        "base": "t_uint256",
        "encoding": "inplace",
        "label": "uint256[44]",
        "numberOfBytes": "1408"
      },
      "t_array(t_uint256)49_storage": {
        "base": "t_uint256",
        "encoding": "inplace",
        "label": "uint256[49]",
        "numberOfBytes": "1568"
      },
      "t_array(t_uint256)50_storage": {
        "base": "t_uint256",
        "encoding": "inplace",
        "label": "uint256[50]",
        "numberOfBytes": "1600"
      },
      "t_bool": {
        "encoding": "inplace",
        "label": "bool",
        "numberOfBytes": "1"
      },
      "t_bytes32": {
        "encoding": "inplace",
        "label": "bytes32",
        "numberOfBytes": "32"
      },
      "t_mapping(t_address,t_bool)": {
        "encoding": "mapping",
        "key": "t_address",
        "label": "mapping(address => bool)",
        "numberOfBytes": "32",
        "value": "t_bool"
      },
      "t_mapping(t_address,t_mapping(t_address,t_bool))": {
        "encoding": "mapping",
        "key": "t_address",
        "label": "mapping(address => mapping(address => bool))",
        "numberOfBytes": "32",
        "value": "t_mapping(t_address,t_bool)"
      },
      "t_mapping(t_address,t_uint256)": {
        "encoding": "mapping",
        "key": "t_address",
        "label": "mapping(address => uint256)",
        "numberOfBytes": "32",
        "value": "t_uint256"
      },
      "t_mapping(t_uint256,t_address)": {
        "encoding": "mapping",
        "key": "t_uint256",
        "label": "mapping(uint256 => address)",
        "numberOfBytes": "32",
        "value": "t_address"
      },
      "t_mapping(t_uint256,t_struct(TokenInfo)1979_storage)": {
        "encoding": "mapping",
        "key": "t_uint256",
        "label": "mapping(uint256 => struct CatalogNFT.TokenInfo)",
        "numberOfBytes": "32",
        "value": "t_struct(TokenInfo)1979_storage"
      },
      "t_string_storage": {
        "encoding": "bytes",
        "label": "string",
        "numberOfBytes": "32"
      },
      "t_struct(Counter)1510_storage": {
        "encoding": "inplace",
        "label": "struct CountersUpgradeable.Counter",
        "members": [
          {
            "astId": 1509,
            "contract": "contracts/zora/CatalogNFT.sol:CatalogNFT",
            "label": "_value",
            "offset": 0,
            "slot": "0",
            "type": "t_uint256"
          }
        ],
        "numberOfBytes": "32"
      },
      "t_struct(TokenInfo)1979_storage": {
        "encoding": "inplace",
        "label": "struct CatalogNFT.TokenInfo",
        "members": [
          {
            "astId": 1970,
            "contract": "contracts/zora/CatalogNFT.sol:CatalogNFT",
            "label": "metadataUri",
            "offset": 0,
            "slot": "0",
            "type": "t_string_storage"
          },
          {
            "astId": 1972,
            "contract": "contracts/zora/CatalogNFT.sol:CatalogNFT",
            "label": "contentUri",
            "offset": 0,
            "slot": "1",
            "type": "t_string_storage"
          },
          {
            "astId": 1974,
            "contract": "contracts/zora/CatalogNFT.sol:CatalogNFT",
            "label": "contentHash",
            "offset": 0,
            "slot": "2",
            "type": "t_bytes32"
          },
          {
            "astId": 1976,
            "contract": "contracts/zora/CatalogNFT.sol:CatalogNFT",
            "label": "payout",
            "offset": 0,
            "slot": "3",
            "type": "t_address"
          },
          {
            "astId": 1978,
            "contract": "contracts/zora/CatalogNFT.sol:CatalogNFT",
            "label": "royaltyBps",
            "offset": 20,
            "slot": "3",
            "type": "t_uint16"
          }
        ],
        "numberOfBytes": "128"
      },
      "t_uint16": {
        "encoding": "inplace",
        "label": "uint16",
        "numberOfBytes": "2"
      },
      "t_uint256": {
        "encoding": "inplace",
        "label": "uint256",
        "numberOfBytes": "32"
      }
    }
  }
}