{
  "address": "0xfC42AB337B2aC7D66e35aCdCf77307d8a78C5bCb",
  "abi": [
    {
      "anonymous": false,
      "inputs": [
        {
          "indexed": true,
          "internalType": "address",
          "name": "owner",
          "type": "address"
        },
        {
          "indexed": true,
          "internalType": "address",
          "name": "approved",
          "type": "address"
        },
        {
          "indexed": true,
          "internalType": "uint256",
          "name": "tokenId",
          "type": "uint256"
        }
      ],
      "name": "Approval",
      "type": "event"
    },
    {
      "anonymous": false,
      "inputs": [
        {
          "indexed": true,
          "internalType": "address",
          "name": "owner",
          "type": "address"
        },
        {
          "indexed": true,
          "internalType": "address",
          "name": "operator",
          "type": "address"
        },
        {
          "indexed": false,
          "internalType": "bool",
          "name": "approved",
          "type": "bool"
        }
      ],
      "name": "ApprovalForAll",
      "type": "event"
    },
    {
      "anonymous": false,
      "inputs": [
        {
          "indexed": true,
          "internalType": "uint256",
          "name": "",
          "type": "uint256"
        },
        {
          "indexed": false,
          "internalType": "string",
          "name": "",
          "type": "string"
        }
      ],
      "name": "MetadataUpdated",
      "type": "event"
    },
    {
      "anonymous": false,
      "inputs": [
        {
          "indexed": true,
          "internalType": "address",
          "name": "previousOwner",
          "type": "address"
        },
        {
          "indexed": true,
          "internalType": "address",
          "name": "newOwner",
          "type": "address"
        }
      ],
      "name": "OwnershipTransferred",
      "type": "event"
    },
    {
      "anonymous": false,
      "inputs": [
        {
          "indexed": true,
          "internalType": "uint256",
          "name": "",
          "type": "uint256"
        },
        {
          "indexed": true,
          "internalType": "address",
          "name": "",
          "type": "address"
        }
      ],
      "name": "RoyaltyUpdated",
      "type": "event"
    },
    {
      "anonymous": false,
      "inputs": [
        {
          "indexed": true,
          "internalType": "address",
          "name": "from",
          "type": "address"
        },
        {
          "indexed": true,
          "internalType": "address",
          "name": "to",
          "type": "address"
        },
        {
          "indexed": true,
          "internalType": "uint256",
          "name": "tokenId",
          "type": "uint256"
        }
      ],
      "name": "Transfer",
      "type": "event"
    },
    {
      "anonymous": false,
      "inputs": [
        {
          "indexed": false,
          "internalType": "bytes32",
          "name": "_merkleRoot",
          "type": "bytes32"
        }
      ],
      "name": "merkleRootUpdated",
      "type": "event"
    },
    {
      "inputs": [
        {
          "internalType": "address",
          "name": "to",
          "type": "address"
        },
        {
          "internalType": "uint256",
          "name": "tokenId",
          "type": "uint256"
        }
      ],
      "name": "approve",
      "outputs": [],
      "stateMutability": "nonpayable",
      "type": "function"
    },
    {
      "inputs": [
        {
          "internalType": "address",
          "name": "owner",
          "type": "address"
        }
      ],
      "name": "balanceOf",
      "outputs": [
        {
          "internalType": "uint256",
          "name": "",
          "type": "uint256"
        }
      ],
      "stateMutability": "view",
      "type": "function"
    },
    {
      "inputs": [
        {
          "internalType": "uint256",
          "name": "_tokenId",
          "type": "uint256"
        }
      ],
      "name": "burn",
      "outputs": [],
      "stateMutability": "nonpayable",
      "type": "function"
    },
    {
      "inputs": [
        {
          "internalType": "uint256",
          "name": "_tokenId",
          "type": "uint256"
        }
      ],
      "name": "creator",
      "outputs": [
        {
          "internalType": "address",
          "name": "",
          "type": "address"
        }
      ],
      "stateMutability": "view",
      "type": "function"
    },
    {
      "inputs": [
        {
          "internalType": "uint256",
          "name": "tokenId",
          "type": "uint256"
        }
      ],
      "name": "getApproved",
      "outputs": [
        {
          "internalType": "address",
          "name": "",
          "type": "address"
        }
      ],
      "stateMutability": "view",
      "type": "function"
    },
    {
      "inputs": [
        {
          "internalType": "uint256",
          "name": "_tokenId",
          "type": "uint256"
        }
      ],
      "name": "getURIs",
      "outputs": [
        {
          "internalType": "string",
          "name": "",
          "type": "string"
        },
        {
          "internalType": "string",
          "name": "",
          "type": "string"
        }
      ],
      "stateMutability": "view",
      "type": "function"
    },
    {
      "inputs": [
        {
          "internalType": "string",
          "name": "_name",
          "type": "string"
        },
        {
          "internalType": "string",
          "name": "_symbol",
          "type": "string"
        }
      ],
      "name": "initialize",
      "outputs": [],
      "stateMutability": "nonpayable",
      "type": "function"
    },
    {
      "inputs": [
        {
          "internalType": "address",
          "name": "owner",
          "type": "address"
        },
        {
          "internalType": "address",
          "name": "operator",
          "type": "address"
        }
      ],
      "name": "isApprovedForAll",
      "outputs": [
        {
          "internalType": "bool",
          "name": "",
          "type": "bool"
        }
      ],
      "stateMutability": "view",
      "type": "function"
    },
    {
      "inputs": [],
      "name": "merkleRoot",
      "outputs": [
        {
          "internalType": "bytes32",
          "name": "",
          "type": "bytes32"
        }
      ],
      "stateMutability": "view",
      "type": "function"
    },
    {
      "inputs": [
        {
          "components": [
            {
              "internalType": "string",
              "name": "metadataURI",
              "type": "string"
            },
            {
              "internalType": "string",
              "name": "contentURI",
              "type": "string"
            },
            {
              "internalType": "address",
              "name": "creator",
              "type": "address"
            },
            {
              "internalType": "address",
              "name": "royaltyPayout",
              "type": "address"
            },
            {
              "internalType": "uint16",
              "name": "royaltyBPS",
              "type": "uint16"
            }
          ],
          "internalType": "struct ICTest.TokenData",
          "name": "_data",
          "type": "tuple"
        },
        {
          "internalType": "bytes32[]",
          "name": "_proof",
          "type": "bytes32[]"
        }
      ],
      "name": "mintAllowlist",
      "outputs": [
        {
          "internalType": "uint256",
          "name": "",
          "type": "uint256"
        }
      ],
      "stateMutability": "nonpayable",
      "type": "function"
    },
    {
      "inputs": [],
      "name": "name",
      "outputs": [
        {
          "internalType": "string",
          "name": "",
          "type": "string"
        }
      ],
      "stateMutability": "view",
      "type": "function"
    },
    {
      "inputs": [],
      "name": "owner",
      "outputs": [
        {
          "internalType": "address",
          "name": "",
          "type": "address"
        }
      ],
      "stateMutability": "view",
      "type": "function"
    },
    {
      "inputs": [
        {
          "internalType": "uint256",
          "name": "tokenId",
          "type": "uint256"
        }
      ],
      "name": "ownerOf",
      "outputs": [
        {
          "internalType": "address",
          "name": "",
          "type": "address"
        }
      ],
      "stateMutability": "view",
      "type": "function"
    },
    {
      "inputs": [],
      "name": "renounceOwnership",
      "outputs": [],
      "stateMutability": "nonpayable",
      "type": "function"
    },
    {
      "inputs": [
        {
          "internalType": "uint256",
          "name": "_tokenId",
          "type": "uint256"
        },
        {
          "internalType": "uint256",
          "name": "_salePrice",
          "type": "uint256"
        }
      ],
      "name": "royaltyInfo",
      "outputs": [
        {
          "internalType": "address",
          "name": "receiver",
          "type": "address"
        },
        {
          "internalType": "uint256",
          "name": "royaltyAmount",
          "type": "uint256"
        }
      ],
      "stateMutability": "view",
      "type": "function"
    },
    {
      "inputs": [
        {
          "internalType": "uint256",
          "name": "_tokenId",
          "type": "uint256"
        }
      ],
      "name": "royaltyPayoutAddress",
      "outputs": [
        {
          "internalType": "address",
          "name": "",
          "type": "address"
        }
      ],
      "stateMutability": "view",
      "type": "function"
    },
    {
      "inputs": [
        {
          "internalType": "address",
          "name": "from",
          "type": "address"
        },
        {
          "internalType": "address",
          "name": "to",
          "type": "address"
        },
        {
          "internalType": "uint256",
          "name": "tokenId",
          "type": "uint256"
        }
      ],
      "name": "safeTransferFrom",
      "outputs": [],
      "stateMutability": "nonpayable",
      "type": "function"
    },
    {
      "inputs": [
        {
          "internalType": "address",
          "name": "from",
          "type": "address"
        },
        {
          "internalType": "address",
          "name": "to",
          "type": "address"
        },
        {
          "internalType": "uint256",
          "name": "tokenId",
          "type": "uint256"
        },
        {
          "internalType": "bytes",
          "name": "_data",
          "type": "bytes"
        }
      ],
      "name": "safeTransferFrom",
      "outputs": [],
      "stateMutability": "nonpayable",
      "type": "function"
    },
    {
      "inputs": [
        {
          "internalType": "address",
          "name": "operator",
          "type": "address"
        },
        {
          "internalType": "bool",
          "name": "approved",
          "type": "bool"
        }
      ],
      "name": "setApprovalForAll",
      "outputs": [],
      "stateMutability": "nonpayable",
      "type": "function"
    },
    {
      "inputs": [
        {
          "internalType": "bytes4",
          "name": "interfaceId",
          "type": "bytes4"
        }
      ],
      "name": "supportsInterface",
      "outputs": [
        {
          "internalType": "bool",
          "name": "",
          "type": "bool"
        }
      ],
      "stateMutability": "view",
      "type": "function"
    },
    {
      "inputs": [],
      "name": "symbol",
      "outputs": [
        {
          "internalType": "string",
          "name": "",
          "type": "string"
        }
      ],
      "stateMutability": "view",
      "type": "function"
    },
    {
      "inputs": [
        {
          "internalType": "uint256",
          "name": "_tokenId",
          "type": "uint256"
        }
      ],
      "name": "tokenContentURI",
      "outputs": [
        {
          "internalType": "string",
          "name": "",
          "type": "string"
        }
      ],
      "stateMutability": "view",
      "type": "function"
    },
    {
      "inputs": [
        {
          "internalType": "uint256",
          "name": "",
          "type": "uint256"
        }
      ],
      "name": "tokenMetadataURIs",
      "outputs": [
        {
          "internalType": "string",
          "name": "",
          "type": "string"
        }
      ],
      "stateMutability": "view",
      "type": "function"
    },
    {
      "inputs": [
        {
          "internalType": "uint256",
          "name": "_tokenId",
          "type": "uint256"
        }
      ],
      "name": "tokenURI",
      "outputs": [
        {
          "internalType": "string",
          "name": "",
          "type": "string"
        }
      ],
      "stateMutability": "view",
      "type": "function"
    },
    {
      "inputs": [
        {
          "internalType": "address",
          "name": "from",
          "type": "address"
        },
        {
          "internalType": "address",
          "name": "to",
          "type": "address"
        },
        {
          "internalType": "uint256",
          "name": "tokenId",
          "type": "uint256"
        }
      ],
      "name": "transferFrom",
      "outputs": [],
      "stateMutability": "nonpayable",
      "type": "function"
    },
    {
      "inputs": [
        {
          "internalType": "address",
          "name": "newOwner",
          "type": "address"
        }
      ],
      "name": "transferOwnership",
      "outputs": [],
      "stateMutability": "nonpayable",
      "type": "function"
    },
    {
      "inputs": [
        {
          "internalType": "uint256",
          "name": "_tokenId",
          "type": "uint256"
        },
        {
          "internalType": "string",
          "name": "_metadataURI",
          "type": "string"
        }
      ],
      "name": "updateMetadataURI",
      "outputs": [],
      "stateMutability": "nonpayable",
      "type": "function"
    },
    {
      "inputs": [
        {
          "internalType": "bytes32",
          "name": "_newRoot",
          "type": "bytes32"
        }
      ],
      "name": "updateRoot",
      "outputs": [],
      "stateMutability": "nonpayable",
      "type": "function"
    },
    {
      "inputs": [
        {
          "internalType": "uint256",
          "name": "_tokenId",
          "type": "uint256"
        },
        {
          "internalType": "address",
          "name": "_royaltyPayoutAddress",
          "type": "address"
        }
      ],
      "name": "updateRoyaltyInfo",
      "outputs": [],
      "stateMutability": "nonpayable",
      "type": "function"
    },
    {
      "inputs": [
        {
          "internalType": "uint256",
          "name": "_tokenId",
          "type": "uint256"
        },
        {
          "internalType": "string",
          "name": "_metadataURI",
          "type": "string"
        },
        {
          "internalType": "string",
          "name": "_contentURI",
          "type": "string"
        }
      ],
      "name": "updateTokenURIs",
      "outputs": [],
      "stateMutability": "nonpayable",
      "type": "function"
    }
  ],
  "transactionHash": "0xcdffffedaa5fd40057718d7ac110b3089cd262f06a2817f5d71fb713465970f0",
  "args": [],
  "solcInputHash": "1611806a772f61b205fb176258ddd074",
  "bytecode": "0x608060405234801561001057600080fd5b506126e3806100206000396000f3fe608060405234801561001057600080fd5b50600436106101da5760003560e01c80636352211e116101045780638fe86b3f116100a2578063c87b56dd11610071578063c87b56dd14610417578063e985e9c51461042a578063f2fde38b14610466578063fbd8d2831461047957600080fd5b80638fe86b3f146103d657806395d89b41146103e9578063a22cb465146103f1578063b88d4fde1461040457600080fd5b806370a08231116100de57806370a0823114610397578063715018a6146103aa57806378236d37146103b25780638da5cb5b146103c557600080fd5b80636352211e1461035057806364e9293e14610363578063669d311c1461038457600080fd5b806323b872dd1161017c57806342966c681161014b57806342966c681461030457806344dcc232146103175780634cd88b761461032a578063510b51581461033d57600080fd5b806323b872dd146102955780632a55205a146102a85780632eb4a7ab146102da57806342842e0e146102f157600080fd5b8063095ea7b3116101b8578063095ea7b3146102475780630c0a9d261461025c5780631cbbc6e21461026f57806321ff99701461028257600080fd5b806301ffc9a7146101df57806306fdde0314610207578063081812fc1461021c575b600080fd5b6101f26101ed366004611e94565b61048c565b60405190151581526020015b60405180910390f35b61020f6104b7565b6040516101fe9190611efe565b61022f61022a366004611f11565b610549565b6040516001600160a01b0390911681526020016101fe565b61025a610255366004611f46565b6105d6565b005b61020f61026a366004611f11565b6106ec565b61025a61027d36600461201c565b610791565b61025a610290366004611f11565b610806565b61025a6102a3366004612089565b61083c565b6102bb6102b63660046120c5565b61086d565b604080516001600160a01b0390931683526020830191909152016101fe565b6102e360c95481565b6040519081526020016101fe565b61025a6102ff366004612089565b6108f4565b61025a610312366004611f11565b61090f565b61020f610325366004611f11565b61095e565b61025a6103383660046120e7565b6109f8565b61022f61034b366004611f11565b610a85565b61022f61035e366004611f11565b610acb565b610376610371366004611f11565b610b42565b6040516101fe92919061214b565b61025a610392366004612179565b610cd0565b6102e36103a53660046121a5565b610d2b565b61025a610db2565b6102e36103c03660046121c0565b610de8565b6097546001600160a01b031661022f565b61025a6103e4366004612262565b6110bb565b61020f611189565b61025a6103ff36600461229f565b611198565b61025a6104123660046122db565b6111a7565b61020f610425366004611f11565b6111d9565b6101f2610438366004612357565b6001600160a01b039182166000908152606a6020908152604080832093909416825291909152205460ff1690565b61025a6104743660046121a5565b611219565b61022f610487366004611f11565b6112b1565b600063152a902d60e11b6001600160e01b0319831614806104b157506104b1826112f7565b92915050565b6060606580546104c690612381565b80601f01602080910402602001604051908101604052809291908181526020018280546104f290612381565b801561053f5780601f106105145761010080835404028352916020019161053f565b820191906000526020600020905b81548152906001019060200180831161052257829003601f168201915b5050505050905090565b600061055482611347565b6105ba5760405162461bcd60e51b815260206004820152602c60248201527f4552433732313a20617070726f76656420717565727920666f72206e6f6e657860448201526b34b9ba32b73a103a37b5b2b760a11b60648201526084015b60405180910390fd5b506000908152606960205260409020546001600160a01b031690565b60006105e182610acb565b9050806001600160a01b0316836001600160a01b0316141561064f5760405162461bcd60e51b815260206004820152602160248201527f4552433732313a20617070726f76616c20746f2063757272656e74206f776e656044820152603960f91b60648201526084016105b1565b336001600160a01b038216148061066b575061066b8133610438565b6106dd5760405162461bcd60e51b815260206004820152603860248201527f4552433732313a20617070726f76652063616c6c6572206973206e6f74206f7760448201527f6e6572206e6f7220617070726f76656420666f7220616c6c000000000000000060648201526084016105b1565b6106e78383611364565b505050565b600081815260cb6020526040902060010180546060919061070c90612381565b80601f016020809104026020016040519081016040528092919081815260200182805461073890612381565b80156107855780601f1061075a57610100808354040283529160200191610785565b820191906000526020600020905b81548152906001019060200180831161076857829003601f168201915b50505050509050919050565b6097546001600160a01b031633146107bb5760405162461bcd60e51b81526004016105b1906123bc565b600083815260cb6020908152604090912083516107da92850190611de5565b50600083815260cb60209081526040909120825161080092600190920191840190611de5565b50505050565b6097546001600160a01b031633146108305760405162461bcd60e51b81526004016105b1906123bc565b610839816113d2565b50565b610846338261140d565b6108625760405162461bcd60e51b81526004016105b1906123f1565b6106e78383836114f3565b600080806108836097546001600160a01b031690565b6001600160a01b031614156108a75750506097546001600160a01b031660006108ed565b6097546001600160a01b0316600085815260cb6020526040902060030154612710906108de90600160a01b900461ffff1686612458565b6108e89190612477565b915091505b9250929050565b6106e7838383604051806020016040528060008152506111a7565b610919338261140d565b6109555760405162461bcd60e51b815260206004820152600d60248201526c4e6f7420417070726f7665642160981b60448201526064016105b1565b61083981611693565b60ca602052600090815260409020805461097790612381565b80601f01602080910402602001604051908101604052809291908181526020018280546109a390612381565b80156109f05780601f106109c5576101008083540402835291602001916109f0565b820191906000526020600020905b8154815290600101906020018083116109d357829003601f168201915b505050505081565b600054610100900460ff1680610a11575060005460ff16155b610a2d5760405162461bcd60e51b81526004016105b190612499565b600054610100900460ff16158015610a4f576000805461ffff19166101011790555b610a59838361172e565b610a6161179f565b610a6f60cc80546001019055565b80156106e7576000805461ff0019169055505050565b6000610a9082611347565b610aac5760405162461bcd60e51b81526004016105b1906124e7565b50600090815260cb60205260409020600201546001600160a01b031690565b6000818152606760205260408120546001600160a01b0316806104b15760405162461bcd60e51b815260206004820152602960248201527f4552433732313a206f776e657220717565727920666f72206e6f6e657869737460448201526832b73a103a37b5b2b760b91b60648201526084016105b1565b606080600060cb60008581526020019081526020016000206040518060a0016040529081600082018054610b7590612381565b80601f0160208091040260200160405190810160405280929190818152602001828054610ba190612381565b8015610bee5780601f10610bc357610100808354040283529160200191610bee565b820191906000526020600020905b815481529060010190602001808311610bd157829003601f168201915b50505050508152602001600182018054610c0790612381565b80601f0160208091040260200160405190810160405280929190818152602001828054610c3390612381565b8015610c805780601f10610c5557610100808354040283529160200191610c80565b820191906000526020600020905b815481529060010190602001808311610c6357829003601f168201915b505050918352505060028201546001600160a01b039081166020808401919091526003909301549081166040830152600160a01b900461ffff166060909101528151910151909590945092505050565b6097546001600160a01b03163314610cfa5760405162461bcd60e51b81526004016105b1906123bc565b600091825260cb602052604090912060030180546001600160a01b0319166001600160a01b03909216919091179055565b60006001600160a01b038216610d965760405162461bcd60e51b815260206004820152602a60248201527f4552433732313a2062616c616e636520717565727920666f7220746865207a65604482015269726f206164647265737360b01b60648201526084016105b1565b506001600160a01b031660009081526068602052604090205490565b6097546001600160a01b03163314610ddc5760405162461bcd60e51b81526004016105b1906123bc565b610de6600061181a565b565b6000610e78610e3f610e0060608701604088016121a5565b6040516bffffffffffffffffffffffff19606083901b166020820152600090603401604051602081830303815290604052805190602001209050919050565b84848080602002602001604051908101604052809392919081815260200183836020028082843760009201919091525061186c92505050565b610eb35760405162461bcd60e51b815260206004820152600c60248201526b10bb30b634b210383937b7b360a11b60448201526064016105b1565b612710610ec660a0860160808701612536565b61ffff1610610f085760405162461bcd60e51b815260206004820152600e60248201526d0e4def2c2d8e8f2406440d0d2ced60931b60448201526064016105b1565b6000610f1360cc5490565b9050610f1f3382611882565b6040805160a0810190915280610f35878061255a565b8080601f016020809104026020016040519081016040528093929190818152602001838380828437600092019190915250505090825250602090810190610f7e9088018861255a565b8080601f016020809104026020016040519081016040528093929190818152602001838380828437600092019190915250505090825250602001610fc860608801604089016121a5565b6001600160a01b03168152602001610fe660808801606089016121a5565b6001600160a01b0316815260200161100460a0880160808901612536565b61ffff169052600082815260cb6020908152604090912082518051919261103092849290910190611de5565b5060208281015180516110499260018501920190611de5565b5060408201516002820180546001600160a01b039283166001600160a01b031990911617905560608301516003909201805460809094015161ffff16600160a01b026001600160b01b031990941692909116919091179190911790556110b360cc80546001019055565b949350505050565b816110c581611347565b6111085760405162461bcd60e51b8152602060048201526014602482015273151bdad95b88191bd95cc81b9bdd08195e1a5cdd60621b60448201526064016105b1565b6097546001600160a01b031633146111325760405162461bcd60e51b81526004016105b1906123bc565b827f459157ba24c7ab9878b165ef465fa6ae2ab42bcd8445f576be378768b0c47309836040516111629190611efe565b60405180910390a2600083815260cb60209081526040909120835161080092850190611de5565b6060606680546104c690612381565b6111a33383836119b5565b5050565b6111b1338361140d565b6111cd5760405162461bcd60e51b81526004016105b1906123f1565b61080084848484611a84565b60606111e482611347565b6112005760405162461bcd60e51b81526004016105b1906124e7565b600082815260cb60205260409020805461070c90612381565b6097546001600160a01b031633146112435760405162461bcd60e51b81526004016105b1906123bc565b6001600160a01b0381166112a85760405162461bcd60e51b815260206004820152602660248201527f4f776e61626c653a206e6577206f776e657220697320746865207a65726f206160448201526564647265737360d01b60648201526084016105b1565b6108398161181a565b60006112bc82611347565b6112d85760405162461bcd60e51b81526004016105b1906124e7565b50600090815260cb60205260409020600301546001600160a01b031690565b60006001600160e01b031982166380ac58cd60e01b148061132857506001600160e01b03198216635b5e139f60e01b145b806104b157506301ffc9a760e01b6001600160e01b03198316146104b1565b6000908152606760205260409020546001600160a01b0316151590565b600081815260696020526040902080546001600160a01b0319166001600160a01b038416908117909155819061139982610acb565b6001600160a01b03167f8c5be1e5ebec7d5bd14f71427d1e84f3dd0314c0f7b2291e5b200ac8c7c3b92560405160405180910390a45050565b60c98190556040518181527fa2bc4a36b1e221bdcc16df9d7c15559a5f4f9902519c0f92ad3198f1df005e8b9060200160405180910390a150565b600061141882611347565b6114795760405162461bcd60e51b815260206004820152602c60248201527f4552433732313a206f70657261746f7220717565727920666f72206e6f6e657860448201526b34b9ba32b73a103a37b5b2b760a11b60648201526084016105b1565b600061148483610acb565b9050806001600160a01b0316846001600160a01b031614806114bf5750836001600160a01b03166114b484610549565b6001600160a01b0316145b806110b357506001600160a01b038082166000908152606a602090815260408083209388168352929052205460ff166110b3565b826001600160a01b031661150682610acb565b6001600160a01b03161461156e5760405162461bcd60e51b815260206004820152602960248201527f4552433732313a207472616e73666572206f6620746f6b656e2074686174206960448201526839903737ba1037bbb760b91b60648201526084016105b1565b6001600160a01b0382166115d05760405162461bcd60e51b8152602060048201526024808201527f4552433732313a207472616e7366657220746f20746865207a65726f206164646044820152637265737360e01b60648201526084016105b1565b6115db600082611364565b6001600160a01b03831660009081526068602052604081208054600192906116049084906125a1565b90915550506001600160a01b03821660009081526068602052604081208054600192906116329084906125b8565b909155505060008181526067602052604080822080546001600160a01b0319166001600160a01b0386811691821790925591518493918716917fddf252ad1be2c89b69c2b068fc378daa952ba7f163c4a11628f55a4df523b3ef91a4505050565b600061169e82610acb565b90506116ab600083611364565b6001600160a01b03811660009081526068602052604081208054600192906116d49084906125a1565b909155505060008281526067602052604080822080546001600160a01b0319169055518391906001600160a01b038416907fddf252ad1be2c89b69c2b068fc378daa952ba7f163c4a11628f55a4df523b3ef908390a45050565b600054610100900460ff1680611747575060005460ff16155b6117635760405162461bcd60e51b81526004016105b190612499565b600054610100900460ff16158015611785576000805461ffff19166101011790555b61178d611ab7565b611795611ab7565b610a6f8383611b21565b600054610100900460ff16806117b8575060005460ff16155b6117d45760405162461bcd60e51b81526004016105b190612499565b600054610100900460ff161580156117f6576000805461ffff19166101011790555b6117fe611ab7565b611806611bb6565b8015610839576000805461ff001916905550565b609780546001600160a01b038381166001600160a01b0319831681179093556040519116919082907f8be0079c531659141344cd1fd0a4f28419497f9722a3daafe3b4186f6b6457e090600090a35050565b600061187b8260c95485611c16565b9392505050565b6001600160a01b0382166118d85760405162461bcd60e51b815260206004820181905260248201527f4552433732313a206d696e7420746f20746865207a65726f206164647265737360448201526064016105b1565b6118e181611347565b1561192e5760405162461bcd60e51b815260206004820152601c60248201527f4552433732313a20746f6b656e20616c7265616479206d696e7465640000000060448201526064016105b1565b6001600160a01b03821660009081526068602052604081208054600192906119579084906125b8565b909155505060008181526067602052604080822080546001600160a01b0319166001600160a01b03861690811790915590518392907fddf252ad1be2c89b69c2b068fc378daa952ba7f163c4a11628f55a4df523b3ef908290a45050565b816001600160a01b0316836001600160a01b03161415611a175760405162461bcd60e51b815260206004820152601960248201527f4552433732313a20617070726f766520746f2063616c6c65720000000000000060448201526064016105b1565b6001600160a01b038381166000818152606a6020908152604080832094871680845294825291829020805460ff191686151590811790915591519182527f17307eab39ab6107e8899845ad3d59bd9653f200f220920489ca2b5937696c31910160405180910390a3505050565b611a8f8484846114f3565b611a9b84848484611c2c565b6108005760405162461bcd60e51b81526004016105b1906125d0565b600054610100900460ff1680611ad0575060005460ff16155b611aec5760405162461bcd60e51b81526004016105b190612499565b600054610100900460ff16158015611806576000805461ffff19166101011790558015610839576000805461ff001916905550565b600054610100900460ff1680611b3a575060005460ff16155b611b565760405162461bcd60e51b81526004016105b190612499565b600054610100900460ff16158015611b78576000805461ffff19166101011790555b8251611b8b906065906020860190611de5565b508151611b9f906066906020850190611de5565b5080156106e7576000805461ff0019169055505050565b600054610100900460ff1680611bcf575060005460ff16155b611beb5760405162461bcd60e51b81526004016105b190612499565b600054610100900460ff16158015611c0d576000805461ffff19166101011790555b6118063361181a565b600082611c238584611d39565b14949350505050565b60006001600160a01b0384163b15611d2e57604051630a85bd0160e11b81526001600160a01b0385169063150b7a0290611c70903390899088908890600401612622565b602060405180830381600087803b158015611c8a57600080fd5b505af1925050508015611cba575060408051601f3d908101601f19168201909252611cb79181019061265f565b60015b611d14573d808015611ce8576040519150601f19603f3d011682016040523d82523d6000602084013e611ced565b606091505b508051611d0c5760405162461bcd60e51b81526004016105b1906125d0565b805181602001fd5b6001600160e01b031916630a85bd0160e11b1490506110b3565b506001949350505050565b600081815b8451811015611ddd576000858281518110611d5b57611d5b61267c565b60200260200101519050808311611d9d576040805160208101859052908101829052606001604051602081830303815290604052805190602001209250611dca565b60408051602081018390529081018490526060016040516020818303038152906040528051906020012092505b5080611dd581612692565b915050611d3e565b509392505050565b828054611df190612381565b90600052602060002090601f016020900481019282611e135760008555611e59565b82601f10611e2c57805160ff1916838001178555611e59565b82800160010185558215611e59579182015b82811115611e59578251825591602001919060010190611e3e565b50611e65929150611e69565b5090565b5b80821115611e655760008155600101611e6a565b6001600160e01b03198116811461083957600080fd5b600060208284031215611ea657600080fd5b813561187b81611e7e565b6000815180845260005b81811015611ed757602081850181015186830182015201611ebb565b81811115611ee9576000602083870101525b50601f01601f19169290920160200192915050565b60208152600061187b6020830184611eb1565b600060208284031215611f2357600080fd5b5035919050565b80356001600160a01b0381168114611f4157600080fd5b919050565b60008060408385031215611f5957600080fd5b611f6283611f2a565b946020939093013593505050565b634e487b7160e01b600052604160045260246000fd5b600067ffffffffffffffff80841115611fa157611fa1611f70565b604051601f8501601f19908116603f01168101908282118183101715611fc957611fc9611f70565b81604052809350858152868686011115611fe257600080fd5b858560208301376000602087830101525050509392505050565b600082601f83011261200d57600080fd5b61187b83833560208501611f86565b60008060006060848603121561203157600080fd5b83359250602084013567ffffffffffffffff8082111561205057600080fd5b61205c87838801611ffc565b9350604086013591508082111561207257600080fd5b5061207f86828701611ffc565b9150509250925092565b60008060006060848603121561209e57600080fd5b6120a784611f2a565b92506120b560208501611f2a565b9150604084013590509250925092565b600080604083850312156120d857600080fd5b50508035926020909101359150565b600080604083850312156120fa57600080fd5b823567ffffffffffffffff8082111561211257600080fd5b61211e86838701611ffc565b9350602085013591508082111561213457600080fd5b5061214185828601611ffc565b9150509250929050565b60408152600061215e6040830185611eb1565b82810360208401526121708185611eb1565b95945050505050565b6000806040838503121561218c57600080fd5b8235915061219c60208401611f2a565b90509250929050565b6000602082840312156121b757600080fd5b61187b82611f2a565b6000806000604084860312156121d557600080fd5b833567ffffffffffffffff808211156121ed57600080fd5b9085019060a0828803121561220157600080fd5b9093506020850135908082111561221757600080fd5b818601915086601f83011261222b57600080fd5b81358181111561223a57600080fd5b8760208260051b850101111561224f57600080fd5b6020830194508093505050509250925092565b6000806040838503121561227557600080fd5b82359150602083013567ffffffffffffffff81111561229357600080fd5b61214185828601611ffc565b600080604083850312156122b257600080fd5b6122bb83611f2a565b9150602083013580151581146122d057600080fd5b809150509250929050565b600080600080608085870312156122f157600080fd5b6122fa85611f2a565b935061230860208601611f2a565b925060408501359150606085013567ffffffffffffffff81111561232b57600080fd5b8501601f8101871361233c57600080fd5b61234b87823560208401611f86565b91505092959194509250565b6000806040838503121561236a57600080fd5b61237383611f2a565b915061219c60208401611f2a565b600181811c9082168061239557607f821691505b602082108114156123b657634e487b7160e01b600052602260045260246000fd5b50919050565b6020808252818101527f4f776e61626c653a2063616c6c6572206973206e6f7420746865206f776e6572604082015260600190565b60208082526031908201527f4552433732313a207472616e736665722063616c6c6572206973206e6f74206f6040820152701ddb995c881b9bdc88185c1c1c9bdd9959607a1b606082015260800190565b634e487b7160e01b600052601160045260246000fd5b600081600019048311821515161561247257612472612442565b500290565b60008261249457634e487b7160e01b600052601260045260246000fd5b500490565b6020808252602e908201527f496e697469616c697a61626c653a20636f6e747261637420697320616c72656160408201526d191e481a5b9a5d1a585b1a5e995960921b606082015260800190565b6020808252602f908201527f4552433732314d657461646174613a2055524920717565727920666f72206e6f60408201526e3732bc34b9ba32b73a103a37b5b2b760891b606082015260800190565b60006020828403121561254857600080fd5b813561ffff8116811461187b57600080fd5b6000808335601e1984360301811261257157600080fd5b83018035915067ffffffffffffffff82111561258c57600080fd5b6020019150368190038213156108ed57600080fd5b6000828210156125b3576125b3612442565b500390565b600082198211156125cb576125cb612442565b500190565b60208082526032908201527f4552433732313a207472616e7366657220746f206e6f6e20455243373231526560408201527131b2b4bb32b91034b6b83632b6b2b73a32b960711b606082015260800190565b6001600160a01b038581168252841660208201526040810183905260806060820181905260009061265590830184611eb1565b9695505050505050565b60006020828403121561267157600080fd5b815161187b81611e7e565b634e487b7160e01b600052603260045260246000fd5b60006000198214156126a6576126a6612442565b506001019056fea26469706673582212206392aba2735a1c15c07708a2beba2289d297854d1b89cf8ce69e72fa7c94f2d464736f6c63430008090033",
  "devdoc": {
    "author": ":   @bretth18 (computerdata) ",
    "details": ":   currently setup w/ access control and upgradeability. purpose built for optmization over the Zora V1 contracts. isian (iain nash) of Zora. ",
    "kind": "dev",
    "methods": {
      "approve(address,uint256)": {
        "details": "See {IERC721-approve}."
      },
      "balanceOf(address)": {
        "details": "See {IERC721-balanceOf}."
      },
      "burn(uint256)": {
        "details": "burns given tokenId, restrited to owner (approved artists should burn?)",
        "params": {
          "_tokenId": "uint256 identifier of token to burn"
        }
      },
      "creator(uint256)": {
        "details": "idk what this should be called, and do we need?",
        "params": {
          "_tokenId": "uint256 identifier of token to get creator for"
        },
        "returns": {
          "_0": "address creator of given tokenId"
        }
      },
      "getApproved(uint256)": {
        "details": "See {IERC721-getApproved}."
      },
      "getURIs(uint256)": {
        "details": "non standard  ",
        "params": {
          "_tokenId": "uint256 identifier of token to get URIs for"
        },
        "returns": {
          "_0": "string[] URIs for metadata and content of given tokenId"
        }
      },
      "initialize(string,string)": {
        "details": "OZ proxy",
        "params": {
          "_name": "string name of the contract",
          "_symbol": "string symbol of the contract"
        }
      },
      "isApprovedForAll(address,address)": {
        "details": "See {IERC721-isApprovedForAll}."
      },
      "mintAllowlist((string,string,address,address,uint16),bytes32[])": {
        "details": "mints a new token to allowlisted msg.sender with a valid merkle proof. params can and should be changed to calldata for gas efficiency. rename to \"allowlist\"",
        "params": {
          "_data": "TokenData struct, see ICTest",
          "_proof": "bytes32[] merkle proof of artist wallet. this is created off-chain.  e.g (proof = tree.getHexProof(keccak256(address)))"
        },
        "returns": {
          "_0": "uint256 tokenId of minted token (useful since we are not using Enumerable)"
        }
      },
      "name()": {
        "details": "See {IERC721Metadata-name}."
      },
      "owner()": {
        "details": "Returns the address of the current owner."
      },
      "ownerOf(uint256)": {
        "details": "See {IERC721-ownerOf}."
      },
      "renounceOwnership()": {
        "details": "Leaves the contract without owner. It will not be possible to call `onlyOwner` functions anymore. Can only be called by the current owner. NOTE: Renouncing ownership will leave the contract without an owner, thereby removing any functionality that is only available to the owner."
      },
      "royaltyInfo(uint256,uint256)": {
        "details": "override, conforms to EIP-2981",
        "params": {
          "_salePrice": "uint256 final sale price of token used to calculate royalty payout",
          "_tokenId": "uint256 token id corresponding to the token of which to get royalty information"
        }
      },
      "royaltyPayoutAddress(uint256)": {
        "details": "not part of EIP2981, but useful ",
        "params": {
          "_tokenId": "uint256 identifier of token to get royalty payout address for"
        },
        "returns": {
          "_0": "address royalty payout address of given tokenId"
        }
      },
      "safeTransferFrom(address,address,uint256)": {
        "details": "See {IERC721-safeTransferFrom}."
      },
      "safeTransferFrom(address,address,uint256,bytes)": {
        "details": "See {IERC721-safeTransferFrom}."
      },
      "setApprovalForAll(address,bool)": {
        "details": "See {IERC721-setApprovalForAll}."
      },
      "supportsInterface(bytes4)": {
        "details": "override ",
        "params": {
          "interfaceId": "bytes4 id of interface to check"
        }
      },
      "symbol()": {
        "details": "See {IERC721Metadata-symbol}."
      },
      "tokenContentURI(uint256)": {
        "details": "basic public getter method for content URI ",
        "params": {
          "_tokenId": "uint256 identifier of token to get content URI for"
        },
        "returns": {
          "_0": "string content URI for given tokenId"
        }
      },
      "tokenURI(uint256)": {
        "details": "override function, returns metadataURI of token stored in tokenData",
        "params": {
          "_tokenId": "uint256 token id corresponding to the token of which to get metadata from"
        },
        "returns": {
          "_0": "string containing metadata URI"
        }
      },
      "transferFrom(address,address,uint256)": {
        "details": "See {IERC721-transferFrom}."
      },
      "transferOwnership(address)": {
        "details": "Transfers ownership of the contract to a new account (`newOwner`). Can only be called by the current owner."
      },
      "updateMetadataURI(uint256,string)": {
        "details": "access controlled, restricted to contract owner when they own the tokenId or the creator (when they own the token)",
        "params": {
          "_metadataURI": "string containing new/updated metadata (e.g IPFS URI pointing to metadata.json)",
          "_tokenId": "uint256 token id corresponding to the token to update"
        }
      },
      "updateRoot(bytes32)": {
        "details": "access controlled function, restricted to owner/admim.",
        "params": {
          "_newRoot": "bytes32 containing the new root hash, generated off-chain"
        }
      },
      "updateRoyaltyInfo(uint256,address)": {
        "details": "access controlled to owner only, subject to change. this function allows for emergency royalty control (i.e compromised wallet)",
        "params": {
          "_royaltyPayoutAddress": "address of new royalty payout address",
          "_tokenId": "uint256 token id corresponding to the token of which to update royalty payout"
        }
      },
      "updateTokenURIs(uint256,string,string)": {
        "details": "access controlled function, restricted to owner/admim. subject to change.",
        "params": {
          "_contentURI": "string containing new/updated media content (subject to change, new EIP)",
          "_metadataURI": "string containing new/updated metadata (e.g IPFS URI pointing to metadata.json)",
          "_tokenId": "uint256 token id corresponding to the token to update"
        }
      }
    },
    "title": ":   CTLTestV2",
    "version": 1
  },
  "userdoc": {
    "events": {
      "MetadataUpdated(uint256,string)": {
        "notice": "Events"
      },
      "merkleRootUpdated(bytes32)": {
        "notice": "Events"
      }
    },
    "kind": "user",
    "methods": {
      "burn(uint256)": {
        "notice": "Burn Function"
      },
      "creator(uint256)": {
        "notice": "creator Function"
      },
      "getURIs(uint256)": {
        "notice": "getURIs Function"
      },
      "initialize(string,string)": {
        "notice": "initialize FunctionInitializes contract with default values, acts as a constructor"
      },
      "merkleRoot()": {
        "notice": "State variable containing merkle root  see {IAngelaList}"
      },
      "mintAllowlist((string,string,address,address,uint16),bytes32[])": {
        "notice": "mintAllowlist Function"
      },
      "royaltyInfo(uint256,uint256)": {
        "notice": "royaltyInfo Function"
      },
      "royaltyPayoutAddress(uint256)": {
        "notice": "royaltyPayoutAddress Function"
      },
      "supportsInterface(bytes4)": {
        "notice": "supportsInterface Function"
      },
      "tokenContentURI(uint256)": {
        "notice": "tokenContentURI Function"
      },
      "tokenMetadataURIs(uint256)": {
        "notice": "Mappings"
      },
      "tokenURI(uint256)": {
        "notice": "tokenURI Function"
      },
      "updateMetadataURI(uint256,string)": {
        "notice": "updateMetadataURI Function"
      },
      "updateRoot(bytes32)": {
        "notice": "updateRoot Functionthis function is inherits from Angela.sol, and may not be necessary depending on role based configuration."
      },
      "updateRoyaltyInfo(uint256,address)": {
        "notice": "updateRoyaltyInfo Function"
      },
      "updateTokenURIs(uint256,string,string)": {
        "notice": "updateTokenURIs Function"
      }
    },
    "notice": "-------------------------------------------------------------------------------------------------------------------- ______ _______ _      _______                 / _____|_______) |    (_______)          _     | /      _      | |     _       ____  ___| |_   | |     | |     | |    | |     / _  )/___)  _)  | \\_____| |_____| |____| |____( (/ /|___ | |__  \\______)\\______)_______)______)____|___/ \\___) v2************************************************ LEGAL DISCLAIMER: <legal go here>************************************************ ---------------------------------------------------------------------------------------------------------------------                                                                                                                                                                                                                                                                                                                            TESTNET WIP (V2) \"CTLTestV2\"                 :   WIP Creator shared NFT Contract for Catalog",
    "version": 1
  },
  "storageLayout": {
    "storage": [
      {
        "astId": 153,
        "contract": "contracts/CTLTestV2.sol:CTLTestV2",
        "label": "_initialized",
        "offset": 0,
        "slot": "0",
        "type": "t_bool"
      },
      {
        "astId": 156,
        "contract": "contracts/CTLTestV2.sol:CTLTestV2",
        "label": "_initializing",
        "offset": 1,
        "slot": "0",
        "type": "t_bool"
      },
      {
        "astId": 1503,
        "contract": "contracts/CTLTestV2.sol:CTLTestV2",
        "label": "__gap",
        "offset": 0,
        "slot": "1",
        "type": "t_array(t_uint256)50_storage"
      },
      {
        "astId": 1914,
        "contract": "contracts/CTLTestV2.sol:CTLTestV2",
        "label": "__gap",
        "offset": 0,
        "slot": "51",
        "type": "t_array(t_uint256)50_storage"
      },
      {
        "astId": 222,
        "contract": "contracts/CTLTestV2.sol:CTLTestV2",
        "label": "_name",
        "offset": 0,
        "slot": "101",
        "type": "t_string_storage"
      },
      {
        "astId": 224,
        "contract": "contracts/CTLTestV2.sol:CTLTestV2",
        "label": "_symbol",
        "offset": 0,
        "slot": "102",
        "type": "t_string_storage"
      },
      {
        "astId": 228,
        "contract": "contracts/CTLTestV2.sol:CTLTestV2",
        "label": "_owners",
        "offset": 0,
        "slot": "103",
        "type": "t_mapping(t_uint256,t_address)"
      },
      {
        "astId": 232,
        "contract": "contracts/CTLTestV2.sol:CTLTestV2",
        "label": "_balances",
        "offset": 0,
        "slot": "104",
        "type": "t_mapping(t_address,t_uint256)"
      },
      {
        "astId": 236,
        "contract": "contracts/CTLTestV2.sol:CTLTestV2",
        "label": "_tokenApprovals",
        "offset": 0,
        "slot": "105",
        "type": "t_mapping(t_uint256,t_address)"
      },
      {
        "astId": 242,
        "contract": "contracts/CTLTestV2.sol:CTLTestV2",
        "label": "_operatorApprovals",
        "offset": 0,
        "slot": "106",
        "type": "t_mapping(t_address,t_mapping(t_address,t_bool))"
      },
      {
        "astId": 1053,
        "contract": "contracts/CTLTestV2.sol:CTLTestV2",
        "label": "__gap",
        "offset": 0,
        "slot": "107",
        "type": "t_array(t_uint256)44_storage"
      },
      {
        "astId": 10,
        "contract": "contracts/CTLTestV2.sol:CTLTestV2",
        "label": "_owner",
        "offset": 0,
        "slot": "151",
        "type": "t_address"
      },
      {
        "astId": 124,
        "contract": "contracts/CTLTestV2.sol:CTLTestV2",
        "label": "__gap",
        "offset": 0,
        "slot": "152",
        "type": "t_array(t_uint256)49_storage"
      },
      {
        "astId": 1937,
        "contract": "contracts/CTLTestV2.sol:CTLTestV2",
        "label": "merkleRoot",
        "offset": 0,
        "slot": "201",
        "type": "t_bytes32"
      },
      {
        "astId": 2549,
        "contract": "contracts/CTLTestV2.sol:CTLTestV2",
        "label": "tokenMetadataURIs",
        "offset": 0,
        "slot": "202",
        "type": "t_mapping(t_uint256,t_string_storage)"
      },
      {
        "astId": 2555,
        "contract": "contracts/CTLTestV2.sol:CTLTestV2",
        "label": "tokenData",
        "offset": 0,
        "slot": "203",
        "type": "t_mapping(t_uint256,t_struct(TokenData)4759_storage)"
      },
      {
        "astId": 2558,
        "contract": "contracts/CTLTestV2.sol:CTLTestV2",
        "label": "_tokenIdCounter",
        "offset": 0,
        "slot": "204",
        "type": "t_struct(Counter)1510_storage"
      }
    ],
    "types": {
      "t_address": {
        "encoding": "inplace",
        "label": "address",
        "numberOfBytes": "20"
      },
      "t_array(t_uint256)44_storage": {
        "base": "t_uint256",
        "encoding": "inplace",
        "label": "uint256[44]",
        "numberOfBytes": "1408"
      },
      "t_array(t_uint256)49_storage": {
        "base": "t_uint256",
        "encoding": "inplace",
        "label": "uint256[49]",
        "numberOfBytes": "1568"
      },
      "t_array(t_uint256)50_storage": {
        "base": "t_uint256",
        "encoding": "inplace",
        "label": "uint256[50]",
        "numberOfBytes": "1600"
      },
      "t_bool": {
        "encoding": "inplace",
        "label": "bool",
        "numberOfBytes": "1"
      },
      "t_bytes32": {
        "encoding": "inplace",
        "label": "bytes32",
        "numberOfBytes": "32"
      },
      "t_mapping(t_address,t_bool)": {
        "encoding": "mapping",
        "key": "t_address",
        "label": "mapping(address => bool)",
        "numberOfBytes": "32",
        "value": "t_bool"
      },
      "t_mapping(t_address,t_mapping(t_address,t_bool))": {
        "encoding": "mapping",
        "key": "t_address",
        "label": "mapping(address => mapping(address => bool))",
        "numberOfBytes": "32",
        "value": "t_mapping(t_address,t_bool)"
      },
      "t_mapping(t_address,t_uint256)": {
        "encoding": "mapping",
        "key": "t_address",
        "label": "mapping(address => uint256)",
        "numberOfBytes": "32",
        "value": "t_uint256"
      },
      "t_mapping(t_uint256,t_address)": {
        "encoding": "mapping",
        "key": "t_uint256",
        "label": "mapping(uint256 => address)",
        "numberOfBytes": "32",
        "value": "t_address"
      },
      "t_mapping(t_uint256,t_string_storage)": {
        "encoding": "mapping",
        "key": "t_uint256",
        "label": "mapping(uint256 => string)",
        "numberOfBytes": "32",
        "value": "t_string_storage"
      },
      "t_mapping(t_uint256,t_struct(TokenData)4759_storage)": {
        "encoding": "mapping",
        "key": "t_uint256",
        "label": "mapping(uint256 => struct ICTest.TokenData)",
        "numberOfBytes": "32",
        "value": "t_struct(TokenData)4759_storage"
      },
      "t_string_storage": {
        "encoding": "bytes",
        "label": "string",
        "numberOfBytes": "32"
      },
      "t_struct(Counter)1510_storage": {
        "encoding": "inplace",
        "label": "struct CountersUpgradeable.Counter",
        "members": [
          {
            "astId": 1509,
            "contract": "contracts/CTLTestV2.sol:CTLTestV2",
            "label": "_value",
            "offset": 0,
            "slot": "0",
            "type": "t_uint256"
          }
        ],
        "numberOfBytes": "32"
      },
      "t_struct(TokenData)4759_storage": {
        "encoding": "inplace",
        "label": "struct ICTest.TokenData",
        "members": [
          {
            "astId": 4750,
            "contract": "contracts/CTLTestV2.sol:CTLTestV2",
            "label": "metadataURI",
            "offset": 0,
            "slot": "0",
            "type": "t_string_storage"
          },
          {
            "astId": 4752,
            "contract": "contracts/CTLTestV2.sol:CTLTestV2",
            "label": "contentURI",
            "offset": 0,
            "slot": "1",
            "type": "t_string_storage"
          },
          {
            "astId": 4754,
            "contract": "contracts/CTLTestV2.sol:CTLTestV2",
            "label": "creator",
            "offset": 0,
            "slot": "2",
            "type": "t_address"
          },
          {
            "astId": 4756,
            "contract": "contracts/CTLTestV2.sol:CTLTestV2",
            "label": "royaltyPayout",
            "offset": 0,
            "slot": "3",
            "type": "t_address"
          },
          {
            "astId": 4758,
            "contract": "contracts/CTLTestV2.sol:CTLTestV2",
            "label": "royaltyBPS",
            "offset": 20,
            "slot": "3",
            "type": "t_uint16"
          }
        ],
        "numberOfBytes": "128"
      },
      "t_uint16": {
        "encoding": "inplace",
        "label": "uint16",
        "numberOfBytes": "2"
      },
      "t_uint256": {
        "encoding": "inplace",
        "label": "uint256",
        "numberOfBytes": "32"
      }
    }
  }
}