{
  "address": "0x8C65e4fe08eb10721cBc42C433348B905655bd36",
  "abi": [
    {
      "anonymous": false,
      "inputs": [
        {
          "indexed": true,
          "internalType": "address",
          "name": "owner",
          "type": "address"
        },
        {
          "indexed": true,
          "internalType": "address",
          "name": "approved",
          "type": "address"
        },
        {
          "indexed": true,
          "internalType": "uint256",
          "name": "tokenId",
          "type": "uint256"
        }
      ],
      "name": "Approval",
      "type": "event"
    },
    {
      "anonymous": false,
      "inputs": [
        {
          "indexed": true,
          "internalType": "address",
          "name": "owner",
          "type": "address"
        },
        {
          "indexed": true,
          "internalType": "address",
          "name": "operator",
          "type": "address"
        },
        {
          "indexed": false,
          "internalType": "bool",
          "name": "approved",
          "type": "bool"
        }
      ],
      "name": "ApprovalForAll",
      "type": "event"
    },
    {
      "anonymous": false,
      "inputs": [
        {
          "indexed": true,
          "internalType": "uint256",
          "name": "",
          "type": "uint256"
        },
        {
          "indexed": false,
          "internalType": "string",
          "name": "",
          "type": "string"
        }
      ],
      "name": "MetadataUpdated",
      "type": "event"
    },
    {
      "anonymous": false,
      "inputs": [
        {
          "indexed": true,
          "internalType": "address",
          "name": "previousOwner",
          "type": "address"
        },
        {
          "indexed": true,
          "internalType": "address",
          "name": "newOwner",
          "type": "address"
        }
      ],
      "name": "OwnershipTransferred",
      "type": "event"
    },
    {
      "anonymous": false,
      "inputs": [
        {
          "indexed": true,
          "internalType": "uint256",
          "name": "",
          "type": "uint256"
        },
        {
          "indexed": true,
          "internalType": "address",
          "name": "",
          "type": "address"
        }
      ],
      "name": "RoyaltyUpdated",
      "type": "event"
    },
    {
      "anonymous": false,
      "inputs": [
        {
          "indexed": true,
          "internalType": "address",
          "name": "from",
          "type": "address"
        },
        {
          "indexed": true,
          "internalType": "address",
          "name": "to",
          "type": "address"
        },
        {
          "indexed": true,
          "internalType": "uint256",
          "name": "tokenId",
          "type": "uint256"
        }
      ],
      "name": "Transfer",
      "type": "event"
    },
    {
      "anonymous": false,
      "inputs": [
        {
          "indexed": false,
          "internalType": "bytes32",
          "name": "_merkleRoot",
          "type": "bytes32"
        }
      ],
      "name": "merkleRootUpdated",
      "type": "event"
    },
    {
      "inputs": [
        {
          "internalType": "address",
          "name": "to",
          "type": "address"
        },
        {
          "internalType": "uint256",
          "name": "tokenId",
          "type": "uint256"
        }
      ],
      "name": "approve",
      "outputs": [],
      "stateMutability": "nonpayable",
      "type": "function"
    },
    {
      "inputs": [
        {
          "internalType": "address",
          "name": "owner",
          "type": "address"
        }
      ],
      "name": "balanceOf",
      "outputs": [
        {
          "internalType": "uint256",
          "name": "",
          "type": "uint256"
        }
      ],
      "stateMutability": "view",
      "type": "function"
    },
    {
      "inputs": [
        {
          "internalType": "uint256",
          "name": "_tokenId",
          "type": "uint256"
        }
      ],
      "name": "burn",
      "outputs": [],
      "stateMutability": "nonpayable",
      "type": "function"
    },
    {
      "inputs": [
        {
          "internalType": "uint256",
          "name": "_tokenId",
          "type": "uint256"
        }
      ],
      "name": "creator",
      "outputs": [
        {
          "internalType": "address",
          "name": "",
          "type": "address"
        }
      ],
      "stateMutability": "view",
      "type": "function"
    },
    {
      "inputs": [
        {
          "internalType": "uint256",
          "name": "tokenId",
          "type": "uint256"
        }
      ],
      "name": "getApproved",
      "outputs": [
        {
          "internalType": "address",
          "name": "",
          "type": "address"
        }
      ],
      "stateMutability": "view",
      "type": "function"
    },
    {
      "inputs": [
        {
          "internalType": "string",
          "name": "_name",
          "type": "string"
        },
        {
          "internalType": "string",
          "name": "_symbol",
          "type": "string"
        }
      ],
      "name": "initialize",
      "outputs": [],
      "stateMutability": "nonpayable",
      "type": "function"
    },
    {
      "inputs": [
        {
          "internalType": "address",
          "name": "owner",
          "type": "address"
        },
        {
          "internalType": "address",
          "name": "operator",
          "type": "address"
        }
      ],
      "name": "isApprovedForAll",
      "outputs": [
        {
          "internalType": "bool",
          "name": "",
          "type": "bool"
        }
      ],
      "stateMutability": "view",
      "type": "function"
    },
    {
      "inputs": [],
      "name": "merkleRoot",
      "outputs": [
        {
          "internalType": "bytes32",
          "name": "",
          "type": "bytes32"
        }
      ],
      "stateMutability": "view",
      "type": "function"
    },
    {
      "inputs": [
        {
          "components": [
            {
              "internalType": "string",
              "name": "metadataURI",
              "type": "string"
            },
            {
              "internalType": "string",
              "name": "contentURI",
              "type": "string"
            },
            {
              "internalType": "address",
              "name": "creator",
              "type": "address"
            },
            {
              "internalType": "address",
              "name": "royaltyPayout",
              "type": "address"
            },
            {
              "internalType": "uint16",
              "name": "royaltyBPS",
              "type": "uint16"
            }
          ],
          "internalType": "struct ITB303.TokenData",
          "name": "_data",
          "type": "tuple"
        },
        {
          "internalType": "bytes32[]",
          "name": "_proof",
          "type": "bytes32[]"
        }
      ],
      "name": "mint",
      "outputs": [
        {
          "internalType": "uint256",
          "name": "",
          "type": "uint256"
        }
      ],
      "stateMutability": "nonpayable",
      "type": "function"
    },
    {
      "inputs": [],
      "name": "name",
      "outputs": [
        {
          "internalType": "string",
          "name": "",
          "type": "string"
        }
      ],
      "stateMutability": "view",
      "type": "function"
    },
    {
      "inputs": [],
      "name": "owner",
      "outputs": [
        {
          "internalType": "address",
          "name": "",
          "type": "address"
        }
      ],
      "stateMutability": "view",
      "type": "function"
    },
    {
      "inputs": [
        {
          "internalType": "uint256",
          "name": "tokenId",
          "type": "uint256"
        }
      ],
      "name": "ownerOf",
      "outputs": [
        {
          "internalType": "address",
          "name": "",
          "type": "address"
        }
      ],
      "stateMutability": "view",
      "type": "function"
    },
    {
      "inputs": [],
      "name": "renounceOwnership",
      "outputs": [],
      "stateMutability": "nonpayable",
      "type": "function"
    },
    {
      "inputs": [
        {
          "internalType": "uint256",
          "name": "_tokenId",
          "type": "uint256"
        },
        {
          "internalType": "uint256",
          "name": "_salePrice",
          "type": "uint256"
        }
      ],
      "name": "royaltyInfo",
      "outputs": [
        {
          "internalType": "address",
          "name": "receiver",
          "type": "address"
        },
        {
          "internalType": "uint256",
          "name": "royaltyAmount",
          "type": "uint256"
        }
      ],
      "stateMutability": "view",
      "type": "function"
    },
    {
      "inputs": [
        {
          "internalType": "uint256",
          "name": "_tokenId",
          "type": "uint256"
        }
      ],
      "name": "royaltyPayoutAddress",
      "outputs": [
        {
          "internalType": "address",
          "name": "",
          "type": "address"
        }
      ],
      "stateMutability": "view",
      "type": "function"
    },
    {
      "inputs": [
        {
          "internalType": "address",
          "name": "from",
          "type": "address"
        },
        {
          "internalType": "address",
          "name": "to",
          "type": "address"
        },
        {
          "internalType": "uint256",
          "name": "tokenId",
          "type": "uint256"
        }
      ],
      "name": "safeTransferFrom",
      "outputs": [],
      "stateMutability": "nonpayable",
      "type": "function"
    },
    {
      "inputs": [
        {
          "internalType": "address",
          "name": "from",
          "type": "address"
        },
        {
          "internalType": "address",
          "name": "to",
          "type": "address"
        },
        {
          "internalType": "uint256",
          "name": "tokenId",
          "type": "uint256"
        },
        {
          "internalType": "bytes",
          "name": "_data",
          "type": "bytes"
        }
      ],
      "name": "safeTransferFrom",
      "outputs": [],
      "stateMutability": "nonpayable",
      "type": "function"
    },
    {
      "inputs": [
        {
          "internalType": "address",
          "name": "operator",
          "type": "address"
        },
        {
          "internalType": "bool",
          "name": "approved",
          "type": "bool"
        }
      ],
      "name": "setApprovalForAll",
      "outputs": [],
      "stateMutability": "nonpayable",
      "type": "function"
    },
    {
      "inputs": [
        {
          "internalType": "bytes4",
          "name": "interfaceId",
          "type": "bytes4"
        }
      ],
      "name": "supportsInterface",
      "outputs": [
        {
          "internalType": "bool",
          "name": "",
          "type": "bool"
        }
      ],
      "stateMutability": "view",
      "type": "function"
    },
    {
      "inputs": [],
      "name": "symbol",
      "outputs": [
        {
          "internalType": "string",
          "name": "",
          "type": "string"
        }
      ],
      "stateMutability": "view",
      "type": "function"
    },
    {
      "inputs": [
        {
          "internalType": "uint256",
          "name": "_tokenId",
          "type": "uint256"
        }
      ],
      "name": "tokenContentURI",
      "outputs": [
        {
          "internalType": "string",
          "name": "",
          "type": "string"
        }
      ],
      "stateMutability": "view",
      "type": "function"
    },
    {
      "inputs": [
        {
          "internalType": "uint256",
          "name": "",
          "type": "uint256"
        }
      ],
      "name": "tokenMetadataURIs",
      "outputs": [
        {
          "internalType": "string",
          "name": "",
          "type": "string"
        }
      ],
      "stateMutability": "view",
      "type": "function"
    },
    {
      "inputs": [
        {
          "internalType": "uint256",
          "name": "_tokenId",
          "type": "uint256"
        }
      ],
      "name": "tokenURI",
      "outputs": [
        {
          "internalType": "string",
          "name": "",
          "type": "string"
        }
      ],
      "stateMutability": "view",
      "type": "function"
    },
    {
      "inputs": [
        {
          "internalType": "address",
          "name": "from",
          "type": "address"
        },
        {
          "internalType": "address",
          "name": "to",
          "type": "address"
        },
        {
          "internalType": "uint256",
          "name": "tokenId",
          "type": "uint256"
        }
      ],
      "name": "transferFrom",
      "outputs": [],
      "stateMutability": "nonpayable",
      "type": "function"
    },
    {
      "inputs": [
        {
          "internalType": "address",
          "name": "newOwner",
          "type": "address"
        }
      ],
      "name": "transferOwnership",
      "outputs": [],
      "stateMutability": "nonpayable",
      "type": "function"
    },
    {
      "inputs": [
        {
          "internalType": "uint256",
          "name": "_tokenId",
          "type": "uint256"
        },
        {
          "internalType": "string",
          "name": "_metadataURI",
          "type": "string"
        }
      ],
      "name": "updateMetadataURI",
      "outputs": [],
      "stateMutability": "nonpayable",
      "type": "function"
    },
    {
      "inputs": [
        {
          "internalType": "bytes32",
          "name": "_newRoot",
          "type": "bytes32"
        }
      ],
      "name": "updateRoot",
      "outputs": [],
      "stateMutability": "nonpayable",
      "type": "function"
    },
    {
      "inputs": [
        {
          "internalType": "uint256",
          "name": "_tokenId",
          "type": "uint256"
        },
        {
          "internalType": "address",
          "name": "_royaltyPayoutAddress",
          "type": "address"
        }
      ],
      "name": "updateRoyaltyInfo",
      "outputs": [],
      "stateMutability": "nonpayable",
      "type": "function"
    },
    {
      "inputs": [
        {
          "internalType": "uint256",
          "name": "_tokenId",
          "type": "uint256"
        },
        {
          "internalType": "string",
          "name": "_metadataURI",
          "type": "string"
        },
        {
          "internalType": "string",
          "name": "_contentURI",
          "type": "string"
        }
      ],
      "name": "updateTokenURIs",
      "outputs": [],
      "stateMutability": "nonpayable",
      "type": "function"
    }
  ],
  "transactionHash": "0x5f7dd89995886d4d0bfe9a5c9f18cccc3f80f8ca7cfb5e25bc088f6a553c9e61",
  "args": [],
  "solcInputHash": "1611806a772f61b205fb176258ddd074",
  "bytecode": "0x608060405234801561001057600080fd5b50612531806100206000396000f3fe608060405234801561001057600080fd5b50600436106101cf5760003560e01c8063510b5158116101045780638fe86b3f116100a2578063c87b56dd11610071578063c87b56dd146103eb578063e985e9c5146103fe578063f2fde38b1461043a578063fbd8d2831461044d57600080fd5b80638fe86b3f146103aa57806395d89b41146103bd578063a22cb465146103c5578063b88d4fde146103d857600080fd5b8063669d311c116100de578063669d311c1461036b57806370a082311461037e578063715018a6146103915780638da5cb5b1461039957600080fd5b8063510b515814610332578063514eaa25146103455780636352211e1461035857600080fd5b806323b872dd1161017157806342842e0e1161014b57806342842e0e146102e657806342966c68146102f957806344dcc2321461030c5780634cd88b761461031f57600080fd5b806323b872dd1461028a5780632a55205a1461029d5780632eb4a7ab146102cf57600080fd5b8063095ea7b3116101ad578063095ea7b31461023c5780630c0a9d26146102515780631cbbc6e21461026457806321ff99701461027757600080fd5b806301ffc9a7146101d457806306fdde03146101fc578063081812fc14610211575b600080fd5b6101e76101e2366004611d10565b610460565b60405190151581526020015b60405180910390f35b61020461048b565b6040516101f39190611d7a565b61022461021f366004611d8d565b61051d565b6040516001600160a01b0390911681526020016101f3565b61024f61024a366004611dc2565b6105aa565b005b61020461025f366004611d8d565b6106c0565b61024f610272366004611e98565b610765565b61024f610285366004611d8d565b6107da565b61024f610298366004611f05565b610810565b6102b06102ab366004611f41565b610841565b604080516001600160a01b0390931683526020830191909152016101f3565b6102d860c95481565b6040519081526020016101f3565b61024f6102f4366004611f05565b6108c8565b61024f610307366004611d8d565b6108e3565b61020461031a366004611d8d565b610932565b61024f61032d366004611f63565b6109cc565b610224610340366004611d8d565b610a59565b6102d8610353366004611fc7565b610a9f565b610224610366366004611d8d565b610d72565b61024f610379366004612069565b610de9565b6102d861038c366004612095565b610e7a565b61024f610f01565b6097546001600160a01b0316610224565b61024f6103b83660046120b0565b610f37565b610204611005565b61024f6103d33660046120ed565b611014565b61024f6103e6366004612129565b611023565b6102046103f9366004611d8d565b611055565b6101e761040c3660046121a5565b6001600160a01b039182166000908152606a6020908152604080832093909416825291909152205460ff1690565b61024f610448366004612095565b611095565b61022461045b366004611d8d565b61112d565b600063152a902d60e11b6001600160e01b031983161480610485575061048582611173565b92915050565b60606065805461049a906121cf565b80601f01602080910402602001604051908101604052809291908181526020018280546104c6906121cf565b80156105135780601f106104e857610100808354040283529160200191610513565b820191906000526020600020905b8154815290600101906020018083116104f657829003601f168201915b5050505050905090565b6000610528826111c3565b61058e5760405162461bcd60e51b815260206004820152602c60248201527f4552433732313a20617070726f76656420717565727920666f72206e6f6e657860448201526b34b9ba32b73a103a37b5b2b760a11b60648201526084015b60405180910390fd5b506000908152606960205260409020546001600160a01b031690565b60006105b582610d72565b9050806001600160a01b0316836001600160a01b031614156106235760405162461bcd60e51b815260206004820152602160248201527f4552433732313a20617070726f76616c20746f2063757272656e74206f776e656044820152603960f91b6064820152608401610585565b336001600160a01b038216148061063f575061063f813361040c565b6106b15760405162461bcd60e51b815260206004820152603860248201527f4552433732313a20617070726f76652063616c6c6572206973206e6f74206f7760448201527f6e6572206e6f7220617070726f76656420666f7220616c6c00000000000000006064820152608401610585565b6106bb83836111e0565b505050565b600081815260cb602052604090206001018054606091906106e0906121cf565b80601f016020809104026020016040519081016040528092919081815260200182805461070c906121cf565b80156107595780601f1061072e57610100808354040283529160200191610759565b820191906000526020600020905b81548152906001019060200180831161073c57829003601f168201915b50505050509050919050565b6097546001600160a01b0316331461078f5760405162461bcd60e51b81526004016105859061220a565b600083815260cb6020908152604090912083516107ae92850190611c61565b50600083815260cb6020908152604090912082516107d492600190920191840190611c61565b50505050565b6097546001600160a01b031633146108045760405162461bcd60e51b81526004016105859061220a565b61080d8161124e565b50565b61081a3382611289565b6108365760405162461bcd60e51b81526004016105859061223f565b6106bb83838361136f565b600080806108576097546001600160a01b031690565b6001600160a01b0316141561087b5750506097546001600160a01b031660006108c1565b6097546001600160a01b0316600085815260cb6020526040902060030154612710906108b290600160a01b900461ffff16866122a6565b6108bc91906122c5565b915091505b9250929050565b6106bb83838360405180602001604052806000815250611023565b6108ed3382611289565b6109295760405162461bcd60e51b815260206004820152600d60248201526c4e6f7420417070726f7665642160981b6044820152606401610585565b61080d8161150f565b60ca602052600090815260409020805461094b906121cf565b80601f0160208091040260200160405190810160405280929190818152602001828054610977906121cf565b80156109c45780601f10610999576101008083540402835291602001916109c4565b820191906000526020600020905b8154815290600101906020018083116109a757829003601f168201915b505050505081565b600054610100900460ff16806109e5575060005460ff16155b610a015760405162461bcd60e51b8152600401610585906122e7565b600054610100900460ff16158015610a23576000805461ffff19166101011790555b610a2d83836115aa565b610a3561161b565b610a4360cc80546001019055565b80156106bb576000805461ff0019169055505050565b6000610a64826111c3565b610a805760405162461bcd60e51b815260040161058590612335565b50600090815260cb60205260409020600201546001600160a01b031690565b6000610b2f610af6610ab76060870160408801612095565b6040516bffffffffffffffffffffffff19606083901b166020820152600090603401604051602081830303815290604052805190602001209050919050565b84848080602002602001604051908101604052809392919081815260200183836020028082843760009201919091525061169692505050565b610b6a5760405162461bcd60e51b815260206004820152600c60248201526b10bb30b634b210383937b7b360a11b6044820152606401610585565b612710610b7d60a0860160808701612384565b61ffff1610610bbf5760405162461bcd60e51b815260206004820152600e60248201526d0e4def2c2d8e8f2406440d0d2ced60931b6044820152606401610585565b6000610bca60cc5490565b9050610bd633826116ac565b6040805160a0810190915280610bec87806123a8565b8080601f016020809104026020016040519081016040528093929190818152602001838380828437600092019190915250505090825250602090810190610c35908801886123a8565b8080601f016020809104026020016040519081016040528093929190818152602001838380828437600092019190915250505090825250602001610c7f6060880160408901612095565b6001600160a01b03168152602001610c9d6080880160608901612095565b6001600160a01b03168152602001610cbb60a0880160808901612384565b61ffff169052600082815260cb60209081526040909120825180519192610ce792849290910190611c61565b506020828101518051610d009260018501920190611c61565b5060408201516002820180546001600160a01b039283166001600160a01b031990911617905560608301516003909201805460809094015161ffff16600160a01b026001600160b01b03199094169290911691909117919091179055610d6a60cc80546001019055565b949350505050565b6000818152606760205260408120546001600160a01b0316806104855760405162461bcd60e51b815260206004820152602960248201527f4552433732313a206f776e657220717565727920666f72206e6f6e657869737460448201526832b73a103a37b5b2b760b91b6064820152608401610585565b6097546001600160a01b03163314610e135760405162461bcd60e51b81526004016105859061220a565b6040516001600160a01b0382169083907f13ceafb5e8ec39102bd452913a5c00a05f3b060d636d3a567c1c80e8b4321fe790600090a3600091825260cb602052604090912060030180546001600160a01b0319166001600160a01b03909216919091179055565b60006001600160a01b038216610ee55760405162461bcd60e51b815260206004820152602a60248201527f4552433732313a2062616c616e636520717565727920666f7220746865207a65604482015269726f206164647265737360b01b6064820152608401610585565b506001600160a01b031660009081526068602052604090205490565b6097546001600160a01b03163314610f2b5760405162461bcd60e51b81526004016105859061220a565b610f3560006117df565b565b81610f41816111c3565b610f845760405162461bcd60e51b8152602060048201526014602482015273151bdad95b88191bd95cc81b9bdd08195e1a5cdd60621b6044820152606401610585565b6097546001600160a01b03163314610fae5760405162461bcd60e51b81526004016105859061220a565b827f459157ba24c7ab9878b165ef465fa6ae2ab42bcd8445f576be378768b0c4730983604051610fde9190611d7a565b60405180910390a2600083815260cb6020908152604090912083516107d492850190611c61565b60606066805461049a906121cf565b61101f338383611831565b5050565b61102d3383611289565b6110495760405162461bcd60e51b81526004016105859061223f565b6107d484848484611900565b6060611060826111c3565b61107c5760405162461bcd60e51b815260040161058590612335565b600082815260cb6020526040902080546106e0906121cf565b6097546001600160a01b031633146110bf5760405162461bcd60e51b81526004016105859061220a565b6001600160a01b0381166111245760405162461bcd60e51b815260206004820152602660248201527f4f776e61626c653a206e6577206f776e657220697320746865207a65726f206160448201526564647265737360d01b6064820152608401610585565b61080d816117df565b6000611138826111c3565b6111545760405162461bcd60e51b815260040161058590612335565b50600090815260cb60205260409020600301546001600160a01b031690565b60006001600160e01b031982166380ac58cd60e01b14806111a457506001600160e01b03198216635b5e139f60e01b145b8061048557506301ffc9a760e01b6001600160e01b0319831614610485565b6000908152606760205260409020546001600160a01b0316151590565b600081815260696020526040902080546001600160a01b0319166001600160a01b038416908117909155819061121582610d72565b6001600160a01b03167f8c5be1e5ebec7d5bd14f71427d1e84f3dd0314c0f7b2291e5b200ac8c7c3b92560405160405180910390a45050565b60c98190556040518181527fa2bc4a36b1e221bdcc16df9d7c15559a5f4f9902519c0f92ad3198f1df005e8b9060200160405180910390a150565b6000611294826111c3565b6112f55760405162461bcd60e51b815260206004820152602c60248201527f4552433732313a206f70657261746f7220717565727920666f72206e6f6e657860448201526b34b9ba32b73a103a37b5b2b760a11b6064820152608401610585565b600061130083610d72565b9050806001600160a01b0316846001600160a01b0316148061133b5750836001600160a01b03166113308461051d565b6001600160a01b0316145b80610d6a57506001600160a01b038082166000908152606a602090815260408083209388168352929052205460ff16610d6a565b826001600160a01b031661138282610d72565b6001600160a01b0316146113ea5760405162461bcd60e51b815260206004820152602960248201527f4552433732313a207472616e73666572206f6620746f6b656e2074686174206960448201526839903737ba1037bbb760b91b6064820152608401610585565b6001600160a01b03821661144c5760405162461bcd60e51b8152602060048201526024808201527f4552433732313a207472616e7366657220746f20746865207a65726f206164646044820152637265737360e01b6064820152608401610585565b6114576000826111e0565b6001600160a01b03831660009081526068602052604081208054600192906114809084906123ef565b90915550506001600160a01b03821660009081526068602052604081208054600192906114ae908490612406565b909155505060008181526067602052604080822080546001600160a01b0319166001600160a01b0386811691821790925591518493918716917fddf252ad1be2c89b69c2b068fc378daa952ba7f163c4a11628f55a4df523b3ef91a4505050565b600061151a82610d72565b90506115276000836111e0565b6001600160a01b03811660009081526068602052604081208054600192906115509084906123ef565b909155505060008281526067602052604080822080546001600160a01b0319169055518391906001600160a01b038416907fddf252ad1be2c89b69c2b068fc378daa952ba7f163c4a11628f55a4df523b3ef908390a45050565b600054610100900460ff16806115c3575060005460ff16155b6115df5760405162461bcd60e51b8152600401610585906122e7565b600054610100900460ff16158015611601576000805461ffff19166101011790555b611609611933565b611611611933565b610a43838361199d565b600054610100900460ff1680611634575060005460ff16155b6116505760405162461bcd60e51b8152600401610585906122e7565b600054610100900460ff16158015611672576000805461ffff19166101011790555b61167a611933565b611682611a32565b801561080d576000805461ff001916905550565b60006116a58260c95485611a92565b9392505050565b6001600160a01b0382166117025760405162461bcd60e51b815260206004820181905260248201527f4552433732313a206d696e7420746f20746865207a65726f20616464726573736044820152606401610585565b61170b816111c3565b156117585760405162461bcd60e51b815260206004820152601c60248201527f4552433732313a20746f6b656e20616c7265616479206d696e746564000000006044820152606401610585565b6001600160a01b0382166000908152606860205260408120805460019290611781908490612406565b909155505060008181526067602052604080822080546001600160a01b0319166001600160a01b03861690811790915590518392907fddf252ad1be2c89b69c2b068fc378daa952ba7f163c4a11628f55a4df523b3ef908290a45050565b609780546001600160a01b038381166001600160a01b0319831681179093556040519116919082907f8be0079c531659141344cd1fd0a4f28419497f9722a3daafe3b4186f6b6457e090600090a35050565b816001600160a01b0316836001600160a01b031614156118935760405162461bcd60e51b815260206004820152601960248201527f4552433732313a20617070726f766520746f2063616c6c6572000000000000006044820152606401610585565b6001600160a01b038381166000818152606a6020908152604080832094871680845294825291829020805460ff191686151590811790915591519182527f17307eab39ab6107e8899845ad3d59bd9653f200f220920489ca2b5937696c31910160405180910390a3505050565b61190b84848461136f565b61191784848484611aa8565b6107d45760405162461bcd60e51b81526004016105859061241e565b600054610100900460ff168061194c575060005460ff16155b6119685760405162461bcd60e51b8152600401610585906122e7565b600054610100900460ff16158015611682576000805461ffff1916610101179055801561080d576000805461ff001916905550565b600054610100900460ff16806119b6575060005460ff16155b6119d25760405162461bcd60e51b8152600401610585906122e7565b600054610100900460ff161580156119f4576000805461ffff19166101011790555b8251611a07906065906020860190611c61565b508151611a1b906066906020850190611c61565b5080156106bb576000805461ff0019169055505050565b600054610100900460ff1680611a4b575060005460ff16155b611a675760405162461bcd60e51b8152600401610585906122e7565b600054610100900460ff16158015611a89576000805461ffff19166101011790555b611682336117df565b600082611a9f8584611bb5565b14949350505050565b60006001600160a01b0384163b15611baa57604051630a85bd0160e11b81526001600160a01b0385169063150b7a0290611aec903390899088908890600401612470565b602060405180830381600087803b158015611b0657600080fd5b505af1925050508015611b36575060408051601f3d908101601f19168201909252611b33918101906124ad565b60015b611b90573d808015611b64576040519150601f19603f3d011682016040523d82523d6000602084013e611b69565b606091505b508051611b885760405162461bcd60e51b81526004016105859061241e565b805181602001fd5b6001600160e01b031916630a85bd0160e11b149050610d6a565b506001949350505050565b600081815b8451811015611c59576000858281518110611bd757611bd76124ca565b60200260200101519050808311611c19576040805160208101859052908101829052606001604051602081830303815290604052805190602001209250611c46565b60408051602081018390529081018490526060016040516020818303038152906040528051906020012092505b5080611c51816124e0565b915050611bba565b509392505050565b828054611c6d906121cf565b90600052602060002090601f016020900481019282611c8f5760008555611cd5565b82601f10611ca857805160ff1916838001178555611cd5565b82800160010185558215611cd5579182015b82811115611cd5578251825591602001919060010190611cba565b50611ce1929150611ce5565b5090565b5b80821115611ce15760008155600101611ce6565b6001600160e01b03198116811461080d57600080fd5b600060208284031215611d2257600080fd5b81356116a581611cfa565b6000815180845260005b81811015611d5357602081850181015186830182015201611d37565b81811115611d65576000602083870101525b50601f01601f19169290920160200192915050565b6020815260006116a56020830184611d2d565b600060208284031215611d9f57600080fd5b5035919050565b80356001600160a01b0381168114611dbd57600080fd5b919050565b60008060408385031215611dd557600080fd5b611dde83611da6565b946020939093013593505050565b634e487b7160e01b600052604160045260246000fd5b600067ffffffffffffffff80841115611e1d57611e1d611dec565b604051601f8501601f19908116603f01168101908282118183101715611e4557611e45611dec565b81604052809350858152868686011115611e5e57600080fd5b858560208301376000602087830101525050509392505050565b600082601f830112611e8957600080fd5b6116a583833560208501611e02565b600080600060608486031215611ead57600080fd5b83359250602084013567ffffffffffffffff80821115611ecc57600080fd5b611ed887838801611e78565b93506040860135915080821115611eee57600080fd5b50611efb86828701611e78565b9150509250925092565b600080600060608486031215611f1a57600080fd5b611f2384611da6565b9250611f3160208501611da6565b9150604084013590509250925092565b60008060408385031215611f5457600080fd5b50508035926020909101359150565b60008060408385031215611f7657600080fd5b823567ffffffffffffffff80821115611f8e57600080fd5b611f9a86838701611e78565b93506020850135915080821115611fb057600080fd5b50611fbd85828601611e78565b9150509250929050565b600080600060408486031215611fdc57600080fd5b833567ffffffffffffffff80821115611ff457600080fd5b9085019060a0828803121561200857600080fd5b9093506020850135908082111561201e57600080fd5b818601915086601f83011261203257600080fd5b81358181111561204157600080fd5b8760208260051b850101111561205657600080fd5b6020830194508093505050509250925092565b6000806040838503121561207c57600080fd5b8235915061208c60208401611da6565b90509250929050565b6000602082840312156120a757600080fd5b6116a582611da6565b600080604083850312156120c357600080fd5b82359150602083013567ffffffffffffffff8111156120e157600080fd5b611fbd85828601611e78565b6000806040838503121561210057600080fd5b61210983611da6565b91506020830135801515811461211e57600080fd5b809150509250929050565b6000806000806080858703121561213f57600080fd5b61214885611da6565b935061215660208601611da6565b925060408501359150606085013567ffffffffffffffff81111561217957600080fd5b8501601f8101871361218a57600080fd5b61219987823560208401611e02565b91505092959194509250565b600080604083850312156121b857600080fd5b6121c183611da6565b915061208c60208401611da6565b600181811c908216806121e357607f821691505b6020821081141561220457634e487b7160e01b600052602260045260246000fd5b50919050565b6020808252818101527f4f776e61626c653a2063616c6c6572206973206e6f7420746865206f776e6572604082015260600190565b60208082526031908201527f4552433732313a207472616e736665722063616c6c6572206973206e6f74206f6040820152701ddb995c881b9bdc88185c1c1c9bdd9959607a1b606082015260800190565b634e487b7160e01b600052601160045260246000fd5b60008160001904831182151516156122c0576122c0612290565b500290565b6000826122e257634e487b7160e01b600052601260045260246000fd5b500490565b6020808252602e908201527f496e697469616c697a61626c653a20636f6e747261637420697320616c72656160408201526d191e481a5b9a5d1a585b1a5e995960921b606082015260800190565b6020808252602f908201527f4552433732314d657461646174613a2055524920717565727920666f72206e6f60408201526e3732bc34b9ba32b73a103a37b5b2b760891b606082015260800190565b60006020828403121561239657600080fd5b813561ffff811681146116a557600080fd5b6000808335601e198436030181126123bf57600080fd5b83018035915067ffffffffffffffff8211156123da57600080fd5b6020019150368190038213156108c157600080fd5b60008282101561240157612401612290565b500390565b6000821982111561241957612419612290565b500190565b60208082526032908201527f4552433732313a207472616e7366657220746f206e6f6e20455243373231526560408201527131b2b4bb32b91034b6b83632b6b2b73a32b960711b606082015260800190565b6001600160a01b03858116825284166020820152604081018390526080606082018190526000906124a390830184611d2d565b9695505050505050565b6000602082840312156124bf57600080fd5b81516116a581611cfa565b634e487b7160e01b600052603260045260246000fd5b60006000198214156124f4576124f4612290565b506001019056fea26469706673582212205b1cf9a475f5ddd79a0ae85ec9f2d1fb297bd8f524117274d0646ec0d32c2cdb64736f6c63430008090033",
  "devdoc": {
    "author": ":   @bretth18 (computerdata) of @catalogworks",
    "details": ":   Upgradeable ERC721 Contract. See interface for further implemntation details. Purpose built for optmization over the Zora V1 contracts. isian (iain nash) of Zora.  ---------------------------------------------------------------------------------------------------------------------                                                                                                                                                                                                                                                                                                                           ",
    "kind": "dev",
    "methods": {
      "approve(address,uint256)": {
        "details": "See {IERC721-approve}."
      },
      "balanceOf(address)": {
        "details": "See {IERC721-balanceOf}."
      },
      "burn(uint256)": {
        "details": "burns given tokenId, restrited to owner (approved artists should burn?)",
        "params": {
          "_tokenId": "uint256 identifier of token to burn"
        }
      },
      "creator(uint256)": {
        "details": "idk what this should be called, and do we need?",
        "params": {
          "_tokenId": "uint256 identifier of token to get creator for"
        },
        "returns": {
          "_0": "address creator of given tokenId"
        }
      },
      "getApproved(uint256)": {
        "details": "See {IERC721-getApproved}."
      },
      "initialize(string,string)": {
        "details": "OZ proxy",
        "params": {
          "_name": "string name of the contract",
          "_symbol": "string symbol of the contract"
        }
      },
      "isApprovedForAll(address,address)": {
        "details": "See {IERC721-isApprovedForAll}."
      },
      "mint((string,string,address,address,uint16),bytes32[])": {
        "details": "mints a new token to allowlisted msg.sender with a valid merkle proof. params can and should be changed to calldata for gas efficiency. rename to \"allowlist\"",
        "params": {
          "_data": "TokenData struct, see ITB303",
          "_proof": "bytes32[] merkle proof of artist wallet. this is created off-chain.  e.g (proof = tree.getHexProof(keccak256(address)))"
        },
        "returns": {
          "_0": "uint256 tokenId of minted token (useful since we are not using Enumerable)"
        }
      },
      "name()": {
        "details": "See {IERC721Metadata-name}."
      },
      "owner()": {
        "details": "Returns the address of the current owner."
      },
      "ownerOf(uint256)": {
        "details": "See {IERC721-ownerOf}."
      },
      "renounceOwnership()": {
        "details": "Leaves the contract without owner. It will not be possible to call `onlyOwner` functions anymore. Can only be called by the current owner. NOTE: Renouncing ownership will leave the contract without an owner, thereby removing any functionality that is only available to the owner."
      },
      "royaltyInfo(uint256,uint256)": {
        "details": "override, conforms to EIP-2981",
        "params": {
          "_salePrice": "uint256 final sale price of token used to calculate royalty payout",
          "_tokenId": "uint256 token id corresponding to the token of which to get royalty information"
        }
      },
      "royaltyPayoutAddress(uint256)": {
        "details": "not part of EIP2981, but useful ",
        "params": {
          "_tokenId": "uint256 identifier of token to get royalty payout address for"
        },
        "returns": {
          "_0": "address royalty payout address of given tokenId"
        }
      },
      "safeTransferFrom(address,address,uint256)": {
        "details": "See {IERC721-safeTransferFrom}."
      },
      "safeTransferFrom(address,address,uint256,bytes)": {
        "details": "See {IERC721-safeTransferFrom}."
      },
      "setApprovalForAll(address,bool)": {
        "details": "See {IERC721-setApprovalForAll}."
      },
      "supportsInterface(bytes4)": {
        "details": "override ",
        "params": {
          "interfaceId": "bytes4 id of interface to check"
        }
      },
      "symbol()": {
        "details": "See {IERC721Metadata-symbol}."
      },
      "tokenContentURI(uint256)": {
        "details": "basic public getter method for content URI",
        "params": {
          "_tokenId": "uint256 identifier of token to get content URI for"
        },
        "returns": {
          "_0": "string content URI for given tokenId"
        }
      },
      "tokenURI(uint256)": {
        "details": "override function, returns metadataURI of token stored in tokenData",
        "params": {
          "_tokenId": "uint256 token id corresponding to the token of which to get metadata from"
        },
        "returns": {
          "_0": "string containing metadata URI"
        }
      },
      "transferFrom(address,address,uint256)": {
        "details": "See {IERC721-transferFrom}."
      },
      "transferOwnership(address)": {
        "details": "Transfers ownership of the contract to a new account (`newOwner`). Can only be called by the current owner."
      },
      "updateMetadataURI(uint256,string)": {
        "details": "access controlled, restricted to contract owner when they own the tokenId or the creator (when they own the token)",
        "params": {
          "_metadataURI": "string containing new/updated metadata (e.g IPFS URI pointing to metadata.json)",
          "_tokenId": "uint256 token id corresponding to the token to update"
        }
      },
      "updateRoot(bytes32)": {
        "details": "access controlled function, restricted to owner/admim.",
        "params": {
          "_newRoot": "bytes32 containing the new root hash, generated off-chain"
        }
      },
      "updateRoyaltyInfo(uint256,address)": {
        "details": "access controlled to owner only, subject to change. this function allows for emergency royalty control (i.e compromised wallet)",
        "params": {
          "_royaltyPayoutAddress": "address of new royalty payout address",
          "_tokenId": "uint256 token id corresponding to the token of which to update royalty payout"
        }
      },
      "updateTokenURIs(uint256,string,string)": {
        "details": "access controlled function, restricted to owner/admim. subject to change.",
        "params": {
          "_contentURI": "string containing new/updated media content (subject to change, new EIP)",
          "_metadataURI": "string containing new/updated metadata (e.g IPFS URI pointing to metadata.json)",
          "_tokenId": "uint256 token id corresponding to the token to update"
        }
      }
    },
    "title": ":   TB303",
    "version": 1
  },
  "userdoc": {
    "events": {
      "MetadataUpdated(uint256,string)": {
        "notice": "Events"
      },
      "merkleRootUpdated(bytes32)": {
        "notice": "Events"
      }
    },
    "kind": "user",
    "methods": {
      "burn(uint256)": {
        "notice": "Burn Function"
      },
      "creator(uint256)": {
        "notice": "creator Function"
      },
      "initialize(string,string)": {
        "notice": "initialize FunctionInitializes contract with default values, acts as a constructor"
      },
      "merkleRoot()": {
        "notice": "State variable containing merkle root  see {IAngelaList}"
      },
      "mint((string,string,address,address,uint16),bytes32[])": {
        "notice": "mint Function"
      },
      "royaltyInfo(uint256,uint256)": {
        "notice": "royaltyInfo Function"
      },
      "royaltyPayoutAddress(uint256)": {
        "notice": "royaltyPayoutAddress Function"
      },
      "supportsInterface(bytes4)": {
        "notice": "supportsInterface Function"
      },
      "tokenContentURI(uint256)": {
        "notice": "tokenContentURI Functioncan be retrofitted/replaced with proposed draft 'content' EIP "
      },
      "tokenMetadataURIs(uint256)": {
        "notice": "Mappings"
      },
      "tokenURI(uint256)": {
        "notice": "tokenURI Function"
      },
      "updateMetadataURI(uint256,string)": {
        "notice": "updateMetadataURI Function"
      },
      "updateRoot(bytes32)": {
        "notice": "updateRoot Functionthis function is inherits from Angela.sol, and may not be necessary depending on role based configuration."
      },
      "updateRoyaltyInfo(uint256,address)": {
        "notice": "updateRoyaltyInfo Function"
      },
      "updateTokenURIs(uint256,string,string)": {
        "notice": "updateTokenURIs Function"
      }
    },
    "notice": "-------------------------------------------------------------------------------------------------------------------- ooooooooooooo oooooooooo.    .oooo.     .oooo.     .oooo.    8'   888   `8 `888'   `Y8b .dP\"\"Y88b   d8P'`Y8b  .dP\"\"Y88b   888       888     888       ]8P' 888    888       ]8P'  888       888oooo888'     <88b.  888    888     <88b.   888       888    `88b      `88b. 888    888      `88b.  888       888    .88P o.   .88P  `88b  d88' o.   .88P   o888o     o888bood8P'  `8bd88P'    `Y8bd8P'  `8bd88P'          ************************************************ LEGAL DISCLAIMER: <legal go here>************************************************ ---------------------------------------------------------------------------------------------------------------------                                                                                                                                                                                                                                                                                                                            RINKEBY CNFT (V0: CODENAME \"TB303\") \"TB303\"                     :   Creator Shared NFT Media Contract for Catalog Records Inc.",
    "version": 1
  },
  "storageLayout": {
    "storage": [
      {
        "astId": 153,
        "contract": "contracts/catalog/TB303.sol:TB303",
        "label": "_initialized",
        "offset": 0,
        "slot": "0",
        "type": "t_bool"
      },
      {
        "astId": 156,
        "contract": "contracts/catalog/TB303.sol:TB303",
        "label": "_initializing",
        "offset": 1,
        "slot": "0",
        "type": "t_bool"
      },
      {
        "astId": 1503,
        "contract": "contracts/catalog/TB303.sol:TB303",
        "label": "__gap",
        "offset": 0,
        "slot": "1",
        "type": "t_array(t_uint256)50_storage"
      },
      {
        "astId": 1914,
        "contract": "contracts/catalog/TB303.sol:TB303",
        "label": "__gap",
        "offset": 0,
        "slot": "51",
        "type": "t_array(t_uint256)50_storage"
      },
      {
        "astId": 222,
        "contract": "contracts/catalog/TB303.sol:TB303",
        "label": "_name",
        "offset": 0,
        "slot": "101",
        "type": "t_string_storage"
      },
      {
        "astId": 224,
        "contract": "contracts/catalog/TB303.sol:TB303",
        "label": "_symbol",
        "offset": 0,
        "slot": "102",
        "type": "t_string_storage"
      },
      {
        "astId": 228,
        "contract": "contracts/catalog/TB303.sol:TB303",
        "label": "_owners",
        "offset": 0,
        "slot": "103",
        "type": "t_mapping(t_uint256,t_address)"
      },
      {
        "astId": 232,
        "contract": "contracts/catalog/TB303.sol:TB303",
        "label": "_balances",
        "offset": 0,
        "slot": "104",
        "type": "t_mapping(t_address,t_uint256)"
      },
      {
        "astId": 236,
        "contract": "contracts/catalog/TB303.sol:TB303",
        "label": "_tokenApprovals",
        "offset": 0,
        "slot": "105",
        "type": "t_mapping(t_uint256,t_address)"
      },
      {
        "astId": 242,
        "contract": "contracts/catalog/TB303.sol:TB303",
        "label": "_operatorApprovals",
        "offset": 0,
        "slot": "106",
        "type": "t_mapping(t_address,t_mapping(t_address,t_bool))"
      },
      {
        "astId": 1053,
        "contract": "contracts/catalog/TB303.sol:TB303",
        "label": "__gap",
        "offset": 0,
        "slot": "107",
        "type": "t_array(t_uint256)44_storage"
      },
      {
        "astId": 10,
        "contract": "contracts/catalog/TB303.sol:TB303",
        "label": "_owner",
        "offset": 0,
        "slot": "151",
        "type": "t_address"
      },
      {
        "astId": 124,
        "contract": "contracts/catalog/TB303.sol:TB303",
        "label": "__gap",
        "offset": 0,
        "slot": "152",
        "type": "t_array(t_uint256)49_storage"
      },
      {
        "astId": 1937,
        "contract": "contracts/catalog/TB303.sol:TB303",
        "label": "merkleRoot",
        "offset": 0,
        "slot": "201",
        "type": "t_bytes32"
      },
      {
        "astId": 3530,
        "contract": "contracts/catalog/TB303.sol:TB303",
        "label": "tokenMetadataURIs",
        "offset": 0,
        "slot": "202",
        "type": "t_mapping(t_uint256,t_string_storage)"
      },
      {
        "astId": 3536,
        "contract": "contracts/catalog/TB303.sol:TB303",
        "label": "tokenData",
        "offset": 0,
        "slot": "203",
        "type": "t_mapping(t_uint256,t_struct(TokenData)4779_storage)"
      },
      {
        "astId": 3539,
        "contract": "contracts/catalog/TB303.sol:TB303",
        "label": "_tokenIdCounter",
        "offset": 0,
        "slot": "204",
        "type": "t_struct(Counter)1510_storage"
      }
    ],
    "types": {
      "t_address": {
        "encoding": "inplace",
        "label": "address",
        "numberOfBytes": "20"
      },
      "t_array(t_uint256)44_storage": {
        "base": "t_uint256",
        "encoding": "inplace",
        "label": "uint256[44]",
        "numberOfBytes": "1408"
      },
      "t_array(t_uint256)49_storage": {
        "base": "t_uint256",
        "encoding": "inplace",
        "label": "uint256[49]",
        "numberOfBytes": "1568"
      },
      "t_array(t_uint256)50_storage": {
        "base": "t_uint256",
        "encoding": "inplace",
        "label": "uint256[50]",
        "numberOfBytes": "1600"
      },
      "t_bool": {
        "encoding": "inplace",
        "label": "bool",
        "numberOfBytes": "1"
      },
      "t_bytes32": {
        "encoding": "inplace",
        "label": "bytes32",
        "numberOfBytes": "32"
      },
      "t_mapping(t_address,t_bool)": {
        "encoding": "mapping",
        "key": "t_address",
        "label": "mapping(address => bool)",
        "numberOfBytes": "32",
        "value": "t_bool"
      },
      "t_mapping(t_address,t_mapping(t_address,t_bool))": {
        "encoding": "mapping",
        "key": "t_address",
        "label": "mapping(address => mapping(address => bool))",
        "numberOfBytes": "32",
        "value": "t_mapping(t_address,t_bool)"
      },
      "t_mapping(t_address,t_uint256)": {
        "encoding": "mapping",
        "key": "t_address",
        "label": "mapping(address => uint256)",
        "numberOfBytes": "32",
        "value": "t_uint256"
      },
      "t_mapping(t_uint256,t_address)": {
        "encoding": "mapping",
        "key": "t_uint256",
        "label": "mapping(uint256 => address)",
        "numberOfBytes": "32",
        "value": "t_address"
      },
      "t_mapping(t_uint256,t_string_storage)": {
        "encoding": "mapping",
        "key": "t_uint256",
        "label": "mapping(uint256 => string)",
        "numberOfBytes": "32",
        "value": "t_string_storage"
      },
      "t_mapping(t_uint256,t_struct(TokenData)4779_storage)": {
        "encoding": "mapping",
        "key": "t_uint256",
        "label": "mapping(uint256 => struct ITB303.TokenData)",
        "numberOfBytes": "32",
        "value": "t_struct(TokenData)4779_storage"
      },
      "t_string_storage": {
        "encoding": "bytes",
        "label": "string",
        "numberOfBytes": "32"
      },
      "t_struct(Counter)1510_storage": {
        "encoding": "inplace",
        "label": "struct CountersUpgradeable.Counter",
        "members": [
          {
            "astId": 1509,
            "contract": "contracts/catalog/TB303.sol:TB303",
            "label": "_value",
            "offset": 0,
            "slot": "0",
            "type": "t_uint256"
          }
        ],
        "numberOfBytes": "32"
      },
      "t_struct(TokenData)4779_storage": {
        "encoding": "inplace",
        "label": "struct ITB303.TokenData",
        "members": [
          {
            "astId": 4770,
            "contract": "contracts/catalog/TB303.sol:TB303",
            "label": "metadataURI",
            "offset": 0,
            "slot": "0",
            "type": "t_string_storage"
          },
          {
            "astId": 4772,
            "contract": "contracts/catalog/TB303.sol:TB303",
            "label": "contentURI",
            "offset": 0,
            "slot": "1",
            "type": "t_string_storage"
          },
          {
            "astId": 4774,
            "contract": "contracts/catalog/TB303.sol:TB303",
            "label": "creator",
            "offset": 0,
            "slot": "2",
            "type": "t_address"
          },
          {
            "astId": 4776,
            "contract": "contracts/catalog/TB303.sol:TB303",
            "label": "royaltyPayout",
            "offset": 0,
            "slot": "3",
            "type": "t_address"
          },
          {
            "astId": 4778,
            "contract": "contracts/catalog/TB303.sol:TB303",
            "label": "royaltyBPS",
            "offset": 20,
            "slot": "3",
            "type": "t_uint16"
          }
        ],
        "numberOfBytes": "128"
      },
      "t_uint16": {
        "encoding": "inplace",
        "label": "uint16",
        "numberOfBytes": "2"
      },
      "t_uint256": {
        "encoding": "inplace",
        "label": "uint256",
        "numberOfBytes": "32"
      }
    }
  }
}