{
  "address": "0x71407B4fA7b36193fe73D3b4d5fAA392BD8C6a70",
  "abi": [
    {
      "anonymous": false,
      "inputs": [
        {
          "indexed": true,
          "internalType": "address",
          "name": "owner",
          "type": "address"
        },
        {
          "indexed": true,
          "internalType": "address",
          "name": "approved",
          "type": "address"
        },
        {
          "indexed": true,
          "internalType": "uint256",
          "name": "tokenId",
          "type": "uint256"
        }
      ],
      "name": "Approval",
      "type": "event"
    },
    {
      "anonymous": false,
      "inputs": [
        {
          "indexed": true,
          "internalType": "address",
          "name": "owner",
          "type": "address"
        },
        {
          "indexed": true,
          "internalType": "address",
          "name": "operator",
          "type": "address"
        },
        {
          "indexed": false,
          "internalType": "bool",
          "name": "approved",
          "type": "bool"
        }
      ],
      "name": "ApprovalForAll",
      "type": "event"
    },
    {
      "anonymous": false,
      "inputs": [
        {
          "indexed": true,
          "internalType": "uint256",
          "name": "tokenId",
          "type": "uint256"
        },
        {
          "indexed": false,
          "internalType": "string",
          "name": "contentURI",
          "type": "string"
        }
      ],
      "name": "ContentUpdated",
      "type": "event"
    },
    {
      "anonymous": false,
      "inputs": [
        {
          "indexed": true,
          "internalType": "uint256",
          "name": "tokenId",
          "type": "uint256"
        },
        {
          "indexed": false,
          "internalType": "string",
          "name": "metadataURI",
          "type": "string"
        }
      ],
      "name": "MetadataUpdated",
      "type": "event"
    },
    {
      "anonymous": false,
      "inputs": [
        {
          "indexed": true,
          "internalType": "address",
          "name": "previousOwner",
          "type": "address"
        },
        {
          "indexed": true,
          "internalType": "address",
          "name": "newOwner",
          "type": "address"
        }
      ],
      "name": "OwnershipTransferred",
      "type": "event"
    },
    {
      "anonymous": false,
      "inputs": [
        {
          "indexed": true,
          "internalType": "uint256",
          "name": "tokenId",
          "type": "uint256"
        },
        {
          "indexed": true,
          "internalType": "address",
          "name": "payoutAddress",
          "type": "address"
        }
      ],
      "name": "RoyaltyUpdated",
      "type": "event"
    },
    {
      "anonymous": false,
      "inputs": [
        {
          "indexed": true,
          "internalType": "address",
          "name": "from",
          "type": "address"
        },
        {
          "indexed": true,
          "internalType": "address",
          "name": "to",
          "type": "address"
        },
        {
          "indexed": true,
          "internalType": "uint256",
          "name": "tokenId",
          "type": "uint256"
        }
      ],
      "name": "Transfer",
      "type": "event"
    },
    {
      "anonymous": false,
      "inputs": [
        {
          "indexed": false,
          "internalType": "bytes32",
          "name": "_merkleRoot",
          "type": "bytes32"
        }
      ],
      "name": "merkleRootUpdated",
      "type": "event"
    },
    {
      "inputs": [
        {
          "internalType": "address",
          "name": "to",
          "type": "address"
        },
        {
          "internalType": "uint256",
          "name": "tokenId",
          "type": "uint256"
        }
      ],
      "name": "approve",
      "outputs": [],
      "stateMutability": "nonpayable",
      "type": "function"
    },
    {
      "inputs": [
        {
          "internalType": "address",
          "name": "owner",
          "type": "address"
        }
      ],
      "name": "balanceOf",
      "outputs": [
        {
          "internalType": "uint256",
          "name": "",
          "type": "uint256"
        }
      ],
      "stateMutability": "view",
      "type": "function"
    },
    {
      "inputs": [
        {
          "internalType": "uint256",
          "name": "_tokenId",
          "type": "uint256"
        }
      ],
      "name": "burn",
      "outputs": [],
      "stateMutability": "nonpayable",
      "type": "function"
    },
    {
      "inputs": [
        {
          "internalType": "uint256",
          "name": "_tokenId",
          "type": "uint256"
        }
      ],
      "name": "creator",
      "outputs": [
        {
          "internalType": "address",
          "name": "",
          "type": "address"
        }
      ],
      "stateMutability": "view",
      "type": "function"
    },
    {
      "inputs": [
        {
          "internalType": "uint256",
          "name": "tokenId",
          "type": "uint256"
        }
      ],
      "name": "getApproved",
      "outputs": [
        {
          "internalType": "address",
          "name": "",
          "type": "address"
        }
      ],
      "stateMutability": "view",
      "type": "function"
    },
    {
      "inputs": [
        {
          "internalType": "string",
          "name": "_name",
          "type": "string"
        },
        {
          "internalType": "string",
          "name": "_symbol",
          "type": "string"
        }
      ],
      "name": "initialize",
      "outputs": [],
      "stateMutability": "nonpayable",
      "type": "function"
    },
    {
      "inputs": [
        {
          "internalType": "address",
          "name": "owner",
          "type": "address"
        },
        {
          "internalType": "address",
          "name": "operator",
          "type": "address"
        }
      ],
      "name": "isApprovedForAll",
      "outputs": [
        {
          "internalType": "bool",
          "name": "",
          "type": "bool"
        }
      ],
      "stateMutability": "view",
      "type": "function"
    },
    {
      "inputs": [],
      "name": "merkleRoot",
      "outputs": [
        {
          "internalType": "bytes32",
          "name": "",
          "type": "bytes32"
        }
      ],
      "stateMutability": "view",
      "type": "function"
    },
    {
      "inputs": [
        {
          "components": [
            {
              "internalType": "string",
              "name": "metadataURI",
              "type": "string"
            },
            {
              "internalType": "string",
              "name": "contentURI",
              "type": "string"
            },
            {
              "internalType": "address",
              "name": "creator",
              "type": "address"
            },
            {
              "internalType": "address",
              "name": "royaltyPayout",
              "type": "address"
            },
            {
              "internalType": "uint16",
              "name": "royaltyBPS",
              "type": "uint16"
            }
          ],
          "internalType": "struct TD606.TokenData",
          "name": "_data",
          "type": "tuple"
        },
        {
          "internalType": "bytes32[]",
          "name": "_proof",
          "type": "bytes32[]"
        }
      ],
      "name": "mint",
      "outputs": [
        {
          "internalType": "uint256",
          "name": "",
          "type": "uint256"
        }
      ],
      "stateMutability": "nonpayable",
      "type": "function"
    },
    {
      "inputs": [],
      "name": "name",
      "outputs": [
        {
          "internalType": "string",
          "name": "",
          "type": "string"
        }
      ],
      "stateMutability": "view",
      "type": "function"
    },
    {
      "inputs": [],
      "name": "owner",
      "outputs": [
        {
          "internalType": "address",
          "name": "",
          "type": "address"
        }
      ],
      "stateMutability": "view",
      "type": "function"
    },
    {
      "inputs": [
        {
          "internalType": "uint256",
          "name": "tokenId",
          "type": "uint256"
        }
      ],
      "name": "ownerOf",
      "outputs": [
        {
          "internalType": "address",
          "name": "",
          "type": "address"
        }
      ],
      "stateMutability": "view",
      "type": "function"
    },
    {
      "inputs": [],
      "name": "renounceOwnership",
      "outputs": [],
      "stateMutability": "nonpayable",
      "type": "function"
    },
    {
      "inputs": [
        {
          "internalType": "uint256",
          "name": "_tokenId",
          "type": "uint256"
        },
        {
          "internalType": "uint256",
          "name": "_salePrice",
          "type": "uint256"
        }
      ],
      "name": "royaltyInfo",
      "outputs": [
        {
          "internalType": "address",
          "name": "receiver",
          "type": "address"
        },
        {
          "internalType": "uint256",
          "name": "royaltyAmount",
          "type": "uint256"
        }
      ],
      "stateMutability": "view",
      "type": "function"
    },
    {
      "inputs": [
        {
          "internalType": "uint256",
          "name": "_tokenId",
          "type": "uint256"
        }
      ],
      "name": "royaltyPayoutAddress",
      "outputs": [
        {
          "internalType": "address",
          "name": "",
          "type": "address"
        }
      ],
      "stateMutability": "view",
      "type": "function"
    },
    {
      "inputs": [
        {
          "internalType": "address",
          "name": "from",
          "type": "address"
        },
        {
          "internalType": "address",
          "name": "to",
          "type": "address"
        },
        {
          "internalType": "uint256",
          "name": "tokenId",
          "type": "uint256"
        }
      ],
      "name": "safeTransferFrom",
      "outputs": [],
      "stateMutability": "nonpayable",
      "type": "function"
    },
    {
      "inputs": [
        {
          "internalType": "address",
          "name": "from",
          "type": "address"
        },
        {
          "internalType": "address",
          "name": "to",
          "type": "address"
        },
        {
          "internalType": "uint256",
          "name": "tokenId",
          "type": "uint256"
        },
        {
          "internalType": "bytes",
          "name": "_data",
          "type": "bytes"
        }
      ],
      "name": "safeTransferFrom",
      "outputs": [],
      "stateMutability": "nonpayable",
      "type": "function"
    },
    {
      "inputs": [
        {
          "internalType": "address",
          "name": "operator",
          "type": "address"
        },
        {
          "internalType": "bool",
          "name": "approved",
          "type": "bool"
        }
      ],
      "name": "setApprovalForAll",
      "outputs": [],
      "stateMutability": "nonpayable",
      "type": "function"
    },
    {
      "inputs": [
        {
          "internalType": "bytes4",
          "name": "interfaceId",
          "type": "bytes4"
        }
      ],
      "name": "supportsInterface",
      "outputs": [
        {
          "internalType": "bool",
          "name": "",
          "type": "bool"
        }
      ],
      "stateMutability": "view",
      "type": "function"
    },
    {
      "inputs": [],
      "name": "symbol",
      "outputs": [
        {
          "internalType": "string",
          "name": "",
          "type": "string"
        }
      ],
      "stateMutability": "view",
      "type": "function"
    },
    {
      "inputs": [
        {
          "internalType": "uint256",
          "name": "_tokenId",
          "type": "uint256"
        }
      ],
      "name": "tokenContentURI",
      "outputs": [
        {
          "internalType": "string",
          "name": "",
          "type": "string"
        }
      ],
      "stateMutability": "view",
      "type": "function"
    },
    {
      "inputs": [
        {
          "internalType": "uint256",
          "name": "",
          "type": "uint256"
        }
      ],
      "name": "tokenMetadataURIs",
      "outputs": [
        {
          "internalType": "string",
          "name": "",
          "type": "string"
        }
      ],
      "stateMutability": "view",
      "type": "function"
    },
    {
      "inputs": [
        {
          "internalType": "uint256",
          "name": "_tokenId",
          "type": "uint256"
        }
      ],
      "name": "tokenURI",
      "outputs": [
        {
          "internalType": "string",
          "name": "",
          "type": "string"
        }
      ],
      "stateMutability": "view",
      "type": "function"
    },
    {
      "inputs": [
        {
          "internalType": "address",
          "name": "from",
          "type": "address"
        },
        {
          "internalType": "address",
          "name": "to",
          "type": "address"
        },
        {
          "internalType": "uint256",
          "name": "tokenId",
          "type": "uint256"
        }
      ],
      "name": "transferFrom",
      "outputs": [],
      "stateMutability": "nonpayable",
      "type": "function"
    },
    {
      "inputs": [
        {
          "internalType": "address",
          "name": "newOwner",
          "type": "address"
        }
      ],
      "name": "transferOwnership",
      "outputs": [],
      "stateMutability": "nonpayable",
      "type": "function"
    },
    {
      "inputs": [
        {
          "internalType": "uint256",
          "name": "_tokenId",
          "type": "uint256"
        },
        {
          "internalType": "string",
          "name": "_contentURI",
          "type": "string"
        }
      ],
      "name": "updateContentURI",
      "outputs": [],
      "stateMutability": "nonpayable",
      "type": "function"
    },
    {
      "inputs": [
        {
          "internalType": "uint256",
          "name": "_tokenId",
          "type": "uint256"
        },
        {
          "internalType": "string",
          "name": "_metadataURI",
          "type": "string"
        }
      ],
      "name": "updateMetadataURI",
      "outputs": [],
      "stateMutability": "nonpayable",
      "type": "function"
    },
    {
      "inputs": [
        {
          "internalType": "bytes32",
          "name": "_newRoot",
          "type": "bytes32"
        }
      ],
      "name": "updateRoot",
      "outputs": [],
      "stateMutability": "nonpayable",
      "type": "function"
    },
    {
      "inputs": [
        {
          "internalType": "uint256",
          "name": "_tokenId",
          "type": "uint256"
        },
        {
          "internalType": "address",
          "name": "_royaltyPayoutAddress",
          "type": "address"
        }
      ],
      "name": "updateRoyaltyInfo",
      "outputs": [],
      "stateMutability": "nonpayable",
      "type": "function"
    }
  ],
  "transactionHash": "0xf666b4fb0a8098028b2688e1f9acc8f359f130f5ff7c3870f25e03aa20d8b67e",
  "args": [],
  "solcInputHash": "4de97381fb8b037b956b0a518fe669e3",
  "bytecode": "0x608060405234801561001057600080fd5b506124dc806100206000396000f3fe608060405234801561001057600080fd5b50600436106101cf5760003560e01c8063514eaa251161010457806395d89b41116100a2578063e985e9c511610071578063e985e9c5146103eb578063f2fde38b14610427578063f8840df61461043a578063fbd8d2831461044d57600080fd5b806395d89b41146103aa578063a22cb465146103b2578063b88d4fde146103c5578063c87b56dd146103d857600080fd5b806370a08231116100de57806370a082311461036b578063715018a61461037e5780638da5cb5b146103865780638fe86b3f1461039757600080fd5b8063514eaa25146103325780636352211e14610345578063669d311c1461035857600080fd5b80632a55205a1161017157806342966c681161014b57806342966c68146102e657806344dcc232146102f95780634cd88b761461030c578063510b51581461031f57600080fd5b80632a55205a1461028a5780632eb4a7ab146102bc57806342842e0e146102d357600080fd5b8063095ea7b3116101ad578063095ea7b31461023c5780630c0a9d261461025157806321ff99701461026457806323b872dd1461027757600080fd5b806301ffc9a7146101d457806306fdde03146101fc578063081812fc14610211575b600080fd5b6101e76101e2366004611d28565b610460565b60405190151581526020015b60405180910390f35b61020461048b565b6040516101f39190611d92565b61022461021f366004611da5565b61051d565b6040516001600160a01b0390911681526020016101f3565b61024f61024a366004611dda565b6105aa565b005b61020461025f366004611da5565b6106c0565b61024f610272366004611da5565b610765565b61024f610285366004611e04565b61079b565b61029d610298366004611e40565b6107cc565b604080516001600160a01b0390931683526020830191909152016101f3565b6102c560c95481565b6040519081526020016101f3565b61024f6102e1366004611e04565b610853565b61024f6102f4366004611da5565b61086e565b610204610307366004611da5565b6108bd565b61024f61031a366004611f0e565b610957565b61022461032d366004611da5565b6109e4565b6102c5610340366004611f72565b610a2a565b610224610353366004611da5565b610cfd565b61024f610366366004612014565b610d74565b6102c5610379366004612040565b610e05565b61024f610e8c565b6097546001600160a01b0316610224565b61024f6103a536600461205b565b610ec2565b610204610f96565b61024f6103c0366004612098565b610fa5565b61024f6103d33660046120d4565b610fb4565b6102046103e6366004611da5565b610fe6565b6101e76103f9366004612150565b6001600160a01b039182166000908152606a6020908152604080832093909416825291909152205460ff1690565b61024f610435366004612040565b611026565b61024f61044836600461205b565b6110be565b61022461045b366004611da5565b611145565b600063152a902d60e11b6001600160e01b03198316148061048557506104858261118b565b92915050565b60606065805461049a9061217a565b80601f01602080910402602001604051908101604052809291908181526020018280546104c69061217a565b80156105135780601f106104e857610100808354040283529160200191610513565b820191906000526020600020905b8154815290600101906020018083116104f657829003601f168201915b5050505050905090565b6000610528826111db565b61058e5760405162461bcd60e51b815260206004820152602c60248201527f4552433732313a20617070726f76656420717565727920666f72206e6f6e657860448201526b34b9ba32b73a103a37b5b2b760a11b60648201526084015b60405180910390fd5b506000908152606960205260409020546001600160a01b031690565b60006105b582610cfd565b9050806001600160a01b0316836001600160a01b031614156106235760405162461bcd60e51b815260206004820152602160248201527f4552433732313a20617070726f76616c20746f2063757272656e74206f776e656044820152603960f91b6064820152608401610585565b336001600160a01b038216148061063f575061063f81336103f9565b6106b15760405162461bcd60e51b815260206004820152603860248201527f4552433732313a20617070726f76652063616c6c6572206973206e6f74206f7760448201527f6e6572206e6f7220617070726f76656420666f7220616c6c00000000000000006064820152608401610585565b6106bb83836111f8565b505050565b600081815260cb602052604090206001018054606091906106e09061217a565b80601f016020809104026020016040519081016040528092919081815260200182805461070c9061217a565b80156107595780601f1061072e57610100808354040283529160200191610759565b820191906000526020600020905b81548152906001019060200180831161073c57829003601f168201915b50505050509050919050565b6097546001600160a01b0316331461078f5760405162461bcd60e51b8152600401610585906121b5565b61079881611266565b50565b6107a533826112a1565b6107c15760405162461bcd60e51b8152600401610585906121ea565b6106bb838383611387565b600080806107e26097546001600160a01b031690565b6001600160a01b031614156108065750506097546001600160a01b0316600061084c565b6097546001600160a01b0316600085815260cb60205260409020600301546127109061083d90600160a01b900461ffff1686612251565b6108479190612270565b915091505b9250929050565b6106bb83838360405180602001604052806000815250610fb4565b61087833826112a1565b6108b45760405162461bcd60e51b815260206004820152600d60248201526c4e6f7420417070726f7665642160981b6044820152606401610585565b61079881611527565b60ca60205260009081526040902080546108d69061217a565b80601f01602080910402602001604051908101604052809291908181526020018280546109029061217a565b801561094f5780601f106109245761010080835404028352916020019161094f565b820191906000526020600020905b81548152906001019060200180831161093257829003601f168201915b505050505081565b600054610100900460ff1680610970575060005460ff16155b61098c5760405162461bcd60e51b815260040161058590612292565b600054610100900460ff161580156109ae576000805461ffff19166101011790555b6109b883836115c2565b6109c0611633565b6109ce60cc80546001019055565b80156106bb576000805461ff0019169055505050565b60006109ef826111db565b610a0b5760405162461bcd60e51b8152600401610585906122e0565b50600090815260cb60205260409020600201546001600160a01b031690565b6000610aba610a81610a426060870160408801612040565b6040516bffffffffffffffffffffffff19606083901b166020820152600090603401604051602081830303815290604052805190602001209050919050565b8484808060200260200160405190810160405280939291908181526020018383602002808284376000920191909152506116ae92505050565b610af55760405162461bcd60e51b815260206004820152600c60248201526b10bb30b634b210383937b7b360a11b6044820152606401610585565b612710610b0860a086016080870161232f565b61ffff1610610b4a5760405162461bcd60e51b815260206004820152600e60248201526d0e4def2c2d8e8f2406440d0d2ced60931b6044820152606401610585565b6000610b5560cc5490565b9050610b6133826116c4565b6040805160a0810190915280610b778780612353565b8080601f016020809104026020016040519081016040528093929190818152602001838380828437600092019190915250505090825250602090810190610bc090880188612353565b8080601f016020809104026020016040519081016040528093929190818152602001838380828437600092019190915250505090825250602001610c0a6060880160408901612040565b6001600160a01b03168152602001610c286080880160608901612040565b6001600160a01b03168152602001610c4660a088016080890161232f565b61ffff169052600082815260cb60209081526040909120825180519192610c7292849290910190611c79565b506020828101518051610c8b9260018501920190611c79565b5060408201516002820180546001600160a01b039283166001600160a01b031990911617905560608301516003909201805460809094015161ffff16600160a01b026001600160b01b03199094169290911691909117919091179055610cf560cc80546001019055565b949350505050565b6000818152606760205260408120546001600160a01b0316806104855760405162461bcd60e51b815260206004820152602960248201527f4552433732313a206f776e657220717565727920666f72206e6f6e657869737460448201526832b73a103a37b5b2b760b91b6064820152608401610585565b6097546001600160a01b03163314610d9e5760405162461bcd60e51b8152600401610585906121b5565b6040516001600160a01b0382169083907f13ceafb5e8ec39102bd452913a5c00a05f3b060d636d3a567c1c80e8b4321fe790600090a3600091825260cb602052604090912060030180546001600160a01b0319166001600160a01b03909216919091179055565b60006001600160a01b038216610e705760405162461bcd60e51b815260206004820152602a60248201527f4552433732313a2062616c616e636520717565727920666f7220746865207a65604482015269726f206164647265737360b01b6064820152608401610585565b506001600160a01b031660009081526068602052604090205490565b6097546001600160a01b03163314610eb65760405162461bcd60e51b8152600401610585906121b5565b610ec060006117f7565b565b81610ecc816111db565b610f0f5760405162461bcd60e51b8152602060048201526014602482015273151bdad95b88191bd95cc81b9bdd08195e1a5cdd60621b6044820152606401610585565b6097546001600160a01b03163314610f395760405162461bcd60e51b8152600401610585906121b5565b827f459157ba24c7ab9878b165ef465fa6ae2ab42bcd8445f576be378768b0c4730983604051610f699190611d92565b60405180910390a2600083815260cb602090815260409091208351610f9092850190611c79565b50505050565b60606066805461049a9061217a565b610fb0338383611849565b5050565b610fbe33836112a1565b610fda5760405162461bcd60e51b8152600401610585906121ea565b610f9084848484611918565b6060610ff1826111db565b61100d5760405162461bcd60e51b8152600401610585906122e0565b600082815260cb6020526040902080546106e09061217a565b6097546001600160a01b031633146110505760405162461bcd60e51b8152600401610585906121b5565b6001600160a01b0381166110b55760405162461bcd60e51b815260206004820152602660248201527f4f776e61626c653a206e6577206f776e657220697320746865207a65726f206160448201526564647265737360d01b6064820152608401610585565b610798816117f7565b6097546001600160a01b031633146110e85760405162461bcd60e51b8152600401610585906121b5565b817f4071afae07e623612645169abd4d62a6bd5932a996b14deac10d9903faccea54826040516111189190611d92565b60405180910390a2600082815260cb6020908152604090912082516106bb92600190920191840190611c79565b6000611150826111db565b61116c5760405162461bcd60e51b8152600401610585906122e0565b50600090815260cb60205260409020600301546001600160a01b031690565b60006001600160e01b031982166380ac58cd60e01b14806111bc57506001600160e01b03198216635b5e139f60e01b145b8061048557506301ffc9a760e01b6001600160e01b0319831614610485565b6000908152606760205260409020546001600160a01b0316151590565b600081815260696020526040902080546001600160a01b0319166001600160a01b038416908117909155819061122d82610cfd565b6001600160a01b03167f8c5be1e5ebec7d5bd14f71427d1e84f3dd0314c0f7b2291e5b200ac8c7c3b92560405160405180910390a45050565b60c98190556040518181527fa2bc4a36b1e221bdcc16df9d7c15559a5f4f9902519c0f92ad3198f1df005e8b9060200160405180910390a150565b60006112ac826111db565b61130d5760405162461bcd60e51b815260206004820152602c60248201527f4552433732313a206f70657261746f7220717565727920666f72206e6f6e657860448201526b34b9ba32b73a103a37b5b2b760a11b6064820152608401610585565b600061131883610cfd565b9050806001600160a01b0316846001600160a01b031614806113535750836001600160a01b03166113488461051d565b6001600160a01b0316145b80610cf557506001600160a01b038082166000908152606a602090815260408083209388168352929052205460ff16610cf5565b826001600160a01b031661139a82610cfd565b6001600160a01b0316146114025760405162461bcd60e51b815260206004820152602960248201527f4552433732313a207472616e73666572206f6620746f6b656e2074686174206960448201526839903737ba1037bbb760b91b6064820152608401610585565b6001600160a01b0382166114645760405162461bcd60e51b8152602060048201526024808201527f4552433732313a207472616e7366657220746f20746865207a65726f206164646044820152637265737360e01b6064820152608401610585565b61146f6000826111f8565b6001600160a01b038316600090815260686020526040812080546001929061149890849061239a565b90915550506001600160a01b03821660009081526068602052604081208054600192906114c69084906123b1565b909155505060008181526067602052604080822080546001600160a01b0319166001600160a01b0386811691821790925591518493918716917fddf252ad1be2c89b69c2b068fc378daa952ba7f163c4a11628f55a4df523b3ef91a4505050565b600061153282610cfd565b905061153f6000836111f8565b6001600160a01b038116600090815260686020526040812080546001929061156890849061239a565b909155505060008281526067602052604080822080546001600160a01b0319169055518391906001600160a01b038416907fddf252ad1be2c89b69c2b068fc378daa952ba7f163c4a11628f55a4df523b3ef908390a45050565b600054610100900460ff16806115db575060005460ff16155b6115f75760405162461bcd60e51b815260040161058590612292565b600054610100900460ff16158015611619576000805461ffff19166101011790555b61162161194b565b61162961194b565b6109ce83836119b5565b600054610100900460ff168061164c575060005460ff16155b6116685760405162461bcd60e51b815260040161058590612292565b600054610100900460ff1615801561168a576000805461ffff19166101011790555b61169261194b565b61169a611a4a565b8015610798576000805461ff001916905550565b60006116bd8260c95485611aaa565b9392505050565b6001600160a01b03821661171a5760405162461bcd60e51b815260206004820181905260248201527f4552433732313a206d696e7420746f20746865207a65726f20616464726573736044820152606401610585565b611723816111db565b156117705760405162461bcd60e51b815260206004820152601c60248201527f4552433732313a20746f6b656e20616c7265616479206d696e746564000000006044820152606401610585565b6001600160a01b03821660009081526068602052604081208054600192906117999084906123b1565b909155505060008181526067602052604080822080546001600160a01b0319166001600160a01b03861690811790915590518392907fddf252ad1be2c89b69c2b068fc378daa952ba7f163c4a11628f55a4df523b3ef908290a45050565b609780546001600160a01b038381166001600160a01b0319831681179093556040519116919082907f8be0079c531659141344cd1fd0a4f28419497f9722a3daafe3b4186f6b6457e090600090a35050565b816001600160a01b0316836001600160a01b031614156118ab5760405162461bcd60e51b815260206004820152601960248201527f4552433732313a20617070726f766520746f2063616c6c6572000000000000006044820152606401610585565b6001600160a01b038381166000818152606a6020908152604080832094871680845294825291829020805460ff191686151590811790915591519182527f17307eab39ab6107e8899845ad3d59bd9653f200f220920489ca2b5937696c31910160405180910390a3505050565b611923848484611387565b61192f84848484611ac0565b610f905760405162461bcd60e51b8152600401610585906123c9565b600054610100900460ff1680611964575060005460ff16155b6119805760405162461bcd60e51b815260040161058590612292565b600054610100900460ff1615801561169a576000805461ffff19166101011790558015610798576000805461ff001916905550565b600054610100900460ff16806119ce575060005460ff16155b6119ea5760405162461bcd60e51b815260040161058590612292565b600054610100900460ff16158015611a0c576000805461ffff19166101011790555b8251611a1f906065906020860190611c79565b508151611a33906066906020850190611c79565b5080156106bb576000805461ff0019169055505050565b600054610100900460ff1680611a63575060005460ff16155b611a7f5760405162461bcd60e51b815260040161058590612292565b600054610100900460ff16158015611aa1576000805461ffff19166101011790555b61169a336117f7565b600082611ab78584611bcd565b14949350505050565b60006001600160a01b0384163b15611bc257604051630a85bd0160e11b81526001600160a01b0385169063150b7a0290611b0490339089908890889060040161241b565b602060405180830381600087803b158015611b1e57600080fd5b505af1925050508015611b4e575060408051601f3d908101601f19168201909252611b4b91810190612458565b60015b611ba8573d808015611b7c576040519150601f19603f3d011682016040523d82523d6000602084013e611b81565b606091505b508051611ba05760405162461bcd60e51b8152600401610585906123c9565b805181602001fd5b6001600160e01b031916630a85bd0160e11b149050610cf5565b506001949350505050565b600081815b8451811015611c71576000858281518110611bef57611bef612475565b60200260200101519050808311611c31576040805160208101859052908101829052606001604051602081830303815290604052805190602001209250611c5e565b60408051602081018390529081018490526060016040516020818303038152906040528051906020012092505b5080611c698161248b565b915050611bd2565b509392505050565b828054611c859061217a565b90600052602060002090601f016020900481019282611ca75760008555611ced565b82601f10611cc057805160ff1916838001178555611ced565b82800160010185558215611ced579182015b82811115611ced578251825591602001919060010190611cd2565b50611cf9929150611cfd565b5090565b5b80821115611cf95760008155600101611cfe565b6001600160e01b03198116811461079857600080fd5b600060208284031215611d3a57600080fd5b81356116bd81611d12565b6000815180845260005b81811015611d6b57602081850181015186830182015201611d4f565b81811115611d7d576000602083870101525b50601f01601f19169290920160200192915050565b6020815260006116bd6020830184611d45565b600060208284031215611db757600080fd5b5035919050565b80356001600160a01b0381168114611dd557600080fd5b919050565b60008060408385031215611ded57600080fd5b611df683611dbe565b946020939093013593505050565b600080600060608486031215611e1957600080fd5b611e2284611dbe565b9250611e3060208501611dbe565b9150604084013590509250925092565b60008060408385031215611e5357600080fd5b50508035926020909101359150565b634e487b7160e01b600052604160045260246000fd5b600067ffffffffffffffff80841115611e9357611e93611e62565b604051601f8501601f19908116603f01168101908282118183101715611ebb57611ebb611e62565b81604052809350858152868686011115611ed457600080fd5b858560208301376000602087830101525050509392505050565b600082601f830112611eff57600080fd5b6116bd83833560208501611e78565b60008060408385031215611f2157600080fd5b823567ffffffffffffffff80821115611f3957600080fd5b611f4586838701611eee565b93506020850135915080821115611f5b57600080fd5b50611f6885828601611eee565b9150509250929050565b600080600060408486031215611f8757600080fd5b833567ffffffffffffffff80821115611f9f57600080fd5b9085019060a08288031215611fb357600080fd5b90935060208501359080821115611fc957600080fd5b818601915086601f830112611fdd57600080fd5b813581811115611fec57600080fd5b8760208260051b850101111561200157600080fd5b6020830194508093505050509250925092565b6000806040838503121561202757600080fd5b8235915061203760208401611dbe565b90509250929050565b60006020828403121561205257600080fd5b6116bd82611dbe565b6000806040838503121561206e57600080fd5b82359150602083013567ffffffffffffffff81111561208c57600080fd5b611f6885828601611eee565b600080604083850312156120ab57600080fd5b6120b483611dbe565b9150602083013580151581146120c957600080fd5b809150509250929050565b600080600080608085870312156120ea57600080fd5b6120f385611dbe565b935061210160208601611dbe565b925060408501359150606085013567ffffffffffffffff81111561212457600080fd5b8501601f8101871361213557600080fd5b61214487823560208401611e78565b91505092959194509250565b6000806040838503121561216357600080fd5b61216c83611dbe565b915061203760208401611dbe565b600181811c9082168061218e57607f821691505b602082108114156121af57634e487b7160e01b600052602260045260246000fd5b50919050565b6020808252818101527f4f776e61626c653a2063616c6c6572206973206e6f7420746865206f776e6572604082015260600190565b60208082526031908201527f4552433732313a207472616e736665722063616c6c6572206973206e6f74206f6040820152701ddb995c881b9bdc88185c1c1c9bdd9959607a1b606082015260800190565b634e487b7160e01b600052601160045260246000fd5b600081600019048311821515161561226b5761226b61223b565b500290565b60008261228d57634e487b7160e01b600052601260045260246000fd5b500490565b6020808252602e908201527f496e697469616c697a61626c653a20636f6e747261637420697320616c72656160408201526d191e481a5b9a5d1a585b1a5e995960921b606082015260800190565b6020808252602f908201527f4552433732314d657461646174613a2055524920717565727920666f72206e6f60408201526e3732bc34b9ba32b73a103a37b5b2b760891b606082015260800190565b60006020828403121561234157600080fd5b813561ffff811681146116bd57600080fd5b6000808335601e1984360301811261236a57600080fd5b83018035915067ffffffffffffffff82111561238557600080fd5b60200191503681900382131561084c57600080fd5b6000828210156123ac576123ac61223b565b500390565b600082198211156123c4576123c461223b565b500190565b60208082526032908201527f4552433732313a207472616e7366657220746f206e6f6e20455243373231526560408201527131b2b4bb32b91034b6b83632b6b2b73a32b960711b606082015260800190565b6001600160a01b038581168252841660208201526040810183905260806060820181905260009061244e90830184611d45565b9695505050505050565b60006020828403121561246a57600080fd5b81516116bd81611d12565b634e487b7160e01b600052603260045260246000fd5b600060001982141561249f5761249f61223b565b506001019056fea26469706673582212201fd9716c1094a5822f2002edd978c89d4a3694d2eeb4ff4820197f0349f9efd164736f6c63430008090033",
  "devdoc": {
    "author": ":   @bretth18 (computerdata) of @catalogworks",
    "details": ":   Upgradeable ERC721 Contract. See interface for further implemntation details. Purpose built for optmization over the Zora V1 contracts. isian (iain nash) of Zora.  ---------------------------------------------------------------------------------------------------------------------                                                                                                                                                                                                                                                                                                                           ",
    "kind": "dev",
    "methods": {
      "approve(address,uint256)": {
        "details": "See {IERC721-approve}."
      },
      "balanceOf(address)": {
        "details": "See {IERC721-balanceOf}."
      },
      "burn(uint256)": {
        "details": "burns given tokenId, restrited to owner (approved artists should burn?)",
        "params": {
          "_tokenId": "uint256 identifier of token to burn"
        }
      },
      "creator(uint256)": {
        "details": "idk what this should be called, and do we need?",
        "params": {
          "_tokenId": "uint256 identifier of token to get creator for"
        },
        "returns": {
          "_0": "address creator of given tokenId"
        }
      },
      "getApproved(uint256)": {
        "details": "See {IERC721-getApproved}."
      },
      "initialize(string,string)": {
        "details": "OZ proxy",
        "params": {
          "_name": "string name of the contract",
          "_symbol": "string symbol of the contract"
        }
      },
      "isApprovedForAll(address,address)": {
        "details": "See {IERC721-isApprovedForAll}."
      },
      "mint((string,string,address,address,uint16),bytes32[])": {
        "details": "mints a new token to allowlisted msg.sender with a valid merkle proof. params can and should be changed to calldata for gas efficiency. rename to \"allowlist\"",
        "params": {
          "_data": "TokenData struct, see ITB303",
          "_proof": "bytes32[] merkle proof of artist wallet. this is created off-chain.  e.g (proof = tree.getHexProof(keccak256(address)))"
        },
        "returns": {
          "_0": "uint256 tokenId of minted token (useful since we are not using Enumerable)"
        }
      },
      "name()": {
        "details": "See {IERC721Metadata-name}."
      },
      "owner()": {
        "details": "Returns the address of the current owner."
      },
      "ownerOf(uint256)": {
        "details": "See {IERC721-ownerOf}."
      },
      "renounceOwnership()": {
        "details": "Leaves the contract without owner. It will not be possible to call `onlyOwner` functions anymore. Can only be called by the current owner. NOTE: Renouncing ownership will leave the contract without an owner, thereby removing any functionality that is only available to the owner."
      },
      "royaltyInfo(uint256,uint256)": {
        "details": "override, conforms to EIP-2981",
        "params": {
          "_salePrice": "uint256 final sale price of token used to calculate royalty payout",
          "_tokenId": "uint256 token id corresponding to the token of which to get royalty information"
        }
      },
      "royaltyPayoutAddress(uint256)": {
        "details": "not part of EIP2981, but useful ",
        "params": {
          "_tokenId": "uint256 identifier of token to get royalty payout address for"
        },
        "returns": {
          "_0": "address royalty payout address of given tokenId"
        }
      },
      "safeTransferFrom(address,address,uint256)": {
        "details": "See {IERC721-safeTransferFrom}."
      },
      "safeTransferFrom(address,address,uint256,bytes)": {
        "details": "See {IERC721-safeTransferFrom}."
      },
      "setApprovalForAll(address,bool)": {
        "details": "See {IERC721-setApprovalForAll}."
      },
      "supportsInterface(bytes4)": {
        "details": "override ",
        "params": {
          "interfaceId": "bytes4 id of interface to check"
        }
      },
      "symbol()": {
        "details": "See {IERC721Metadata-symbol}."
      },
      "tokenContentURI(uint256)": {
        "details": "basic public getter method for content URI",
        "params": {
          "_tokenId": "uint256 identifier of token to get content URI for"
        },
        "returns": {
          "_0": "string content URI for given tokenId"
        }
      },
      "tokenURI(uint256)": {
        "details": "override function, returns metadataURI of token stored in tokenData",
        "params": {
          "_tokenId": "uint256 token id corresponding to the token of which to get metadata from"
        },
        "returns": {
          "_0": "string containing metadata URI"
        }
      },
      "transferFrom(address,address,uint256)": {
        "details": "See {IERC721-transferFrom}."
      },
      "transferOwnership(address)": {
        "details": "Transfers ownership of the contract to a new account (`newOwner`). Can only be called by the current owner."
      },
      "updateContentURI(uint256,string)": {
        "details": "access controlled function, restricted to owner/admim. subject to change.",
        "params": {
          "_contentURI": "string containing new/updated media content (subject to change, new EIP)",
          "_tokenId": "uint256 token id corresponding to the token to update"
        }
      },
      "updateMetadataURI(uint256,string)": {
        "details": "access controlled, restricted to contract owner when they own the tokenId or the creator (when they own the token)",
        "params": {
          "_metadataURI": "string containing new/updated metadata (e.g IPFS URI pointing to metadata.json)",
          "_tokenId": "uint256 token id corresponding to the token to update"
        }
      },
      "updateRoot(bytes32)": {
        "details": "access controlled function, restricted to owner/admim.",
        "params": {
          "_newRoot": "bytes32 containing the new root hash, generated off-chain"
        }
      },
      "updateRoyaltyInfo(uint256,address)": {
        "details": "access controlled to owner only, subject to change. this function allows for emergency royalty control (i.e compromised wallet)",
        "params": {
          "_royaltyPayoutAddress": "address of new royalty payout address",
          "_tokenId": "uint256 token id corresponding to the token of which to update royalty payout"
        }
      }
    },
    "title": ":   TD606",
    "version": 1
  },
  "userdoc": {
    "events": {
      "MetadataUpdated(uint256,string)": {
        "notice": "Events"
      },
      "merkleRootUpdated(bytes32)": {
        "notice": "Events"
      }
    },
    "kind": "user",
    "methods": {
      "burn(uint256)": {
        "notice": "Burn Function"
      },
      "creator(uint256)": {
        "notice": "creator Function"
      },
      "initialize(string,string)": {
        "notice": "initialize FunctionInitializes contract with default values, acts as a constructor"
      },
      "merkleRoot()": {
        "notice": "State variable containing merkle root  see {IAngelaList}"
      },
      "mint((string,string,address,address,uint16),bytes32[])": {
        "notice": "mint Function"
      },
      "royaltyInfo(uint256,uint256)": {
        "notice": "royaltyInfo Function"
      },
      "royaltyPayoutAddress(uint256)": {
        "notice": "royaltyPayoutAddress Function"
      },
      "supportsInterface(bytes4)": {
        "notice": "supportsInterface Function"
      },
      "tokenContentURI(uint256)": {
        "notice": "tokenContentURI Functioncan be retrofitted/replaced with proposed draft 'content' EIP "
      },
      "tokenMetadataURIs(uint256)": {
        "notice": "Mappings"
      },
      "tokenURI(uint256)": {
        "notice": "tokenURI Function"
      },
      "updateContentURI(uint256,string)": {
        "notice": "updateContentURI Function"
      },
      "updateMetadataURI(uint256,string)": {
        "notice": "updateMetadataURI Function"
      },
      "updateRoot(bytes32)": {
        "notice": "updateRoot Functionthis function is inherits from Angela.sol, and may not be necessary depending on role based configuration."
      },
      "updateRoyaltyInfo(uint256,address)": {
        "notice": "updateRoyaltyInfo Function"
      }
    },
    "notice": "-------------------------------------------------------------------------------------------------------------------- ooooooooooooo oooooooooo.       .ooo     .oooo.       .ooo    8'   888   `8 `888'   `Y8b    .88'      d8P'`Y8b    .88'      888       888      888  d88'      888    888  d88'       888       888      888 d888P\"Ybo. 888    888 d888P\"Ybo.  888       888      888 Y88[   ]88 888    888 Y88[   ]88  888       888     d88' `Y88   88P `88b  d88' `Y88   88P  o888o     o888bood8P'    `88bod8'   `Y8bd8P'   `88bod8'   v0************************************************ LEGAL DISCLAIMER: <legal go here>************************************************ ---------------------------------------------------------------------------------------------------------------------                                                                                                                                                                                                                                                                                                                            RINKEBY CNFT (V0.1: CODENAME \"TD606\") \"TD606\"                     :   Creator Shared NFT Media Contract for Catalog Records Inc.",
    "version": 1
  },
  "storageLayout": {
    "storage": [
      {
        "astId": 153,
        "contract": "contracts/catalog/TD606.sol:TD606",
        "label": "_initialized",
        "offset": 0,
        "slot": "0",
        "type": "t_bool"
      },
      {
        "astId": 156,
        "contract": "contracts/catalog/TD606.sol:TD606",
        "label": "_initializing",
        "offset": 1,
        "slot": "0",
        "type": "t_bool"
      },
      {
        "astId": 1503,
        "contract": "contracts/catalog/TD606.sol:TD606",
        "label": "__gap",
        "offset": 0,
        "slot": "1",
        "type": "t_array(t_uint256)50_storage"
      },
      {
        "astId": 1914,
        "contract": "contracts/catalog/TD606.sol:TD606",
        "label": "__gap",
        "offset": 0,
        "slot": "51",
        "type": "t_array(t_uint256)50_storage"
      },
      {
        "astId": 222,
        "contract": "contracts/catalog/TD606.sol:TD606",
        "label": "_name",
        "offset": 0,
        "slot": "101",
        "type": "t_string_storage"
      },
      {
        "astId": 224,
        "contract": "contracts/catalog/TD606.sol:TD606",
        "label": "_symbol",
        "offset": 0,
        "slot": "102",
        "type": "t_string_storage"
      },
      {
        "astId": 228,
        "contract": "contracts/catalog/TD606.sol:TD606",
        "label": "_owners",
        "offset": 0,
        "slot": "103",
        "type": "t_mapping(t_uint256,t_address)"
      },
      {
        "astId": 232,
        "contract": "contracts/catalog/TD606.sol:TD606",
        "label": "_balances",
        "offset": 0,
        "slot": "104",
        "type": "t_mapping(t_address,t_uint256)"
      },
      {
        "astId": 236,
        "contract": "contracts/catalog/TD606.sol:TD606",
        "label": "_tokenApprovals",
        "offset": 0,
        "slot": "105",
        "type": "t_mapping(t_uint256,t_address)"
      },
      {
        "astId": 242,
        "contract": "contracts/catalog/TD606.sol:TD606",
        "label": "_operatorApprovals",
        "offset": 0,
        "slot": "106",
        "type": "t_mapping(t_address,t_mapping(t_address,t_bool))"
      },
      {
        "astId": 1053,
        "contract": "contracts/catalog/TD606.sol:TD606",
        "label": "__gap",
        "offset": 0,
        "slot": "107",
        "type": "t_array(t_uint256)44_storage"
      },
      {
        "astId": 10,
        "contract": "contracts/catalog/TD606.sol:TD606",
        "label": "_owner",
        "offset": 0,
        "slot": "151",
        "type": "t_address"
      },
      {
        "astId": 124,
        "contract": "contracts/catalog/TD606.sol:TD606",
        "label": "__gap",
        "offset": 0,
        "slot": "152",
        "type": "t_array(t_uint256)49_storage"
      },
      {
        "astId": 1937,
        "contract": "contracts/catalog/TD606.sol:TD606",
        "label": "merkleRoot",
        "offset": 0,
        "slot": "201",
        "type": "t_bytes32"
      },
      {
        "astId": 4383,
        "contract": "contracts/catalog/TD606.sol:TD606",
        "label": "tokenMetadataURIs",
        "offset": 0,
        "slot": "202",
        "type": "t_mapping(t_uint256,t_string_storage)"
      },
      {
        "astId": 4389,
        "contract": "contracts/catalog/TD606.sol:TD606",
        "label": "tokenData",
        "offset": 0,
        "slot": "203",
        "type": "t_mapping(t_uint256,t_struct(TokenData)4378_storage)"
      },
      {
        "astId": 4392,
        "contract": "contracts/catalog/TD606.sol:TD606",
        "label": "_tokenIdCounter",
        "offset": 0,
        "slot": "204",
        "type": "t_struct(Counter)1510_storage"
      }
    ],
    "types": {
      "t_address": {
        "encoding": "inplace",
        "label": "address",
        "numberOfBytes": "20"
      },
      "t_array(t_uint256)44_storage": {
        "base": "t_uint256",
        "encoding": "inplace",
        "label": "uint256[44]",
        "numberOfBytes": "1408"
      },
      "t_array(t_uint256)49_storage": {
        "base": "t_uint256",
        "encoding": "inplace",
        "label": "uint256[49]",
        "numberOfBytes": "1568"
      },
      "t_array(t_uint256)50_storage": {
        "base": "t_uint256",
        "encoding": "inplace",
        "label": "uint256[50]",
        "numberOfBytes": "1600"
      },
      "t_bool": {
        "encoding": "inplace",
        "label": "bool",
        "numberOfBytes": "1"
      },
      "t_bytes32": {
        "encoding": "inplace",
        "label": "bytes32",
        "numberOfBytes": "32"
      },
      "t_mapping(t_address,t_bool)": {
        "encoding": "mapping",
        "key": "t_address",
        "label": "mapping(address => bool)",
        "numberOfBytes": "32",
        "value": "t_bool"
      },
      "t_mapping(t_address,t_mapping(t_address,t_bool))": {
        "encoding": "mapping",
        "key": "t_address",
        "label": "mapping(address => mapping(address => bool))",
        "numberOfBytes": "32",
        "value": "t_mapping(t_address,t_bool)"
      },
      "t_mapping(t_address,t_uint256)": {
        "encoding": "mapping",
        "key": "t_address",
        "label": "mapping(address => uint256)",
        "numberOfBytes": "32",
        "value": "t_uint256"
      },
      "t_mapping(t_uint256,t_address)": {
        "encoding": "mapping",
        "key": "t_uint256",
        "label": "mapping(uint256 => address)",
        "numberOfBytes": "32",
        "value": "t_address"
      },
      "t_mapping(t_uint256,t_string_storage)": {
        "encoding": "mapping",
        "key": "t_uint256",
        "label": "mapping(uint256 => string)",
        "numberOfBytes": "32",
        "value": "t_string_storage"
      },
      "t_mapping(t_uint256,t_struct(TokenData)4378_storage)": {
        "encoding": "mapping",
        "key": "t_uint256",
        "label": "mapping(uint256 => struct TD606.TokenData)",
        "numberOfBytes": "32",
        "value": "t_struct(TokenData)4378_storage"
      },
      "t_string_storage": {
        "encoding": "bytes",
        "label": "string",
        "numberOfBytes": "32"
      },
      "t_struct(Counter)1510_storage": {
        "encoding": "inplace",
        "label": "struct CountersUpgradeable.Counter",
        "members": [
          {
            "astId": 1509,
            "contract": "contracts/catalog/TD606.sol:TD606",
            "label": "_value",
            "offset": 0,
            "slot": "0",
            "type": "t_uint256"
          }
        ],
        "numberOfBytes": "32"
      },
      "t_struct(TokenData)4378_storage": {
        "encoding": "inplace",
        "label": "struct TD606.TokenData",
        "members": [
          {
            "astId": 4369,
            "contract": "contracts/catalog/TD606.sol:TD606",
            "label": "metadataURI",
            "offset": 0,
            "slot": "0",
            "type": "t_string_storage"
          },
          {
            "astId": 4371,
            "contract": "contracts/catalog/TD606.sol:TD606",
            "label": "contentURI",
            "offset": 0,
            "slot": "1",
            "type": "t_string_storage"
          },
          {
            "astId": 4373,
            "contract": "contracts/catalog/TD606.sol:TD606",
            "label": "creator",
            "offset": 0,
            "slot": "2",
            "type": "t_address"
          },
          {
            "astId": 4375,
            "contract": "contracts/catalog/TD606.sol:TD606",
            "label": "royaltyPayout",
            "offset": 0,
            "slot": "3",
            "type": "t_address"
          },
          {
            "astId": 4377,
            "contract": "contracts/catalog/TD606.sol:TD606",
            "label": "royaltyBPS",
            "offset": 20,
            "slot": "3",
            "type": "t_uint16"
          }
        ],
        "numberOfBytes": "128"
      },
      "t_uint16": {
        "encoding": "inplace",
        "label": "uint16",
        "numberOfBytes": "2"
      },
      "t_uint256": {
        "encoding": "inplace",
        "label": "uint256",
        "numberOfBytes": "32"
      }
    }
  }
}