{
  "address": "0x14862f99FA32A3aacFe45d6eda755f6709CB2fB7",
  "abi": [
    {
      "anonymous": false,
      "inputs": [
        {
          "indexed": true,
          "internalType": "address",
          "name": "owner",
          "type": "address"
        },
        {
          "indexed": true,
          "internalType": "address",
          "name": "approved",
          "type": "address"
        },
        {
          "indexed": true,
          "internalType": "uint256",
          "name": "tokenId",
          "type": "uint256"
        }
      ],
      "name": "Approval",
      "type": "event"
    },
    {
      "anonymous": false,
      "inputs": [
        {
          "indexed": true,
          "internalType": "address",
          "name": "owner",
          "type": "address"
        },
        {
          "indexed": true,
          "internalType": "address",
          "name": "operator",
          "type": "address"
        },
        {
          "indexed": false,
          "internalType": "bool",
          "name": "approved",
          "type": "bool"
        }
      ],
      "name": "ApprovalForAll",
      "type": "event"
    },
    {
      "anonymous": false,
      "inputs": [
        {
          "indexed": true,
          "internalType": "uint256",
          "name": "tokenId",
          "type": "uint256"
        },
        {
          "indexed": false,
          "internalType": "string",
          "name": "contentURI",
          "type": "string"
        }
      ],
      "name": "ContentUpdated",
      "type": "event"
    },
    {
      "anonymous": false,
      "inputs": [
        {
          "indexed": true,
          "internalType": "uint256",
          "name": "tokenId",
          "type": "uint256"
        },
        {
          "indexed": true,
          "internalType": "address",
          "name": "creator",
          "type": "address"
        }
      ],
      "name": "CreatorUpdated",
      "type": "event"
    },
    {
      "anonymous": false,
      "inputs": [
        {
          "indexed": true,
          "internalType": "bytes32",
          "name": "_merkleRoot",
          "type": "bytes32"
        }
      ],
      "name": "MerkleRootUpdated",
      "type": "event"
    },
    {
      "anonymous": false,
      "inputs": [
        {
          "indexed": true,
          "internalType": "uint256",
          "name": "tokenId",
          "type": "uint256"
        },
        {
          "indexed": false,
          "internalType": "string",
          "name": "metadataURI",
          "type": "string"
        }
      ],
      "name": "MetadataUpdated",
      "type": "event"
    },
    {
      "anonymous": false,
      "inputs": [
        {
          "indexed": true,
          "internalType": "address",
          "name": "previousOwner",
          "type": "address"
        },
        {
          "indexed": true,
          "internalType": "address",
          "name": "newOwner",
          "type": "address"
        }
      ],
      "name": "OwnershipTransferred",
      "type": "event"
    },
    {
      "anonymous": false,
      "inputs": [
        {
          "indexed": true,
          "internalType": "uint256",
          "name": "tokenId",
          "type": "uint256"
        },
        {
          "indexed": true,
          "internalType": "address",
          "name": "payoutAddress",
          "type": "address"
        }
      ],
      "name": "RoyaltyUpdated",
      "type": "event"
    },
    {
      "anonymous": false,
      "inputs": [
        {
          "indexed": true,
          "internalType": "address",
          "name": "from",
          "type": "address"
        },
        {
          "indexed": true,
          "internalType": "address",
          "name": "to",
          "type": "address"
        },
        {
          "indexed": true,
          "internalType": "uint256",
          "name": "tokenId",
          "type": "uint256"
        }
      ],
      "name": "Transfer",
      "type": "event"
    },
    {
      "inputs": [
        {
          "internalType": "address",
          "name": "to",
          "type": "address"
        },
        {
          "internalType": "uint256",
          "name": "tokenId",
          "type": "uint256"
        }
      ],
      "name": "approve",
      "outputs": [],
      "stateMutability": "nonpayable",
      "type": "function"
    },
    {
      "inputs": [
        {
          "internalType": "address",
          "name": "owner",
          "type": "address"
        }
      ],
      "name": "balanceOf",
      "outputs": [
        {
          "internalType": "uint256",
          "name": "",
          "type": "uint256"
        }
      ],
      "stateMutability": "view",
      "type": "function"
    },
    {
      "inputs": [
        {
          "internalType": "uint256",
          "name": "_tokenId",
          "type": "uint256"
        }
      ],
      "name": "burn",
      "outputs": [],
      "stateMutability": "nonpayable",
      "type": "function"
    },
    {
      "inputs": [
        {
          "internalType": "uint256",
          "name": "_tokenId",
          "type": "uint256"
        }
      ],
      "name": "creator",
      "outputs": [
        {
          "internalType": "address",
          "name": "",
          "type": "address"
        }
      ],
      "stateMutability": "view",
      "type": "function"
    },
    {
      "inputs": [
        {
          "internalType": "uint256",
          "name": "tokenId",
          "type": "uint256"
        }
      ],
      "name": "getApproved",
      "outputs": [
        {
          "internalType": "address",
          "name": "",
          "type": "address"
        }
      ],
      "stateMutability": "view",
      "type": "function"
    },
    {
      "inputs": [
        {
          "internalType": "string",
          "name": "_name",
          "type": "string"
        },
        {
          "internalType": "string",
          "name": "_symbol",
          "type": "string"
        }
      ],
      "name": "initialize",
      "outputs": [],
      "stateMutability": "nonpayable",
      "type": "function"
    },
    {
      "inputs": [
        {
          "internalType": "address",
          "name": "owner",
          "type": "address"
        },
        {
          "internalType": "address",
          "name": "operator",
          "type": "address"
        }
      ],
      "name": "isApprovedForAll",
      "outputs": [
        {
          "internalType": "bool",
          "name": "",
          "type": "bool"
        }
      ],
      "stateMutability": "view",
      "type": "function"
    },
    {
      "inputs": [],
      "name": "merkleRoot",
      "outputs": [
        {
          "internalType": "bytes32",
          "name": "",
          "type": "bytes32"
        }
      ],
      "stateMutability": "view",
      "type": "function"
    },
    {
      "inputs": [
        {
          "components": [
            {
              "internalType": "string",
              "name": "metadataURI",
              "type": "string"
            },
            {
              "internalType": "string",
              "name": "contentURI",
              "type": "string"
            },
            {
              "internalType": "address",
              "name": "creator",
              "type": "address"
            },
            {
              "internalType": "address",
              "name": "royaltyPayout",
              "type": "address"
            },
            {
              "internalType": "uint16",
              "name": "royaltyBPS",
              "type": "uint16"
            }
          ],
          "internalType": "struct XFO.TokenData",
          "name": "_data",
          "type": "tuple"
        },
        {
          "internalType": "bytes32[]",
          "name": "_proof",
          "type": "bytes32[]"
        }
      ],
      "name": "mint",
      "outputs": [
        {
          "internalType": "uint256",
          "name": "",
          "type": "uint256"
        }
      ],
      "stateMutability": "nonpayable",
      "type": "function"
    },
    {
      "inputs": [],
      "name": "name",
      "outputs": [
        {
          "internalType": "string",
          "name": "",
          "type": "string"
        }
      ],
      "stateMutability": "view",
      "type": "function"
    },
    {
      "inputs": [],
      "name": "owner",
      "outputs": [
        {
          "internalType": "address",
          "name": "",
          "type": "address"
        }
      ],
      "stateMutability": "view",
      "type": "function"
    },
    {
      "inputs": [
        {
          "internalType": "uint256",
          "name": "tokenId",
          "type": "uint256"
        }
      ],
      "name": "ownerOf",
      "outputs": [
        {
          "internalType": "address",
          "name": "",
          "type": "address"
        }
      ],
      "stateMutability": "view",
      "type": "function"
    },
    {
      "inputs": [],
      "name": "renounceOwnership",
      "outputs": [],
      "stateMutability": "nonpayable",
      "type": "function"
    },
    {
      "inputs": [
        {
          "internalType": "uint256",
          "name": "_tokenId",
          "type": "uint256"
        },
        {
          "internalType": "uint256",
          "name": "_salePrice",
          "type": "uint256"
        }
      ],
      "name": "royaltyInfo",
      "outputs": [
        {
          "internalType": "address",
          "name": "receiver",
          "type": "address"
        },
        {
          "internalType": "uint256",
          "name": "royaltyAmount",
          "type": "uint256"
        }
      ],
      "stateMutability": "view",
      "type": "function"
    },
    {
      "inputs": [
        {
          "internalType": "uint256",
          "name": "_tokenId",
          "type": "uint256"
        }
      ],
      "name": "royaltyPayoutAddress",
      "outputs": [
        {
          "internalType": "address",
          "name": "",
          "type": "address"
        }
      ],
      "stateMutability": "view",
      "type": "function"
    },
    {
      "inputs": [
        {
          "internalType": "address",
          "name": "from",
          "type": "address"
        },
        {
          "internalType": "address",
          "name": "to",
          "type": "address"
        },
        {
          "internalType": "uint256",
          "name": "tokenId",
          "type": "uint256"
        }
      ],
      "name": "safeTransferFrom",
      "outputs": [],
      "stateMutability": "nonpayable",
      "type": "function"
    },
    {
      "inputs": [
        {
          "internalType": "address",
          "name": "from",
          "type": "address"
        },
        {
          "internalType": "address",
          "name": "to",
          "type": "address"
        },
        {
          "internalType": "uint256",
          "name": "tokenId",
          "type": "uint256"
        },
        {
          "internalType": "bytes",
          "name": "_data",
          "type": "bytes"
        }
      ],
      "name": "safeTransferFrom",
      "outputs": [],
      "stateMutability": "nonpayable",
      "type": "function"
    },
    {
      "inputs": [
        {
          "internalType": "address",
          "name": "operator",
          "type": "address"
        },
        {
          "internalType": "bool",
          "name": "approved",
          "type": "bool"
        }
      ],
      "name": "setApprovalForAll",
      "outputs": [],
      "stateMutability": "nonpayable",
      "type": "function"
    },
    {
      "inputs": [
        {
          "internalType": "bytes4",
          "name": "interfaceId",
          "type": "bytes4"
        }
      ],
      "name": "supportsInterface",
      "outputs": [
        {
          "internalType": "bool",
          "name": "",
          "type": "bool"
        }
      ],
      "stateMutability": "view",
      "type": "function"
    },
    {
      "inputs": [],
      "name": "symbol",
      "outputs": [
        {
          "internalType": "string",
          "name": "",
          "type": "string"
        }
      ],
      "stateMutability": "view",
      "type": "function"
    },
    {
      "inputs": [
        {
          "internalType": "uint256",
          "name": "_tokenId",
          "type": "uint256"
        }
      ],
      "name": "tokenContentURI",
      "outputs": [
        {
          "internalType": "string",
          "name": "",
          "type": "string"
        }
      ],
      "stateMutability": "view",
      "type": "function"
    },
    {
      "inputs": [
        {
          "internalType": "uint256",
          "name": "_tokenId",
          "type": "uint256"
        }
      ],
      "name": "tokenURI",
      "outputs": [
        {
          "internalType": "string",
          "name": "",
          "type": "string"
        }
      ],
      "stateMutability": "view",
      "type": "function"
    },
    {
      "inputs": [
        {
          "internalType": "address",
          "name": "from",
          "type": "address"
        },
        {
          "internalType": "address",
          "name": "to",
          "type": "address"
        },
        {
          "internalType": "uint256",
          "name": "tokenId",
          "type": "uint256"
        }
      ],
      "name": "transferFrom",
      "outputs": [],
      "stateMutability": "nonpayable",
      "type": "function"
    },
    {
      "inputs": [
        {
          "internalType": "address",
          "name": "newOwner",
          "type": "address"
        }
      ],
      "name": "transferOwnership",
      "outputs": [],
      "stateMutability": "nonpayable",
      "type": "function"
    },
    {
      "inputs": [
        {
          "internalType": "uint256",
          "name": "_tokenId",
          "type": "uint256"
        },
        {
          "internalType": "string",
          "name": "_contentURI",
          "type": "string"
        }
      ],
      "name": "updateContentURI",
      "outputs": [],
      "stateMutability": "nonpayable",
      "type": "function"
    },
    {
      "inputs": [
        {
          "internalType": "uint256",
          "name": "_tokenId",
          "type": "uint256"
        },
        {
          "internalType": "address",
          "name": "_creator",
          "type": "address"
        }
      ],
      "name": "updateCreator",
      "outputs": [],
      "stateMutability": "nonpayable",
      "type": "function"
    },
    {
      "inputs": [
        {
          "internalType": "uint256",
          "name": "_tokenId",
          "type": "uint256"
        },
        {
          "internalType": "string",
          "name": "_metadataURI",
          "type": "string"
        }
      ],
      "name": "updateMetadataURI",
      "outputs": [],
      "stateMutability": "nonpayable",
      "type": "function"
    },
    {
      "inputs": [
        {
          "internalType": "bytes32",
          "name": "_newRoot",
          "type": "bytes32"
        }
      ],
      "name": "updateRoot",
      "outputs": [],
      "stateMutability": "nonpayable",
      "type": "function"
    },
    {
      "inputs": [
        {
          "internalType": "uint256",
          "name": "_tokenId",
          "type": "uint256"
        },
        {
          "internalType": "address",
          "name": "_royaltyPayoutAddress",
          "type": "address"
        }
      ],
      "name": "updateRoyaltyInfo",
      "outputs": [],
      "stateMutability": "nonpayable",
      "type": "function"
    }
  ],
  "transactionHash": "0x725e1685afe438574b49af442cc4c2349f70082e8d6df8a0b169aa762e794d14",
  "args": [],
  "numDeployments": 1,
  "solcInputHash": "b81c2d37060aba8f2bf5bef169db329f",
  "bytecode": "0x608060405234801561001057600080fd5b506124bc806100206000396000f3fe608060405234801561001057600080fd5b50600436106101cf5760003560e01c80636352211e11610104578063a22cb465116100a2578063f2fde38b11610071578063f2fde38b1461042d578063f8361bab14610440578063f8840df614610453578063fbd8d2831461046657600080fd5b8063a22cb465146103b8578063b88d4fde146103cb578063c87b56dd146103de578063e985e9c5146103f157600080fd5b8063715018a6116100de578063715018a6146103845780638da5cb5b1461038c5780638fe86b3f1461039d57806395d89b41146103b057600080fd5b80636352211e1461034b578063669d311c1461035e57806370a082311461037157600080fd5b80632a55205a1161017157806342966c681161014b57806342966c68146102e65780634cd88b76146102f9578063510b51581461030c578063514eaa251461033857600080fd5b80632a55205a1461028a5780632eb4a7ab146102bc57806342842e0e146102d357600080fd5b8063095ea7b3116101ad578063095ea7b31461023c5780630c0a9d261461025157806321ff99701461026457806323b872dd1461027757600080fd5b806301ffc9a7146101d457806306fdde03146101fc578063081812fc14610211575b600080fd5b6101e76101e2366004611ab7565b610492565b60405190151581526020015b60405180910390f35b6102046104bd565b6040516101f39190611b28565b61022461021f366004611b3b565b61054f565b6040516001600160a01b0390911681526020016101f3565b61024f61024a366004611b69565b6105e9565b005b61020461025f366004611b3b565b6106ff565b61024f610272366004611b3b565b6107a4565b61024f610285366004611b95565b6107fe565b61029d610298366004611bd6565b61082f565b604080516001600160a01b0390931683526020830191909152016101f3565b6102c560c95481565b6040519081526020016101f3565b61024f6102e1366004611b95565b61087d565b61024f6102f4366004611b3b565b610898565b61024f610307366004611ca4565b61093f565b61022461031a366004611b3b565b600090815260ca60205260409020600201546001600160a01b031690565b6102c5610346366004611d08565b610a19565b610224610359366004611b3b565b610b80565b61024f61036c366004611daa565b610bf7565b6102c561037f366004611dda565b610c88565b61024f610d0f565b6097546001600160a01b0316610224565b61024f6103ab366004611df7565b610d45565b610204610e0b565b61024f6103c6366004611e34565b610e1a565b61024f6103d9366004611e67565b610e29565b6102046103ec366004611b3b565b610e61565b6101e76103ff366004611ee7565b6001600160a01b039182166000908152606a6020908152604080832093909416825291909152205460ff1690565b61024f61043b366004611dda565b610ef9565b61024f61044e366004611daa565b610f91565b61024f610461366004611df7565b611022565b610224610474366004611b3b565b600090815260ca60205260409020600301546001600160a01b031690565b600063152a902d60e11b6001600160e01b0319831614806104b757506104b7826110a9565b92915050565b6060606580546104cc90611f15565b80601f01602080910402602001604051908101604052809291908181526020018280546104f890611f15565b80156105455780601f1061051a57610100808354040283529160200191610545565b820191906000526020600020905b81548152906001019060200180831161052857829003601f168201915b5050505050905090565b6000818152606760205260408120546001600160a01b03166105cd5760405162461bcd60e51b815260206004820152602c60248201527f4552433732313a20617070726f76656420717565727920666f72206e6f6e657860448201526b34b9ba32b73a103a37b5b2b760a11b60648201526084015b60405180910390fd5b506000908152606960205260409020546001600160a01b031690565b60006105f482610b80565b9050806001600160a01b0316836001600160a01b031614156106625760405162461bcd60e51b815260206004820152602160248201527f4552433732313a20617070726f76616c20746f2063757272656e74206f776e656044820152603960f91b60648201526084016105c4565b336001600160a01b038216148061067e575061067e81336103ff565b6106f05760405162461bcd60e51b815260206004820152603860248201527f4552433732313a20617070726f76652063616c6c6572206973206e6f74206f7760448201527f6e6572206e6f7220617070726f76656420666f7220616c6c000000000000000060648201526084016105c4565b6106fa83836110f9565b505050565b600081815260ca6020526040902060010180546060919061071f90611f15565b80601f016020809104026020016040519081016040528092919081815260200182805461074b90611f15565b80156107985780601f1061076d57610100808354040283529160200191610798565b820191906000526020600020905b81548152906001019060200180831161077b57829003601f168201915b50505050509050919050565b6097546001600160a01b031633146107ce5760405162461bcd60e51b81526004016105c490611f50565b60405181907f90004c04698bc3322499a575ed3752dd4abf33e0a7294c06a787a0fe01bea94190600090a260c955565b6108083382611167565b6108245760405162461bcd60e51b81526004016105c490611f85565b6106fa83838361125a565b600082815260ca602052604081206003015481906001600160a01b038116906127109061086790600160a01b900461ffff1686611fec565b610871919061200b565b915091505b9250929050565b6106fa83838360405180602001604052806000815250610e29565b600081815260ca60205260409020600201546001600160a01b0316331480156108da57506108c581610b80565b6001600160a01b0316336001600160a01b0316145b806108ef57506097546001600160a01b031633145b6109335760405162461bcd60e51b815260206004820152601560248201527427b7363c9031b932b0ba37b91037b91020b236b4b760591b60448201526064016105c4565b61093c816113fa565b50565b600054610100900460ff1661095a5760005460ff161561095e565b303b155b6109c15760405162461bcd60e51b815260206004820152602e60248201527f496e697469616c697a61626c653a20636f6e747261637420697320616c72656160448201526d191e481a5b9a5d1a585b1a5e995960921b60648201526084016105c4565b600054610100900460ff161580156109e3576000805461ffff19166101011790555b6109ed8383611495565b6109f56114d6565b610a0360cb80546001019055565b80156106fa576000805461ff0019169055505050565b6000610aa98383808060200260200160405190810160405280939291908181526020018383602002808284376000920191909152505060c9549150610a6690506060880160408901611dda565b604051602001610a8e919060609190911b6bffffffffffffffffffffffff1916815260140190565b6040516020818303038152906040528051906020012061150d565b610ae45760405162461bcd60e51b815260206004820152600c60248201526b10bb30b634b210383937b7b360a11b60448201526064016105c4565b612710610af760a086016080870161203d565b61ffff1610610b3b5760405162461bcd60e51b815260206004820152601060248201526f0726f79616c747920213c2031303030360841b60448201526064016105c4565b6000610b4660cb5490565b9050610b523382611523565b600081815260ca602052604090208590610b6c82826121ea565b505060cb805460010190555b949350505050565b6000818152606760205260408120546001600160a01b0316806104b75760405162461bcd60e51b815260206004820152602960248201527f4552433732313a206f776e657220717565727920666f72206e6f6e657869737460448201526832b73a103a37b5b2b760b91b60648201526084016105c4565b6097546001600160a01b03163314610c215760405162461bcd60e51b81526004016105c490611f50565b6040516001600160a01b0382169083907f13ceafb5e8ec39102bd452913a5c00a05f3b060d636d3a567c1c80e8b4321fe790600090a3600091825260ca602052604090912060030180546001600160a01b0319166001600160a01b03909216919091179055565b60006001600160a01b038216610cf35760405162461bcd60e51b815260206004820152602a60248201527f4552433732313a2062616c616e636520717565727920666f7220746865207a65604482015269726f206164647265737360b01b60648201526084016105c4565b506001600160a01b031660009081526068602052604090205490565b6097546001600160a01b03163314610d395760405162461bcd60e51b81526004016105c490611f50565b610d436000611665565b565b6097546001600160a01b0316331480610d775750600082815260ca60205260409020600201546001600160a01b031633145b610db45760405162461bcd60e51b815260206004820152600e60248201526d10b1b932b0ba37b917b0b236b4b760911b60448201526064016105c4565b817f459157ba24c7ab9878b165ef465fa6ae2ab42bcd8445f576be378768b0c4730982604051610de49190611b28565b60405180910390a2600082815260ca6020908152604090912082516106fa92840190611a08565b6060606680546104cc90611f15565b610e253383836116b7565b5050565b610e333383611167565b610e4f5760405162461bcd60e51b81526004016105c490611f85565b610e5b84848484611786565b50505050565b6000818152606760205260409020546060906001600160a01b0316610ee05760405162461bcd60e51b815260206004820152602f60248201527f4552433732314d657461646174613a2055524920717565727920666f72206e6f60448201526e3732bc34b9ba32b73a103a37b5b2b760891b60648201526084016105c4565b600082815260ca60205260409020805461071f90611f15565b6097546001600160a01b03163314610f235760405162461bcd60e51b81526004016105c490611f50565b6001600160a01b038116610f885760405162461bcd60e51b815260206004820152602660248201527f4f776e61626c653a206e6577206f776e657220697320746865207a65726f206160448201526564647265737360d01b60648201526084016105c4565b61093c81611665565b6097546001600160a01b03163314610fbb5760405162461bcd60e51b81526004016105c490611f50565b6040516001600160a01b0382169083907fc0186d9ba7364ebd80a7010121367f481af81e1028bf368b2172fedf2c6fc7de90600090a3600091825260ca602052604090912060020180546001600160a01b0319166001600160a01b03909216919091179055565b6097546001600160a01b0316331461104c5760405162461bcd60e51b81526004016105c490611f50565b817f4071afae07e623612645169abd4d62a6bd5932a996b14deac10d9903faccea548260405161107c9190611b28565b60405180910390a2600082815260ca6020908152604090912082516106fa92600190920191840190611a08565b60006001600160e01b031982166380ac58cd60e01b14806110da57506001600160e01b03198216635b5e139f60e01b145b806104b757506301ffc9a760e01b6001600160e01b03198316146104b7565b600081815260696020526040902080546001600160a01b0319166001600160a01b038416908117909155819061112e82610b80565b6001600160a01b03167f8c5be1e5ebec7d5bd14f71427d1e84f3dd0314c0f7b2291e5b200ac8c7c3b92560405160405180910390a45050565b6000818152606760205260408120546001600160a01b03166111e05760405162461bcd60e51b815260206004820152602c60248201527f4552433732313a206f70657261746f7220717565727920666f72206e6f6e657860448201526b34b9ba32b73a103a37b5b2b760a11b60648201526084016105c4565b60006111eb83610b80565b9050806001600160a01b0316846001600160a01b031614806112265750836001600160a01b031661121b8461054f565b6001600160a01b0316145b80610b7857506001600160a01b038082166000908152606a602090815260408083209388168352929052205460ff16610b78565b826001600160a01b031661126d82610b80565b6001600160a01b0316146112d55760405162461bcd60e51b815260206004820152602960248201527f4552433732313a207472616e73666572206f6620746f6b656e2074686174206960448201526839903737ba1037bbb760b91b60648201526084016105c4565b6001600160a01b0382166113375760405162461bcd60e51b8152602060048201526024808201527f4552433732313a207472616e7366657220746f20746865207a65726f206164646044820152637265737360e01b60648201526084016105c4565b6113426000826110f9565b6001600160a01b038316600090815260686020526040812080546001929061136b90849061232f565b90915550506001600160a01b0382166000908152606860205260408120805460019290611399908490612346565b909155505060008181526067602052604080822080546001600160a01b0319166001600160a01b0386811691821790925591518493918716917fddf252ad1be2c89b69c2b068fc378daa952ba7f163c4a11628f55a4df523b3ef91a4505050565b600061140582610b80565b90506114126000836110f9565b6001600160a01b038116600090815260686020526040812080546001929061143b90849061232f565b909155505060008281526067602052604080822080546001600160a01b0319169055518391906001600160a01b038416907fddf252ad1be2c89b69c2b068fc378daa952ba7f163c4a11628f55a4df523b3ef908390a45050565b600054610100900460ff166114bc5760405162461bcd60e51b81526004016105c49061235e565b6114c46117b9565b6114cc6117b9565b610e2582826117e0565b600054610100900460ff166114fd5760405162461bcd60e51b81526004016105c49061235e565b6115056117b9565b610d4361182e565b60008261151a858461185e565b14949350505050565b6001600160a01b0382166115795760405162461bcd60e51b815260206004820181905260248201527f4552433732313a206d696e7420746f20746865207a65726f206164647265737360448201526064016105c4565b6000818152606760205260409020546001600160a01b0316156115de5760405162461bcd60e51b815260206004820152601c60248201527f4552433732313a20746f6b656e20616c7265616479206d696e7465640000000060448201526064016105c4565b6001600160a01b0382166000908152606860205260408120805460019290611607908490612346565b909155505060008181526067602052604080822080546001600160a01b0319166001600160a01b03861690811790915590518392907fddf252ad1be2c89b69c2b068fc378daa952ba7f163c4a11628f55a4df523b3ef908290a45050565b609780546001600160a01b038381166001600160a01b0319831681179093556040519116919082907f8be0079c531659141344cd1fd0a4f28419497f9722a3daafe3b4186f6b6457e090600090a35050565b816001600160a01b0316836001600160a01b031614156117195760405162461bcd60e51b815260206004820152601960248201527f4552433732313a20617070726f766520746f2063616c6c65720000000000000060448201526064016105c4565b6001600160a01b038381166000818152606a6020908152604080832094871680845294825291829020805460ff191686151590811790915591519182527f17307eab39ab6107e8899845ad3d59bd9653f200f220920489ca2b5937696c31910160405180910390a3505050565b61179184848461125a565b61179d8484848461190a565b610e5b5760405162461bcd60e51b81526004016105c4906123a9565b600054610100900460ff16610d435760405162461bcd60e51b81526004016105c49061235e565b600054610100900460ff166118075760405162461bcd60e51b81526004016105c49061235e565b815161181a906065906020850190611a08565b5080516106fa906066906020840190611a08565b600054610100900460ff166118555760405162461bcd60e51b81526004016105c49061235e565b610d4333611665565b600081815b8451811015611902576000858281518110611880576118806123fb565b602002602001015190508083116118c25760408051602081018590529081018290526060016040516020818303038152906040528051906020012092506118ef565b60408051602081018390529081018490526060016040516020818303038152906040528051906020012092505b50806118fa81612411565b915050611863565b509392505050565b60006001600160a01b0384163b156119fd57604051630a85bd0160e11b81526001600160a01b0385169063150b7a029061194e90339089908890889060040161242c565b6020604051808303816000875af1925050508015611989575060408051601f3d908101601f1916820190925261198691810190612469565b60015b6119e3573d8080156119b7576040519150601f19603f3d011682016040523d82523d6000602084013e6119bc565b606091505b5080516119db5760405162461bcd60e51b81526004016105c4906123a9565b805181602001fd5b6001600160e01b031916630a85bd0160e11b149050610b78565b506001949350505050565b828054611a1490611f15565b90600052602060002090601f016020900481019282611a365760008555611a7c565b82601f10611a4f57805160ff1916838001178555611a7c565b82800160010185558215611a7c579182015b82811115611a7c578251825591602001919060010190611a61565b50611a88929150611a8c565b5090565b5b80821115611a885760008155600101611a8d565b6001600160e01b03198116811461093c57600080fd5b600060208284031215611ac957600080fd5b8135611ad481611aa1565b9392505050565b6000815180845260005b81811015611b0157602081850181015186830182015201611ae5565b81811115611b13576000602083870101525b50601f01601f19169290920160200192915050565b602081526000611ad46020830184611adb565b600060208284031215611b4d57600080fd5b5035919050565b6001600160a01b038116811461093c57600080fd5b60008060408385031215611b7c57600080fd5b8235611b8781611b54565b946020939093013593505050565b600080600060608486031215611baa57600080fd5b8335611bb581611b54565b92506020840135611bc581611b54565b929592945050506040919091013590565b60008060408385031215611be957600080fd5b50508035926020909101359150565b634e487b7160e01b600052604160045260246000fd5b600067ffffffffffffffff80841115611c2957611c29611bf8565b604051601f8501601f19908116603f01168101908282118183101715611c5157611c51611bf8565b81604052809350858152868686011115611c6a57600080fd5b858560208301376000602087830101525050509392505050565b600082601f830112611c9557600080fd5b611ad483833560208501611c0e565b60008060408385031215611cb757600080fd5b823567ffffffffffffffff80821115611ccf57600080fd5b611cdb86838701611c84565b93506020850135915080821115611cf157600080fd5b50611cfe85828601611c84565b9150509250929050565b600080600060408486031215611d1d57600080fd5b833567ffffffffffffffff80821115611d3557600080fd5b9085019060a08288031215611d4957600080fd5b90935060208501359080821115611d5f57600080fd5b818601915086601f830112611d7357600080fd5b813581811115611d8257600080fd5b8760208260051b8501011115611d9757600080fd5b6020830194508093505050509250925092565b60008060408385031215611dbd57600080fd5b823591506020830135611dcf81611b54565b809150509250929050565b600060208284031215611dec57600080fd5b8135611ad481611b54565b60008060408385031215611e0a57600080fd5b82359150602083013567ffffffffffffffff811115611e2857600080fd5b611cfe85828601611c84565b60008060408385031215611e4757600080fd5b8235611e5281611b54565b915060208301358015158114611dcf57600080fd5b60008060008060808587031215611e7d57600080fd5b8435611e8881611b54565b93506020850135611e9881611b54565b925060408501359150606085013567ffffffffffffffff811115611ebb57600080fd5b8501601f81018713611ecc57600080fd5b611edb87823560208401611c0e565b91505092959194509250565b60008060408385031215611efa57600080fd5b8235611f0581611b54565b91506020830135611dcf81611b54565b600181811c90821680611f2957607f821691505b60208210811415611f4a57634e487b7160e01b600052602260045260246000fd5b50919050565b6020808252818101527f4f776e61626c653a2063616c6c6572206973206e6f7420746865206f776e6572604082015260600190565b60208082526031908201527f4552433732313a207472616e736665722063616c6c6572206973206e6f74206f6040820152701ddb995c881b9bdc88185c1c1c9bdd9959607a1b606082015260800190565b634e487b7160e01b600052601160045260246000fd5b600081600019048311821515161561200657612006611fd6565b500290565b60008261202857634e487b7160e01b600052601260045260246000fd5b500490565b61ffff8116811461093c57600080fd5b60006020828403121561204f57600080fd5b8135611ad48161202d565b6000808335601e1984360301811261207157600080fd5b83018035915067ffffffffffffffff82111561208c57600080fd5b60200191503681900382131561087657600080fd5b601f8211156106fa57600081815260208120601f850160051c810160208610156120c85750805b601f850160051c820191505b818110156120e7578281556001016120d4565b505050505050565b67ffffffffffffffff83111561210757612107611bf8565b61211b836121158354611f15565b836120a1565b6000601f84116001811461214f57600085156121375750838201355b600019600387901b1c1916600186901b1783556121a9565b600083815260209020601f19861690835b828110156121805786850135825560209485019460019092019101612160565b508682101561219d5760001960f88860031b161c19848701351681555b505060018560011b0183555b5050505050565b600081356104b781611b54565b80546001600160a01b0319166001600160a01b0392909216919091179055565b600081356104b78161202d565b6121f4828361205a565b67ffffffffffffffff81111561220c5761220c611bf8565b6122208161221a8554611f15565b856120a1565b6000601f821160018114612254576000831561223c5750838201355b600019600385901b1c1916600184901b1785556122ae565b600085815260209020601f19841690835b828110156122855786850135825560209485019460019092019101612265565b50848210156122a25760001960f88660031b161c19848701351681555b505060018360011b0185555b505050506122bf602083018361205a565b6122cd8183600186016120ef565b50506122e76122de604084016121b0565b600283016121bd565b600381016123006122fa606085016121b0565b826121bd565b6106fa61230f608085016121dd565b82805461ffff60a01b191660a09290921b61ffff60a01b16919091179055565b60008282101561234157612341611fd6565b500390565b6000821982111561235957612359611fd6565b500190565b6020808252602b908201527f496e697469616c697a61626c653a20636f6e7472616374206973206e6f74206960408201526a6e697469616c697a696e6760a81b606082015260800190565b60208082526032908201527f4552433732313a207472616e7366657220746f206e6f6e20455243373231526560408201527131b2b4bb32b91034b6b83632b6b2b73a32b960711b606082015260800190565b634e487b7160e01b600052603260045260246000fd5b600060001982141561242557612425611fd6565b5060010190565b6001600160a01b038581168252841660208201526040810183905260806060820181905260009061245f90830184611adb565b9695505050505050565b60006020828403121561247b57600080fd5b8151611ad481611aa156fea26469706673582212202e13df4e0a949ae6d147d7be283b7903ea177f79945a6d115b029068f4196ac064736f6c634300080a0033",
  "devdoc": {
    "author": ":   @bretth18 (computerdata) of @catalogworks",
    "details": ":   Upgradeable ERC721 Contract. Final proposed implementation (XFO), Rinkeby. Purpose built for optmization over the Zora V1 contracts. isian (iain nash) of Zora.  ---------------------------------------------------------------------------------------------------------------------                                                                                                                                                                                                                                                                                                                           ",
    "kind": "dev",
    "methods": {
      "approve(address,uint256)": {
        "details": "See {IERC721-approve}."
      },
      "balanceOf(address)": {
        "details": "See {IERC721-balanceOf}."
      },
      "burn(uint256)": {
        "details": "burns given tokenId, restrited to owner and creator (when owned)",
        "params": {
          "_tokenId": "uint256 identifier of token to burn"
        }
      },
      "creator(uint256)": {
        "details": "basic public getter method for creator",
        "params": {
          "_tokenId": "uint256 identifier of token to get creator for"
        },
        "returns": {
          "_0": "address creator of given tokenId"
        }
      },
      "getApproved(uint256)": {
        "details": "See {IERC721-getApproved}."
      },
      "initialize(string,string)": {
        "details": "Initializes contract with default values, for upgradeable proxy purposes",
        "params": {
          "_name": "string name of the contract",
          "_symbol": "string symbol of the contract"
        }
      },
      "isApprovedForAll(address,address)": {
        "details": "See {IERC721-isApprovedForAll}."
      },
      "mint((string,string,address,address,uint16),bytes32[])": {
        "details": "mints a new token to allowlisted msg.sender with a valid merkle proof. params can and should be changed to calldata for gas efficiency. rename to \"allowlist\"",
        "params": {
          "_data": "TokenData struct, see ITB303",
          "_proof": "bytes32[] merkle proof of artist wallet.  this is created off-chain.  e.g (proof = tree.getHexProof(keccak256(address)))"
        },
        "returns": {
          "_0": "uint256 tokenId of minted token (useful since we are not using Enumerable)"
        }
      },
      "name()": {
        "details": "See {IERC721Metadata-name}."
      },
      "owner()": {
        "details": "Returns the address of the current owner."
      },
      "ownerOf(uint256)": {
        "details": "See {IERC721-ownerOf}."
      },
      "renounceOwnership()": {
        "details": "Leaves the contract without owner. It will not be possible to call `onlyOwner` functions anymore. Can only be called by the current owner. NOTE: Renouncing ownership will leave the contract without an owner, thereby removing any functionality that is only available to the owner."
      },
      "royaltyInfo(uint256,uint256)": {
        "details": "override, conforms to EIP-2981",
        "params": {
          "_salePrice": "uint256 final sale price of token used to calculate royalty payout",
          "_tokenId": "uint256 token id corresponding to the token of which to get royalty information"
        }
      },
      "royaltyPayoutAddress(uint256)": {
        "details": "basic public getter method for royalty payout address ",
        "params": {
          "_tokenId": "uint256 identifier of token to get royalty payout address for"
        },
        "returns": {
          "_0": "address royalty payout address of given tokenId"
        }
      },
      "safeTransferFrom(address,address,uint256)": {
        "details": "See {IERC721-safeTransferFrom}."
      },
      "safeTransferFrom(address,address,uint256,bytes)": {
        "details": "See {IERC721-safeTransferFrom}."
      },
      "setApprovalForAll(address,bool)": {
        "details": "See {IERC721-setApprovalForAll}."
      },
      "supportsInterface(bytes4)": {
        "details": "override ",
        "params": {
          "interfaceId": "bytes4 id of interface to check"
        }
      },
      "symbol()": {
        "details": "See {IERC721Metadata-symbol}."
      },
      "tokenContentURI(uint256)": {
        "details": "basic public getter method for content URI",
        "params": {
          "_tokenId": "uint256 identifier of token to get content URI for"
        },
        "returns": {
          "_0": "string content URI for given tokenId"
        }
      },
      "tokenURI(uint256)": {
        "details": "override function, returns metadataURI of token stored in tokenData",
        "params": {
          "_tokenId": "uint256 token id corresponding to the token of which to get metadata from"
        },
        "returns": {
          "_0": "string containing metadata URI"
        }
      },
      "transferFrom(address,address,uint256)": {
        "details": "See {IERC721-transferFrom}."
      },
      "transferOwnership(address)": {
        "details": "Transfers ownership of the contract to a new account (`newOwner`). Can only be called by the current owner."
      },
      "updateContentURI(uint256,string)": {
        "details": "access controlled function, restricted to owner/admim.",
        "params": {
          "_contentURI": "string containing new/updated media content (subject to change, new EIP)",
          "_tokenId": "uint256 token id corresponding to the token to update"
        }
      },
      "updateCreator(uint256,address)": {
        "details": "access controlled function, restricted to owner/admim. used in case of compromised artist wallet.",
        "params": {
          "_creator": "address new creator of the token",
          "_tokenId": "uint256 token id corresponding to the token to update"
        }
      },
      "updateMetadataURI(uint256,string)": {
        "details": "access controlled, restricted to contract owner/admin or the creator of the token",
        "params": {
          "_metadataURI": "string containing new/updated metadata (e.g IPFS URI pointing to metadata.json)",
          "_tokenId": "uint256 token id corresponding to the token to update"
        }
      },
      "updateRoot(bytes32)": {
        "details": "access controlled function, restricted to owner/admim.",
        "params": {
          "_newRoot": "bytes32 containing the new root hash, generated off-chain"
        }
      },
      "updateRoyaltyInfo(uint256,address)": {
        "details": "access controlled to owner only, subject to change.  this function allows for emergency royalty control (i.e compromised wallet)",
        "params": {
          "_royaltyPayoutAddress": "address of new royalty payout address",
          "_tokenId": "uint256 token id corresponding to the token of which to update royalty payout"
        }
      }
    },
    "title": ":   XFO",
    "version": 1
  },
  "userdoc": {
    "events": {
      "MetadataUpdated(uint256,string)": {
        "notice": "Events"
      }
    },
    "kind": "user",
    "methods": {
      "burn(uint256)": {
        "notice": "Burn FunctionBurns a token"
      },
      "creator(uint256)": {
        "notice": "creator Functiongets the creator of a token"
      },
      "initialize(string,string)": {
        "notice": "initialize FunctionInitializes contract with default values, acts as a constructor"
      },
      "mint((string,string,address,address,uint16),bytes32[])": {
        "notice": "mint Functionmints a new token"
      },
      "royaltyInfo(uint256,uint256)": {
        "notice": "royaltyInfo Functionoverride function gets royalty information for a token (EIP-2981)"
      },
      "royaltyPayoutAddress(uint256)": {
        "notice": "royaltyPayoutAddress Functiongets the address of the royalty payout for a token"
      },
      "supportsInterface(bytes4)": {
        "notice": "supportsInterface Functionoverride function to check if contract supports an interface"
      },
      "tokenContentURI(uint256)": {
        "notice": "tokenContentURI Functiongets the URI of the content of a token. subject to change pending EIP draft"
      },
      "tokenURI(uint256)": {
        "notice": "tokenURI Functionoverride function to get the URI of a token. returns stored metadataURI"
      },
      "updateContentURI(uint256,string)": {
        "notice": "updateContentURI Functionupdates the content URI of a token, emits an event"
      },
      "updateCreator(uint256,address)": {
        "notice": "updateCreator Functionupdates the creator of a token, emits an event"
      },
      "updateMetadataURI(uint256,string)": {
        "notice": "updateMetadataURI Functionupdates the metadata URI of a token, emits an event"
      },
      "updateRoot(bytes32)": {
        "notice": "updateRoot Functionupdates the merkleroot of the allowlistthis function is inherits from Angela.sol, and may not be necessary depending on role based configuration."
      },
      "updateRoyaltyInfo(uint256,address)": {
        "notice": "updateRoyaltyInfo Functionupdates the royalty payout address and royalty BPS of a token, emits an event"
      }
    },
    "notice": "-------------------------------------------------------------------------------------------------------------------- XFO************************************************ LEGAL DISCLAIMER: https://catalog.works/terms************************************************ ---------------------------------------------------------------------------------------------------------------------                                                                                                                                                                                                                                                                                                                            RINKEBY CNFT (V4: CODENAME \"XFO\") \"XFO\"                       :   Creator Shared NFT Media Contract for Catalog Records Inc.",
    "version": 1
  },
  "storageLayout": {
    "storage": [
      {
        "astId": 562,
        "contract": "contracts/catalog/XFO.sol:XFO",
        "label": "_initialized",
        "offset": 0,
        "slot": "0",
        "type": "t_bool"
      },
      {
        "astId": 565,
        "contract": "contracts/catalog/XFO.sol:XFO",
        "label": "_initializing",
        "offset": 1,
        "slot": "0",
        "type": "t_bool"
      },
      {
        "astId": 2050,
        "contract": "contracts/catalog/XFO.sol:XFO",
        "label": "__gap",
        "offset": 0,
        "slot": "1",
        "type": "t_array(t_uint256)50_storage"
      },
      {
        "astId": 2521,
        "contract": "contracts/catalog/XFO.sol:XFO",
        "label": "__gap",
        "offset": 0,
        "slot": "51",
        "type": "t_array(t_uint256)50_storage"
      },
      {
        "astId": 769,
        "contract": "contracts/catalog/XFO.sol:XFO",
        "label": "_name",
        "offset": 0,
        "slot": "101",
        "type": "t_string_storage"
      },
      {
        "astId": 771,
        "contract": "contracts/catalog/XFO.sol:XFO",
        "label": "_symbol",
        "offset": 0,
        "slot": "102",
        "type": "t_string_storage"
      },
      {
        "astId": 775,
        "contract": "contracts/catalog/XFO.sol:XFO",
        "label": "_owners",
        "offset": 0,
        "slot": "103",
        "type": "t_mapping(t_uint256,t_address)"
      },
      {
        "astId": 779,
        "contract": "contracts/catalog/XFO.sol:XFO",
        "label": "_balances",
        "offset": 0,
        "slot": "104",
        "type": "t_mapping(t_address,t_uint256)"
      },
      {
        "astId": 783,
        "contract": "contracts/catalog/XFO.sol:XFO",
        "label": "_tokenApprovals",
        "offset": 0,
        "slot": "105",
        "type": "t_mapping(t_uint256,t_address)"
      },
      {
        "astId": 789,
        "contract": "contracts/catalog/XFO.sol:XFO",
        "label": "_operatorApprovals",
        "offset": 0,
        "slot": "106",
        "type": "t_mapping(t_address,t_mapping(t_address,t_bool))"
      },
      {
        "astId": 1600,
        "contract": "contracts/catalog/XFO.sol:XFO",
        "label": "__gap",
        "offset": 0,
        "slot": "107",
        "type": "t_array(t_uint256)44_storage"
      },
      {
        "astId": 10,
        "contract": "contracts/catalog/XFO.sol:XFO",
        "label": "_owner",
        "offset": 0,
        "slot": "151",
        "type": "t_address"
      },
      {
        "astId": 124,
        "contract": "contracts/catalog/XFO.sol:XFO",
        "label": "__gap",
        "offset": 0,
        "slot": "152",
        "type": "t_array(t_uint256)49_storage"
      },
      {
        "astId": 4500,
        "contract": "contracts/catalog/XFO.sol:XFO",
        "label": "merkleRoot",
        "offset": 0,
        "slot": "201",
        "type": "t_bytes32"
      },
      {
        "astId": 4506,
        "contract": "contracts/catalog/XFO.sol:XFO",
        "label": "tokenData",
        "offset": 0,
        "slot": "202",
        "type": "t_mapping(t_uint256,t_struct(TokenData)4498_storage)"
      },
      {
        "astId": 4510,
        "contract": "contracts/catalog/XFO.sol:XFO",
        "label": "_tokenIdCounter",
        "offset": 0,
        "slot": "203",
        "type": "t_struct(Counter)2057_storage"
      }
    ],
    "types": {
      "t_address": {
        "encoding": "inplace",
        "label": "address",
        "numberOfBytes": "20"
      },
      "t_array(t_uint256)44_storage": {
        "base": "t_uint256",
        "encoding": "inplace",
        "label": "uint256[44]",
        "numberOfBytes": "1408"
      },
      "t_array(t_uint256)49_storage": {
        "base": "t_uint256",
        "encoding": "inplace",
        "label": "uint256[49]",
        "numberOfBytes": "1568"
      },
      "t_array(t_uint256)50_storage": {
        "base": "t_uint256",
        "encoding": "inplace",
        "label": "uint256[50]",
        "numberOfBytes": "1600"
      },
      "t_bool": {
        "encoding": "inplace",
        "label": "bool",
        "numberOfBytes": "1"
      },
      "t_bytes32": {
        "encoding": "inplace",
        "label": "bytes32",
        "numberOfBytes": "32"
      },
      "t_mapping(t_address,t_bool)": {
        "encoding": "mapping",
        "key": "t_address",
        "label": "mapping(address => bool)",
        "numberOfBytes": "32",
        "value": "t_bool"
      },
      "t_mapping(t_address,t_mapping(t_address,t_bool))": {
        "encoding": "mapping",
        "key": "t_address",
        "label": "mapping(address => mapping(address => bool))",
        "numberOfBytes": "32",
        "value": "t_mapping(t_address,t_bool)"
      },
      "t_mapping(t_address,t_uint256)": {
        "encoding": "mapping",
        "key": "t_address",
        "label": "mapping(address => uint256)",
        "numberOfBytes": "32",
        "value": "t_uint256"
      },
      "t_mapping(t_uint256,t_address)": {
        "encoding": "mapping",
        "key": "t_uint256",
        "label": "mapping(uint256 => address)",
        "numberOfBytes": "32",
        "value": "t_address"
      },
      "t_mapping(t_uint256,t_struct(TokenData)4498_storage)": {
        "encoding": "mapping",
        "key": "t_uint256",
        "label": "mapping(uint256 => struct XFO.TokenData)",
        "numberOfBytes": "32",
        "value": "t_struct(TokenData)4498_storage"
      },
      "t_string_storage": {
        "encoding": "bytes",
        "label": "string",
        "numberOfBytes": "32"
      },
      "t_struct(Counter)2057_storage": {
        "encoding": "inplace",
        "label": "struct CountersUpgradeable.Counter",
        "members": [
          {
            "astId": 2056,
            "contract": "contracts/catalog/XFO.sol:XFO",
            "label": "_value",
            "offset": 0,
            "slot": "0",
            "type": "t_uint256"
          }
        ],
        "numberOfBytes": "32"
      },
      "t_struct(TokenData)4498_storage": {
        "encoding": "inplace",
        "label": "struct XFO.TokenData",
        "members": [
          {
            "astId": 4489,
            "contract": "contracts/catalog/XFO.sol:XFO",
            "label": "metadataURI",
            "offset": 0,
            "slot": "0",
            "type": "t_string_storage"
          },
          {
            "astId": 4491,
            "contract": "contracts/catalog/XFO.sol:XFO",
            "label": "contentURI",
            "offset": 0,
            "slot": "1",
            "type": "t_string_storage"
          },
          {
            "astId": 4493,
            "contract": "contracts/catalog/XFO.sol:XFO",
            "label": "creator",
            "offset": 0,
            "slot": "2",
            "type": "t_address"
          },
          {
            "astId": 4495,
            "contract": "contracts/catalog/XFO.sol:XFO",
            "label": "royaltyPayout",
            "offset": 0,
            "slot": "3",
            "type": "t_address"
          },
          {
            "astId": 4497,
            "contract": "contracts/catalog/XFO.sol:XFO",
            "label": "royaltyBPS",
            "offset": 20,
            "slot": "3",
            "type": "t_uint16"
          }
        ],
        "numberOfBytes": "128"
      },
      "t_uint16": {
        "encoding": "inplace",
        "label": "uint16",
        "numberOfBytes": "2"
      },
      "t_uint256": {
        "encoding": "inplace",
        "label": "uint256",
        "numberOfBytes": "32"
      }
    }
  }
}