{
  "address": "0xa29B0C46FB3C0133C03ba7e7665F90Df547781FD",
  "abi": [
    {
      "anonymous": false,
      "inputs": [
        {
          "indexed": false,
          "internalType": "address",
          "name": "previousAdmin",
          "type": "address"
        },
        {
          "indexed": false,
          "internalType": "address",
          "name": "newAdmin",
          "type": "address"
        }
      ],
      "name": "AdminChanged",
      "type": "event"
    },
    {
      "anonymous": false,
      "inputs": [
        {
          "indexed": true,
          "internalType": "address",
          "name": "owner",
          "type": "address"
        },
        {
          "indexed": true,
          "internalType": "address",
          "name": "approved",
          "type": "address"
        },
        {
          "indexed": true,
          "internalType": "uint256",
          "name": "tokenId",
          "type": "uint256"
        }
      ],
      "name": "Approval",
      "type": "event"
    },
    {
      "anonymous": false,
      "inputs": [
        {
          "indexed": true,
          "internalType": "address",
          "name": "owner",
          "type": "address"
        },
        {
          "indexed": true,
          "internalType": "address",
          "name": "operator",
          "type": "address"
        },
        {
          "indexed": false,
          "internalType": "bool",
          "name": "approved",
          "type": "bool"
        }
      ],
      "name": "ApprovalForAll",
      "type": "event"
    },
    {
      "anonymous": false,
      "inputs": [
        {
          "indexed": true,
          "internalType": "address",
          "name": "beacon",
          "type": "address"
        }
      ],
      "name": "BeaconUpgraded",
      "type": "event"
    },
    {
      "anonymous": false,
      "inputs": [
        {
          "indexed": true,
          "internalType": "uint256",
          "name": "tokenId",
          "type": "uint256"
        },
        {
          "indexed": true,
          "internalType": "bytes32",
          "name": "contentHash",
          "type": "bytes32"
        },
        {
          "indexed": false,
          "internalType": "string",
          "name": "contentURI",
          "type": "string"
        }
      ],
      "name": "ContentUpdated",
      "type": "event"
    },
    {
      "anonymous": false,
      "inputs": [
        {
          "indexed": true,
          "internalType": "uint256",
          "name": "tokenId",
          "type": "uint256"
        },
        {
          "indexed": true,
          "internalType": "address",
          "name": "creator",
          "type": "address"
        }
      ],
      "name": "CreatorUpdated",
      "type": "event"
    },
    {
      "anonymous": false,
      "inputs": [
        {
          "indexed": true,
          "internalType": "bytes32",
          "name": "merkleRoot",
          "type": "bytes32"
        }
      ],
      "name": "MerkleRootUpdated",
      "type": "event"
    },
    {
      "anonymous": false,
      "inputs": [
        {
          "indexed": true,
          "internalType": "uint256",
          "name": "tokenId",
          "type": "uint256"
        },
        {
          "indexed": false,
          "internalType": "string",
          "name": "metadataURI",
          "type": "string"
        }
      ],
      "name": "MetadataUpdated",
      "type": "event"
    },
    {
      "anonymous": false,
      "inputs": [
        {
          "indexed": true,
          "internalType": "address",
          "name": "previousOwner",
          "type": "address"
        },
        {
          "indexed": true,
          "internalType": "address",
          "name": "newOwner",
          "type": "address"
        }
      ],
      "name": "OwnershipTransferred",
      "type": "event"
    },
    {
      "anonymous": false,
      "inputs": [
        {
          "indexed": true,
          "internalType": "uint256",
          "name": "tokenId",
          "type": "uint256"
        },
        {
          "indexed": true,
          "internalType": "address",
          "name": "payoutAddress",
          "type": "address"
        }
      ],
      "name": "RoyaltyUpdated",
      "type": "event"
    },
    {
      "anonymous": false,
      "inputs": [
        {
          "indexed": true,
          "internalType": "address",
          "name": "from",
          "type": "address"
        },
        {
          "indexed": true,
          "internalType": "address",
          "name": "to",
          "type": "address"
        },
        {
          "indexed": true,
          "internalType": "uint256",
          "name": "tokenId",
          "type": "uint256"
        }
      ],
      "name": "Transfer",
      "type": "event"
    },
    {
      "anonymous": false,
      "inputs": [
        {
          "indexed": true,
          "internalType": "address",
          "name": "implementation",
          "type": "address"
        }
      ],
      "name": "Upgraded",
      "type": "event"
    },
    {
      "inputs": [
        {
          "internalType": "address",
          "name": "to",
          "type": "address"
        },
        {
          "internalType": "uint256",
          "name": "tokenId",
          "type": "uint256"
        }
      ],
      "name": "approve",
      "outputs": [],
      "stateMutability": "nonpayable",
      "type": "function"
    },
    {
      "inputs": [
        {
          "internalType": "address",
          "name": "owner",
          "type": "address"
        }
      ],
      "name": "balanceOf",
      "outputs": [
        {
          "internalType": "uint256",
          "name": "",
          "type": "uint256"
        }
      ],
      "stateMutability": "view",
      "type": "function"
    },
    {
      "inputs": [
        {
          "internalType": "uint256",
          "name": "_tokenId",
          "type": "uint256"
        }
      ],
      "name": "burn",
      "outputs": [],
      "stateMutability": "nonpayable",
      "type": "function"
    },
    {
      "inputs": [
        {
          "internalType": "uint256",
          "name": "_tokenId",
          "type": "uint256"
        }
      ],
      "name": "creator",
      "outputs": [
        {
          "internalType": "address",
          "name": "",
          "type": "address"
        }
      ],
      "stateMutability": "view",
      "type": "function"
    },
    {
      "inputs": [
        {
          "internalType": "uint256",
          "name": "tokenId",
          "type": "uint256"
        }
      ],
      "name": "getApproved",
      "outputs": [
        {
          "internalType": "address",
          "name": "",
          "type": "address"
        }
      ],
      "stateMutability": "view",
      "type": "function"
    },
    {
      "inputs": [
        {
          "internalType": "string",
          "name": "_name",
          "type": "string"
        },
        {
          "internalType": "string",
          "name": "_symbol",
          "type": "string"
        }
      ],
      "name": "initialize",
      "outputs": [],
      "stateMutability": "nonpayable",
      "type": "function"
    },
    {
      "inputs": [
        {
          "internalType": "address",
          "name": "owner",
          "type": "address"
        },
        {
          "internalType": "address",
          "name": "operator",
          "type": "address"
        }
      ],
      "name": "isApprovedForAll",
      "outputs": [
        {
          "internalType": "bool",
          "name": "",
          "type": "bool"
        }
      ],
      "stateMutability": "view",
      "type": "function"
    },
    {
      "inputs": [],
      "name": "merkleRoot",
      "outputs": [
        {
          "internalType": "bytes32",
          "name": "",
          "type": "bytes32"
        }
      ],
      "stateMutability": "view",
      "type": "function"
    },
    {
      "inputs": [
        {
          "components": [
            {
              "internalType": "string",
              "name": "metadataURI",
              "type": "string"
            },
            {
              "internalType": "address",
              "name": "creator",
              "type": "address"
            },
            {
              "internalType": "address",
              "name": "royaltyPayout",
              "type": "address"
            },
            {
              "internalType": "uint16",
              "name": "royaltyBPS",
              "type": "uint16"
            }
          ],
          "internalType": "struct Catalog.TokenData",
          "name": "_data",
          "type": "tuple"
        },
        {
          "components": [
            {
              "internalType": "string",
              "name": "contentURI",
              "type": "string"
            },
            {
              "internalType": "bytes32",
              "name": "contentHash",
              "type": "bytes32"
            }
          ],
          "internalType": "struct Catalog.ContentData",
          "name": "_content",
          "type": "tuple"
        },
        {
          "internalType": "bytes32[]",
          "name": "_proof",
          "type": "bytes32[]"
        }
      ],
      "name": "mint",
      "outputs": [
        {
          "internalType": "uint256",
          "name": "",
          "type": "uint256"
        }
      ],
      "stateMutability": "nonpayable",
      "type": "function"
    },
    {
      "inputs": [],
      "name": "name",
      "outputs": [
        {
          "internalType": "string",
          "name": "",
          "type": "string"
        }
      ],
      "stateMutability": "view",
      "type": "function"
    },
    {
      "inputs": [],
      "name": "owner",
      "outputs": [
        {
          "internalType": "address",
          "name": "",
          "type": "address"
        }
      ],
      "stateMutability": "view",
      "type": "function"
    },
    {
      "inputs": [
        {
          "internalType": "uint256",
          "name": "tokenId",
          "type": "uint256"
        }
      ],
      "name": "ownerOf",
      "outputs": [
        {
          "internalType": "address",
          "name": "",
          "type": "address"
        }
      ],
      "stateMutability": "view",
      "type": "function"
    },
    {
      "inputs": [],
      "name": "renounceOwnership",
      "outputs": [],
      "stateMutability": "nonpayable",
      "type": "function"
    },
    {
      "inputs": [
        {
          "internalType": "uint256",
          "name": "_tokenId",
          "type": "uint256"
        },
        {
          "internalType": "uint256",
          "name": "_salePrice",
          "type": "uint256"
        }
      ],
      "name": "royaltyInfo",
      "outputs": [
        {
          "internalType": "address",
          "name": "receiver",
          "type": "address"
        },
        {
          "internalType": "uint256",
          "name": "royaltyAmount",
          "type": "uint256"
        }
      ],
      "stateMutability": "view",
      "type": "function"
    },
    {
      "inputs": [
        {
          "internalType": "uint256",
          "name": "_tokenId",
          "type": "uint256"
        }
      ],
      "name": "royaltyPayoutAddress",
      "outputs": [
        {
          "internalType": "address",
          "name": "",
          "type": "address"
        }
      ],
      "stateMutability": "view",
      "type": "function"
    },
    {
      "inputs": [
        {
          "internalType": "address",
          "name": "from",
          "type": "address"
        },
        {
          "internalType": "address",
          "name": "to",
          "type": "address"
        },
        {
          "internalType": "uint256",
          "name": "tokenId",
          "type": "uint256"
        }
      ],
      "name": "safeTransferFrom",
      "outputs": [],
      "stateMutability": "nonpayable",
      "type": "function"
    },
    {
      "inputs": [
        {
          "internalType": "address",
          "name": "from",
          "type": "address"
        },
        {
          "internalType": "address",
          "name": "to",
          "type": "address"
        },
        {
          "internalType": "uint256",
          "name": "tokenId",
          "type": "uint256"
        },
        {
          "internalType": "bytes",
          "name": "_data",
          "type": "bytes"
        }
      ],
      "name": "safeTransferFrom",
      "outputs": [],
      "stateMutability": "nonpayable",
      "type": "function"
    },
    {
      "inputs": [
        {
          "internalType": "address",
          "name": "operator",
          "type": "address"
        },
        {
          "internalType": "bool",
          "name": "approved",
          "type": "bool"
        }
      ],
      "name": "setApprovalForAll",
      "outputs": [],
      "stateMutability": "nonpayable",
      "type": "function"
    },
    {
      "inputs": [
        {
          "internalType": "bytes4",
          "name": "interfaceId",
          "type": "bytes4"
        }
      ],
      "name": "supportsInterface",
      "outputs": [
        {
          "internalType": "bool",
          "name": "",
          "type": "bool"
        }
      ],
      "stateMutability": "view",
      "type": "function"
    },
    {
      "inputs": [],
      "name": "symbol",
      "outputs": [
        {
          "internalType": "string",
          "name": "",
          "type": "string"
        }
      ],
      "stateMutability": "view",
      "type": "function"
    },
    {
      "inputs": [
        {
          "internalType": "uint256",
          "name": "_tokenId",
          "type": "uint256"
        }
      ],
      "name": "tokenURI",
      "outputs": [
        {
          "internalType": "string",
          "name": "",
          "type": "string"
        }
      ],
      "stateMutability": "view",
      "type": "function"
    },
    {
      "inputs": [
        {
          "internalType": "address",
          "name": "from",
          "type": "address"
        },
        {
          "internalType": "address",
          "name": "to",
          "type": "address"
        },
        {
          "internalType": "uint256",
          "name": "tokenId",
          "type": "uint256"
        }
      ],
      "name": "transferFrom",
      "outputs": [],
      "stateMutability": "nonpayable",
      "type": "function"
    },
    {
      "inputs": [
        {
          "internalType": "address",
          "name": "newOwner",
          "type": "address"
        }
      ],
      "name": "transferOwnership",
      "outputs": [],
      "stateMutability": "nonpayable",
      "type": "function"
    },
    {
      "inputs": [
        {
          "internalType": "uint256",
          "name": "_tokenId",
          "type": "uint256"
        },
        {
          "components": [
            {
              "internalType": "string",
              "name": "contentURI",
              "type": "string"
            },
            {
              "internalType": "bytes32",
              "name": "contentHash",
              "type": "bytes32"
            }
          ],
          "internalType": "struct Catalog.ContentData",
          "name": "_content",
          "type": "tuple"
        }
      ],
      "name": "updateContentURI",
      "outputs": [],
      "stateMutability": "nonpayable",
      "type": "function"
    },
    {
      "inputs": [
        {
          "internalType": "uint256",
          "name": "_tokenId",
          "type": "uint256"
        },
        {
          "internalType": "address",
          "name": "_creator",
          "type": "address"
        }
      ],
      "name": "updateCreator",
      "outputs": [],
      "stateMutability": "nonpayable",
      "type": "function"
    },
    {
      "inputs": [
        {
          "internalType": "uint256",
          "name": "_tokenId",
          "type": "uint256"
        },
        {
          "internalType": "string",
          "name": "_metadataURI",
          "type": "string"
        }
      ],
      "name": "updateMetadataURI",
      "outputs": [],
      "stateMutability": "nonpayable",
      "type": "function"
    },
    {
      "inputs": [
        {
          "internalType": "bytes32",
          "name": "_newRoot",
          "type": "bytes32"
        }
      ],
      "name": "updateRoot",
      "outputs": [],
      "stateMutability": "nonpayable",
      "type": "function"
    },
    {
      "inputs": [
        {
          "internalType": "uint256",
          "name": "_tokenId",
          "type": "uint256"
        },
        {
          "internalType": "address",
          "name": "_royaltyPayoutAddress",
          "type": "address"
        }
      ],
      "name": "updateRoyaltyInfo",
      "outputs": [],
      "stateMutability": "nonpayable",
      "type": "function"
    },
    {
      "inputs": [
        {
          "internalType": "address",
          "name": "newImplementation",
          "type": "address"
        }
      ],
      "name": "upgradeTo",
      "outputs": [],
      "stateMutability": "nonpayable",
      "type": "function"
    },
    {
      "inputs": [
        {
          "internalType": "address",
          "name": "newImplementation",
          "type": "address"
        },
        {
          "internalType": "bytes",
          "name": "data",
          "type": "bytes"
        }
      ],
      "name": "upgradeToAndCall",
      "outputs": [],
      "stateMutability": "payable",
      "type": "function"
    }
  ],
  "transactionHash": "0x7686de36d01f2e2f01df63e506dd184d60ff9edd8ce5714fca2ab4d3beeb2581",
  "args": [],
  "numDeployments": 2,
  "solcInputHash": "7bf245a6b1b76f50e0b73b34e10e026e",
  "bytecode": "0x60a06040523060805234801561001457600080fd5b50608051612c9b61004560003960008181610972015281816109b201528181610bde0152610c1e0152612c9b6000f3fe6080604052600436106101cd5760003560e01c8063669d311c116100f7578063a22cb46511610095578063f2fde38b11610064578063f2fde38b14610585578063f8361bab146105a5578063fb339e4c146105c5578063fbd8d283146105e557600080fd5b8063a22cb465146104dc578063b88d4fde146104fc578063c87b56dd1461051c578063e985e9c51461053c57600080fd5b80637f9c8413116100d15780637f9c8413146104695780638da5cb5b146104895780638fe86b3f146104a757806395d89b41146104c757600080fd5b8063669d311c1461041457806370a0823114610434578063715018a61461045457600080fd5b80632eb4a7ab1161016f5780634cd88b761161013e5780634cd88b76146103875780634f1ef286146103a7578063510b5158146103ba5780636352211e146103f457600080fd5b80632eb4a7ab146103025780633659cfe61461032757806342842e0e1461034757806342966c681461036757600080fd5b8063095ea7b3116101ab578063095ea7b31461026157806321ff99701461028357806323b872dd146102a35780632a55205a146102c357600080fd5b806301ffc9a7146101d257806306fdde0314610207578063081812fc14610229575b600080fd5b3480156101de57600080fd5b506101f26101ed3660046121b8565b61061f565b60405190151581526020015b60405180910390f35b34801561021357600080fd5b5061021c61064a565b6040516101fe919061222d565b34801561023557600080fd5b50610249610244366004612240565b6106dc565b6040516001600160a01b0390911681526020016101fe565b34801561026d57600080fd5b5061028161027c36600461226e565b610776565b005b34801561028f57600080fd5b5061028161029e366004612240565b61088c565b3480156102af57600080fd5b506102816102be36600461229a565b6108e7565b3480156102cf57600080fd5b506102e36102de3660046122db565b610918565b604080516001600160a01b0390931683526020830191909152016101fe565b34801561030e57600080fd5b5061031961012f5481565b6040519081526020016101fe565b34801561033357600080fd5b506102816103423660046122fd565b610967565b34801561035357600080fd5b5061028161036236600461229a565b610a30565b34801561037357600080fd5b50610281610382366004612240565b610a4b565b34801561039357600080fd5b506102816103a23660046123bd565b610af0565b6102816103b5366004612421565b610bd3565b3480156103c657600080fd5b506102496103d5366004612240565b600090815261012d60205260409020600101546001600160a01b031690565b34801561040057600080fd5b5061024961040f366004612240565b610c8d565b34801561042057600080fd5b5061028161042f366004612467565b610d04565b34801561044057600080fd5b5061031961044f3660046122fd565b610d96565b34801561046057600080fd5b50610281610e1d565b34801561047557600080fd5b506102816104843660046124af565b610e53565b34801561049557600080fd5b506097546001600160a01b0316610249565b3480156104b357600080fd5b506102816104c23660046124ec565b610ec8565b3480156104d357600080fd5b5061021c610f75565b3480156104e857600080fd5b506102816104f736600461251d565b610f84565b34801561050857600080fd5b50610281610517366004612550565b610f8f565b34801561052857600080fd5b5061021c610537366004612240565b610fc7565b34801561054857600080fd5b506101f26105573660046125bc565b6001600160a01b039182166000908152606a6020908152604080832093909416825291909152205460ff1690565b34801561059157600080fd5b506102816105a03660046122fd565b6110e5565b3480156105b157600080fd5b506102816105c0366004612467565b61117d565b3480156105d157600080fd5b506103196105e03660046125ea565b61120f565b3480156105f157600080fd5b50610249610600366004612240565b600090815261012d60205260409020600201546001600160a01b031690565b600063152a902d60e11b6001600160e01b0319831614806106445750610644826113c8565b92915050565b606060658054610659906126ab565b80601f0160208091040260200160405190810160405280929190818152602001828054610685906126ab565b80156106d25780601f106106a7576101008083540402835291602001916106d2565b820191906000526020600020905b8154815290600101906020018083116106b557829003601f168201915b5050505050905090565b6000818152606760205260408120546001600160a01b031661075a5760405162461bcd60e51b815260206004820152602c60248201527f4552433732313a20617070726f76656420717565727920666f72206e6f6e657860448201526b34b9ba32b73a103a37b5b2b760a11b60648201526084015b60405180910390fd5b506000908152606960205260409020546001600160a01b031690565b600061078182610c8d565b9050806001600160a01b0316836001600160a01b031614156107ef5760405162461bcd60e51b815260206004820152602160248201527f4552433732313a20617070726f76616c20746f2063757272656e74206f776e656044820152603960f91b6064820152608401610751565b336001600160a01b038216148061080b575061080b8133610557565b61087d5760405162461bcd60e51b815260206004820152603860248201527f4552433732313a20617070726f76652063616c6c6572206973206e6f74206f7760448201527f6e6572206e6f7220617070726f76656420666f7220616c6c00000000000000006064820152608401610751565b6108878383611418565b505050565b6097546001600160a01b031633146108b65760405162461bcd60e51b8152600401610751906126e0565b60405181907f90004c04698bc3322499a575ed3752dd4abf33e0a7294c06a787a0fe01bea94190600090a261012f55565b6108f13382611486565b61090d5760405162461bcd60e51b815260040161075190612715565b610887838383611579565b600082815261012d602052604081206002015481906001600160a01b038116906127109061095190600160a01b900461ffff168661277c565b61095b919061279b565b915091505b9250929050565b306001600160a01b037f00000000000000000000000000000000000000000000000000000000000000001614156109b05760405162461bcd60e51b8152600401610751906127bd565b7f00000000000000000000000000000000000000000000000000000000000000006001600160a01b03166109e2611719565b6001600160a01b031614610a085760405162461bcd60e51b815260040161075190612809565b610a1181611747565b60408051600080825260208201909252610a2d91839190611771565b50565b61088783838360405180602001604052806000815250610f8f565b600081815261012d60205260409020600101546001600160a01b031633148015610a8e5750610a7981610c8d565b6001600160a01b0316336001600160a01b0316145b80610aa357506097546001600160a01b031633145b610ae75760405162461bcd60e51b815260206004820152601560248201527427b7363c9031b932b0ba37b91037b91020b236b4b760591b6044820152606401610751565b610a2d816118bc565b600054610100900460ff16610b0b5760005460ff1615610b0f565b303b155b610b725760405162461bcd60e51b815260206004820152602e60248201527f496e697469616c697a61626c653a20636f6e747261637420697320616c72656160448201526d191e481a5b9a5d1a585b1a5e995960921b6064820152608401610751565b600054610100900460ff16158015610b94576000805461ffff19166101011790555b610b9e8383611957565b610ba6611998565b610bae6119cf565b610bbd61012e80546001019055565b8015610887576000805461ff0019169055505050565b306001600160a01b037f0000000000000000000000000000000000000000000000000000000000000000161415610c1c5760405162461bcd60e51b8152600401610751906127bd565b7f00000000000000000000000000000000000000000000000000000000000000006001600160a01b0316610c4e611719565b6001600160a01b031614610c745760405162461bcd60e51b815260040161075190612809565b610c7d82611747565b610c8982826001611771565b5050565b6000818152606760205260408120546001600160a01b0316806106445760405162461bcd60e51b815260206004820152602960248201527f4552433732313a206f776e657220717565727920666f72206e6f6e657869737460448201526832b73a103a37b5b2b760b91b6064820152608401610751565b6097546001600160a01b03163314610d2e5760405162461bcd60e51b8152600401610751906126e0565b6040516001600160a01b0382169083907f13ceafb5e8ec39102bd452913a5c00a05f3b060d636d3a567c1c80e8b4321fe790600090a3600091825261012d602052604090912060020180546001600160a01b0319166001600160a01b03909216919091179055565b60006001600160a01b038216610e015760405162461bcd60e51b815260206004820152602a60248201527f4552433732313a2062616c616e636520717565727920666f7220746865207a65604482015269726f206164647265737360b01b6064820152608401610751565b506001600160a01b031660009081526068602052604090205490565b6097546001600160a01b03163314610e475760405162461bcd60e51b8152600401610751906126e0565b610e516000611a06565b565b6097546001600160a01b03163314610e7d5760405162461bcd60e51b8152600401610751906126e0565b6020810135827f0d555bd4628e8349ca5d17ca332d615c92b84cd24ab943921e8abcf6ae22c98b610eae8480612855565b604051610ebc92919061289c565b60405180910390a35050565b600082815261012d60205260409020600101546001600160a01b03163314610f1d5760405162461bcd60e51b815260206004820152600860248201526710b1b932b0ba37b960c11b6044820152606401610751565b817f459157ba24c7ab9878b165ef465fa6ae2ab42bcd8445f576be378768b0c4730982604051610f4d919061222d565b60405180910390a2600082815261012d60209081526040909120825161088792840190612109565b606060668054610659906126ab565b610c89338383611a58565b610f993383611486565b610fb55760405162461bcd60e51b815260040161075190612715565b610fc184848484611b27565b50505050565b6000818152606760205260409020546060906001600160a01b03166110465760405162461bcd60e51b815260206004820152602f60248201527f4552433732314d657461646174613a2055524920717565727920666f72206e6f60448201526e3732bc34b9ba32b73a103a37b5b2b760891b6064820152608401610751565b600082815261012d602052604090208054611060906126ab565b80601f016020809104026020016040519081016040528092919081815260200182805461108c906126ab565b80156110d95780601f106110ae576101008083540402835291602001916110d9565b820191906000526020600020905b8154815290600101906020018083116110bc57829003601f168201915b50505050509050919050565b6097546001600160a01b0316331461110f5760405162461bcd60e51b8152600401610751906126e0565b6001600160a01b0381166111745760405162461bcd60e51b815260206004820152602660248201527f4f776e61626c653a206e6577206f776e657220697320746865207a65726f206160448201526564647265737360d01b6064820152608401610751565b610a2d81611a06565b6097546001600160a01b031633146111a75760405162461bcd60e51b8152600401610751906126e0565b6040516001600160a01b0382169083907fc0186d9ba7364ebd80a7010121367f481af81e1028bf368b2172fedf2c6fc7de90600090a3600091825261012d602052604090912060010180546001600160a01b0319166001600160a01b03909216919091179055565b60006112a08383808060200260200160405190810160405280939291908181526020018383602002808284376000920191909152505061012f54915061125d90506040890160208a016122fd565b604051602001611285919060609190911b6bffffffffffffffffffffffff1916815260140190565b60405160208183030381529060405280519060200120611b5a565b6112db5760405162461bcd60e51b815260206004820152600c60248201526b10bb30b634b210383937b7b360a11b6044820152606401610751565b6127106112ee60808701606088016128db565b61ffff16106113325760405162461bcd60e51b815260206004820152601060248201526f0726f79616c747920213c2031303030360841b6044820152606401610751565b600061133e61012e5490565b905061134a3382611b72565b600081815261012d6020526040902086906113658282612980565b50506020850135817f0d555bd4628e8349ca5d17ca332d615c92b84cd24ab943921e8abcf6ae22c98b6113988880612855565b6040516113a692919061289c565b60405180910390a36113bd61012e80546001019055565b90505b949350505050565b60006001600160e01b031982166380ac58cd60e01b14806113f957506001600160e01b03198216635b5e139f60e01b145b8061064457506301ffc9a760e01b6001600160e01b0319831614610644565b600081815260696020526040902080546001600160a01b0319166001600160a01b038416908117909155819061144d82610c8d565b6001600160a01b03167f8c5be1e5ebec7d5bd14f71427d1e84f3dd0314c0f7b2291e5b200ac8c7c3b92560405160405180910390a45050565b6000818152606760205260408120546001600160a01b03166114ff5760405162461bcd60e51b815260206004820152602c60248201527f4552433732313a206f70657261746f7220717565727920666f72206e6f6e657860448201526b34b9ba32b73a103a37b5b2b760a11b6064820152608401610751565b600061150a83610c8d565b9050806001600160a01b0316846001600160a01b031614806115455750836001600160a01b031661153a846106dc565b6001600160a01b0316145b806113c057506001600160a01b038082166000908152606a602090815260408083209388168352929052205460ff166113c0565b826001600160a01b031661158c82610c8d565b6001600160a01b0316146115f45760405162461bcd60e51b815260206004820152602960248201527f4552433732313a207472616e73666572206f6620746f6b656e2074686174206960448201526839903737ba1037bbb760b91b6064820152608401610751565b6001600160a01b0382166116565760405162461bcd60e51b8152602060048201526024808201527f4552433732313a207472616e7366657220746f20746865207a65726f206164646044820152637265737360e01b6064820152608401610751565b611661600082611418565b6001600160a01b038316600090815260686020526040812080546001929061168a908490612acb565b90915550506001600160a01b03821660009081526068602052604081208054600192906116b8908490612ae2565b909155505060008181526067602052604080822080546001600160a01b0319166001600160a01b0386811691821790925591518493918716917fddf252ad1be2c89b69c2b068fc378daa952ba7f163c4a11628f55a4df523b3ef91a4505050565b7f360894a13ba1a3210667c828492db98dca3e2076cc3735a920a3ca505d382bbc546001600160a01b031690565b6097546001600160a01b03163314610a2d5760405162461bcd60e51b8152600401610751906126e0565b600061177b611719565b905061178684611cb4565b6000835111806117935750815b156117a4576117a28484611d59565b505b7f4910fdfa16fed3260ed0e7147f7cc6da11a60208b5b9406d12a635614ffd9143805460ff166118b557805460ff191660011781556040516001600160a01b038316602482015261182390869060440160408051601f198184030181529190526020810180516001600160e01b0316631b2ce7f360e11b179052611d59565b50805460ff19168155611834611719565b6001600160a01b0316826001600160a01b0316146118ac5760405162461bcd60e51b815260206004820152602f60248201527f45524331393637557067726164653a207570677261646520627265616b73206660448201526e75727468657220757067726164657360881b6064820152608401610751565b6118b585611e44565b5050505050565b60006118c782610c8d565b90506118d4600083611418565b6001600160a01b03811660009081526068602052604081208054600192906118fd908490612acb565b909155505060008281526067602052604080822080546001600160a01b0319169055518391906001600160a01b038416907fddf252ad1be2c89b69c2b068fc378daa952ba7f163c4a11628f55a4df523b3ef908390a45050565b600054610100900460ff1661197e5760405162461bcd60e51b815260040161075190612afa565b611986611e84565b61198e611e84565b610c898282611eab565b600054610100900460ff166119bf5760405162461bcd60e51b815260040161075190612afa565b6119c7611e84565b610e51611ef9565b600054610100900460ff166119f65760405162461bcd60e51b815260040161075190612afa565b6119fe611e84565b610e51611e84565b609780546001600160a01b038381166001600160a01b0319831681179093556040519116919082907f8be0079c531659141344cd1fd0a4f28419497f9722a3daafe3b4186f6b6457e090600090a35050565b816001600160a01b0316836001600160a01b03161415611aba5760405162461bcd60e51b815260206004820152601960248201527f4552433732313a20617070726f766520746f2063616c6c6572000000000000006044820152606401610751565b6001600160a01b038381166000818152606a6020908152604080832094871680845294825291829020805460ff191686151590811790915591519182527f17307eab39ab6107e8899845ad3d59bd9653f200f220920489ca2b5937696c31910160405180910390a3505050565b611b32848484611579565b611b3e84848484611f29565b610fc15760405162461bcd60e51b815260040161075190612b45565b600082611b678584612024565b1490505b9392505050565b6001600160a01b038216611bc85760405162461bcd60e51b815260206004820181905260248201527f4552433732313a206d696e7420746f20746865207a65726f20616464726573736044820152606401610751565b6000818152606760205260409020546001600160a01b031615611c2d5760405162461bcd60e51b815260206004820152601c60248201527f4552433732313a20746f6b656e20616c7265616479206d696e746564000000006044820152606401610751565b6001600160a01b0382166000908152606860205260408120805460019290611c56908490612ae2565b909155505060008181526067602052604080822080546001600160a01b0319166001600160a01b03861690811790915590518392907fddf252ad1be2c89b69c2b068fc378daa952ba7f163c4a11628f55a4df523b3ef908290a45050565b803b611d185760405162461bcd60e51b815260206004820152602d60248201527f455243313936373a206e657720696d706c656d656e746174696f6e206973206e60448201526c1bdd08184818dbdb9d1c9858dd609a1b6064820152608401610751565b7f360894a13ba1a3210667c828492db98dca3e2076cc3735a920a3ca505d382bbc80546001600160a01b0319166001600160a01b0392909216919091179055565b6060823b611db85760405162461bcd60e51b815260206004820152602660248201527f416464726573733a2064656c65676174652063616c6c20746f206e6f6e2d636f6044820152651b9d1c9858dd60d21b6064820152608401610751565b600080846001600160a01b031684604051611dd39190612b97565b600060405180830381855af49150503d8060008114611e0e576040519150601f19603f3d011682016040523d82523d6000602084013e611e13565b606091505b5091509150611e3b8282604051806060016040528060278152602001612c3f602791396120d0565b95945050505050565b611e4d81611cb4565b6040516001600160a01b038216907fbc7cd75a20ee27fd9adebab32041f755214dbc6bffa90cc0225b39da2e5c2d3b90600090a250565b600054610100900460ff16610e515760405162461bcd60e51b815260040161075190612afa565b600054610100900460ff16611ed25760405162461bcd60e51b815260040161075190612afa565b8151611ee5906065906020850190612109565b508051610887906066906020840190612109565b600054610100900460ff16611f205760405162461bcd60e51b815260040161075190612afa565b610e5133611a06565b60006001600160a01b0384163b1561201c57604051630a85bd0160e11b81526001600160a01b0385169063150b7a0290611f6d903390899088908890600401612bb3565b6020604051808303816000875af1925050508015611fa8575060408051601f3d908101601f19168201909252611fa591810190612bf0565b60015b612002573d808015611fd6576040519150601f19603f3d011682016040523d82523d6000602084013e611fdb565b606091505b508051611ffa5760405162461bcd60e51b815260040161075190612b45565b805181602001fd5b6001600160e01b031916630a85bd0160e11b1490506113c0565b5060016113c0565b600081815b84518110156120c857600085828151811061204657612046612c0d565b602002602001015190508083116120885760408051602081018590529081018290526060016040516020818303038152906040528051906020012092506120b5565b60408051602081018390529081018490526060016040516020818303038152906040528051906020012092505b50806120c081612c23565b915050612029565b509392505050565b606083156120df575081611b6b565b8251156120ef5782518084602001fd5b8160405162461bcd60e51b8152600401610751919061222d565b828054612115906126ab565b90600052602060002090601f016020900481019282612137576000855561217d565b82601f1061215057805160ff191683800117855561217d565b8280016001018555821561217d579182015b8281111561217d578251825591602001919060010190612162565b5061218992915061218d565b5090565b5b80821115612189576000815560010161218e565b6001600160e01b031981168114610a2d57600080fd5b6000602082840312156121ca57600080fd5b8135611b6b816121a2565b60005b838110156121f05781810151838201526020016121d8565b83811115610fc15750506000910152565b600081518084526122198160208601602086016121d5565b601f01601f19169290920160200192915050565b602081526000611b6b6020830184612201565b60006020828403121561225257600080fd5b5035919050565b6001600160a01b0381168114610a2d57600080fd5b6000806040838503121561228157600080fd5b823561228c81612259565b946020939093013593505050565b6000806000606084860312156122af57600080fd5b83356122ba81612259565b925060208401356122ca81612259565b929592945050506040919091013590565b600080604083850312156122ee57600080fd5b50508035926020909101359150565b60006020828403121561230f57600080fd5b8135611b6b81612259565b634e487b7160e01b600052604160045260246000fd5b600082601f83011261234157600080fd5b813567ffffffffffffffff8082111561235c5761235c61231a565b604051601f8301601f19908116603f011681019082821181831017156123845761238461231a565b8160405283815286602085880101111561239d57600080fd5b836020870160208301376000602085830101528094505050505092915050565b600080604083850312156123d057600080fd5b823567ffffffffffffffff808211156123e857600080fd5b6123f486838701612330565b9350602085013591508082111561240a57600080fd5b5061241785828601612330565b9150509250929050565b6000806040838503121561243457600080fd5b823561243f81612259565b9150602083013567ffffffffffffffff81111561245b57600080fd5b61241785828601612330565b6000806040838503121561247a57600080fd5b82359150602083013561248c81612259565b809150509250929050565b6000604082840312156124a957600080fd5b50919050565b600080604083850312156124c257600080fd5b82359150602083013567ffffffffffffffff8111156124e057600080fd5b61241785828601612497565b600080604083850312156124ff57600080fd5b82359150602083013567ffffffffffffffff81111561245b57600080fd5b6000806040838503121561253057600080fd5b823561253b81612259565b91506020830135801515811461248c57600080fd5b6000806000806080858703121561256657600080fd5b843561257181612259565b9350602085013561258181612259565b925060408501359150606085013567ffffffffffffffff8111156125a457600080fd5b6125b087828801612330565b91505092959194509250565b600080604083850312156125cf57600080fd5b82356125da81612259565b9150602083013561248c81612259565b6000806000806060858703121561260057600080fd5b843567ffffffffffffffff8082111561261857600080fd5b908601906080828903121561262c57600080fd5b9094506020860135908082111561264257600080fd5b61264e88838901612497565b9450604087013591508082111561266457600080fd5b818701915087601f83011261267857600080fd5b81358181111561268757600080fd5b8860208260051b850101111561269c57600080fd5b95989497505060200194505050565b600181811c908216806126bf57607f821691505b602082108114156124a957634e487b7160e01b600052602260045260246000fd5b6020808252818101527f4f776e61626c653a2063616c6c6572206973206e6f7420746865206f776e6572604082015260600190565b60208082526031908201527f4552433732313a207472616e736665722063616c6c6572206973206e6f74206f6040820152701ddb995c881b9bdc88185c1c1c9bdd9959607a1b606082015260800190565b634e487b7160e01b600052601160045260246000fd5b600081600019048311821515161561279657612796612766565b500290565b6000826127b857634e487b7160e01b600052601260045260246000fd5b500490565b6020808252602c908201527f46756e6374696f6e206d7573742062652063616c6c6564207468726f7567682060408201526b19195b1959d85d1958d85b1b60a21b606082015260800190565b6020808252602c908201527f46756e6374696f6e206d7573742062652063616c6c6564207468726f7567682060408201526b6163746976652070726f787960a01b606082015260800190565b6000808335601e1984360301811261286c57600080fd5b83018035915067ffffffffffffffff82111561288757600080fd5b60200191503681900382131561096057600080fd5b60208152816020820152818360408301376000818301604090810191909152601f909201601f19160101919050565b61ffff81168114610a2d57600080fd5b6000602082840312156128ed57600080fd5b8135611b6b816128cb565b601f82111561088757600081815260208120601f850160051c8101602086101561291f5750805b601f850160051c820191505b8181101561293e5782815560010161292b565b505050505050565b6000813561064481612259565b80546001600160a01b0319166001600160a01b0392909216919091179055565b60008135610644816128cb565b8135601e1983360301811261299457600080fd5b8201803567ffffffffffffffff8111156129ad57600080fd5b602081360381840113156129c057600080fd5b6129d4826129ce86546126ab565b866128f8565b6000601f831160018114612a0a57600084156129f257508482018301355b600019600386901b1c1916600185901b178655612a67565b600086815260209020601f19851690835b82811015612a3c578785018601358255938501936001909101908501612a1b565b5085821015612a5b5760001960f88760031b161c198585890101351681555b505060018460011b0186555b5050612a80612a77828701612946565b60018601612953565b50505060028101612a9c612a9660408501612946565b82612953565b610887612aab60608501612973565b82805461ffff60a01b191660a09290921b61ffff60a01b16919091179055565b600082821015612add57612add612766565b500390565b60008219821115612af557612af5612766565b500190565b6020808252602b908201527f496e697469616c697a61626c653a20636f6e7472616374206973206e6f74206960408201526a6e697469616c697a696e6760a81b606082015260800190565b60208082526032908201527f4552433732313a207472616e7366657220746f206e6f6e20455243373231526560408201527131b2b4bb32b91034b6b83632b6b2b73a32b960711b606082015260800190565b60008251612ba98184602087016121d5565b9190910192915050565b6001600160a01b0385811682528416602082015260408101839052608060608201819052600090612be690830184612201565b9695505050505050565b600060208284031215612c0257600080fd5b8151611b6b816121a2565b634e487b7160e01b600052603260045260246000fd5b6000600019821415612c3757612c37612766565b506001019056fe416464726573733a206c6f772d6c6576656c2064656c65676174652063616c6c206661696c6564a2646970667358221220781465557bc210dfffd87a5996066525c51e5bd5f3fed7badbcd1259b9b6b4ec64736f6c634300080a0033",
  "devdoc": {
    "author": ":   @bretth18 (computerdata) of @catalogworks",
    "details": ":   Upgradeable ERC721 Contract, inherits functionality from ERC721Upgradeable. Purpose built for optimization over the Zora V1 contracts. isian (iain nash) of Zora.  ---------------------------------------------------------------------------------------------------------------------    ",
    "kind": "dev",
    "methods": {
      "approve(address,uint256)": {
        "details": "See {IERC721-approve}."
      },
      "balanceOf(address)": {
        "details": "See {IERC721-balanceOf}."
      },
      "burn(uint256)": {
        "details": "burns given tokenId, restrited to owner and creator (when owned)",
        "params": {
          "_tokenId": "uint256 identifier of token to burn"
        }
      },
      "creator(uint256)": {
        "details": "basic public getter method for creator",
        "params": {
          "_tokenId": "uint256 identifier of token to get creator for"
        },
        "returns": {
          "_0": "address creator of given tokenId"
        }
      },
      "getApproved(uint256)": {
        "details": "See {IERC721-getApproved}."
      },
      "initialize(string,string)": {
        "details": "Initializes contract with default values, for upgradeable proxy purposes",
        "params": {
          "_name": "string name of the contract",
          "_symbol": "string symbol of the contract"
        }
      },
      "isApprovedForAll(address,address)": {
        "details": "See {IERC721-isApprovedForAll}."
      },
      "mint((string,address,address,uint16),(string,bytes32),bytes32[])": {
        "details": "mints a new token to allowlisted msg.sender with a valid merkle proof.  Emits a ContentUpdated event to trackcontentURI updates.",
        "params": {
          "_content": "ContentData struct, containing contentURI, contentHash.  not stored in memory, only in calldata",
          "_data": "TokenData struct, containing metadataURI, creator, royaltyPayout, royaltyBPS",
          "_proof": "bytes32[] merkle proof of artist wallet.  this is created off-chain.  e.g (proof = tree.getHexProof(keccak256(address)))"
        },
        "returns": {
          "_0": "uint256 tokenId of minted token (useful since we are not using Enumerable)"
        }
      },
      "name()": {
        "details": "See {IERC721Metadata-name}."
      },
      "owner()": {
        "details": "Returns the address of the current owner."
      },
      "ownerOf(uint256)": {
        "details": "See {IERC721-ownerOf}."
      },
      "renounceOwnership()": {
        "details": "Leaves the contract without owner. It will not be possible to call `onlyOwner` functions anymore. Can only be called by the current owner. NOTE: Renouncing ownership will leave the contract without an owner, thereby removing any functionality that is only available to the owner."
      },
      "royaltyInfo(uint256,uint256)": {
        "details": "override, conforms to EIP-2981",
        "params": {
          "_salePrice": "uint256 final sale price of token used to calculate royalty payout",
          "_tokenId": "uint256 token id corresponding to the token of which to get royalty information"
        }
      },
      "royaltyPayoutAddress(uint256)": {
        "details": "basic public getter method for royalty payout address ",
        "params": {
          "_tokenId": "uint256 identifier of token to get royalty payout address for"
        },
        "returns": {
          "_0": "address royalty payout address of given tokenId"
        }
      },
      "safeTransferFrom(address,address,uint256)": {
        "details": "See {IERC721-safeTransferFrom}."
      },
      "safeTransferFrom(address,address,uint256,bytes)": {
        "details": "See {IERC721-safeTransferFrom}."
      },
      "setApprovalForAll(address,bool)": {
        "details": "See {IERC721-setApprovalForAll}."
      },
      "supportsInterface(bytes4)": {
        "details": "override ",
        "params": {
          "interfaceId": "bytes4 id of interface to check"
        }
      },
      "symbol()": {
        "details": "See {IERC721Metadata-symbol}."
      },
      "tokenURI(uint256)": {
        "details": "override function, returns metadataURI of token stored in tokenData",
        "params": {
          "_tokenId": "uint256 token id corresponding to the token of which to get metadata from"
        },
        "returns": {
          "_0": "string containing metadata URI"
        }
      },
      "transferFrom(address,address,uint256)": {
        "details": "See {IERC721-transferFrom}."
      },
      "transferOwnership(address)": {
        "details": "Transfers ownership of the contract to a new account (`newOwner`). Can only be called by the current owner."
      },
      "updateContentURI(uint256,(string,bytes32))": {
        "details": "access controlled function, restricted to owner/admim.",
        "params": {
          "_content": "struct containing new/updated contentURI and hash.",
          "_tokenId": "uint256 token id corresponding to the token to update"
        }
      },
      "updateCreator(uint256,address)": {
        "details": "access controlled function, restricted to owner/admim. used in case of compromised artist wallet.",
        "params": {
          "_creator": "address new creator of the token",
          "_tokenId": "uint256 token id corresponding to the token to update"
        }
      },
      "updateMetadataURI(uint256,string)": {
        "details": "access controlled, restricted to creator of token",
        "params": {
          "_metadataURI": "string containing new/updated metadata (e.g IPFS URI pointing to metadata.json)",
          "_tokenId": "uint256 token id corresponding to the token to update"
        }
      },
      "updateRoot(bytes32)": {
        "details": "access controlled function, restricted to owner/admim.",
        "params": {
          "_newRoot": "bytes32 containing the new root hash, generated off-chain"
        }
      },
      "updateRoyaltyInfo(uint256,address)": {
        "details": "access controlled to owner only, subject to change.  this function allows for emergency royalty control (i.e compromised wallet)",
        "params": {
          "_royaltyPayoutAddress": "address of new royalty payout address",
          "_tokenId": "uint256 token id corresponding to the token of which to update royalty payout"
        }
      },
      "upgradeTo(address)": {
        "details": "Upgrade the implementation of the proxy to `newImplementation`. Calls {_authorizeUpgrade}. Emits an {Upgraded} event."
      },
      "upgradeToAndCall(address,bytes)": {
        "details": "Upgrade the implementation of the proxy to `newImplementation`, and subsequently execute the function call encoded in `data`. Calls {_authorizeUpgrade}. Emits an {Upgraded} event."
      }
    },
    "title": ":   Catalog",
    "version": 1
  },
  "userdoc": {
    "events": {
      "CreatorUpdated(uint256,address)": {
        "notice": "Events"
      }
    },
    "kind": "user",
    "methods": {
      "burn(uint256)": {
        "notice": "Burn FunctionBurns a token"
      },
      "creator(uint256)": {
        "notice": "creator Functiongets the creator of a token"
      },
      "initialize(string,string)": {
        "notice": "initialize FunctionInitializes contract with default values, acts as a constructor"
      },
      "merkleRoot()": {
        "notice": "Merkle Root"
      },
      "mint((string,address,address,uint16),(string,bytes32),bytes32[])": {
        "notice": "mint Functionmints a new token"
      },
      "royaltyInfo(uint256,uint256)": {
        "notice": "royaltyInfo Functionoverride function gets royalty information for a token (EIP-2981)"
      },
      "royaltyPayoutAddress(uint256)": {
        "notice": "royaltyPayoutAddress Functiongets the address of the royalty payout for a token"
      },
      "supportsInterface(bytes4)": {
        "notice": "supportsInterface Functionoverride function to check if contract supports an interface"
      },
      "tokenURI(uint256)": {
        "notice": "tokenURI Functionoverride function to get the URI of a token. returns stored metadataURI"
      },
      "updateContentURI(uint256,(string,bytes32))": {
        "notice": "updateContentURI FunctionEmits an event to be used track content updates on a token"
      },
      "updateCreator(uint256,address)": {
        "notice": "updateCreator Functionupdates the creator of a token, emits an event"
      },
      "updateMetadataURI(uint256,string)": {
        "notice": "updateMetadataURI Functionupdates the metadata URI of a token, emits an event"
      },
      "updateRoot(bytes32)": {
        "notice": "updateRoot Functionupdates the merkleroot of the allowlistthis function is inherits from Angela.sol, and may not be necessary depending on role based configuration."
      },
      "updateRoyaltyInfo(uint256,address)": {
        "notice": "updateRoyaltyInfo Functionupdates the royalty payout address and royalty BPS of a token, emits an event"
      }
    },
    "notice": "-------------------------------------------------------------------------------------------------------------------- ,, .g8\"\"\"bgd         mm            `7MM .dP'     `M         MM              MM dM'       ` ,6\"Yb.mmMMmm  ,6\"Yb.    MM  ,pW\"Wq.   .P\"Ybmmm MM         8)   MM  MM   8)   MM    MM 6W'   `Wb :MI  I8 MM.         ,pm9MM  MM    ,pm9MM    MM 8M     M8  WmmmP\" `Mb.     ,'8M   MM  MM   8M   MM    MM YA.   ,A9 8M `\"bmmmd' `Moo9^Yo.`Mbmo`Moo9^Yo..JMML.`Ybmd9'   YMMMMMb 6'     dP Ybmmmd'************************************************ LEGAL DISCLAIMER: https://catalog.works/terms************************************************ ---------------------------------------------------------------------------------------------------------------------                                                                                                                                                                                                                                                                                                                            \"Catalog\"                   :   Creator Shared NFT Media Contract for Catalog Records Inc.",
    "version": 1
  },
  "storageLayout": {
    "storage": [
      {
        "astId": 562,
        "contract": "contracts/catalog/Catalog.sol:Catalog",
        "label": "_initialized",
        "offset": 0,
        "slot": "0",
        "type": "t_bool"
      },
      {
        "astId": 565,
        "contract": "contracts/catalog/Catalog.sol:Catalog",
        "label": "_initializing",
        "offset": 1,
        "slot": "0",
        "type": "t_bool"
      },
      {
        "astId": 2050,
        "contract": "contracts/catalog/Catalog.sol:Catalog",
        "label": "__gap",
        "offset": 0,
        "slot": "1",
        "type": "t_array(t_uint256)50_storage"
      },
      {
        "astId": 2521,
        "contract": "contracts/catalog/Catalog.sol:Catalog",
        "label": "__gap",
        "offset": 0,
        "slot": "51",
        "type": "t_array(t_uint256)50_storage"
      },
      {
        "astId": 769,
        "contract": "contracts/catalog/Catalog.sol:Catalog",
        "label": "_name",
        "offset": 0,
        "slot": "101",
        "type": "t_string_storage"
      },
      {
        "astId": 771,
        "contract": "contracts/catalog/Catalog.sol:Catalog",
        "label": "_symbol",
        "offset": 0,
        "slot": "102",
        "type": "t_string_storage"
      },
      {
        "astId": 775,
        "contract": "contracts/catalog/Catalog.sol:Catalog",
        "label": "_owners",
        "offset": 0,
        "slot": "103",
        "type": "t_mapping(t_uint256,t_address)"
      },
      {
        "astId": 779,
        "contract": "contracts/catalog/Catalog.sol:Catalog",
        "label": "_balances",
        "offset": 0,
        "slot": "104",
        "type": "t_mapping(t_address,t_uint256)"
      },
      {
        "astId": 783,
        "contract": "contracts/catalog/Catalog.sol:Catalog",
        "label": "_tokenApprovals",
        "offset": 0,
        "slot": "105",
        "type": "t_mapping(t_uint256,t_address)"
      },
      {
        "astId": 789,
        "contract": "contracts/catalog/Catalog.sol:Catalog",
        "label": "_operatorApprovals",
        "offset": 0,
        "slot": "106",
        "type": "t_mapping(t_address,t_mapping(t_address,t_bool))"
      },
      {
        "astId": 1600,
        "contract": "contracts/catalog/Catalog.sol:Catalog",
        "label": "__gap",
        "offset": 0,
        "slot": "107",
        "type": "t_array(t_uint256)44_storage"
      },
      {
        "astId": 10,
        "contract": "contracts/catalog/Catalog.sol:Catalog",
        "label": "_owner",
        "offset": 0,
        "slot": "151",
        "type": "t_address"
      },
      {
        "astId": 124,
        "contract": "contracts/catalog/Catalog.sol:Catalog",
        "label": "__gap",
        "offset": 0,
        "slot": "152",
        "type": "t_array(t_uint256)49_storage"
      },
      {
        "astId": 544,
        "contract": "contracts/catalog/Catalog.sol:Catalog",
        "label": "__gap",
        "offset": 0,
        "slot": "201",
        "type": "t_array(t_uint256)50_storage"
      },
      {
        "astId": 739,
        "contract": "contracts/catalog/Catalog.sol:Catalog",
        "label": "__gap",
        "offset": 0,
        "slot": "251",
        "type": "t_array(t_uint256)50_storage"
      },
      {
        "astId": 3128,
        "contract": "contracts/catalog/Catalog.sol:Catalog",
        "label": "tokenData",
        "offset": 0,
        "slot": "301",
        "type": "t_mapping(t_uint256,t_struct(TokenData)3117_storage)"
      },
      {
        "astId": 3132,
        "contract": "contracts/catalog/Catalog.sol:Catalog",
        "label": "_tokenIdCounter",
        "offset": 0,
        "slot": "302",
        "type": "t_struct(Counter)2057_storage"
      },
      {
        "astId": 3135,
        "contract": "contracts/catalog/Catalog.sol:Catalog",
        "label": "merkleRoot",
        "offset": 0,
        "slot": "303",
        "type": "t_bytes32"
      }
    ],
    "types": {
      "t_address": {
        "encoding": "inplace",
        "label": "address",
        "numberOfBytes": "20"
      },
      "t_array(t_uint256)44_storage": {
        "base": "t_uint256",
        "encoding": "inplace",
        "label": "uint256[44]",
        "numberOfBytes": "1408"
      },
      "t_array(t_uint256)49_storage": {
        "base": "t_uint256",
        "encoding": "inplace",
        "label": "uint256[49]",
        "numberOfBytes": "1568"
      },
      "t_array(t_uint256)50_storage": {
        "base": "t_uint256",
        "encoding": "inplace",
        "label": "uint256[50]",
        "numberOfBytes": "1600"
      },
      "t_bool": {
        "encoding": "inplace",
        "label": "bool",
        "numberOfBytes": "1"
      },
      "t_bytes32": {
        "encoding": "inplace",
        "label": "bytes32",
        "numberOfBytes": "32"
      },
      "t_mapping(t_address,t_bool)": {
        "encoding": "mapping",
        "key": "t_address",
        "label": "mapping(address => bool)",
        "numberOfBytes": "32",
        "value": "t_bool"
      },
      "t_mapping(t_address,t_mapping(t_address,t_bool))": {
        "encoding": "mapping",
        "key": "t_address",
        "label": "mapping(address => mapping(address => bool))",
        "numberOfBytes": "32",
        "value": "t_mapping(t_address,t_bool)"
      },
      "t_mapping(t_address,t_uint256)": {
        "encoding": "mapping",
        "key": "t_address",
        "label": "mapping(address => uint256)",
        "numberOfBytes": "32",
        "value": "t_uint256"
      },
      "t_mapping(t_uint256,t_address)": {
        "encoding": "mapping",
        "key": "t_uint256",
        "label": "mapping(uint256 => address)",
        "numberOfBytes": "32",
        "value": "t_address"
      },
      "t_mapping(t_uint256,t_struct(TokenData)3117_storage)": {
        "encoding": "mapping",
        "key": "t_uint256",
        "label": "mapping(uint256 => struct Catalog.TokenData)",
        "numberOfBytes": "32",
        "value": "t_struct(TokenData)3117_storage"
      },
      "t_string_storage": {
        "encoding": "bytes",
        "label": "string",
        "numberOfBytes": "32"
      },
      "t_struct(Counter)2057_storage": {
        "encoding": "inplace",
        "label": "struct CountersUpgradeable.Counter",
        "members": [
          {
            "astId": 2056,
            "contract": "contracts/catalog/Catalog.sol:Catalog",
            "label": "_value",
            "offset": 0,
            "slot": "0",
            "type": "t_uint256"
          }
        ],
        "numberOfBytes": "32"
      },
      "t_struct(TokenData)3117_storage": {
        "encoding": "inplace",
        "label": "struct Catalog.TokenData",
        "members": [
          {
            "astId": 3110,
            "contract": "contracts/catalog/Catalog.sol:Catalog",
            "label": "metadataURI",
            "offset": 0,
            "slot": "0",
            "type": "t_string_storage"
          },
          {
            "astId": 3112,
            "contract": "contracts/catalog/Catalog.sol:Catalog",
            "label": "creator",
            "offset": 0,
            "slot": "1",
            "type": "t_address"
          },
          {
            "astId": 3114,
            "contract": "contracts/catalog/Catalog.sol:Catalog",
            "label": "royaltyPayout",
            "offset": 0,
            "slot": "2",
            "type": "t_address"
          },
          {
            "astId": 3116,
            "contract": "contracts/catalog/Catalog.sol:Catalog",
            "label": "royaltyBPS",
            "offset": 20,
            "slot": "2",
            "type": "t_uint16"
          }
        ],
        "numberOfBytes": "96"
      },
      "t_uint16": {
        "encoding": "inplace",
        "label": "uint16",
        "numberOfBytes": "2"
      },
      "t_uint256": {
        "encoding": "inplace",
        "label": "uint256",
        "numberOfBytes": "32"
      }
    }
  }
}