{
  "address": "0x72BE0E3265A3497F3aD7d7830E7d1D37476d8Cb5",
  "abi": [
    {
      "inputs": [],
      "stateMutability": "nonpayable",
      "type": "constructor"
    },
    {
      "anonymous": false,
      "inputs": [
        {
          "indexed": true,
          "internalType": "address",
          "name": "owner",
          "type": "address"
        },
        {
          "indexed": true,
          "internalType": "address",
          "name": "approved",
          "type": "address"
        },
        {
          "indexed": true,
          "internalType": "uint256",
          "name": "tokenId",
          "type": "uint256"
        }
      ],
      "name": "Approval",
      "type": "event"
    },
    {
      "anonymous": false,
      "inputs": [
        {
          "indexed": true,
          "internalType": "address",
          "name": "owner",
          "type": "address"
        },
        {
          "indexed": true,
          "internalType": "address",
          "name": "operator",
          "type": "address"
        },
        {
          "indexed": false,
          "internalType": "bool",
          "name": "approved",
          "type": "bool"
        }
      ],
      "name": "ApprovalForAll",
      "type": "event"
    },
    {
      "anonymous": false,
      "inputs": [
        {
          "indexed": true,
          "internalType": "uint256",
          "name": "tokenId",
          "type": "uint256"
        },
        {
          "indexed": false,
          "internalType": "string",
          "name": "contentURI",
          "type": "string"
        }
      ],
      "name": "ContentUpdate",
      "type": "event"
    },
    {
      "anonymous": false,
      "inputs": [
        {
          "indexed": true,
          "internalType": "uint256",
          "name": "tokenId",
          "type": "uint256"
        },
        {
          "indexed": false,
          "internalType": "string",
          "name": "metadataURI",
          "type": "string"
        }
      ],
      "name": "MetadataUpdate",
      "type": "event"
    },
    {
      "anonymous": false,
      "inputs": [
        {
          "indexed": true,
          "internalType": "address",
          "name": "previousOwner",
          "type": "address"
        },
        {
          "indexed": true,
          "internalType": "address",
          "name": "newOwner",
          "type": "address"
        }
      ],
      "name": "OwnershipTransferred",
      "type": "event"
    },
    {
      "anonymous": false,
      "inputs": [
        {
          "indexed": true,
          "internalType": "uint256",
          "name": "tokenId",
          "type": "uint256"
        },
        {
          "indexed": true,
          "internalType": "address",
          "name": "payoutAddress",
          "type": "address"
        }
      ],
      "name": "RoyaltyUpdate",
      "type": "event"
    },
    {
      "anonymous": false,
      "inputs": [
        {
          "indexed": true,
          "internalType": "address",
          "name": "from",
          "type": "address"
        },
        {
          "indexed": true,
          "internalType": "address",
          "name": "to",
          "type": "address"
        },
        {
          "indexed": true,
          "internalType": "uint256",
          "name": "tokenId",
          "type": "uint256"
        }
      ],
      "name": "Transfer",
      "type": "event"
    },
    {
      "anonymous": false,
      "inputs": [
        {
          "indexed": false,
          "internalType": "bytes32",
          "name": "_merkleRoot",
          "type": "bytes32"
        }
      ],
      "name": "merkleRootUpdated",
      "type": "event"
    },
    {
      "inputs": [
        {
          "internalType": "address",
          "name": "to",
          "type": "address"
        },
        {
          "internalType": "uint256",
          "name": "tokenId",
          "type": "uint256"
        }
      ],
      "name": "approve",
      "outputs": [],
      "stateMutability": "nonpayable",
      "type": "function"
    },
    {
      "inputs": [
        {
          "internalType": "address",
          "name": "owner",
          "type": "address"
        }
      ],
      "name": "balanceOf",
      "outputs": [
        {
          "internalType": "uint256",
          "name": "",
          "type": "uint256"
        }
      ],
      "stateMutability": "view",
      "type": "function"
    },
    {
      "inputs": [
        {
          "internalType": "uint256",
          "name": "_tokenId",
          "type": "uint256"
        }
      ],
      "name": "burn",
      "outputs": [],
      "stateMutability": "nonpayable",
      "type": "function"
    },
    {
      "inputs": [
        {
          "internalType": "uint256",
          "name": "_tokenId",
          "type": "uint256"
        }
      ],
      "name": "creator",
      "outputs": [
        {
          "internalType": "address",
          "name": "",
          "type": "address"
        }
      ],
      "stateMutability": "view",
      "type": "function"
    },
    {
      "inputs": [
        {
          "internalType": "uint256",
          "name": "tokenId",
          "type": "uint256"
        }
      ],
      "name": "getApproved",
      "outputs": [
        {
          "internalType": "address",
          "name": "",
          "type": "address"
        }
      ],
      "stateMutability": "view",
      "type": "function"
    },
    {
      "inputs": [
        {
          "internalType": "string",
          "name": "_name",
          "type": "string"
        },
        {
          "internalType": "string",
          "name": "_symbol",
          "type": "string"
        }
      ],
      "name": "initialize",
      "outputs": [],
      "stateMutability": "nonpayable",
      "type": "function"
    },
    {
      "inputs": [
        {
          "internalType": "address",
          "name": "owner",
          "type": "address"
        },
        {
          "internalType": "address",
          "name": "operator",
          "type": "address"
        }
      ],
      "name": "isApprovedForAll",
      "outputs": [
        {
          "internalType": "bool",
          "name": "",
          "type": "bool"
        }
      ],
      "stateMutability": "view",
      "type": "function"
    },
    {
      "inputs": [],
      "name": "merkleRoot",
      "outputs": [
        {
          "internalType": "bytes32",
          "name": "",
          "type": "bytes32"
        }
      ],
      "stateMutability": "view",
      "type": "function"
    },
    {
      "inputs": [
        {
          "components": [
            {
              "internalType": "string",
              "name": "metadataURI",
              "type": "string"
            },
            {
              "internalType": "string",
              "name": "contentURI",
              "type": "string"
            },
            {
              "internalType": "address",
              "name": "creator",
              "type": "address"
            },
            {
              "internalType": "address",
              "name": "royaltyPayout",
              "type": "address"
            },
            {
              "internalType": "uint16",
              "name": "royaltyBPS",
              "type": "uint16"
            }
          ],
          "internalType": "struct TR909.Data",
          "name": "_inputData",
          "type": "tuple"
        },
        {
          "internalType": "bytes32[]",
          "name": "_proof",
          "type": "bytes32[]"
        }
      ],
      "name": "mint",
      "outputs": [
        {
          "internalType": "uint256",
          "name": "",
          "type": "uint256"
        }
      ],
      "stateMutability": "nonpayable",
      "type": "function"
    },
    {
      "inputs": [],
      "name": "name",
      "outputs": [
        {
          "internalType": "string",
          "name": "",
          "type": "string"
        }
      ],
      "stateMutability": "view",
      "type": "function"
    },
    {
      "inputs": [],
      "name": "owner",
      "outputs": [
        {
          "internalType": "address",
          "name": "",
          "type": "address"
        }
      ],
      "stateMutability": "view",
      "type": "function"
    },
    {
      "inputs": [
        {
          "internalType": "uint256",
          "name": "tokenId",
          "type": "uint256"
        }
      ],
      "name": "ownerOf",
      "outputs": [
        {
          "internalType": "address",
          "name": "",
          "type": "address"
        }
      ],
      "stateMutability": "view",
      "type": "function"
    },
    {
      "inputs": [],
      "name": "renounceOwnership",
      "outputs": [],
      "stateMutability": "nonpayable",
      "type": "function"
    },
    {
      "inputs": [
        {
          "internalType": "uint256",
          "name": "_tokenId",
          "type": "uint256"
        },
        {
          "internalType": "uint256",
          "name": "_salePrice",
          "type": "uint256"
        }
      ],
      "name": "royaltyInfo",
      "outputs": [
        {
          "internalType": "address",
          "name": "receiver",
          "type": "address"
        },
        {
          "internalType": "uint256",
          "name": "royaltyAmount",
          "type": "uint256"
        }
      ],
      "stateMutability": "view",
      "type": "function"
    },
    {
      "inputs": [
        {
          "internalType": "uint256",
          "name": "_tokenId",
          "type": "uint256"
        }
      ],
      "name": "royaltyPayoutAddress",
      "outputs": [
        {
          "internalType": "address",
          "name": "",
          "type": "address"
        }
      ],
      "stateMutability": "view",
      "type": "function"
    },
    {
      "inputs": [
        {
          "internalType": "address",
          "name": "from",
          "type": "address"
        },
        {
          "internalType": "address",
          "name": "to",
          "type": "address"
        },
        {
          "internalType": "uint256",
          "name": "tokenId",
          "type": "uint256"
        }
      ],
      "name": "safeTransferFrom",
      "outputs": [],
      "stateMutability": "nonpayable",
      "type": "function"
    },
    {
      "inputs": [
        {
          "internalType": "address",
          "name": "from",
          "type": "address"
        },
        {
          "internalType": "address",
          "name": "to",
          "type": "address"
        },
        {
          "internalType": "uint256",
          "name": "tokenId",
          "type": "uint256"
        },
        {
          "internalType": "bytes",
          "name": "_data",
          "type": "bytes"
        }
      ],
      "name": "safeTransferFrom",
      "outputs": [],
      "stateMutability": "nonpayable",
      "type": "function"
    },
    {
      "inputs": [
        {
          "internalType": "address",
          "name": "operator",
          "type": "address"
        },
        {
          "internalType": "bool",
          "name": "approved",
          "type": "bool"
        }
      ],
      "name": "setApprovalForAll",
      "outputs": [],
      "stateMutability": "nonpayable",
      "type": "function"
    },
    {
      "inputs": [
        {
          "internalType": "bytes4",
          "name": "_interfaceId",
          "type": "bytes4"
        }
      ],
      "name": "supportsInterface",
      "outputs": [
        {
          "internalType": "bool",
          "name": "",
          "type": "bool"
        }
      ],
      "stateMutability": "view",
      "type": "function"
    },
    {
      "inputs": [],
      "name": "symbol",
      "outputs": [
        {
          "internalType": "string",
          "name": "",
          "type": "string"
        }
      ],
      "stateMutability": "view",
      "type": "function"
    },
    {
      "inputs": [
        {
          "internalType": "uint256",
          "name": "_tokenId",
          "type": "uint256"
        }
      ],
      "name": "tokenContentURI",
      "outputs": [
        {
          "internalType": "string",
          "name": "",
          "type": "string"
        }
      ],
      "stateMutability": "view",
      "type": "function"
    },
    {
      "inputs": [
        {
          "internalType": "uint256",
          "name": "_tokenId",
          "type": "uint256"
        }
      ],
      "name": "tokenURI",
      "outputs": [
        {
          "internalType": "string",
          "name": "",
          "type": "string"
        }
      ],
      "stateMutability": "view",
      "type": "function"
    },
    {
      "inputs": [
        {
          "internalType": "address",
          "name": "from",
          "type": "address"
        },
        {
          "internalType": "address",
          "name": "to",
          "type": "address"
        },
        {
          "internalType": "uint256",
          "name": "tokenId",
          "type": "uint256"
        }
      ],
      "name": "transferFrom",
      "outputs": [],
      "stateMutability": "nonpayable",
      "type": "function"
    },
    {
      "inputs": [
        {
          "internalType": "address",
          "name": "newOwner",
          "type": "address"
        }
      ],
      "name": "transferOwnership",
      "outputs": [],
      "stateMutability": "nonpayable",
      "type": "function"
    },
    {
      "inputs": [
        {
          "internalType": "uint256",
          "name": "_tokenId",
          "type": "uint256"
        },
        {
          "internalType": "string",
          "name": "_contentURI",
          "type": "string"
        }
      ],
      "name": "updateContentURI",
      "outputs": [],
      "stateMutability": "nonpayable",
      "type": "function"
    },
    {
      "inputs": [
        {
          "internalType": "uint256",
          "name": "_tokenId",
          "type": "uint256"
        },
        {
          "internalType": "string",
          "name": "_metadataURI",
          "type": "string"
        }
      ],
      "name": "updateMetadataURI",
      "outputs": [],
      "stateMutability": "nonpayable",
      "type": "function"
    },
    {
      "inputs": [
        {
          "internalType": "bytes32",
          "name": "_newRoot",
          "type": "bytes32"
        }
      ],
      "name": "updateRoot",
      "outputs": [],
      "stateMutability": "nonpayable",
      "type": "function"
    },
    {
      "inputs": [
        {
          "internalType": "uint256",
          "name": "_tokenId",
          "type": "uint256"
        },
        {
          "internalType": "address",
          "name": "_royaltyPayoutAddress",
          "type": "address"
        }
      ],
      "name": "updateRoyaltyInfo",
      "outputs": [],
      "stateMutability": "nonpayable",
      "type": "function"
    }
  ],
  "transactionHash": "0x390f996a9913c1c2449bc59e5598cb6a17927b82a4e2b355c51efdf7725c77ba",
  "args": [],
  "numDeployments": 2,
  "solcInputHash": "3175484a78bd6885a311b0717dba3158",
  "bytecode": "0x60806040523480156200001157600080fd5b50600054610100900460ff166200002f5760005460ff161562000039565b62000039620000de565b620000a15760405162461bcd60e51b815260206004820152602e60248201527f496e697469616c697a61626c653a20636f6e747261637420697320616c72656160448201526d191e481a5b9a5d1a585b1a5e995960921b606482015260840160405180910390fd5b600054610100900460ff16158015620000c4576000805461ffff19166101011790555b8015620000d7576000805461ff00191690555b5062000102565b6000620000f630620000fc60201b620011fe1760201c565b15905090565b3b151590565b6123d280620001126000396000f3fe608060405234801561001057600080fd5b50600436106101c45760003560e01c80636352211e116100f9578063a22cb46511610097578063e985e9c511610071578063e985e9c5146103cd578063f2fde38b14610409578063f8840df61461041c578063fbd8d2831461042f57600080fd5b8063a22cb46514610394578063b88d4fde146103a7578063c87b56dd146103ba57600080fd5b8063715018a6116100d3578063715018a6146103605780638da5cb5b146103685780638fe86b3f1461037957806395d89b411461038c57600080fd5b80636352211e14610327578063669d311c1461033a57806370a082311461034d57600080fd5b80632a55205a1161016657806342966c681161014057806342966c68146102db5780634cd88b76146102ee578063510b515814610301578063514eaa251461031457600080fd5b80632a55205a1461027f5780632eb4a7ab146102b157806342842e0e146102c857600080fd5b8063095ea7b3116101a2578063095ea7b3146102315780630c0a9d261461024657806321ff99701461025957806323b872dd1461026c57600080fd5b806301ffc9a7146101c957806306fdde03146101f1578063081812fc14610206575b600080fd5b6101dc6101d7366004611c64565b610442565b60405190151581526020015b60405180910390f35b6101f961046d565b6040516101e89190611cce565b610219610214366004611ce1565b6104ff565b6040516001600160a01b0390911681526020016101e8565b61024461023f366004611d16565b61058c565b005b6101f9610254366004611ce1565b6106a2565b610244610267366004611ce1565b610747565b61024461027a366004611d40565b61077d565b61029261028d366004611d7c565b6107ae565b604080516001600160a01b0390931683526020830191909152016101e8565b6102ba60c95481565b6040519081526020016101e8565b6102446102d6366004611d40565b6107fc565b6102446102e9366004611ce1565b610817565b6102446102fc366004611e4a565b6108bb565b61021961030f366004611ce1565b610995565b6102ba610322366004611eae565b6109db565b610219610335366004611ce1565b610ca7565b610244610348366004611f50565b610d1e565b6102ba61035b366004611f7c565b610daf565b610244610e36565b6097546001600160a01b0316610219565b610244610387366004611f97565b610e9c565b6101f9610f8b565b6102446103a2366004611fd4565b610f9a565b6102446103b5366004612010565b610fa9565b6101f96103c8366004611ce1565b610fe1565b6101dc6103db36600461208c565b6001600160a01b039182166000908152606a6020908152604080832093909416825291909152205460ff1690565b610244610417366004611f7c565b611069565b61024461042a366004611f97565b611131565b61021961043d366004611ce1565b6111b8565b600063152a902d60e11b6001600160e01b031983161480610467575061046782611204565b92915050565b60606065805461047c906120b6565b80601f01602080910402602001604051908101604052809291908181526020018280546104a8906120b6565b80156104f55780601f106104ca576101008083540402835291602001916104f5565b820191906000526020600020905b8154815290600101906020018083116104d857829003601f168201915b5050505050905090565b600061050a82611254565b6105705760405162461bcd60e51b815260206004820152602c60248201527f4552433732313a20617070726f76656420717565727920666f72206e6f6e657860448201526b34b9ba32b73a103a37b5b2b760a11b60648201526084015b60405180910390fd5b506000908152606960205260409020546001600160a01b031690565b600061059782610ca7565b9050806001600160a01b0316836001600160a01b031614156106055760405162461bcd60e51b815260206004820152602160248201527f4552433732313a20617070726f76616c20746f2063757272656e74206f776e656044820152603960f91b6064820152608401610567565b336001600160a01b0382161480610621575061062181336103db565b6106935760405162461bcd60e51b815260206004820152603860248201527f4552433732313a20617070726f76652063616c6c6572206973206e6f74206f7760448201527f6e6572206e6f7220617070726f76656420666f7220616c6c00000000000000006064820152608401610567565b61069d8383611271565b505050565b600081815260cb602052604090206001018054606091906106c2906120b6565b80601f01602080910402602001604051908101604052809291908181526020018280546106ee906120b6565b801561073b5780601f106107105761010080835404028352916020019161073b565b820191906000526020600020905b81548152906001019060200180831161071e57829003601f168201915b50505050509050919050565b6097546001600160a01b031633146107715760405162461bcd60e51b8152600401610567906120f1565b61077a816112df565b50565b610787338261131a565b6107a35760405162461bcd60e51b815260040161056790612111565b61069d838383611400565b600082815260cb602052604081206003015481906001600160a01b03811690612710906107e690600160a01b900461ffff1686612178565b6107f09190612197565b915091505b9250929050565b61069d83838360405180602001604052806000815250610fa9565b600081815260cb60205260409020600201546001600160a01b031633148015610859575061084481610ca7565b6001600160a01b0316336001600160a01b0316145b8061086e57506097546001600160a01b031633145b6108b25760405162461bcd60e51b815260206004820152601560248201527427b7363c9031b932b0ba37b91037b91020b236b4b760591b6044820152606401610567565b61077a816115a0565b600054610100900460ff166108d65760005460ff16156108da565b303b155b61093d5760405162461bcd60e51b815260206004820152602e60248201527f496e697469616c697a61626c653a20636f6e747261637420697320616c72656160448201526d191e481a5b9a5d1a585b1a5e995960921b6064820152608401610567565b600054610100900460ff1615801561095f576000805461ffff19166101011790555b610969838361163b565b61097161167c565b61097f60ca80546001019055565b801561069d576000805461ff0019169055505050565b60006109a082611254565b6109bc5760405162461bcd60e51b8152600401610567906121b9565b50600090815260cb60205260409020600201546001600160a01b031690565b6000610a6b610a326109f36060870160408801611f7c565b6040516bffffffffffffffffffffffff19606083901b166020820152600090603401604051602081830303815290604052805190602001209050919050565b8484808060200260200160405190810160405280939291908181526020018383602002808284376000920191909152506116b392505050565b610aa05760405162461bcd60e51b815260206004820152600660248201526510b83937b7b360d11b6044820152606401610567565b612710610ab360a08601608087016121da565b61ffff1610610af45760405162461bcd60e51b815260206004820152600d60248201526c21726f79616c7479203c31306b60981b6044820152606401610567565b6000610aff60ca5490565b9050610b0b33826116c9565b6040805160a0810190915280610b2187806121fe565b8080601f016020809104026020016040519081016040528093929190818152602001838380828437600092019190915250505090825250602090810190610b6a908801886121fe565b8080601f016020809104026020016040519081016040528093929190818152602001838380828437600092019190915250505090825250602001610bb46060880160408901611f7c565b6001600160a01b03168152602001610bd26080880160608901611f7c565b6001600160a01b03168152602001610bf060a08801608089016121da565b61ffff169052600082815260cb60209081526040909120825180519192610c1c92849290910190611bb5565b506020828101518051610c359260018501920190611bb5565b5060408201516002820180546001600160a01b039283166001600160a01b031990911617905560608301516003909201805460809094015161ffff16600160a01b026001600160b01b03199094169290911691909117919091179055610c9f60ca80546001019055565b949350505050565b6000818152606760205260408120546001600160a01b0316806104675760405162461bcd60e51b815260206004820152602960248201527f4552433732313a206f776e657220717565727920666f72206e6f6e657869737460448201526832b73a103a37b5b2b760b91b6064820152608401610567565b6097546001600160a01b03163314610d485760405162461bcd60e51b8152600401610567906120f1565b6040516001600160a01b0382169083907fb4a0af8ec02f10afaf4a98e65e0f9d223d27a281fde68c387d8c9504e02bae6890600090a3600091825260cb602052604090912060030180546001600160a01b0319166001600160a01b03909216919091179055565b60006001600160a01b038216610e1a5760405162461bcd60e51b815260206004820152602a60248201527f4552433732313a2062616c616e636520717565727920666f7220746865207a65604482015269726f206164647265737360b01b6064820152608401610567565b506001600160a01b031660009081526068602052604090205490565b6097546001600160a01b03163314610e905760405162461bcd60e51b815260206004820181905260248201527f4f776e61626c653a2063616c6c6572206973206e6f7420746865206f776e65726044820152606401610567565b610e9a60006117fc565b565b610ea582611254565b610ec15760405162461bcd60e51b8152600401610567906121b9565b600082815260cb60205260409020600201546001600160a01b0316331480610ef357506097546001600160a01b031633145b610f345760405162461bcd60e51b815260206004820152601260248201527110b1b932b0ba37b91037b91010b0b236b4b760711b6044820152606401610567565b817fa7527b31563240d0f5f29d80c2f13916d38a7b2b19b892c43486ed47722f2ffb82604051610f649190611cce565b60405180910390a2600082815260cb60209081526040909120825161069d92840190611bb5565b60606066805461047c906120b6565b610fa533838361184e565b5050565b610fb3338361131a565b610fcf5760405162461bcd60e51b815260040161056790612111565b610fdb8484848461191d565b50505050565b6060610fec82611254565b6110505760405162461bcd60e51b815260206004820152602f60248201527f4552433732314d657461646174613a2055524920717565727920666f72206e6f60448201526e3732bc34b9ba32b73a103a37b5b2b760891b6064820152608401610567565b600082815260cb6020526040902080546106c2906120b6565b6097546001600160a01b031633146110c35760405162461bcd60e51b815260206004820181905260248201527f4f776e61626c653a2063616c6c6572206973206e6f7420746865206f776e65726044820152606401610567565b6001600160a01b0381166111285760405162461bcd60e51b815260206004820152602660248201527f4f776e61626c653a206e6577206f776e657220697320746865207a65726f206160448201526564647265737360d01b6064820152608401610567565b61077a816117fc565b6097546001600160a01b0316331461115b5760405162461bcd60e51b8152600401610567906120f1565b817f9b3a859fcf43886f9b2bce3697d07bc46d8c83eaaf6b0b61dbbc058f57c99eba8260405161118b9190611cce565b60405180910390a2600082815260cb60209081526040909120825161069d92600190920191840190611bb5565b60006111c382611254565b6111df5760405162461bcd60e51b8152600401610567906121b9565b50600090815260cb60205260409020600301546001600160a01b031690565b3b151590565b60006001600160e01b031982166380ac58cd60e01b148061123557506001600160e01b03198216635b5e139f60e01b145b8061046757506301ffc9a760e01b6001600160e01b0319831614610467565b6000908152606760205260409020546001600160a01b0316151590565b600081815260696020526040902080546001600160a01b0319166001600160a01b03841690811790915581906112a682610ca7565b6001600160a01b03167f8c5be1e5ebec7d5bd14f71427d1e84f3dd0314c0f7b2291e5b200ac8c7c3b92560405160405180910390a45050565b60c98190556040518181527fa2bc4a36b1e221bdcc16df9d7c15559a5f4f9902519c0f92ad3198f1df005e8b9060200160405180910390a150565b600061132582611254565b6113865760405162461bcd60e51b815260206004820152602c60248201527f4552433732313a206f70657261746f7220717565727920666f72206e6f6e657860448201526b34b9ba32b73a103a37b5b2b760a11b6064820152608401610567565b600061139183610ca7565b9050806001600160a01b0316846001600160a01b031614806113cc5750836001600160a01b03166113c1846104ff565b6001600160a01b0316145b80610c9f57506001600160a01b038082166000908152606a602090815260408083209388168352929052205460ff16610c9f565b826001600160a01b031661141382610ca7565b6001600160a01b03161461147b5760405162461bcd60e51b815260206004820152602960248201527f4552433732313a207472616e73666572206f6620746f6b656e2074686174206960448201526839903737ba1037bbb760b91b6064820152608401610567565b6001600160a01b0382166114dd5760405162461bcd60e51b8152602060048201526024808201527f4552433732313a207472616e7366657220746f20746865207a65726f206164646044820152637265737360e01b6064820152608401610567565b6114e8600082611271565b6001600160a01b0383166000908152606860205260408120805460019290611511908490612245565b90915550506001600160a01b038216600090815260686020526040812080546001929061153f90849061225c565b909155505060008181526067602052604080822080546001600160a01b0319166001600160a01b0386811691821790925591518493918716917fddf252ad1be2c89b69c2b068fc378daa952ba7f163c4a11628f55a4df523b3ef91a4505050565b60006115ab82610ca7565b90506115b8600083611271565b6001600160a01b03811660009081526068602052604081208054600192906115e1908490612245565b909155505060008281526067602052604080822080546001600160a01b0319169055518391906001600160a01b038416907fddf252ad1be2c89b69c2b068fc378daa952ba7f163c4a11628f55a4df523b3ef908390a45050565b600054610100900460ff166116625760405162461bcd60e51b815260040161056790612274565b61166a611950565b611672611950565b610fa58282611977565b600054610100900460ff166116a35760405162461bcd60e51b815260040161056790612274565b6116ab611950565b610e9a6119c5565b60006116c28260c954856119f5565b9392505050565b6001600160a01b03821661171f5760405162461bcd60e51b815260206004820181905260248201527f4552433732313a206d696e7420746f20746865207a65726f20616464726573736044820152606401610567565b61172881611254565b156117755760405162461bcd60e51b815260206004820152601c60248201527f4552433732313a20746f6b656e20616c7265616479206d696e746564000000006044820152606401610567565b6001600160a01b038216600090815260686020526040812080546001929061179e90849061225c565b909155505060008181526067602052604080822080546001600160a01b0319166001600160a01b03861690811790915590518392907fddf252ad1be2c89b69c2b068fc378daa952ba7f163c4a11628f55a4df523b3ef908290a45050565b609780546001600160a01b038381166001600160a01b0319831681179093556040519116919082907f8be0079c531659141344cd1fd0a4f28419497f9722a3daafe3b4186f6b6457e090600090a35050565b816001600160a01b0316836001600160a01b031614156118b05760405162461bcd60e51b815260206004820152601960248201527f4552433732313a20617070726f766520746f2063616c6c6572000000000000006044820152606401610567565b6001600160a01b038381166000818152606a6020908152604080832094871680845294825291829020805460ff191686151590811790915591519182527f17307eab39ab6107e8899845ad3d59bd9653f200f220920489ca2b5937696c31910160405180910390a3505050565b611928848484611400565b61193484848484611a0b565b610fdb5760405162461bcd60e51b8152600401610567906122bf565b600054610100900460ff16610e9a5760405162461bcd60e51b815260040161056790612274565b600054610100900460ff1661199e5760405162461bcd60e51b815260040161056790612274565b81516119b1906065906020850190611bb5565b50805161069d906066906020840190611bb5565b600054610100900460ff166119ec5760405162461bcd60e51b815260040161056790612274565b610e9a336117fc565b600082611a028584611b09565b14949350505050565b60006001600160a01b0384163b15611afe57604051630a85bd0160e11b81526001600160a01b0385169063150b7a0290611a4f903390899088908890600401612311565b6020604051808303816000875af1925050508015611a8a575060408051601f3d908101601f19168201909252611a879181019061234e565b60015b611ae4573d808015611ab8576040519150601f19603f3d011682016040523d82523d6000602084013e611abd565b606091505b508051611adc5760405162461bcd60e51b8152600401610567906122bf565b805181602001fd5b6001600160e01b031916630a85bd0160e11b149050610c9f565b506001949350505050565b600081815b8451811015611bad576000858281518110611b2b57611b2b61236b565b60200260200101519050808311611b6d576040805160208101859052908101829052606001604051602081830303815290604052805190602001209250611b9a565b60408051602081018390529081018490526060016040516020818303038152906040528051906020012092505b5080611ba581612381565b915050611b0e565b509392505050565b828054611bc1906120b6565b90600052602060002090601f016020900481019282611be35760008555611c29565b82601f10611bfc57805160ff1916838001178555611c29565b82800160010185558215611c29579182015b82811115611c29578251825591602001919060010190611c0e565b50611c35929150611c39565b5090565b5b80821115611c355760008155600101611c3a565b6001600160e01b03198116811461077a57600080fd5b600060208284031215611c7657600080fd5b81356116c281611c4e565b6000815180845260005b81811015611ca757602081850181015186830182015201611c8b565b81811115611cb9576000602083870101525b50601f01601f19169290920160200192915050565b6020815260006116c26020830184611c81565b600060208284031215611cf357600080fd5b5035919050565b80356001600160a01b0381168114611d1157600080fd5b919050565b60008060408385031215611d2957600080fd5b611d3283611cfa565b946020939093013593505050565b600080600060608486031215611d5557600080fd5b611d5e84611cfa565b9250611d6c60208501611cfa565b9150604084013590509250925092565b60008060408385031215611d8f57600080fd5b50508035926020909101359150565b634e487b7160e01b600052604160045260246000fd5b600067ffffffffffffffff80841115611dcf57611dcf611d9e565b604051601f8501601f19908116603f01168101908282118183101715611df757611df7611d9e565b81604052809350858152868686011115611e1057600080fd5b858560208301376000602087830101525050509392505050565b600082601f830112611e3b57600080fd5b6116c283833560208501611db4565b60008060408385031215611e5d57600080fd5b823567ffffffffffffffff80821115611e7557600080fd5b611e8186838701611e2a565b93506020850135915080821115611e9757600080fd5b50611ea485828601611e2a565b9150509250929050565b600080600060408486031215611ec357600080fd5b833567ffffffffffffffff80821115611edb57600080fd5b9085019060a08288031215611eef57600080fd5b90935060208501359080821115611f0557600080fd5b818601915086601f830112611f1957600080fd5b813581811115611f2857600080fd5b8760208260051b8501011115611f3d57600080fd5b6020830194508093505050509250925092565b60008060408385031215611f6357600080fd5b82359150611f7360208401611cfa565b90509250929050565b600060208284031215611f8e57600080fd5b6116c282611cfa565b60008060408385031215611faa57600080fd5b82359150602083013567ffffffffffffffff811115611fc857600080fd5b611ea485828601611e2a565b60008060408385031215611fe757600080fd5b611ff083611cfa565b91506020830135801515811461200557600080fd5b809150509250929050565b6000806000806080858703121561202657600080fd5b61202f85611cfa565b935061203d60208601611cfa565b925060408501359150606085013567ffffffffffffffff81111561206057600080fd5b8501601f8101871361207157600080fd5b61208087823560208401611db4565b91505092959194509250565b6000806040838503121561209f57600080fd5b6120a883611cfa565b9150611f7360208401611cfa565b600181811c908216806120ca57607f821691505b602082108114156120eb57634e487b7160e01b600052602260045260246000fd5b50919050565b60208082526006908201526510b0b236b4b760d11b604082015260600190565b60208082526031908201527f4552433732313a207472616e736665722063616c6c6572206973206e6f74206f6040820152701ddb995c881b9bdc88185c1c1c9bdd9959607a1b606082015260800190565b634e487b7160e01b600052601160045260246000fd5b600081600019048311821515161561219257612192612162565b500290565b6000826121b457634e487b7160e01b600052601260045260246000fd5b500490565b6020808252600790820152662165786973747360c81b604082015260600190565b6000602082840312156121ec57600080fd5b813561ffff811681146116c257600080fd5b6000808335601e1984360301811261221557600080fd5b83018035915067ffffffffffffffff82111561223057600080fd5b6020019150368190038213156107f557600080fd5b60008282101561225757612257612162565b500390565b6000821982111561226f5761226f612162565b500190565b6020808252602b908201527f496e697469616c697a61626c653a20636f6e7472616374206973206e6f74206960408201526a6e697469616c697a696e6760a81b606082015260800190565b60208082526032908201527f4552433732313a207472616e7366657220746f206e6f6e20455243373231526560408201527131b2b4bb32b91034b6b83632b6b2b73a32b960711b606082015260800190565b6001600160a01b038581168252841660208201526040810183905260806060820181905260009061234490830184611c81565b9695505050505050565b60006020828403121561236057600080fd5b81516116c281611c4e565b634e487b7160e01b600052603260045260246000fd5b600060001982141561239557612395612162565b506001019056fea26469706673582212204cfae7957893e50df3c9085ea6a2c2e24654480a81a6a5b28923bffffa07708b64736f6c634300080a0033",
  "devdoc": {
    "author": "@bretth18 (COMPUTER DATA) of @catalogworks",
    "kind": "dev",
    "methods": {
      "approve(address,uint256)": {
        "details": "See {IERC721-approve}."
      },
      "balanceOf(address)": {
        "details": "See {IERC721-balanceOf}."
      },
      "burn(uint256)": {
        "details": "Requires contract admin or creator of token to burn. Emits transfer Event",
        "params": {
          "_tokenId": ": The tokenId to burn"
        }
      },
      "constructor": {
        "custom:oz-upgrades-unsafe-allow": "constructor"
      },
      "creator(uint256)": {
        "params": {
          "_tokenId": ": The tokenId to get creator of"
        },
        "returns": {
          "_0": "address The creator of the tokenId"
        }
      },
      "getApproved(uint256)": {
        "details": "See {IERC721-getApproved}."
      },
      "isApprovedForAll(address,address)": {
        "details": "See {IERC721-isApprovedForAll}."
      },
      "mint((string,string,address,address,uint16),bytes32[])": {
        "details": "Mint requires a valid Merkle proof. We use the creator address as the source of truth here.",
        "params": {
          "_inputData": ": tuple data of type Data, containing contents of CNFT.",
          "_proof": ": bytes32[] Valid merkle proof for the input creator address."
        },
        "returns": {
          "_0": "uint256 The tokenId of the minted token."
        }
      },
      "name()": {
        "details": "See {IERC721Metadata-name}."
      },
      "owner()": {
        "details": "Returns the address of the current owner."
      },
      "ownerOf(uint256)": {
        "details": "See {IERC721-ownerOf}."
      },
      "renounceOwnership()": {
        "details": "Leaves the contract without owner. It will not be possible to call `onlyOwner` functions anymore. Can only be called by the current owner. NOTE: Renouncing ownership will leave the contract without an owner, thereby removing any functionality that is only available to the owner."
      },
      "royaltyInfo(uint256,uint256)": {
        "params": {
          "_salePrice": ": The new sale price",
          "_tokenId": ": The tokenId to update"
        },
        "returns": {
          "receiver": "royalty payout address and calculated royalty payment"
        }
      },
      "royaltyPayoutAddress(uint256)": {
        "params": {
          "_tokenId": ": The tokenId to get the royalty payout address for"
        },
        "returns": {
          "_0": "address The royalty payout address"
        }
      },
      "safeTransferFrom(address,address,uint256)": {
        "details": "See {IERC721-safeTransferFrom}."
      },
      "safeTransferFrom(address,address,uint256,bytes)": {
        "details": "See {IERC721-safeTransferFrom}."
      },
      "setApprovalForAll(address,bool)": {
        "details": "See {IERC721-setApprovalForAll}."
      },
      "supportsInterface(bytes4)": {
        "params": {
          "_interfaceId": ": The interfaceId to check"
        },
        "returns": {
          "_0": "interface type supported"
        }
      },
      "symbol()": {
        "details": "See {IERC721Metadata-symbol}."
      },
      "tokenContentURI(uint256)": {
        "params": {
          "_tokenId": ": The tokenId to obtain the content URI from"
        },
        "returns": {
          "_0": "string The content URI of the token"
        }
      },
      "tokenURI(uint256)": {
        "details": "Returns the metadataURI of the token, there is no method for metadataURI()",
        "params": {
          "_tokenId": ": The tokenId to get the URI for"
        },
        "returns": {
          "_0": "string The metadataURI of the token"
        }
      },
      "transferFrom(address,address,uint256)": {
        "details": "See {IERC721-transferFrom}."
      },
      "transferOwnership(address)": {
        "details": "Transfers ownership of the contract to a new account (`newOwner`). Can only be called by the current owner."
      },
      "updateContentURI(uint256,string)": {
        "details": "Requires contract admin to update.",
        "params": {
          "_contentURI": ": The new contentURI",
          "_tokenId": ": The tokenId to update"
        }
      },
      "updateMetadataURI(uint256,string)": {
        "details": "Requires contract admin to update or creator to update. note: potentially exploitable by compromised wallet",
        "params": {
          "_metadataURI": ": The new metadataURI",
          "_tokenId": ": The tokenId to update"
        }
      },
      "updateRoot(bytes32)": {
        "details": "Requires contract admin to update, emits a merkleRootUpdated event.",
        "params": {
          "_newRoot": ": The new Merkle Root"
        }
      },
      "updateRoyaltyInfo(uint256,address)": {
        "details": "Requires contract admin to update.",
        "params": {
          "_royaltyPayoutAddress": ": The new royalty payout address",
          "_tokenId": ": The tokenId to update"
        }
      }
    },
    "title": "TR909",
    "version": 1
  },
  "userdoc": {
    "events": {
      "MetadataUpdate(uint256,string)": {
        "notice": "Event"
      },
      "merkleRootUpdated(bytes32)": {
        "notice": "Events"
      }
    },
    "kind": "user",
    "methods": {
      "burn(uint256)": {
        "notice": "Burn Function"
      },
      "constructor": {
        "notice": "Constructor"
      },
      "creator(uint256)": {
        "notice": "Get Creator Function"
      },
      "initialize(string,string)": {
        "notice": "Initialize Function"
      },
      "merkleRoot()": {
        "notice": "State variable containing merkle root see {IAngelaList}"
      },
      "mint((string,string,address,address,uint16),bytes32[])": {
        "notice": "Mint Function"
      },
      "royaltyInfo(uint256,uint256)": {
        "notice": "royaltyInfo Function conforms to EIP2981"
      },
      "royaltyPayoutAddress(uint256)": {
        "notice": "Get Royalty Payout Address Function"
      },
      "supportsInterface(bytes4)": {
        "notice": "interface Override Function"
      },
      "tokenContentURI(uint256)": {
        "notice": "Get tokenContentURI Function"
      },
      "tokenURI(uint256)": {
        "notice": "Get TokenURI Function"
      },
      "updateContentURI(uint256,string)": {
        "notice": "Update ContentURI Function"
      },
      "updateMetadataURI(uint256,string)": {
        "notice": "Update MetadataURI Function"
      },
      "updateRoot(bytes32)": {
        "notice": "Update Root Function"
      },
      "updateRoyaltyInfo(uint256,address)": {
        "notice": "Update Royalty Info Function"
      }
    },
    "notice": "-------------------------------------------------------------------------------------------------------------------- ______  ____       __      __      __ /\\__  _\\/\\  _`\\   /'_ `\\  /'__`\\  /'_ `\\ \\/_/\\ \\/\\ \\ \\L\\ \\/\\ \\L\\ \\/\\ \\/\\ \\/\\ \\L\\ \\ \\ \\ \\ \\ \\ ,  /\\ \\___, \\ \\ \\ \\ \\ \\___, \\ \\ \\ \\ \\ \\ \\\\ \\\\/__,/\\ \\ \\ \\_\\ \\/__,/\\ \\ \\ \\_\\ \\ \\_\\ \\_\\   \\ \\_\\ \\____/    \\ \\_\\ \\/_/  \\/_/\\/ /    \\/_/\\/___/      \\/_/************************************************ LEGAL DISCLAIMER: https://catalog.works/terms************************************************ ---------------------------------------------------------------------------------------------------------------------                                                                                                                                                                                                                                                                                                                            RINKEBY CNFT (V2: CODENAME \"TR909\")Catalog Shared Creator Contract (CNFT), v2(TR909). This is an upgradeable ERC721 contract, with a access control restrictions for a given Admin address. Purpose built for optimization over the original Zora V1 isian (Iaian Nash) of Zora for help with this implementation. ---------------------------------------------------------------------------------------------------------------------                                                                                                                                                                                                                                                                                                                           ",
    "version": 1
  },
  "storageLayout": {
    "storage": [
      {
        "astId": 564,
        "contract": "contracts/catalog/TR909.sol:TR909",
        "label": "_initialized",
        "offset": 0,
        "slot": "0",
        "type": "t_bool"
      },
      {
        "astId": 567,
        "contract": "contracts/catalog/TR909.sol:TR909",
        "label": "_initializing",
        "offset": 1,
        "slot": "0",
        "type": "t_bool"
      },
      {
        "astId": 1941,
        "contract": "contracts/catalog/TR909.sol:TR909",
        "label": "__gap",
        "offset": 0,
        "slot": "1",
        "type": "t_array(t_uint256)50_storage"
      },
      {
        "astId": 2352,
        "contract": "contracts/catalog/TR909.sol:TR909",
        "label": "__gap",
        "offset": 0,
        "slot": "51",
        "type": "t_array(t_uint256)50_storage"
      },
      {
        "astId": 660,
        "contract": "contracts/catalog/TR909.sol:TR909",
        "label": "_name",
        "offset": 0,
        "slot": "101",
        "type": "t_string_storage"
      },
      {
        "astId": 662,
        "contract": "contracts/catalog/TR909.sol:TR909",
        "label": "_symbol",
        "offset": 0,
        "slot": "102",
        "type": "t_string_storage"
      },
      {
        "astId": 666,
        "contract": "contracts/catalog/TR909.sol:TR909",
        "label": "_owners",
        "offset": 0,
        "slot": "103",
        "type": "t_mapping(t_uint256,t_address)"
      },
      {
        "astId": 670,
        "contract": "contracts/catalog/TR909.sol:TR909",
        "label": "_balances",
        "offset": 0,
        "slot": "104",
        "type": "t_mapping(t_address,t_uint256)"
      },
      {
        "astId": 674,
        "contract": "contracts/catalog/TR909.sol:TR909",
        "label": "_tokenApprovals",
        "offset": 0,
        "slot": "105",
        "type": "t_mapping(t_uint256,t_address)"
      },
      {
        "astId": 680,
        "contract": "contracts/catalog/TR909.sol:TR909",
        "label": "_operatorApprovals",
        "offset": 0,
        "slot": "106",
        "type": "t_mapping(t_address,t_mapping(t_address,t_bool))"
      },
      {
        "astId": 1491,
        "contract": "contracts/catalog/TR909.sol:TR909",
        "label": "__gap",
        "offset": 0,
        "slot": "107",
        "type": "t_array(t_uint256)44_storage"
      },
      {
        "astId": 420,
        "contract": "contracts/catalog/TR909.sol:TR909",
        "label": "_owner",
        "offset": 0,
        "slot": "151",
        "type": "t_address"
      },
      {
        "astId": 534,
        "contract": "contracts/catalog/TR909.sol:TR909",
        "label": "__gap",
        "offset": 0,
        "slot": "152",
        "type": "t_array(t_uint256)49_storage"
      },
      {
        "astId": 2373,
        "contract": "contracts/catalog/TR909.sol:TR909",
        "label": "merkleRoot",
        "offset": 0,
        "slot": "201",
        "type": "t_bytes32"
      },
      {
        "astId": 3378,
        "contract": "contracts/catalog/TR909.sol:TR909",
        "label": "_tokenIdCount",
        "offset": 0,
        "slot": "202",
        "type": "t_struct(Counter)1948_storage"
      },
      {
        "astId": 3384,
        "contract": "contracts/catalog/TR909.sol:TR909",
        "label": "_data",
        "offset": 0,
        "slot": "203",
        "type": "t_mapping(t_uint256,t_struct(Data)3374_storage)"
      }
    ],
    "types": {
      "t_address": {
        "encoding": "inplace",
        "label": "address",
        "numberOfBytes": "20"
      },
      "t_array(t_uint256)44_storage": {
        "base": "t_uint256",
        "encoding": "inplace",
        "label": "uint256[44]",
        "numberOfBytes": "1408"
      },
      "t_array(t_uint256)49_storage": {
        "base": "t_uint256",
        "encoding": "inplace",
        "label": "uint256[49]",
        "numberOfBytes": "1568"
      },
      "t_array(t_uint256)50_storage": {
        "base": "t_uint256",
        "encoding": "inplace",
        "label": "uint256[50]",
        "numberOfBytes": "1600"
      },
      "t_bool": {
        "encoding": "inplace",
        "label": "bool",
        "numberOfBytes": "1"
      },
      "t_bytes32": {
        "encoding": "inplace",
        "label": "bytes32",
        "numberOfBytes": "32"
      },
      "t_mapping(t_address,t_bool)": {
        "encoding": "mapping",
        "key": "t_address",
        "label": "mapping(address => bool)",
        "numberOfBytes": "32",
        "value": "t_bool"
      },
      "t_mapping(t_address,t_mapping(t_address,t_bool))": {
        "encoding": "mapping",
        "key": "t_address",
        "label": "mapping(address => mapping(address => bool))",
        "numberOfBytes": "32",
        "value": "t_mapping(t_address,t_bool)"
      },
      "t_mapping(t_address,t_uint256)": {
        "encoding": "mapping",
        "key": "t_address",
        "label": "mapping(address => uint256)",
        "numberOfBytes": "32",
        "value": "t_uint256"
      },
      "t_mapping(t_uint256,t_address)": {
        "encoding": "mapping",
        "key": "t_uint256",
        "label": "mapping(uint256 => address)",
        "numberOfBytes": "32",
        "value": "t_address"
      },
      "t_mapping(t_uint256,t_struct(Data)3374_storage)": {
        "encoding": "mapping",
        "key": "t_uint256",
        "label": "mapping(uint256 => struct TR909.Data)",
        "numberOfBytes": "32",
        "value": "t_struct(Data)3374_storage"
      },
      "t_string_storage": {
        "encoding": "bytes",
        "label": "string",
        "numberOfBytes": "32"
      },
      "t_struct(Counter)1948_storage": {
        "encoding": "inplace",
        "label": "struct CountersUpgradeable.Counter",
        "members": [
          {
            "astId": 1947,
            "contract": "contracts/catalog/TR909.sol:TR909",
            "label": "_value",
            "offset": 0,
            "slot": "0",
            "type": "t_uint256"
          }
        ],
        "numberOfBytes": "32"
      },
      "t_struct(Data)3374_storage": {
        "encoding": "inplace",
        "label": "struct TR909.Data",
        "members": [
          {
            "astId": 3365,
            "contract": "contracts/catalog/TR909.sol:TR909",
            "label": "metadataURI",
            "offset": 0,
            "slot": "0",
            "type": "t_string_storage"
          },
          {
            "astId": 3367,
            "contract": "contracts/catalog/TR909.sol:TR909",
            "label": "contentURI",
            "offset": 0,
            "slot": "1",
            "type": "t_string_storage"
          },
          {
            "astId": 3369,
            "contract": "contracts/catalog/TR909.sol:TR909",
            "label": "creator",
            "offset": 0,
            "slot": "2",
            "type": "t_address"
          },
          {
            "astId": 3371,
            "contract": "contracts/catalog/TR909.sol:TR909",
            "label": "royaltyPayout",
            "offset": 0,
            "slot": "3",
            "type": "t_address"
          },
          {
            "astId": 3373,
            "contract": "contracts/catalog/TR909.sol:TR909",
            "label": "royaltyBPS",
            "offset": 20,
            "slot": "3",
            "type": "t_uint16"
          }
        ],
        "numberOfBytes": "128"
      },
      "t_uint16": {
        "encoding": "inplace",
        "label": "uint16",
        "numberOfBytes": "2"
      },
      "t_uint256": {
        "encoding": "inplace",
        "label": "uint256",
        "numberOfBytes": "32"
      }
    }
  }
}