{
  "address": "0x25a5cAa428dACcF60cB0A8c6B13bf3cA109512C1",
  "abi": [
    {
      "anonymous": false,
      "inputs": [
        {
          "indexed": false,
          "internalType": "address",
          "name": "previousAdmin",
          "type": "address"
        },
        {
          "indexed": false,
          "internalType": "address",
          "name": "newAdmin",
          "type": "address"
        }
      ],
      "name": "AdminChanged",
      "type": "event"
    },
    {
      "anonymous": false,
      "inputs": [
        {
          "indexed": true,
          "internalType": "address",
          "name": "owner",
          "type": "address"
        },
        {
          "indexed": true,
          "internalType": "address",
          "name": "approved",
          "type": "address"
        },
        {
          "indexed": true,
          "internalType": "uint256",
          "name": "tokenId",
          "type": "uint256"
        }
      ],
      "name": "Approval",
      "type": "event"
    },
    {
      "anonymous": false,
      "inputs": [
        {
          "indexed": true,
          "internalType": "address",
          "name": "owner",
          "type": "address"
        },
        {
          "indexed": true,
          "internalType": "address",
          "name": "operator",
          "type": "address"
        },
        {
          "indexed": false,
          "internalType": "bool",
          "name": "approved",
          "type": "bool"
        }
      ],
      "name": "ApprovalForAll",
      "type": "event"
    },
    {
      "anonymous": false,
      "inputs": [
        {
          "indexed": true,
          "internalType": "address",
          "name": "beacon",
          "type": "address"
        }
      ],
      "name": "BeaconUpgraded",
      "type": "event"
    },
    {
      "anonymous": false,
      "inputs": [
        {
          "indexed": true,
          "internalType": "uint256",
          "name": "tokenId",
          "type": "uint256"
        },
        {
          "indexed": true,
          "internalType": "bytes32",
          "name": "contentHash",
          "type": "bytes32"
        },
        {
          "indexed": false,
          "internalType": "string",
          "name": "contentURI",
          "type": "string"
        }
      ],
      "name": "ContentUpdated",
      "type": "event"
    },
    {
      "anonymous": false,
      "inputs": [
        {
          "indexed": true,
          "internalType": "uint256",
          "name": "tokenId",
          "type": "uint256"
        },
        {
          "indexed": true,
          "internalType": "address",
          "name": "creator",
          "type": "address"
        }
      ],
      "name": "CreatorUpdated",
      "type": "event"
    },
    {
      "anonymous": false,
      "inputs": [
        {
          "indexed": true,
          "internalType": "bytes32",
          "name": "merkleRoot",
          "type": "bytes32"
        }
      ],
      "name": "MerkleRootUpdated",
      "type": "event"
    },
    {
      "anonymous": false,
      "inputs": [
        {
          "indexed": true,
          "internalType": "uint256",
          "name": "tokenId",
          "type": "uint256"
        },
        {
          "indexed": false,
          "internalType": "string",
          "name": "metadataURI",
          "type": "string"
        }
      ],
      "name": "MetadataUpdated",
      "type": "event"
    },
    {
      "anonymous": false,
      "inputs": [
        {
          "indexed": true,
          "internalType": "address",
          "name": "previousOwner",
          "type": "address"
        },
        {
          "indexed": true,
          "internalType": "address",
          "name": "newOwner",
          "type": "address"
        }
      ],
      "name": "OwnershipTransferred",
      "type": "event"
    },
    {
      "anonymous": false,
      "inputs": [
        {
          "indexed": true,
          "internalType": "uint256",
          "name": "tokenId",
          "type": "uint256"
        },
        {
          "indexed": true,
          "internalType": "address",
          "name": "payoutAddress",
          "type": "address"
        }
      ],
      "name": "RoyaltyUpdated",
      "type": "event"
    },
    {
      "anonymous": false,
      "inputs": [
        {
          "indexed": true,
          "internalType": "address",
          "name": "from",
          "type": "address"
        },
        {
          "indexed": true,
          "internalType": "address",
          "name": "to",
          "type": "address"
        },
        {
          "indexed": true,
          "internalType": "uint256",
          "name": "tokenId",
          "type": "uint256"
        }
      ],
      "name": "Transfer",
      "type": "event"
    },
    {
      "anonymous": false,
      "inputs": [
        {
          "indexed": true,
          "internalType": "address",
          "name": "implementation",
          "type": "address"
        }
      ],
      "name": "Upgraded",
      "type": "event"
    },
    {
      "inputs": [
        {
          "internalType": "address",
          "name": "to",
          "type": "address"
        },
        {
          "internalType": "uint256",
          "name": "tokenId",
          "type": "uint256"
        }
      ],
      "name": "approve",
      "outputs": [],
      "stateMutability": "nonpayable",
      "type": "function"
    },
    {
      "inputs": [
        {
          "internalType": "address",
          "name": "owner",
          "type": "address"
        }
      ],
      "name": "balanceOf",
      "outputs": [
        {
          "internalType": "uint256",
          "name": "",
          "type": "uint256"
        }
      ],
      "stateMutability": "view",
      "type": "function"
    },
    {
      "inputs": [
        {
          "internalType": "uint256",
          "name": "_tokenId",
          "type": "uint256"
        }
      ],
      "name": "burn",
      "outputs": [],
      "stateMutability": "nonpayable",
      "type": "function"
    },
    {
      "inputs": [
        {
          "internalType": "uint256",
          "name": "_tokenId",
          "type": "uint256"
        }
      ],
      "name": "creator",
      "outputs": [
        {
          "internalType": "address",
          "name": "",
          "type": "address"
        }
      ],
      "stateMutability": "view",
      "type": "function"
    },
    {
      "inputs": [
        {
          "internalType": "uint256",
          "name": "tokenId",
          "type": "uint256"
        }
      ],
      "name": "getApproved",
      "outputs": [
        {
          "internalType": "address",
          "name": "",
          "type": "address"
        }
      ],
      "stateMutability": "view",
      "type": "function"
    },
    {
      "inputs": [
        {
          "internalType": "string",
          "name": "_name",
          "type": "string"
        },
        {
          "internalType": "string",
          "name": "_symbol",
          "type": "string"
        }
      ],
      "name": "initialize",
      "outputs": [],
      "stateMutability": "nonpayable",
      "type": "function"
    },
    {
      "inputs": [
        {
          "internalType": "address",
          "name": "owner",
          "type": "address"
        },
        {
          "internalType": "address",
          "name": "operator",
          "type": "address"
        }
      ],
      "name": "isApprovedForAll",
      "outputs": [
        {
          "internalType": "bool",
          "name": "",
          "type": "bool"
        }
      ],
      "stateMutability": "view",
      "type": "function"
    },
    {
      "inputs": [],
      "name": "merkleRoot",
      "outputs": [
        {
          "internalType": "bytes32",
          "name": "",
          "type": "bytes32"
        }
      ],
      "stateMutability": "view",
      "type": "function"
    },
    {
      "inputs": [
        {
          "components": [
            {
              "internalType": "string",
              "name": "metadataURI",
              "type": "string"
            },
            {
              "internalType": "address",
              "name": "creator",
              "type": "address"
            },
            {
              "internalType": "address",
              "name": "royaltyPayout",
              "type": "address"
            },
            {
              "internalType": "uint16",
              "name": "royaltyBPS",
              "type": "uint16"
            }
          ],
          "internalType": "struct Catalog.TokenData",
          "name": "_data",
          "type": "tuple"
        },
        {
          "components": [
            {
              "internalType": "string",
              "name": "contentURI",
              "type": "string"
            },
            {
              "internalType": "bytes32",
              "name": "contentHash",
              "type": "bytes32"
            }
          ],
          "internalType": "struct Catalog.ContentData",
          "name": "_content",
          "type": "tuple"
        },
        {
          "internalType": "bytes32[]",
          "name": "_proof",
          "type": "bytes32[]"
        }
      ],
      "name": "mint",
      "outputs": [
        {
          "internalType": "uint256",
          "name": "",
          "type": "uint256"
        }
      ],
      "stateMutability": "nonpayable",
      "type": "function"
    },
    {
      "inputs": [],
      "name": "name",
      "outputs": [
        {
          "internalType": "string",
          "name": "",
          "type": "string"
        }
      ],
      "stateMutability": "view",
      "type": "function"
    },
    {
      "inputs": [],
      "name": "owner",
      "outputs": [
        {
          "internalType": "address",
          "name": "",
          "type": "address"
        }
      ],
      "stateMutability": "view",
      "type": "function"
    },
    {
      "inputs": [
        {
          "internalType": "uint256",
          "name": "tokenId",
          "type": "uint256"
        }
      ],
      "name": "ownerOf",
      "outputs": [
        {
          "internalType": "address",
          "name": "",
          "type": "address"
        }
      ],
      "stateMutability": "view",
      "type": "function"
    },
    {
      "inputs": [],
      "name": "proxiableUUID",
      "outputs": [
        {
          "internalType": "bytes32",
          "name": "",
          "type": "bytes32"
        }
      ],
      "stateMutability": "view",
      "type": "function"
    },
    {
      "inputs": [],
      "name": "renounceOwnership",
      "outputs": [],
      "stateMutability": "nonpayable",
      "type": "function"
    },
    {
      "inputs": [
        {
          "internalType": "uint256",
          "name": "_tokenId",
          "type": "uint256"
        },
        {
          "internalType": "uint256",
          "name": "_salePrice",
          "type": "uint256"
        }
      ],
      "name": "royaltyInfo",
      "outputs": [
        {
          "internalType": "address",
          "name": "receiver",
          "type": "address"
        },
        {
          "internalType": "uint256",
          "name": "royaltyAmount",
          "type": "uint256"
        }
      ],
      "stateMutability": "view",
      "type": "function"
    },
    {
      "inputs": [
        {
          "internalType": "uint256",
          "name": "_tokenId",
          "type": "uint256"
        }
      ],
      "name": "royaltyPayoutAddress",
      "outputs": [
        {
          "internalType": "address",
          "name": "",
          "type": "address"
        }
      ],
      "stateMutability": "view",
      "type": "function"
    },
    {
      "inputs": [
        {
          "internalType": "address",
          "name": "from",
          "type": "address"
        },
        {
          "internalType": "address",
          "name": "to",
          "type": "address"
        },
        {
          "internalType": "uint256",
          "name": "tokenId",
          "type": "uint256"
        }
      ],
      "name": "safeTransferFrom",
      "outputs": [],
      "stateMutability": "nonpayable",
      "type": "function"
    },
    {
      "inputs": [
        {
          "internalType": "address",
          "name": "from",
          "type": "address"
        },
        {
          "internalType": "address",
          "name": "to",
          "type": "address"
        },
        {
          "internalType": "uint256",
          "name": "tokenId",
          "type": "uint256"
        },
        {
          "internalType": "bytes",
          "name": "_data",
          "type": "bytes"
        }
      ],
      "name": "safeTransferFrom",
      "outputs": [],
      "stateMutability": "nonpayable",
      "type": "function"
    },
    {
      "inputs": [
        {
          "internalType": "address",
          "name": "operator",
          "type": "address"
        },
        {
          "internalType": "bool",
          "name": "approved",
          "type": "bool"
        }
      ],
      "name": "setApprovalForAll",
      "outputs": [],
      "stateMutability": "nonpayable",
      "type": "function"
    },
    {
      "inputs": [
        {
          "internalType": "bytes4",
          "name": "interfaceId",
          "type": "bytes4"
        }
      ],
      "name": "supportsInterface",
      "outputs": [
        {
          "internalType": "bool",
          "name": "",
          "type": "bool"
        }
      ],
      "stateMutability": "view",
      "type": "function"
    },
    {
      "inputs": [],
      "name": "symbol",
      "outputs": [
        {
          "internalType": "string",
          "name": "",
          "type": "string"
        }
      ],
      "stateMutability": "view",
      "type": "function"
    },
    {
      "inputs": [
        {
          "internalType": "uint256",
          "name": "_tokenId",
          "type": "uint256"
        }
      ],
      "name": "tokenURI",
      "outputs": [
        {
          "internalType": "string",
          "name": "",
          "type": "string"
        }
      ],
      "stateMutability": "view",
      "type": "function"
    },
    {
      "inputs": [
        {
          "internalType": "address",
          "name": "from",
          "type": "address"
        },
        {
          "internalType": "address",
          "name": "to",
          "type": "address"
        },
        {
          "internalType": "uint256",
          "name": "tokenId",
          "type": "uint256"
        }
      ],
      "name": "transferFrom",
      "outputs": [],
      "stateMutability": "nonpayable",
      "type": "function"
    },
    {
      "inputs": [
        {
          "internalType": "address",
          "name": "newOwner",
          "type": "address"
        }
      ],
      "name": "transferOwnership",
      "outputs": [],
      "stateMutability": "nonpayable",
      "type": "function"
    },
    {
      "inputs": [
        {
          "internalType": "uint256",
          "name": "_tokenId",
          "type": "uint256"
        },
        {
          "components": [
            {
              "internalType": "string",
              "name": "contentURI",
              "type": "string"
            },
            {
              "internalType": "bytes32",
              "name": "contentHash",
              "type": "bytes32"
            }
          ],
          "internalType": "struct Catalog.ContentData",
          "name": "_content",
          "type": "tuple"
        }
      ],
      "name": "updateContentURI",
      "outputs": [],
      "stateMutability": "nonpayable",
      "type": "function"
    },
    {
      "inputs": [
        {
          "internalType": "uint256",
          "name": "_tokenId",
          "type": "uint256"
        },
        {
          "internalType": "address",
          "name": "_creator",
          "type": "address"
        }
      ],
      "name": "updateCreator",
      "outputs": [],
      "stateMutability": "nonpayable",
      "type": "function"
    },
    {
      "inputs": [
        {
          "internalType": "uint256",
          "name": "_tokenId",
          "type": "uint256"
        },
        {
          "internalType": "string",
          "name": "_metadataURI",
          "type": "string"
        }
      ],
      "name": "updateMetadataURI",
      "outputs": [],
      "stateMutability": "nonpayable",
      "type": "function"
    },
    {
      "inputs": [
        {
          "internalType": "bytes32",
          "name": "_newRoot",
          "type": "bytes32"
        }
      ],
      "name": "updateRoot",
      "outputs": [],
      "stateMutability": "nonpayable",
      "type": "function"
    },
    {
      "inputs": [
        {
          "internalType": "uint256",
          "name": "_tokenId",
          "type": "uint256"
        },
        {
          "internalType": "address",
          "name": "_royaltyPayoutAddress",
          "type": "address"
        }
      ],
      "name": "updateRoyaltyInfo",
      "outputs": [],
      "stateMutability": "nonpayable",
      "type": "function"
    },
    {
      "inputs": [
        {
          "internalType": "address",
          "name": "newImplementation",
          "type": "address"
        }
      ],
      "name": "upgradeTo",
      "outputs": [],
      "stateMutability": "nonpayable",
      "type": "function"
    },
    {
      "inputs": [
        {
          "internalType": "address",
          "name": "newImplementation",
          "type": "address"
        },
        {
          "internalType": "bytes",
          "name": "data",
          "type": "bytes"
        }
      ],
      "name": "upgradeToAndCall",
      "outputs": [],
      "stateMutability": "payable",
      "type": "function"
    }
  ],
  "transactionHash": "0x3daa8cba349892728b472f2e4b9fe11b21a3276f1ea638285b8b7e87ba4b17b4",
  "args": [],
  "numDeployments": 1,
  "solcInputHash": "1804cc9a79f49657b93c2823a9c5f7be",
  "bytecode": "0x60a06040523060805234801561001457600080fd5b506080516132ae61004c60003960008181610a5c01528181610ae101528181610d7c01528181610e010152610eeb01526132ae6000f3fe6080604052600436106101d85760003560e01c80636352211e11610102578063a22cb46511610095578063f2fde38b11610064578063f2fde38b146105a5578063f8361bab146105c5578063fb339e4c146105e5578063fbd8d2831461060557600080fd5b8063a22cb465146104fc578063b88d4fde1461051c578063c87b56dd1461053c578063e985e9c51461055c57600080fd5b80637f9c8413116100d15780637f9c8413146104895780638da5cb5b146104a95780638fe86b3f146104c757806395d89b41146104e757600080fd5b80636352211e14610414578063669d311c1461043457806370a0823114610454578063715018a61461047457600080fd5b80632eb4a7ab1161017a5780634cd88b76116101495780634cd88b76146103925780634f1ef286146103b2578063510b5158146103c557806352d1902d146103ff57600080fd5b80632eb4a7ab1461030d5780633659cfe61461033257806342842e0e1461035257806342966c681461037257600080fd5b8063095ea7b3116101b6578063095ea7b31461026c57806321ff99701461028e57806323b872dd146102ae5780632a55205a146102ce57600080fd5b806301ffc9a7146101dd57806306fdde0314610212578063081812fc14610234575b600080fd5b3480156101e957600080fd5b506101fd6101f836600461293b565b61063f565b60405190151581526020015b60405180910390f35b34801561021e57600080fd5b50610227610683565b60405161020991906129b0565b34801561024057600080fd5b5061025461024f3660046129c3565b610715565b6040516001600160a01b039091168152602001610209565b34801561027857600080fd5b5061028c6102873660046129f1565b6107af565b005b34801561029a57600080fd5b5061028c6102a93660046129c3565b6108e0565b3480156102ba57600080fd5b5061028c6102c9366004612a1d565b61096b565b3480156102da57600080fd5b506102ee6102e9366004612a5e565b6109f2565b604080516001600160a01b039093168352602083019190915201610209565b34801561031957600080fd5b5061032461012f5481565b604051908152602001610209565b34801561033e57600080fd5b5061028c61034d366004612a80565b610a52565b34801561035e57600080fd5b5061028c61036d366004612a1d565b610bcd565b34801561037e57600080fd5b5061028c61038d3660046129c3565b610be8565b34801561039e57600080fd5b5061028c6103ad366004612b40565b610c80565b61028c6103c0366004612ba4565b610d72565b3480156103d157600080fd5b506102546103e03660046129c3565b600090815261012d60205260409020600101546001600160a01b031690565b34801561040b57600080fd5b50610324610ede565b34801561042057600080fd5b5061025461042f3660046129c3565b610fa3565b34801561044057600080fd5b5061028c61044f366004612bea565b61102e565b34801561046057600080fd5b5061032461046f366004612a80565b6110f0565b34801561048057600080fd5b5061028c61118a565b34801561049557600080fd5b5061028c6104a4366004612c32565b6111f0565b3480156104b557600080fd5b506097546001600160a01b0316610254565b3480156104d357600080fd5b5061028c6104e2366004612c6f565b611295565b3480156104f357600080fd5b50610227611357565b34801561050857600080fd5b5061028c610517366004612ca0565b611366565b34801561052857600080fd5b5061028c610537366004612cd3565b611371565b34801561054857600080fd5b506102276105573660046129c3565b6113ff565b34801561056857600080fd5b506101fd610577366004612d3f565b6001600160a01b039182166000908152606a6020908152604080832093909416825291909152205460ff1690565b3480156105b157600080fd5b5061028c6105c0366004612a80565b61152b565b3480156105d157600080fd5b5061028c6105e0366004612bea565b61160a565b3480156105f157600080fd5b50610324610600366004612d6d565b6116cc565b34801561061157600080fd5b506102546106203660046129c3565b600090815261012d60205260409020600201546001600160a01b031690565b60007f2a55205a000000000000000000000000000000000000000000000000000000006001600160e01b03198316148061067d575061067d826118a3565b92915050565b60606065805461069290612e2e565b80601f01602080910402602001604051908101604052809291908181526020018280546106be90612e2e565b801561070b5780601f106106e05761010080835404028352916020019161070b565b820191906000526020600020905b8154815290600101906020018083116106ee57829003601f168201915b5050505050905090565b6000818152606760205260408120546001600160a01b03166107935760405162461bcd60e51b815260206004820152602c60248201527f4552433732313a20617070726f76656420717565727920666f72206e6f6e657860448201526b34b9ba32b73a103a37b5b2b760a11b60648201526084015b60405180910390fd5b506000908152606960205260409020546001600160a01b031690565b60006107ba82610fa3565b9050806001600160a01b0316836001600160a01b0316036108435760405162461bcd60e51b815260206004820152602160248201527f4552433732313a20617070726f76616c20746f2063757272656e74206f776e6560448201527f7200000000000000000000000000000000000000000000000000000000000000606482015260840161078a565b336001600160a01b038216148061085f575061085f8133610577565b6108d15760405162461bcd60e51b815260206004820152603860248201527f4552433732313a20617070726f76652063616c6c6572206973206e6f74206f7760448201527f6e6572206e6f7220617070726f76656420666f7220616c6c0000000000000000606482015260840161078a565b6108db838361193e565b505050565b6097546001600160a01b0316331461093a5760405162461bcd60e51b815260206004820181905260248201527f4f776e61626c653a2063616c6c6572206973206e6f7420746865206f776e6572604482015260640161078a565b60405181907f90004c04698bc3322499a575ed3752dd4abf33e0a7294c06a787a0fe01bea94190600090a261012f55565b61097533826119ac565b6109e75760405162461bcd60e51b815260206004820152603160248201527f4552433732313a207472616e736665722063616c6c6572206973206e6f74206f60448201527f776e6572206e6f7220617070726f766564000000000000000000000000000000606482015260840161078a565b6108db838383611a9f565b600082815261012d602052604081206002015481906001600160a01b0381169061271090610a3c9074010000000000000000000000000000000000000000900461ffff1686612e78565b610a469190612e97565b915091505b9250929050565b6001600160a01b037f0000000000000000000000000000000000000000000000000000000000000000163003610adf5760405162461bcd60e51b815260206004820152602c60248201527f46756e6374696f6e206d7573742062652063616c6c6564207468726f7567682060448201526b19195b1959d85d1958d85b1b60a21b606482015260840161078a565b7f00000000000000000000000000000000000000000000000000000000000000006001600160a01b0316610b3a7f360894a13ba1a3210667c828492db98dca3e2076cc3735a920a3ca505d382bbc546001600160a01b031690565b6001600160a01b031614610ba55760405162461bcd60e51b815260206004820152602c60248201527f46756e6374696f6e206d7573742062652063616c6c6564207468726f7567682060448201526b6163746976652070726f787960a01b606482015260840161078a565b610bae81611c6c565b60408051600080825260208201909252610bca91839190611cc6565b50565b6108db83838360405180602001604052806000815250611371565b600081815261012d60205260409020600101546001600160a01b031633148015610c2b5750610c1681610fa3565b6001600160a01b0316336001600160a01b0316145b610c775760405162461bcd60e51b815260206004820152600c60248201527f4f6e6c792063726561746f720000000000000000000000000000000000000000604482015260640161078a565b610bca81611e66565b600054610100900460ff16610c9b5760005460ff1615610c9f565b303b155b610d115760405162461bcd60e51b815260206004820152602e60248201527f496e697469616c697a61626c653a20636f6e747261637420697320616c72656160448201527f647920696e697469616c697a6564000000000000000000000000000000000000606482015260840161078a565b600054610100900460ff16158015610d33576000805461ffff19166101011790555b610d3d8383611f01565b610d45611f76565b610d4d611fe9565b610d5c61012e80546001019055565b80156108db576000805461ff0019169055505050565b6001600160a01b037f0000000000000000000000000000000000000000000000000000000000000000163003610dff5760405162461bcd60e51b815260206004820152602c60248201527f46756e6374696f6e206d7573742062652063616c6c6564207468726f7567682060448201526b19195b1959d85d1958d85b1b60a21b606482015260840161078a565b7f00000000000000000000000000000000000000000000000000000000000000006001600160a01b0316610e5a7f360894a13ba1a3210667c828492db98dca3e2076cc3735a920a3ca505d382bbc546001600160a01b031690565b6001600160a01b031614610ec55760405162461bcd60e51b815260206004820152602c60248201527f46756e6374696f6e206d7573742062652063616c6c6564207468726f7567682060448201526b6163746976652070726f787960a01b606482015260840161078a565b610ece82611c6c565b610eda82826001611cc6565b5050565b6000306001600160a01b037f00000000000000000000000000000000000000000000000000000000000000001614610f7e5760405162461bcd60e51b815260206004820152603860248201527f555550535570677261646561626c653a206d757374206e6f742062652063616c60448201527f6c6564207468726f7567682064656c656761746563616c6c0000000000000000606482015260840161078a565b507f360894a13ba1a3210667c828492db98dca3e2076cc3735a920a3ca505d382bbc90565b6000818152606760205260408120546001600160a01b03168061067d5760405162461bcd60e51b815260206004820152602960248201527f4552433732313a206f776e657220717565727920666f72206e6f6e657869737460448201527f656e7420746f6b656e0000000000000000000000000000000000000000000000606482015260840161078a565b6097546001600160a01b031633146110885760405162461bcd60e51b815260206004820181905260248201527f4f776e61626c653a2063616c6c6572206973206e6f7420746865206f776e6572604482015260640161078a565b6040516001600160a01b0382169083907f13ceafb5e8ec39102bd452913a5c00a05f3b060d636d3a567c1c80e8b4321fe790600090a3600091825261012d602052604090912060020180546001600160a01b0319166001600160a01b03909216919091179055565b60006001600160a01b03821661116e5760405162461bcd60e51b815260206004820152602a60248201527f4552433732313a2062616c616e636520717565727920666f7220746865207a6560448201527f726f206164647265737300000000000000000000000000000000000000000000606482015260840161078a565b506001600160a01b031660009081526068602052604090205490565b6097546001600160a01b031633146111e45760405162461bcd60e51b815260206004820181905260248201527f4f776e61626c653a2063616c6c6572206973206e6f7420746865206f776e6572604482015260640161078a565b6111ee6000612054565b565b6097546001600160a01b0316331461124a5760405162461bcd60e51b815260206004820181905260248201527f4f776e61626c653a2063616c6c6572206973206e6f7420746865206f776e6572604482015260640161078a565b6020810135827f0d555bd4628e8349ca5d17ca332d615c92b84cd24ab943921e8abcf6ae22c98b61127b8480612eb9565b604051611289929190612f00565b60405180910390a35050565b600082815261012d60205260409020600101546001600160a01b031633146112ff5760405162461bcd60e51b815260206004820152600860248201527f2163726561746f72000000000000000000000000000000000000000000000000604482015260640161078a565b817f459157ba24c7ab9878b165ef465fa6ae2ab42bcd8445f576be378768b0c473098260405161132f91906129b0565b60405180910390a2600082815261012d6020908152604090912082516108db9284019061288c565b60606066805461069290612e2e565b610eda3383836120a6565b61137b33836119ac565b6113ed5760405162461bcd60e51b815260206004820152603160248201527f4552433732313a207472616e736665722063616c6c6572206973206e6f74206f60448201527f776e6572206e6f7220617070726f766564000000000000000000000000000000606482015260840161078a565b6113f984848484612174565b50505050565b6000818152606760205260409020546060906001600160a01b031661148c5760405162461bcd60e51b815260206004820152602f60248201527f4552433732314d657461646174613a2055524920717565727920666f72206e6f60448201527f6e6578697374656e7420746f6b656e0000000000000000000000000000000000606482015260840161078a565b600082815261012d6020526040902080546114a690612e2e565b80601f01602080910402602001604051908101604052809291908181526020018280546114d290612e2e565b801561151f5780601f106114f45761010080835404028352916020019161151f565b820191906000526020600020905b81548152906001019060200180831161150257829003601f168201915b50505050509050919050565b6097546001600160a01b031633146115855760405162461bcd60e51b815260206004820181905260248201527f4f776e61626c653a2063616c6c6572206973206e6f7420746865206f776e6572604482015260640161078a565b6001600160a01b0381166116015760405162461bcd60e51b815260206004820152602660248201527f4f776e61626c653a206e6577206f776e657220697320746865207a65726f206160448201527f6464726573730000000000000000000000000000000000000000000000000000606482015260840161078a565b610bca81612054565b6097546001600160a01b031633146116645760405162461bcd60e51b815260206004820181905260248201527f4f776e61626c653a2063616c6c6572206973206e6f7420746865206f776e6572604482015260640161078a565b6040516001600160a01b0382169083907fc0186d9ba7364ebd80a7010121367f481af81e1028bf368b2172fedf2c6fc7de90600090a3600091825261012d602052604090912060010180546001600160a01b0319166001600160a01b03909216919091179055565b600061175d8383808060200260200160405190810160405280939291908181526020018383602002808284376000920191909152505061012f54915061171a90506040890160208a01612a80565b604051602001611742919060609190911b6bffffffffffffffffffffffff1916815260140190565b604051602081830303815290604052805190602001206121fd565b6117a95760405162461bcd60e51b815260206004820152600c60248201527f2176616c69642070726f6f660000000000000000000000000000000000000000604482015260640161078a565b6127106117bc6080870160608801612f3f565b61ffff161061180d5760405162461bcd60e51b815260206004820152601060248201527f726f79616c747920213c20313030303000000000000000000000000000000000604482015260640161078a565b600061181961012e5490565b90506118253382612215565b600081815261012d6020526040902086906118408282612fc4565b50506020850135817f0d555bd4628e8349ca5d17ca332d615c92b84cd24ab943921e8abcf6ae22c98b6118738880612eb9565b604051611881929190612f00565b60405180910390a361189861012e80546001019055565b90505b949350505050565b60006001600160e01b031982167f80ac58cd00000000000000000000000000000000000000000000000000000000148061190657506001600160e01b031982167f5b5e139f00000000000000000000000000000000000000000000000000000000145b8061067d57507f01ffc9a7000000000000000000000000000000000000000000000000000000006001600160e01b031983161461067d565b600081815260696020526040902080546001600160a01b0319166001600160a01b038416908117909155819061197382610fa3565b6001600160a01b03167f8c5be1e5ebec7d5bd14f71427d1e84f3dd0314c0f7b2291e5b200ac8c7c3b92560405160405180910390a45050565b6000818152606760205260408120546001600160a01b0316611a255760405162461bcd60e51b815260206004820152602c60248201527f4552433732313a206f70657261746f7220717565727920666f72206e6f6e657860448201526b34b9ba32b73a103a37b5b2b760a11b606482015260840161078a565b6000611a3083610fa3565b9050806001600160a01b0316846001600160a01b03161480611a6b5750836001600160a01b0316611a6084610715565b6001600160a01b0316145b8061189b57506001600160a01b038082166000908152606a602090815260408083209388168352929052205460ff1661189b565b826001600160a01b0316611ab282610fa3565b6001600160a01b031614611b2e5760405162461bcd60e51b815260206004820152602560248201527f4552433732313a207472616e736665722066726f6d20696e636f72726563742060448201527f6f776e6572000000000000000000000000000000000000000000000000000000606482015260840161078a565b6001600160a01b038216611ba95760405162461bcd60e51b8152602060048201526024808201527f4552433732313a207472616e7366657220746f20746865207a65726f2061646460448201527f7265737300000000000000000000000000000000000000000000000000000000606482015260840161078a565b611bb460008261193e565b6001600160a01b0383166000908152606860205260408120805460019290611bdd908490613165565b90915550506001600160a01b0382166000908152606860205260408120805460019290611c0b90849061317c565b909155505060008181526067602052604080822080546001600160a01b0319166001600160a01b0386811691821790925591518493918716917fddf252ad1be2c89b69c2b068fc378daa952ba7f163c4a11628f55a4df523b3ef91a4505050565b6097546001600160a01b03163314610bca5760405162461bcd60e51b815260206004820181905260248201527f4f776e61626c653a2063616c6c6572206973206e6f7420746865206f776e6572604482015260640161078a565b7f4910fdfa16fed3260ed0e7147f7cc6da11a60208b5b9406d12a635614ffd91435460ff1615611cf9576108db83612357565b826001600160a01b03166352d1902d6040518163ffffffff1660e01b8152600401602060405180830381865afa925050508015611d53575060408051601f3d908101601f19168201909252611d5091810190613194565b60015b611dc55760405162461bcd60e51b815260206004820152602e60248201527f45524331393637557067726164653a206e657720696d706c656d656e7461746960448201527f6f6e206973206e6f742055555053000000000000000000000000000000000000606482015260840161078a565b7f360894a13ba1a3210667c828492db98dca3e2076cc3735a920a3ca505d382bbc8114611e5a5760405162461bcd60e51b815260206004820152602960248201527f45524331393637557067726164653a20756e737570706f727465642070726f7860448201527f6961626c65555549440000000000000000000000000000000000000000000000606482015260840161078a565b506108db838383612415565b6000611e7182610fa3565b9050611e7e60008361193e565b6001600160a01b0381166000908152606860205260408120805460019290611ea7908490613165565b909155505060008281526067602052604080822080546001600160a01b0319169055518391906001600160a01b038416907fddf252ad1be2c89b69c2b068fc378daa952ba7f163c4a11628f55a4df523b3ef908390a45050565b600054610100900460ff16611f6c5760405162461bcd60e51b815260206004820152602b60248201527f496e697469616c697a61626c653a20636f6e7472616374206973206e6f74206960448201526a6e697469616c697a696e6760a81b606482015260840161078a565b610eda828261243a565b600054610100900460ff16611fe15760405162461bcd60e51b815260206004820152602b60248201527f496e697469616c697a61626c653a20636f6e7472616374206973206e6f74206960448201526a6e697469616c697a696e6760a81b606482015260840161078a565b6111ee6124cc565b600054610100900460ff166111ee5760405162461bcd60e51b815260206004820152602b60248201527f496e697469616c697a61626c653a20636f6e7472616374206973206e6f74206960448201526a6e697469616c697a696e6760a81b606482015260840161078a565b609780546001600160a01b038381166001600160a01b0319831681179093556040519116919082907f8be0079c531659141344cd1fd0a4f28419497f9722a3daafe3b4186f6b6457e090600090a35050565b816001600160a01b0316836001600160a01b0316036121075760405162461bcd60e51b815260206004820152601960248201527f4552433732313a20617070726f766520746f2063616c6c657200000000000000604482015260640161078a565b6001600160a01b038381166000818152606a6020908152604080832094871680845294825291829020805460ff191686151590811790915591519182527f17307eab39ab6107e8899845ad3d59bd9653f200f220920489ca2b5937696c31910160405180910390a3505050565b61217f848484611a9f565b61218b84848484612540565b6113f95760405162461bcd60e51b815260206004820152603260248201527f4552433732313a207472616e7366657220746f206e6f6e20455243373231526560448201527f63656976657220696d706c656d656e7465720000000000000000000000000000606482015260840161078a565b60008261220a8584612694565b1490505b9392505050565b6001600160a01b03821661226b5760405162461bcd60e51b815260206004820181905260248201527f4552433732313a206d696e7420746f20746865207a65726f2061646472657373604482015260640161078a565b6000818152606760205260409020546001600160a01b0316156122d05760405162461bcd60e51b815260206004820152601c60248201527f4552433732313a20746f6b656e20616c7265616479206d696e74656400000000604482015260640161078a565b6001600160a01b03821660009081526068602052604081208054600192906122f990849061317c565b909155505060008181526067602052604080822080546001600160a01b0319166001600160a01b03861690811790915590518392907fddf252ad1be2c89b69c2b068fc378daa952ba7f163c4a11628f55a4df523b3ef908290a45050565b6001600160a01b0381163b6123d45760405162461bcd60e51b815260206004820152602d60248201527f455243313936373a206e657720696d706c656d656e746174696f6e206973206e60448201527f6f74206120636f6e747261637400000000000000000000000000000000000000606482015260840161078a565b7f360894a13ba1a3210667c828492db98dca3e2076cc3735a920a3ca505d382bbc80546001600160a01b0319166001600160a01b0392909216919091179055565b61241e83612708565b60008251118061242b5750805b156108db576113f98383612748565b600054610100900460ff166124a55760405162461bcd60e51b815260206004820152602b60248201527f496e697469616c697a61626c653a20636f6e7472616374206973206e6f74206960448201526a6e697469616c697a696e6760a81b606482015260840161078a565b81516124b890606590602085019061288c565b5080516108db90606690602084019061288c565b600054610100900460ff166125375760405162461bcd60e51b815260206004820152602b60248201527f496e697469616c697a61626c653a20636f6e7472616374206973206e6f74206960448201526a6e697469616c697a696e6760a81b606482015260840161078a565b6111ee33612054565b60006001600160a01b0384163b1561268c57604051630a85bd0160e11b81526001600160a01b0385169063150b7a02906125849033908990889088906004016131ad565b6020604051808303816000875af19250505080156125bf575060408051601f3d908101601f191682019092526125bc918101906131e9565b60015b612672573d8080156125ed576040519150601f19603f3d011682016040523d82523d6000602084013e6125f2565b606091505b50805160000361266a5760405162461bcd60e51b815260206004820152603260248201527f4552433732313a207472616e7366657220746f206e6f6e20455243373231526560448201527f63656976657220696d706c656d656e7465720000000000000000000000000000606482015260840161078a565b805181602001fd5b6001600160e01b031916630a85bd0160e11b14905061189b565b50600161189b565b600081815b84518110156127005760008582815181106126b6576126b6613206565b602002602001015190508083116126dc57600083815260208290526040902092506126ed565b600081815260208490526040902092505b50806126f88161321c565b915050612699565b509392505050565b61271181612357565b6040516001600160a01b038216907fbc7cd75a20ee27fd9adebab32041f755214dbc6bffa90cc0225b39da2e5c2d3b90600090a250565b60606001600160a01b0383163b6127c75760405162461bcd60e51b815260206004820152602660248201527f416464726573733a2064656c65676174652063616c6c20746f206e6f6e2d636f60448201527f6e74726163740000000000000000000000000000000000000000000000000000606482015260840161078a565b600080846001600160a01b0316846040516127e29190613235565b600060405180830381855af49150503d806000811461281d576040519150601f19603f3d011682016040523d82523d6000602084013e612822565b606091505b509150915061284a828260405180606001604052806027815260200161325260279139612853565b95945050505050565b6060831561286257508161220e565b8251156128725782518084602001fd5b8160405162461bcd60e51b815260040161078a91906129b0565b82805461289890612e2e565b90600052602060002090601f0160209004810192826128ba5760008555612900565b82601f106128d357805160ff1916838001178555612900565b82800160010185558215612900579182015b828111156129005782518255916020019190600101906128e5565b5061290c929150612910565b5090565b5b8082111561290c5760008155600101612911565b6001600160e01b031981168114610bca57600080fd5b60006020828403121561294d57600080fd5b813561220e81612925565b60005b8381101561297357818101518382015260200161295b565b838111156113f95750506000910152565b6000815180845261299c816020860160208601612958565b601f01601f19169290920160200192915050565b60208152600061220e6020830184612984565b6000602082840312156129d557600080fd5b5035919050565b6001600160a01b0381168114610bca57600080fd5b60008060408385031215612a0457600080fd5b8235612a0f816129dc565b946020939093013593505050565b600080600060608486031215612a3257600080fd5b8335612a3d816129dc565b92506020840135612a4d816129dc565b929592945050506040919091013590565b60008060408385031215612a7157600080fd5b50508035926020909101359150565b600060208284031215612a9257600080fd5b813561220e816129dc565b634e487b7160e01b600052604160045260246000fd5b600082601f830112612ac457600080fd5b813567ffffffffffffffff80821115612adf57612adf612a9d565b604051601f8301601f19908116603f01168101908282118183101715612b0757612b07612a9d565b81604052838152866020858801011115612b2057600080fd5b836020870160208301376000602085830101528094505050505092915050565b60008060408385031215612b5357600080fd5b823567ffffffffffffffff80821115612b6b57600080fd5b612b7786838701612ab3565b93506020850135915080821115612b8d57600080fd5b50612b9a85828601612ab3565b9150509250929050565b60008060408385031215612bb757600080fd5b8235612bc2816129dc565b9150602083013567ffffffffffffffff811115612bde57600080fd5b612b9a85828601612ab3565b60008060408385031215612bfd57600080fd5b823591506020830135612c0f816129dc565b809150509250929050565b600060408284031215612c2c57600080fd5b50919050565b60008060408385031215612c4557600080fd5b82359150602083013567ffffffffffffffff811115612c6357600080fd5b612b9a85828601612c1a565b60008060408385031215612c8257600080fd5b82359150602083013567ffffffffffffffff811115612bde57600080fd5b60008060408385031215612cb357600080fd5b8235612cbe816129dc565b915060208301358015158114612c0f57600080fd5b60008060008060808587031215612ce957600080fd5b8435612cf4816129dc565b93506020850135612d04816129dc565b925060408501359150606085013567ffffffffffffffff811115612d2757600080fd5b612d3387828801612ab3565b91505092959194509250565b60008060408385031215612d5257600080fd5b8235612d5d816129dc565b91506020830135612c0f816129dc565b60008060008060608587031215612d8357600080fd5b843567ffffffffffffffff80821115612d9b57600080fd5b9086019060808289031215612daf57600080fd5b90945060208601359080821115612dc557600080fd5b612dd188838901612c1a565b94506040870135915080821115612de757600080fd5b818701915087601f830112612dfb57600080fd5b813581811115612e0a57600080fd5b8860208260051b8501011115612e1f57600080fd5b95989497505060200194505050565b600181811c90821680612e4257607f821691505b602082108103612c2c57634e487b7160e01b600052602260045260246000fd5b634e487b7160e01b600052601160045260246000fd5b6000816000190483118215151615612e9257612e92612e62565b500290565b600082612eb457634e487b7160e01b600052601260045260246000fd5b500490565b6000808335601e19843603018112612ed057600080fd5b83018035915067ffffffffffffffff821115612eeb57600080fd5b602001915036819003821315610a4b57600080fd5b60208152816020820152818360408301376000818301604090810191909152601f909201601f19160101919050565b61ffff81168114610bca57600080fd5b600060208284031215612f5157600080fd5b813561220e81612f2f565b601f8211156108db57600081815260208120601f850160051c81016020861015612f835750805b601f850160051c820191505b81811015612fa257828155600101612f8f565b505050505050565b6000813561067d816129dc565b6000813561067d81612f2f565b8135601e19833603018112612fd857600080fd5b8201803567ffffffffffffffff811115612ff157600080fd5b6020813603818401131561300457600080fd5b613018826130128654612e2e565b86612f5c565b6000601f83116001811461304e576000841561303657508482018301355b600019600386901b1c1916600185901b1786556130ab565b600086815260209020601f19851690835b8281101561308057878501860135825593850193600190910190850161305f565b508582101561309f5760001960f88760031b161c198585890101351681555b505060018460011b0186555b50506130dc6130bb828701612faa565b600186016001600160a01b0382166001600160a01b03198254161781555050565b5050506002810161310f6130f260408501612faa565b82546001600160a01b0319166001600160a01b0391909116178255565b6108db61311e60608501612fb7565b82547fffffffffffffffffffff0000ffffffffffffffffffffffffffffffffffffffff1660a09190911b75ffff000000000000000000000000000000000000000016178255565b60008282101561317757613177612e62565b500390565b6000821982111561318f5761318f612e62565b500190565b6000602082840312156131a657600080fd5b5051919050565b60006001600160a01b038087168352808616602084015250836040830152608060608301526131df6080830184612984565b9695505050505050565b6000602082840312156131fb57600080fd5b815161220e81612925565b634e487b7160e01b600052603260045260246000fd5b60006001820161322e5761322e612e62565b5060010190565b60008251613247818460208701612958565b919091019291505056fe416464726573733a206c6f772d6c6576656c2064656c65676174652063616c6c206661696c6564a2646970667358221220583fe15226056264525f4d371f74ec8431d4974c478a12a4251857e733ddb7b764736f6c634300080d0033",
  "devdoc": {
    "author": ":   COMPUTER DATA (brett henderson) of Catalog Records Inc.",
    "details": ":   Upgradeable ERC721 Contract, inherits functionality from ERC721Upgradeable.  This contract conforms to the EIP-2981 NFT Royalty Standard. ---------------------------------------------------------------------------------------------------------------------    ",
    "kind": "dev",
    "methods": {
      "approve(address,uint256)": {
        "details": "See {IERC721-approve}."
      },
      "balanceOf(address)": {
        "details": "See {IERC721-balanceOf}."
      },
      "burn(uint256)": {
        "details": "burns given tokenId, restricted to creator (when owned)",
        "params": {
          "_tokenId": "identifier of token to burn"
        }
      },
      "creator(uint256)": {
        "details": "basic public getter method for creator",
        "params": {
          "_tokenId": "identifier of token to get creator for"
        },
        "returns": {
          "_0": "creator address of given tokenId"
        }
      },
      "getApproved(uint256)": {
        "details": "See {IERC721-getApproved}."
      },
      "initialize(string,string)": {
        "details": "contains constructor logic, initializes proxied contract. must be called upon deployment.",
        "params": {
          "_name": "name of the contract",
          "_symbol": "symbol of the contract"
        }
      },
      "isApprovedForAll(address,address)": {
        "details": "See {IERC721-isApprovedForAll}."
      },
      "mint((string,address,address,uint16),(string,bytes32),bytes32[])": {
        "details": "mints a new token to msg.sender with a valid input creator address proof. Emits a ContentUpdated event to track contentURI/contentHash updates.",
        "params": {
          "_content": "input ContentData struct, containing contentURI, contentHash.",
          "_data": "input TokenData struct, containing metadataURI, creator, royaltyPayout, royaltyBPS",
          "_proof": "merkle proof for the artist address."
        },
        "returns": {
          "_0": "tokenId of the minted token "
        }
      },
      "name()": {
        "details": "See {IERC721Metadata-name}."
      },
      "owner()": {
        "details": "Returns the address of the current owner."
      },
      "ownerOf(uint256)": {
        "details": "See {IERC721-ownerOf}."
      },
      "proxiableUUID()": {
        "details": "Implementation of the ERC1822 {proxiableUUID} function. This returns the storage slot used by the implementation. It is used to validate that the this implementation remains valid after an upgrade. IMPORTANT: A proxy pointing at a proxiable contract should not be considered proxiable itself, because this risks bricking a proxy that upgrades to it, by delegating to itself until out of gas. Thus it is critical that this function revert if invoked through a proxy. This is guaranteed by the `notDelegated` modifier."
      },
      "renounceOwnership()": {
        "details": "Leaves the contract without owner. It will not be possible to call `onlyOwner` functions anymore. Can only be called by the current owner. NOTE: Renouncing ownership will leave the contract without an owner, thereby removing any functionality that is only available to the owner."
      },
      "royaltyInfo(uint256,uint256)": {
        "details": "conforms to EIP-2981",
        "params": {
          "_salePrice": "final sale price of token used to calculate royalty payout",
          "_tokenId": "token id corresponding to the token of which to get royalty information"
        }
      },
      "royaltyPayoutAddress(uint256)": {
        "details": "basic public getter method for royalty payout address ",
        "params": {
          "_tokenId": "identifier of token to get royalty payout address for"
        },
        "returns": {
          "_0": "royalty payout address of given tokenId"
        }
      },
      "safeTransferFrom(address,address,uint256)": {
        "details": "See {IERC721-safeTransferFrom}."
      },
      "safeTransferFrom(address,address,uint256,bytes)": {
        "details": "See {IERC721-safeTransferFrom}."
      },
      "setApprovalForAll(address,bool)": {
        "details": "See {IERC721-setApprovalForAll}."
      },
      "supportsInterface(bytes4)": {
        "details": "Returns true if this contract implements the interface defined by `interfaceId`. See the corresponding https://eips.ethereum.org/EIPS/eip-165#how-interfaces-are-identified[EIP section] to learn more about how these ids are created. This function call must use less than 30 000 gas.",
        "params": {
          "interfaceId": "id of interface to check"
        }
      },
      "symbol()": {
        "details": "See {IERC721Metadata-symbol}."
      },
      "tokenURI(uint256)": {
        "details": "override function, returns metadataURI of token stored in tokenData",
        "params": {
          "_tokenId": "token id corresponding to the token of which to get metadata from"
        },
        "returns": {
          "_0": "string containing metadata URI (example: 'ipfs:///...')"
        }
      },
      "transferFrom(address,address,uint256)": {
        "details": "See {IERC721-transferFrom}."
      },
      "transferOwnership(address)": {
        "details": "Transfers ownership of the contract to a new account (`newOwner`). Can only be called by the current owner."
      },
      "updateContentURI(uint256,(string,bytes32))": {
        "details": "access controlled function, restricted to owner/admin. ",
        "params": {
          "_content": "struct containing new/updated contentURI and hash.",
          "_tokenId": "token id corresponding to the token to update"
        }
      },
      "updateCreator(uint256,address)": {
        "details": "access controlled function, restricted to owner/admin. used in case of compromised artist wallet.",
        "params": {
          "_creator": "address new creator of the token",
          "_tokenId": "token id corresponding to the token to update"
        }
      },
      "updateMetadataURI(uint256,string)": {
        "details": "access controlled, restricted to creator of token",
        "params": {
          "_metadataURI": "string containing new/updated metadata (e.g IPFS URI pointing to metadata.json)",
          "_tokenId": "token id corresponding to the token to update"
        }
      },
      "updateRoot(bytes32)": {
        "details": "access controlled function, restricted to owner/admin.",
        "params": {
          "_newRoot": "containing the new root hash, generated off-chain"
        }
      },
      "updateRoyaltyInfo(uint256,address)": {
        "details": "access controlled to owner only. this function allows for emergency royalty control (i.e compromised wallet)",
        "params": {
          "_royaltyPayoutAddress": "address of new royalty payout address",
          "_tokenId": "token id corresponding to the token of which to update royalty payout"
        }
      },
      "upgradeTo(address)": {
        "details": "Upgrade the implementation of the proxy to `newImplementation`. Calls {_authorizeUpgrade}. Emits an {Upgraded} event."
      },
      "upgradeToAndCall(address,bytes)": {
        "details": "Upgrade the implementation of the proxy to `newImplementation`, and subsequently execute the function call encoded in `data`. Calls {_authorizeUpgrade}. Emits an {Upgraded} event."
      }
    },
    "title": ":   Catalog",
    "version": 1
  },
  "userdoc": {
    "kind": "user",
    "methods": {
      "burn(uint256)": {
        "notice": "Burns a token, given input tokenId"
      },
      "creator(uint256)": {
        "notice": "gets the creator address of a given tokenId"
      },
      "initialize(string,string)": {
        "notice": "Initializes contract with default values"
      },
      "merkleRoot()": {
        "notice": "Merkle Root"
      },
      "mint((string,address,address,uint16),(string,bytes32),bytes32[])": {
        "notice": "mints a new token"
      },
      "royaltyInfo(uint256,uint256)": {
        "notice": "override function gets royalty information for a token (EIP-2981)"
      },
      "royaltyPayoutAddress(uint256)": {
        "notice": "gets the address for the royalty payout of a token/record"
      },
      "supportsInterface(bytes4)": {
        "notice": "override function to check if contract supports given interface"
      },
      "tokenURI(uint256)": {
        "notice": "override function to get the URI of a token. "
      },
      "updateContentURI(uint256,(string,bytes32))": {
        "notice": "Emits an event to be used to track content updates on a token"
      },
      "updateCreator(uint256,address)": {
        "notice": "updates the creator of a token, emits an event"
      },
      "updateMetadataURI(uint256,string)": {
        "notice": "updates the metadata URI of a token, emits an event"
      },
      "updateRoot(bytes32)": {
        "notice": "updates the merkle root of the allowlist"
      },
      "updateRoyaltyInfo(uint256,address)": {
        "notice": "updates the royalty payout address and royalty BPS of a token, emits an event"
      }
    },
    "notice": "-------------------------------------------------------------------------------------------------------------------- ,, .g8\"\"\"bgd         mm            `7MM .dP'     `M         MM              MM dM'       ` ,6\"Yb.mmMMmm  ,6\"Yb.    MM  ,pW\"Wq.   .P\"Ybmmm MM         8)   MM  MM   8)   MM    MM 6W'   `Wb :MI  I8 MM.         ,pm9MM  MM    ,pm9MM    MM 8M     M8  WmmmP\" `Mb.     ,'8M   MM  MM   8M   MM    MM YA.   ,A9 8M `\"bmmmd' `Moo9^Yo.`Mbmo`Moo9^Yo..JMML.`Ybmd9'   YMMMMMb 6'     dP Ybmmmd'************************************************ LEGAL DISCLAIMER: https://catalog.works/terms************************************************ ---------------------------------------------------------------------------------------------------------------------                                                                                                                                                                                                                                                                                                                           :   The Catalog Shared Creator Contract is an upgradeable ERC721 contract, purpose built  to facilitate the creation of Catalog records.",
    "version": 1
  },
  "storageLayout": {
    "storage": [
      {
        "astId": 538,
        "contract": "contracts/catalog/Catalog.sol:Catalog",
        "label": "_initialized",
        "offset": 0,
        "slot": "0",
        "type": "t_bool"
      },
      {
        "astId": 541,
        "contract": "contracts/catalog/Catalog.sol:Catalog",
        "label": "_initializing",
        "offset": 1,
        "slot": "0",
        "type": "t_bool"
      },
      {
        "astId": 2077,
        "contract": "contracts/catalog/Catalog.sol:Catalog",
        "label": "__gap",
        "offset": 0,
        "slot": "1",
        "type": "t_array(t_uint256)50_storage"
      },
      {
        "astId": 2551,
        "contract": "contracts/catalog/Catalog.sol:Catalog",
        "label": "__gap",
        "offset": 0,
        "slot": "51",
        "type": "t_array(t_uint256)50_storage"
      },
      {
        "astId": 770,
        "contract": "contracts/catalog/Catalog.sol:Catalog",
        "label": "_name",
        "offset": 0,
        "slot": "101",
        "type": "t_string_storage"
      },
      {
        "astId": 772,
        "contract": "contracts/catalog/Catalog.sol:Catalog",
        "label": "_symbol",
        "offset": 0,
        "slot": "102",
        "type": "t_string_storage"
      },
      {
        "astId": 776,
        "contract": "contracts/catalog/Catalog.sol:Catalog",
        "label": "_owners",
        "offset": 0,
        "slot": "103",
        "type": "t_mapping(t_uint256,t_address)"
      },
      {
        "astId": 780,
        "contract": "contracts/catalog/Catalog.sol:Catalog",
        "label": "_balances",
        "offset": 0,
        "slot": "104",
        "type": "t_mapping(t_address,t_uint256)"
      },
      {
        "astId": 784,
        "contract": "contracts/catalog/Catalog.sol:Catalog",
        "label": "_tokenApprovals",
        "offset": 0,
        "slot": "105",
        "type": "t_mapping(t_uint256,t_address)"
      },
      {
        "astId": 790,
        "contract": "contracts/catalog/Catalog.sol:Catalog",
        "label": "_operatorApprovals",
        "offset": 0,
        "slot": "106",
        "type": "t_mapping(t_address,t_mapping(t_address,t_bool))"
      },
      {
        "astId": 1631,
        "contract": "contracts/catalog/Catalog.sol:Catalog",
        "label": "__gap",
        "offset": 0,
        "slot": "107",
        "type": "t_array(t_uint256)44_storage"
      },
      {
        "astId": 10,
        "contract": "contracts/catalog/Catalog.sol:Catalog",
        "label": "_owner",
        "offset": 0,
        "slot": "151",
        "type": "t_address"
      },
      {
        "astId": 122,
        "contract": "contracts/catalog/Catalog.sol:Catalog",
        "label": "__gap",
        "offset": 0,
        "slot": "152",
        "type": "t_array(t_uint256)49_storage"
      },
      {
        "astId": 520,
        "contract": "contracts/catalog/Catalog.sol:Catalog",
        "label": "__gap",
        "offset": 0,
        "slot": "201",
        "type": "t_array(t_uint256)50_storage"
      },
      {
        "astId": 740,
        "contract": "contracts/catalog/Catalog.sol:Catalog",
        "label": "__gap",
        "offset": 0,
        "slot": "251",
        "type": "t_array(t_uint256)50_storage"
      },
      {
        "astId": 2642,
        "contract": "contracts/catalog/Catalog.sol:Catalog",
        "label": "tokenData",
        "offset": 0,
        "slot": "301",
        "type": "t_mapping(t_uint256,t_struct(TokenData)2631_storage)"
      },
      {
        "astId": 2646,
        "contract": "contracts/catalog/Catalog.sol:Catalog",
        "label": "_tokenIdCounter",
        "offset": 0,
        "slot": "302",
        "type": "t_struct(Counter)2084_storage"
      },
      {
        "astId": 2649,
        "contract": "contracts/catalog/Catalog.sol:Catalog",
        "label": "merkleRoot",
        "offset": 0,
        "slot": "303",
        "type": "t_bytes32"
      }
    ],
    "types": {
      "t_address": {
        "encoding": "inplace",
        "label": "address",
        "numberOfBytes": "20"
      },
      "t_array(t_uint256)44_storage": {
        "base": "t_uint256",
        "encoding": "inplace",
        "label": "uint256[44]",
        "numberOfBytes": "1408"
      },
      "t_array(t_uint256)49_storage": {
        "base": "t_uint256",
        "encoding": "inplace",
        "label": "uint256[49]",
        "numberOfBytes": "1568"
      },
      "t_array(t_uint256)50_storage": {
        "base": "t_uint256",
        "encoding": "inplace",
        "label": "uint256[50]",
        "numberOfBytes": "1600"
      },
      "t_bool": {
        "encoding": "inplace",
        "label": "bool",
        "numberOfBytes": "1"
      },
      "t_bytes32": {
        "encoding": "inplace",
        "label": "bytes32",
        "numberOfBytes": "32"
      },
      "t_mapping(t_address,t_bool)": {
        "encoding": "mapping",
        "key": "t_address",
        "label": "mapping(address => bool)",
        "numberOfBytes": "32",
        "value": "t_bool"
      },
      "t_mapping(t_address,t_mapping(t_address,t_bool))": {
        "encoding": "mapping",
        "key": "t_address",
        "label": "mapping(address => mapping(address => bool))",
        "numberOfBytes": "32",
        "value": "t_mapping(t_address,t_bool)"
      },
      "t_mapping(t_address,t_uint256)": {
        "encoding": "mapping",
        "key": "t_address",
        "label": "mapping(address => uint256)",
        "numberOfBytes": "32",
        "value": "t_uint256"
      },
      "t_mapping(t_uint256,t_address)": {
        "encoding": "mapping",
        "key": "t_uint256",
        "label": "mapping(uint256 => address)",
        "numberOfBytes": "32",
        "value": "t_address"
      },
      "t_mapping(t_uint256,t_struct(TokenData)2631_storage)": {
        "encoding": "mapping",
        "key": "t_uint256",
        "label": "mapping(uint256 => struct Catalog.TokenData)",
        "numberOfBytes": "32",
        "value": "t_struct(TokenData)2631_storage"
      },
      "t_string_storage": {
        "encoding": "bytes",
        "label": "string",
        "numberOfBytes": "32"
      },
      "t_struct(Counter)2084_storage": {
        "encoding": "inplace",
        "label": "struct CountersUpgradeable.Counter",
        "members": [
          {
            "astId": 2083,
            "contract": "contracts/catalog/Catalog.sol:Catalog",
            "label": "_value",
            "offset": 0,
            "slot": "0",
            "type": "t_uint256"
          }
        ],
        "numberOfBytes": "32"
      },
      "t_struct(TokenData)2631_storage": {
        "encoding": "inplace",
        "label": "struct Catalog.TokenData",
        "members": [
          {
            "astId": 2624,
            "contract": "contracts/catalog/Catalog.sol:Catalog",
            "label": "metadataURI",
            "offset": 0,
            "slot": "0",
            "type": "t_string_storage"
          },
          {
            "astId": 2626,
            "contract": "contracts/catalog/Catalog.sol:Catalog",
            "label": "creator",
            "offset": 0,
            "slot": "1",
            "type": "t_address"
          },
          {
            "astId": 2628,
            "contract": "contracts/catalog/Catalog.sol:Catalog",
            "label": "royaltyPayout",
            "offset": 0,
            "slot": "2",
            "type": "t_address"
          },
          {
            "astId": 2630,
            "contract": "contracts/catalog/Catalog.sol:Catalog",
            "label": "royaltyBPS",
            "offset": 20,
            "slot": "2",
            "type": "t_uint16"
          }
        ],
        "numberOfBytes": "96"
      },
      "t_uint16": {
        "encoding": "inplace",
        "label": "uint16",
        "numberOfBytes": "2"
      },
      "t_uint256": {
        "encoding": "inplace",
        "label": "uint256",
        "numberOfBytes": "32"
      }
    }
  }
}