{
  "address": "0x28EA643e228B7d576C42E1d2ec0D464255334d8c",
  "abi": [
    {
      "anonymous": false,
      "inputs": [
        {
          "indexed": true,
          "internalType": "address",
          "name": "owner",
          "type": "address"
        },
        {
          "indexed": true,
          "internalType": "address",
          "name": "approved",
          "type": "address"
        },
        {
          "indexed": true,
          "internalType": "uint256",
          "name": "tokenId",
          "type": "uint256"
        }
      ],
      "name": "Approval",
      "type": "event"
    },
    {
      "anonymous": false,
      "inputs": [
        {
          "indexed": true,
          "internalType": "address",
          "name": "owner",
          "type": "address"
        },
        {
          "indexed": true,
          "internalType": "address",
          "name": "operator",
          "type": "address"
        },
        {
          "indexed": false,
          "internalType": "bool",
          "name": "approved",
          "type": "bool"
        }
      ],
      "name": "ApprovalForAll",
      "type": "event"
    },
    {
      "anonymous": false,
      "inputs": [
        {
          "indexed": true,
          "internalType": "uint256",
          "name": "tokenId",
          "type": "uint256"
        },
        {
          "indexed": true,
          "internalType": "bytes32",
          "name": "contentHash",
          "type": "bytes32"
        },
        {
          "indexed": false,
          "internalType": "string",
          "name": "contentURI",
          "type": "string"
        }
      ],
      "name": "ContentUpdated",
      "type": "event"
    },
    {
      "anonymous": false,
      "inputs": [
        {
          "indexed": true,
          "internalType": "uint256",
          "name": "tokenId",
          "type": "uint256"
        },
        {
          "indexed": true,
          "internalType": "address",
          "name": "creator",
          "type": "address"
        }
      ],
      "name": "CreatorUpdated",
      "type": "event"
    },
    {
      "anonymous": false,
      "inputs": [
        {
          "indexed": true,
          "internalType": "bytes32",
          "name": "_merkleRoot",
          "type": "bytes32"
        }
      ],
      "name": "MerkleRootUpdated",
      "type": "event"
    },
    {
      "anonymous": false,
      "inputs": [
        {
          "indexed": true,
          "internalType": "uint256",
          "name": "tokenId",
          "type": "uint256"
        },
        {
          "indexed": false,
          "internalType": "string",
          "name": "metadataURI",
          "type": "string"
        }
      ],
      "name": "MetadataUpdated",
      "type": "event"
    },
    {
      "anonymous": false,
      "inputs": [
        {
          "indexed": true,
          "internalType": "address",
          "name": "previousOwner",
          "type": "address"
        },
        {
          "indexed": true,
          "internalType": "address",
          "name": "newOwner",
          "type": "address"
        }
      ],
      "name": "OwnershipTransferred",
      "type": "event"
    },
    {
      "anonymous": false,
      "inputs": [
        {
          "indexed": true,
          "internalType": "uint256",
          "name": "tokenId",
          "type": "uint256"
        },
        {
          "indexed": true,
          "internalType": "address",
          "name": "payoutAddress",
          "type": "address"
        }
      ],
      "name": "RoyaltyUpdated",
      "type": "event"
    },
    {
      "anonymous": false,
      "inputs": [
        {
          "indexed": true,
          "internalType": "address",
          "name": "from",
          "type": "address"
        },
        {
          "indexed": true,
          "internalType": "address",
          "name": "to",
          "type": "address"
        },
        {
          "indexed": true,
          "internalType": "uint256",
          "name": "tokenId",
          "type": "uint256"
        }
      ],
      "name": "Transfer",
      "type": "event"
    },
    {
      "inputs": [
        {
          "internalType": "address",
          "name": "to",
          "type": "address"
        },
        {
          "internalType": "uint256",
          "name": "tokenId",
          "type": "uint256"
        }
      ],
      "name": "approve",
      "outputs": [],
      "stateMutability": "nonpayable",
      "type": "function"
    },
    {
      "inputs": [
        {
          "internalType": "address",
          "name": "owner",
          "type": "address"
        }
      ],
      "name": "balanceOf",
      "outputs": [
        {
          "internalType": "uint256",
          "name": "",
          "type": "uint256"
        }
      ],
      "stateMutability": "view",
      "type": "function"
    },
    {
      "inputs": [
        {
          "internalType": "uint256",
          "name": "_tokenId",
          "type": "uint256"
        }
      ],
      "name": "burn",
      "outputs": [],
      "stateMutability": "nonpayable",
      "type": "function"
    },
    {
      "inputs": [
        {
          "internalType": "uint256",
          "name": "_tokenId",
          "type": "uint256"
        }
      ],
      "name": "creator",
      "outputs": [
        {
          "internalType": "address",
          "name": "",
          "type": "address"
        }
      ],
      "stateMutability": "view",
      "type": "function"
    },
    {
      "inputs": [
        {
          "internalType": "uint256",
          "name": "tokenId",
          "type": "uint256"
        }
      ],
      "name": "getApproved",
      "outputs": [
        {
          "internalType": "address",
          "name": "",
          "type": "address"
        }
      ],
      "stateMutability": "view",
      "type": "function"
    },
    {
      "inputs": [
        {
          "internalType": "string",
          "name": "_name",
          "type": "string"
        },
        {
          "internalType": "string",
          "name": "_symbol",
          "type": "string"
        }
      ],
      "name": "initialize",
      "outputs": [],
      "stateMutability": "nonpayable",
      "type": "function"
    },
    {
      "inputs": [
        {
          "internalType": "address",
          "name": "owner",
          "type": "address"
        },
        {
          "internalType": "address",
          "name": "operator",
          "type": "address"
        }
      ],
      "name": "isApprovedForAll",
      "outputs": [
        {
          "internalType": "bool",
          "name": "",
          "type": "bool"
        }
      ],
      "stateMutability": "view",
      "type": "function"
    },
    {
      "inputs": [],
      "name": "merkleRoot",
      "outputs": [
        {
          "internalType": "bytes32",
          "name": "",
          "type": "bytes32"
        }
      ],
      "stateMutability": "view",
      "type": "function"
    },
    {
      "inputs": [
        {
          "components": [
            {
              "internalType": "string",
              "name": "metadataURI",
              "type": "string"
            },
            {
              "internalType": "address",
              "name": "creator",
              "type": "address"
            },
            {
              "internalType": "address",
              "name": "royaltyPayout",
              "type": "address"
            },
            {
              "internalType": "uint16",
              "name": "royaltyBPS",
              "type": "uint16"
            }
          ],
          "internalType": "struct XF2.TokenData",
          "name": "_data",
          "type": "tuple"
        },
        {
          "components": [
            {
              "internalType": "string",
              "name": "contentURI",
              "type": "string"
            },
            {
              "internalType": "bytes32",
              "name": "contentHash",
              "type": "bytes32"
            }
          ],
          "internalType": "struct XF2.ContentData",
          "name": "_content",
          "type": "tuple"
        },
        {
          "internalType": "bytes32[]",
          "name": "_proof",
          "type": "bytes32[]"
        }
      ],
      "name": "mint",
      "outputs": [
        {
          "internalType": "uint256",
          "name": "",
          "type": "uint256"
        }
      ],
      "stateMutability": "nonpayable",
      "type": "function"
    },
    {
      "inputs": [],
      "name": "name",
      "outputs": [
        {
          "internalType": "string",
          "name": "",
          "type": "string"
        }
      ],
      "stateMutability": "view",
      "type": "function"
    },
    {
      "inputs": [],
      "name": "owner",
      "outputs": [
        {
          "internalType": "address",
          "name": "",
          "type": "address"
        }
      ],
      "stateMutability": "view",
      "type": "function"
    },
    {
      "inputs": [
        {
          "internalType": "uint256",
          "name": "tokenId",
          "type": "uint256"
        }
      ],
      "name": "ownerOf",
      "outputs": [
        {
          "internalType": "address",
          "name": "",
          "type": "address"
        }
      ],
      "stateMutability": "view",
      "type": "function"
    },
    {
      "inputs": [],
      "name": "renounceOwnership",
      "outputs": [],
      "stateMutability": "nonpayable",
      "type": "function"
    },
    {
      "inputs": [
        {
          "internalType": "uint256",
          "name": "_tokenId",
          "type": "uint256"
        },
        {
          "internalType": "uint256",
          "name": "_salePrice",
          "type": "uint256"
        }
      ],
      "name": "royaltyInfo",
      "outputs": [
        {
          "internalType": "address",
          "name": "receiver",
          "type": "address"
        },
        {
          "internalType": "uint256",
          "name": "royaltyAmount",
          "type": "uint256"
        }
      ],
      "stateMutability": "view",
      "type": "function"
    },
    {
      "inputs": [
        {
          "internalType": "uint256",
          "name": "_tokenId",
          "type": "uint256"
        }
      ],
      "name": "royaltyPayoutAddress",
      "outputs": [
        {
          "internalType": "address",
          "name": "",
          "type": "address"
        }
      ],
      "stateMutability": "view",
      "type": "function"
    },
    {
      "inputs": [
        {
          "internalType": "address",
          "name": "from",
          "type": "address"
        },
        {
          "internalType": "address",
          "name": "to",
          "type": "address"
        },
        {
          "internalType": "uint256",
          "name": "tokenId",
          "type": "uint256"
        }
      ],
      "name": "safeTransferFrom",
      "outputs": [],
      "stateMutability": "nonpayable",
      "type": "function"
    },
    {
      "inputs": [
        {
          "internalType": "address",
          "name": "from",
          "type": "address"
        },
        {
          "internalType": "address",
          "name": "to",
          "type": "address"
        },
        {
          "internalType": "uint256",
          "name": "tokenId",
          "type": "uint256"
        },
        {
          "internalType": "bytes",
          "name": "_data",
          "type": "bytes"
        }
      ],
      "name": "safeTransferFrom",
      "outputs": [],
      "stateMutability": "nonpayable",
      "type": "function"
    },
    {
      "inputs": [
        {
          "internalType": "address",
          "name": "operator",
          "type": "address"
        },
        {
          "internalType": "bool",
          "name": "approved",
          "type": "bool"
        }
      ],
      "name": "setApprovalForAll",
      "outputs": [],
      "stateMutability": "nonpayable",
      "type": "function"
    },
    {
      "inputs": [
        {
          "internalType": "bytes4",
          "name": "interfaceId",
          "type": "bytes4"
        }
      ],
      "name": "supportsInterface",
      "outputs": [
        {
          "internalType": "bool",
          "name": "",
          "type": "bool"
        }
      ],
      "stateMutability": "view",
      "type": "function"
    },
    {
      "inputs": [],
      "name": "symbol",
      "outputs": [
        {
          "internalType": "string",
          "name": "",
          "type": "string"
        }
      ],
      "stateMutability": "view",
      "type": "function"
    },
    {
      "inputs": [
        {
          "internalType": "uint256",
          "name": "_tokenId",
          "type": "uint256"
        }
      ],
      "name": "tokenURI",
      "outputs": [
        {
          "internalType": "string",
          "name": "",
          "type": "string"
        }
      ],
      "stateMutability": "view",
      "type": "function"
    },
    {
      "inputs": [
        {
          "internalType": "address",
          "name": "from",
          "type": "address"
        },
        {
          "internalType": "address",
          "name": "to",
          "type": "address"
        },
        {
          "internalType": "uint256",
          "name": "tokenId",
          "type": "uint256"
        }
      ],
      "name": "transferFrom",
      "outputs": [],
      "stateMutability": "nonpayable",
      "type": "function"
    },
    {
      "inputs": [
        {
          "internalType": "address",
          "name": "newOwner",
          "type": "address"
        }
      ],
      "name": "transferOwnership",
      "outputs": [],
      "stateMutability": "nonpayable",
      "type": "function"
    },
    {
      "inputs": [
        {
          "internalType": "uint256",
          "name": "_tokenId",
          "type": "uint256"
        },
        {
          "components": [
            {
              "internalType": "string",
              "name": "contentURI",
              "type": "string"
            },
            {
              "internalType": "bytes32",
              "name": "contentHash",
              "type": "bytes32"
            }
          ],
          "internalType": "struct XF2.ContentData",
          "name": "_content",
          "type": "tuple"
        }
      ],
      "name": "updateContentURI",
      "outputs": [],
      "stateMutability": "nonpayable",
      "type": "function"
    },
    {
      "inputs": [
        {
          "internalType": "uint256",
          "name": "_tokenId",
          "type": "uint256"
        },
        {
          "internalType": "address",
          "name": "_creator",
          "type": "address"
        }
      ],
      "name": "updateCreator",
      "outputs": [],
      "stateMutability": "nonpayable",
      "type": "function"
    },
    {
      "inputs": [
        {
          "internalType": "uint256",
          "name": "_tokenId",
          "type": "uint256"
        },
        {
          "internalType": "string",
          "name": "_metadataURI",
          "type": "string"
        }
      ],
      "name": "updateMetadataURI",
      "outputs": [],
      "stateMutability": "nonpayable",
      "type": "function"
    },
    {
      "inputs": [
        {
          "internalType": "bytes32",
          "name": "_newRoot",
          "type": "bytes32"
        }
      ],
      "name": "updateRoot",
      "outputs": [],
      "stateMutability": "nonpayable",
      "type": "function"
    },
    {
      "inputs": [
        {
          "internalType": "uint256",
          "name": "_tokenId",
          "type": "uint256"
        },
        {
          "internalType": "address",
          "name": "_royaltyPayoutAddress",
          "type": "address"
        }
      ],
      "name": "updateRoyaltyInfo",
      "outputs": [],
      "stateMutability": "nonpayable",
      "type": "function"
    }
  ],
  "transactionHash": "0xfe6d05b811409429d736c8c1b7626d9727da9c63ccb4e797180efe36a14fe707",
  "args": [],
  "numDeployments": 1,
  "solcInputHash": "8162b4145e6b85247eaad58b50157f91",
  "bytecode": "0x608060405234801561001057600080fd5b50612499806100206000396000f3fe608060405234801561001057600080fd5b50600436106101c45760003560e01c806370a08231116100f9578063b88d4fde11610097578063f2fde38b11610071578063f2fde38b1461040f578063f8361bab14610422578063fb339e4c14610435578063fbd8d2831461044857600080fd5b8063b88d4fde146103ad578063c87b56dd146103c0578063e985e9c5146103d357600080fd5b80638da5cb5b116100d35780638da5cb5b1461036e5780638fe86b3f1461037f57806395d89b4114610392578063a22cb4651461039a57600080fd5b806370a0823114610340578063715018a6146103535780637f9c84131461035b57600080fd5b80632eb4a7ab116101665780634cd88b76116101405780634cd88b76146102db578063510b5158146102ee5780636352211e1461031a578063669d311c1461032d57600080fd5b80632eb4a7ab1461029e57806342842e0e146102b557806342966c68146102c857600080fd5b8063095ea7b3116101a2578063095ea7b31461023157806321ff99701461024657806323b872dd146102595780632a55205a1461026c57600080fd5b806301ffc9a7146101c957806306fdde03146101f1578063081812fc14610206575b600080fd5b6101dc6101d7366004611ab2565b610474565b60405190151581526020015b60405180910390f35b6101f961049f565b6040516101e89190611b23565b610219610214366004611b36565b610531565b6040516001600160a01b0390911681526020016101e8565b61024461023f366004611b64565b6105cb565b005b610244610254366004611b36565b6106e1565b610244610267366004611b90565b61073b565b61027f61027a366004611bd1565b61076c565b604080516001600160a01b0390931683526020830191909152016101e8565b6102a760c95481565b6040519081526020016101e8565b6102446102c3366004611b90565b6107ba565b6102446102d6366004611b36565b6107d5565b6102446102e9366004611c9f565b61087c565b6102196102fc366004611b36565b600090815260ca60205260409020600101546001600160a01b031690565b610219610328366004611b36565b610956565b61024461033b366004611d03565b6109cd565b6102a761034e366004611d33565b610a5e565b610244610ae5565b610244610369366004611d68565b610b1b565b6097546001600160a01b0316610219565b61024461038d366004611da5565b610b90565b6101f9610c56565b6102446103a8366004611de2565b610c65565b6102446103bb366004611e15565b610c74565b6101f96103ce366004611b36565b610cac565b6101dc6103e1366004611e95565b6001600160a01b039182166000908152606a6020908152604080832093909416825291909152205460ff1690565b61024461041d366004611d33565b610dc9565b610244610430366004611d03565b610e61565b6102a7610443366004611ec3565b610ef2565b610219610456366004611b36565b600090815260ca60205260409020600201546001600160a01b031690565b600063152a902d60e11b6001600160e01b0319831614806104995750610499826110a7565b92915050565b6060606580546104ae90611f84565b80601f01602080910402602001604051908101604052809291908181526020018280546104da90611f84565b80156105275780601f106104fc57610100808354040283529160200191610527565b820191906000526020600020905b81548152906001019060200180831161050a57829003601f168201915b5050505050905090565b6000818152606760205260408120546001600160a01b03166105af5760405162461bcd60e51b815260206004820152602c60248201527f4552433732313a20617070726f76656420717565727920666f72206e6f6e657860448201526b34b9ba32b73a103a37b5b2b760a11b60648201526084015b60405180910390fd5b506000908152606960205260409020546001600160a01b031690565b60006105d682610956565b9050806001600160a01b0316836001600160a01b031614156106445760405162461bcd60e51b815260206004820152602160248201527f4552433732313a20617070726f76616c20746f2063757272656e74206f776e656044820152603960f91b60648201526084016105a6565b336001600160a01b0382161480610660575061066081336103e1565b6106d25760405162461bcd60e51b815260206004820152603860248201527f4552433732313a20617070726f76652063616c6c6572206973206e6f74206f7760448201527f6e6572206e6f7220617070726f76656420666f7220616c6c000000000000000060648201526084016105a6565b6106dc83836110f7565b505050565b6097546001600160a01b0316331461070b5760405162461bcd60e51b81526004016105a690611fb9565b60405181907f90004c04698bc3322499a575ed3752dd4abf33e0a7294c06a787a0fe01bea94190600090a260c955565b6107453382611165565b6107615760405162461bcd60e51b81526004016105a690611fee565b6106dc838383611258565b600082815260ca602052604081206002015481906001600160a01b03811690612710906107a490600160a01b900461ffff1686612055565b6107ae9190612074565b915091505b9250929050565b6106dc83838360405180602001604052806000815250610c74565b600081815260ca60205260409020600101546001600160a01b031633148015610817575061080281610956565b6001600160a01b0316336001600160a01b0316145b8061082c57506097546001600160a01b031633145b6108705760405162461bcd60e51b815260206004820152601560248201527427b7363c9031b932b0ba37b91037b91020b236b4b760591b60448201526064016105a6565b610879816113f8565b50565b600054610100900460ff166108975760005460ff161561089b565b303b155b6108fe5760405162461bcd60e51b815260206004820152602e60248201527f496e697469616c697a61626c653a20636f6e747261637420697320616c72656160448201526d191e481a5b9a5d1a585b1a5e995960921b60648201526084016105a6565b600054610100900460ff16158015610920576000805461ffff19166101011790555b61092a8383611493565b6109326114d4565b61094060cb80546001019055565b80156106dc576000805461ff0019169055505050565b6000818152606760205260408120546001600160a01b0316806104995760405162461bcd60e51b815260206004820152602960248201527f4552433732313a206f776e657220717565727920666f72206e6f6e657869737460448201526832b73a103a37b5b2b760b91b60648201526084016105a6565b6097546001600160a01b031633146109f75760405162461bcd60e51b81526004016105a690611fb9565b6040516001600160a01b0382169083907f13ceafb5e8ec39102bd452913a5c00a05f3b060d636d3a567c1c80e8b4321fe790600090a3600091825260ca602052604090912060020180546001600160a01b0319166001600160a01b03909216919091179055565b60006001600160a01b038216610ac95760405162461bcd60e51b815260206004820152602a60248201527f4552433732313a2062616c616e636520717565727920666f7220746865207a65604482015269726f206164647265737360b01b60648201526084016105a6565b506001600160a01b031660009081526068602052604090205490565b6097546001600160a01b03163314610b0f5760405162461bcd60e51b81526004016105a690611fb9565b610b19600061150b565b565b6097546001600160a01b03163314610b455760405162461bcd60e51b81526004016105a690611fb9565b6020810135827f0d555bd4628e8349ca5d17ca332d615c92b84cd24ab943921e8abcf6ae22c98b610b768480612096565b604051610b849291906120dd565b60405180910390a35050565b6097546001600160a01b0316331480610bc25750600082815260ca60205260409020600101546001600160a01b031633145b610bff5760405162461bcd60e51b815260206004820152600e60248201526d10b1b932b0ba37b917b0b236b4b760911b60448201526064016105a6565b817f459157ba24c7ab9878b165ef465fa6ae2ab42bcd8445f576be378768b0c4730982604051610c2f9190611b23565b60405180910390a2600082815260ca6020908152604090912082516106dc92840190611a03565b6060606680546104ae90611f84565b610c7033838361155d565b5050565b610c7e3383611165565b610c9a5760405162461bcd60e51b81526004016105a690611fee565b610ca68484848461162c565b50505050565b6000818152606760205260409020546060906001600160a01b0316610d2b5760405162461bcd60e51b815260206004820152602f60248201527f4552433732314d657461646174613a2055524920717565727920666f72206e6f60448201526e3732bc34b9ba32b73a103a37b5b2b760891b60648201526084016105a6565b600082815260ca602052604090208054610d4490611f84565b80601f0160208091040260200160405190810160405280929190818152602001828054610d7090611f84565b8015610dbd5780601f10610d9257610100808354040283529160200191610dbd565b820191906000526020600020905b815481529060010190602001808311610da057829003601f168201915b50505050509050919050565b6097546001600160a01b03163314610df35760405162461bcd60e51b81526004016105a690611fb9565b6001600160a01b038116610e585760405162461bcd60e51b815260206004820152602660248201527f4f776e61626c653a206e6577206f776e657220697320746865207a65726f206160448201526564647265737360d01b60648201526084016105a6565b6108798161150b565b6097546001600160a01b03163314610e8b5760405162461bcd60e51b81526004016105a690611fb9565b6040516001600160a01b0382169083907fc0186d9ba7364ebd80a7010121367f481af81e1028bf368b2172fedf2c6fc7de90600090a3600091825260ca602052604090912060010180546001600160a01b0319166001600160a01b03909216919091179055565b6000610f828383808060200260200160405190810160405280939291908181526020018383602002808284376000920191909152505060c9549150610f3f90506040890160208a01611d33565b604051602001610f67919060609190911b6bffffffffffffffffffffffff1916815260140190565b6040516020818303038152906040528051906020012061165f565b610fbd5760405162461bcd60e51b815260206004820152600c60248201526b10bb30b634b210383937b7b360a11b60448201526064016105a6565b612710610fd0608087016060880161211c565b61ffff16106110145760405162461bcd60e51b815260206004820152601060248201526f0726f79616c747920213c2031303030360841b60448201526064016105a6565b600061101f60cb5490565b905061102b3382611675565b600081815260ca60205260409020869061104582826121c1565b50506020850135817f0d555bd4628e8349ca5d17ca332d615c92b84cd24ab943921e8abcf6ae22c98b6110788880612096565b6040516110869291906120dd565b60405180910390a361109c60cb80546001019055565b90505b949350505050565b60006001600160e01b031982166380ac58cd60e01b14806110d857506001600160e01b03198216635b5e139f60e01b145b8061049957506301ffc9a760e01b6001600160e01b0319831614610499565b600081815260696020526040902080546001600160a01b0319166001600160a01b038416908117909155819061112c82610956565b6001600160a01b03167f8c5be1e5ebec7d5bd14f71427d1e84f3dd0314c0f7b2291e5b200ac8c7c3b92560405160405180910390a45050565b6000818152606760205260408120546001600160a01b03166111de5760405162461bcd60e51b815260206004820152602c60248201527f4552433732313a206f70657261746f7220717565727920666f72206e6f6e657860448201526b34b9ba32b73a103a37b5b2b760a11b60648201526084016105a6565b60006111e983610956565b9050806001600160a01b0316846001600160a01b031614806112245750836001600160a01b031661121984610531565b6001600160a01b0316145b8061109f57506001600160a01b038082166000908152606a602090815260408083209388168352929052205460ff1661109f565b826001600160a01b031661126b82610956565b6001600160a01b0316146112d35760405162461bcd60e51b815260206004820152602960248201527f4552433732313a207472616e73666572206f6620746f6b656e2074686174206960448201526839903737ba1037bbb760b91b60648201526084016105a6565b6001600160a01b0382166113355760405162461bcd60e51b8152602060048201526024808201527f4552433732313a207472616e7366657220746f20746865207a65726f206164646044820152637265737360e01b60648201526084016105a6565b6113406000826110f7565b6001600160a01b038316600090815260686020526040812080546001929061136990849061230c565b90915550506001600160a01b0382166000908152606860205260408120805460019290611397908490612323565b909155505060008181526067602052604080822080546001600160a01b0319166001600160a01b0386811691821790925591518493918716917fddf252ad1be2c89b69c2b068fc378daa952ba7f163c4a11628f55a4df523b3ef91a4505050565b600061140382610956565b90506114106000836110f7565b6001600160a01b038116600090815260686020526040812080546001929061143990849061230c565b909155505060008281526067602052604080822080546001600160a01b0319169055518391906001600160a01b038416907fddf252ad1be2c89b69c2b068fc378daa952ba7f163c4a11628f55a4df523b3ef908390a45050565b600054610100900460ff166114ba5760405162461bcd60e51b81526004016105a69061233b565b6114c26117b7565b6114ca6117b7565b610c7082826117de565b600054610100900460ff166114fb5760405162461bcd60e51b81526004016105a69061233b565b6115036117b7565b610b1961182c565b609780546001600160a01b038381166001600160a01b0319831681179093556040519116919082907f8be0079c531659141344cd1fd0a4f28419497f9722a3daafe3b4186f6b6457e090600090a35050565b816001600160a01b0316836001600160a01b031614156115bf5760405162461bcd60e51b815260206004820152601960248201527f4552433732313a20617070726f766520746f2063616c6c65720000000000000060448201526064016105a6565b6001600160a01b038381166000818152606a6020908152604080832094871680845294825291829020805460ff191686151590811790915591519182527f17307eab39ab6107e8899845ad3d59bd9653f200f220920489ca2b5937696c31910160405180910390a3505050565b611637848484611258565b6116438484848461185c565b610ca65760405162461bcd60e51b81526004016105a690612386565b60008261166c8584611957565b14949350505050565b6001600160a01b0382166116cb5760405162461bcd60e51b815260206004820181905260248201527f4552433732313a206d696e7420746f20746865207a65726f206164647265737360448201526064016105a6565b6000818152606760205260409020546001600160a01b0316156117305760405162461bcd60e51b815260206004820152601c60248201527f4552433732313a20746f6b656e20616c7265616479206d696e7465640000000060448201526064016105a6565b6001600160a01b0382166000908152606860205260408120805460019290611759908490612323565b909155505060008181526067602052604080822080546001600160a01b0319166001600160a01b03861690811790915590518392907fddf252ad1be2c89b69c2b068fc378daa952ba7f163c4a11628f55a4df523b3ef908290a45050565b600054610100900460ff16610b195760405162461bcd60e51b81526004016105a69061233b565b600054610100900460ff166118055760405162461bcd60e51b81526004016105a69061233b565b8151611818906065906020850190611a03565b5080516106dc906066906020840190611a03565b600054610100900460ff166118535760405162461bcd60e51b81526004016105a69061233b565b610b193361150b565b60006001600160a01b0384163b1561194f57604051630a85bd0160e11b81526001600160a01b0385169063150b7a02906118a09033908990889088906004016123d8565b6020604051808303816000875af19250505080156118db575060408051601f3d908101601f191682019092526118d891810190612415565b60015b611935573d808015611909576040519150601f19603f3d011682016040523d82523d6000602084013e61190e565b606091505b50805161192d5760405162461bcd60e51b81526004016105a690612386565b805181602001fd5b6001600160e01b031916630a85bd0160e11b14905061109f565b50600161109f565b600081815b84518110156119fb57600085828151811061197957611979612432565b602002602001015190508083116119bb5760408051602081018590529081018290526060016040516020818303038152906040528051906020012092506119e8565b60408051602081018390529081018490526060016040516020818303038152906040528051906020012092505b50806119f381612448565b91505061195c565b509392505050565b828054611a0f90611f84565b90600052602060002090601f016020900481019282611a315760008555611a77565b82601f10611a4a57805160ff1916838001178555611a77565b82800160010185558215611a77579182015b82811115611a77578251825591602001919060010190611a5c565b50611a83929150611a87565b5090565b5b80821115611a835760008155600101611a88565b6001600160e01b03198116811461087957600080fd5b600060208284031215611ac457600080fd5b8135611acf81611a9c565b9392505050565b6000815180845260005b81811015611afc57602081850181015186830182015201611ae0565b81811115611b0e576000602083870101525b50601f01601f19169290920160200192915050565b602081526000611acf6020830184611ad6565b600060208284031215611b4857600080fd5b5035919050565b6001600160a01b038116811461087957600080fd5b60008060408385031215611b7757600080fd5b8235611b8281611b4f565b946020939093013593505050565b600080600060608486031215611ba557600080fd5b8335611bb081611b4f565b92506020840135611bc081611b4f565b929592945050506040919091013590565b60008060408385031215611be457600080fd5b50508035926020909101359150565b634e487b7160e01b600052604160045260246000fd5b600067ffffffffffffffff80841115611c2457611c24611bf3565b604051601f8501601f19908116603f01168101908282118183101715611c4c57611c4c611bf3565b81604052809350858152868686011115611c6557600080fd5b858560208301376000602087830101525050509392505050565b600082601f830112611c9057600080fd5b611acf83833560208501611c09565b60008060408385031215611cb257600080fd5b823567ffffffffffffffff80821115611cca57600080fd5b611cd686838701611c7f565b93506020850135915080821115611cec57600080fd5b50611cf985828601611c7f565b9150509250929050565b60008060408385031215611d1657600080fd5b823591506020830135611d2881611b4f565b809150509250929050565b600060208284031215611d4557600080fd5b8135611acf81611b4f565b600060408284031215611d6257600080fd5b50919050565b60008060408385031215611d7b57600080fd5b82359150602083013567ffffffffffffffff811115611d9957600080fd5b611cf985828601611d50565b60008060408385031215611db857600080fd5b82359150602083013567ffffffffffffffff811115611dd657600080fd5b611cf985828601611c7f565b60008060408385031215611df557600080fd5b8235611e0081611b4f565b915060208301358015158114611d2857600080fd5b60008060008060808587031215611e2b57600080fd5b8435611e3681611b4f565b93506020850135611e4681611b4f565b925060408501359150606085013567ffffffffffffffff811115611e6957600080fd5b8501601f81018713611e7a57600080fd5b611e8987823560208401611c09565b91505092959194509250565b60008060408385031215611ea857600080fd5b8235611eb381611b4f565b91506020830135611d2881611b4f565b60008060008060608587031215611ed957600080fd5b843567ffffffffffffffff80821115611ef157600080fd5b9086019060808289031215611f0557600080fd5b90945060208601359080821115611f1b57600080fd5b611f2788838901611d50565b94506040870135915080821115611f3d57600080fd5b818701915087601f830112611f5157600080fd5b813581811115611f6057600080fd5b8860208260051b8501011115611f7557600080fd5b95989497505060200194505050565b600181811c90821680611f9857607f821691505b60208210811415611d6257634e487b7160e01b600052602260045260246000fd5b6020808252818101527f4f776e61626c653a2063616c6c6572206973206e6f7420746865206f776e6572604082015260600190565b60208082526031908201527f4552433732313a207472616e736665722063616c6c6572206973206e6f74206f6040820152701ddb995c881b9bdc88185c1c1c9bdd9959607a1b606082015260800190565b634e487b7160e01b600052601160045260246000fd5b600081600019048311821515161561206f5761206f61203f565b500290565b60008261209157634e487b7160e01b600052601260045260246000fd5b500490565b6000808335601e198436030181126120ad57600080fd5b83018035915067ffffffffffffffff8211156120c857600080fd5b6020019150368190038213156107b357600080fd5b60208152816020820152818360408301376000818301604090810191909152601f909201601f19160101919050565b61ffff8116811461087957600080fd5b60006020828403121561212e57600080fd5b8135611acf8161210c565b601f8211156106dc57600081815260208120601f850160051c810160208610156121605750805b601f850160051c820191505b8181101561217f5782815560010161216c565b505050505050565b6000813561049981611b4f565b80546001600160a01b0319166001600160a01b0392909216919091179055565b600081356104998161210c565b8135601e198336030181126121d557600080fd5b8201803567ffffffffffffffff8111156121ee57600080fd5b6020813603818401131561220157600080fd5b6122158261220f8654611f84565b86612139565b6000601f83116001811461224b576000841561223357508482018301355b600019600386901b1c1916600185901b1786556122a8565b600086815260209020601f19851690835b8281101561227d57878501860135825593850193600190910190850161225c565b508582101561229c5760001960f88760031b161c198585890101351681555b505060018460011b0186555b50506122c16122b8828701612187565b60018601612194565b505050600281016122dd6122d760408501612187565b82612194565b6106dc6122ec606085016121b4565b82805461ffff60a01b191660a09290921b61ffff60a01b16919091179055565b60008282101561231e5761231e61203f565b500390565b600082198211156123365761233661203f565b500190565b6020808252602b908201527f496e697469616c697a61626c653a20636f6e7472616374206973206e6f74206960408201526a6e697469616c697a696e6760a81b606082015260800190565b60208082526032908201527f4552433732313a207472616e7366657220746f206e6f6e20455243373231526560408201527131b2b4bb32b91034b6b83632b6b2b73a32b960711b606082015260800190565b6001600160a01b038581168252841660208201526040810183905260806060820181905260009061240b90830184611ad6565b9695505050505050565b60006020828403121561242757600080fd5b8151611acf81611a9c565b634e487b7160e01b600052603260045260246000fd5b600060001982141561245c5761245c61203f565b506001019056fea26469706673582212202f5a79b2131d4559f183c485672f9f2a4fee26fd8da6a2cb996758f8f6d6f95c64736f6c634300080a0033",
  "devdoc": {
    "author": ":   @bretth18 (computerdata) of @catalogworks",
    "details": ":   Upgradeable ERC721 Contract. Final proposed implementation (XF2), Rinkeby. Purpose built for optimization over the Zora V1 contracts. isian (iain nash) of Zora.  ---------------------------------------------------------------------------------------------------------------------                                                                                                                                                                                                                                                                                                                           ",
    "kind": "dev",
    "methods": {
      "approve(address,uint256)": {
        "details": "See {IERC721-approve}."
      },
      "balanceOf(address)": {
        "details": "See {IERC721-balanceOf}."
      },
      "burn(uint256)": {
        "details": "burns given tokenId, restrited to owner and creator (when owned)",
        "params": {
          "_tokenId": "uint256 identifier of token to burn"
        }
      },
      "creator(uint256)": {
        "details": "basic public getter method for creator",
        "params": {
          "_tokenId": "uint256 identifier of token to get creator for"
        },
        "returns": {
          "_0": "address creator of given tokenId"
        }
      },
      "getApproved(uint256)": {
        "details": "See {IERC721-getApproved}."
      },
      "initialize(string,string)": {
        "details": "Initializes contract with default values, for upgradeable proxy purposes",
        "params": {
          "_name": "string name of the contract",
          "_symbol": "string symbol of the contract"
        }
      },
      "isApprovedForAll(address,address)": {
        "details": "See {IERC721-isApprovedForAll}."
      },
      "mint((string,address,address,uint16),(string,bytes32),bytes32[])": {
        "details": "mints a new token to allowlisted msg.sender with a valid merkle proof. ",
        "params": {
          "_content": "ContentData struct, containing contentURI, contentHash. not stored in memory, only in calldata",
          "_data": "TokenData struct, containing metadataURI, creator, royaltyPayout, royaltyBPS",
          "_proof": "bytes32[] merkle proof of artist wallet.  this is created off-chain.  e.g (proof = tree.getHexProof(keccak256(address)))"
        },
        "returns": {
          "_0": "uint256 tokenId of minted token (useful since we are not using Enumerable)"
        }
      },
      "name()": {
        "details": "See {IERC721Metadata-name}."
      },
      "owner()": {
        "details": "Returns the address of the current owner."
      },
      "ownerOf(uint256)": {
        "details": "See {IERC721-ownerOf}."
      },
      "renounceOwnership()": {
        "details": "Leaves the contract without owner. It will not be possible to call `onlyOwner` functions anymore. Can only be called by the current owner. NOTE: Renouncing ownership will leave the contract without an owner, thereby removing any functionality that is only available to the owner."
      },
      "royaltyInfo(uint256,uint256)": {
        "details": "override, conforms to EIP-2981",
        "params": {
          "_salePrice": "uint256 final sale price of token used to calculate royalty payout",
          "_tokenId": "uint256 token id corresponding to the token of which to get royalty information"
        }
      },
      "royaltyPayoutAddress(uint256)": {
        "details": "basic public getter method for royalty payout address ",
        "params": {
          "_tokenId": "uint256 identifier of token to get royalty payout address for"
        },
        "returns": {
          "_0": "address royalty payout address of given tokenId"
        }
      },
      "safeTransferFrom(address,address,uint256)": {
        "details": "See {IERC721-safeTransferFrom}."
      },
      "safeTransferFrom(address,address,uint256,bytes)": {
        "details": "See {IERC721-safeTransferFrom}."
      },
      "setApprovalForAll(address,bool)": {
        "details": "See {IERC721-setApprovalForAll}."
      },
      "supportsInterface(bytes4)": {
        "details": "override ",
        "params": {
          "interfaceId": "bytes4 id of interface to check"
        }
      },
      "symbol()": {
        "details": "See {IERC721Metadata-symbol}."
      },
      "tokenURI(uint256)": {
        "details": "override function, returns metadataURI of token stored in tokenData",
        "params": {
          "_tokenId": "uint256 token id corresponding to the token of which to get metadata from"
        },
        "returns": {
          "_0": "string containing metadata URI"
        }
      },
      "transferFrom(address,address,uint256)": {
        "details": "See {IERC721-transferFrom}."
      },
      "transferOwnership(address)": {
        "details": "Transfers ownership of the contract to a new account (`newOwner`). Can only be called by the current owner."
      },
      "updateContentURI(uint256,(string,bytes32))": {
        "details": "access controlled function, restricted to owner/admim.",
        "params": {
          "_content": "struct containing new/updated contentURI and hash.",
          "_tokenId": "uint256 token id corresponding to the token to update"
        }
      },
      "updateCreator(uint256,address)": {
        "details": "access controlled function, restricted to owner/admim. used in case of compromised artist wallet.",
        "params": {
          "_creator": "address new creator of the token",
          "_tokenId": "uint256 token id corresponding to the token to update"
        }
      },
      "updateMetadataURI(uint256,string)": {
        "details": "access controlled, restricted to contract owner/admin or the creator of the token",
        "params": {
          "_metadataURI": "string containing new/updated metadata (e.g IPFS URI pointing to metadata.json)",
          "_tokenId": "uint256 token id corresponding to the token to update"
        }
      },
      "updateRoot(bytes32)": {
        "details": "access controlled function, restricted to owner/admim.",
        "params": {
          "_newRoot": "bytes32 containing the new root hash, generated off-chain"
        }
      },
      "updateRoyaltyInfo(uint256,address)": {
        "details": "access controlled to owner only, subject to change.  this function allows for emergency royalty control (i.e compromised wallet)",
        "params": {
          "_royaltyPayoutAddress": "address of new royalty payout address",
          "_tokenId": "uint256 token id corresponding to the token of which to update royalty payout"
        }
      }
    },
    "title": ":   XF2",
    "version": 1
  },
  "userdoc": {
    "events": {
      "MetadataUpdated(uint256,string)": {
        "notice": "Events"
      }
    },
    "kind": "user",
    "methods": {
      "burn(uint256)": {
        "notice": "Burn FunctionBurns a token"
      },
      "creator(uint256)": {
        "notice": "creator Functiongets the creator of a token"
      },
      "initialize(string,string)": {
        "notice": "initialize FunctionInitializes contract with default values, acts as a constructor"
      },
      "mint((string,address,address,uint16),(string,bytes32),bytes32[])": {
        "notice": "mint Functionmints a new token"
      },
      "royaltyInfo(uint256,uint256)": {
        "notice": "royaltyInfo Functionoverride function gets royalty information for a token (EIP-2981)"
      },
      "royaltyPayoutAddress(uint256)": {
        "notice": "royaltyPayoutAddress Functiongets the address of the royalty payout for a token"
      },
      "supportsInterface(bytes4)": {
        "notice": "supportsInterface Functionoverride function to check if contract supports an interface"
      },
      "tokenURI(uint256)": {
        "notice": "tokenURI Functionoverride function to get the URI of a token. returns stored metadataURI"
      },
      "updateContentURI(uint256,(string,bytes32))": {
        "notice": "updateContentURI FunctionEmits an event to be used track content updates on a token"
      },
      "updateCreator(uint256,address)": {
        "notice": "updateCreator Functionupdates the creator of a token, emits an event"
      },
      "updateMetadataURI(uint256,string)": {
        "notice": "updateMetadataURI Functionupdates the metadata URI of a token, emits an event"
      },
      "updateRoot(bytes32)": {
        "notice": "updateRoot Functionupdates the merkleroot of the allowlistthis function is inherits from Angela.sol, and may not be necessary depending on role based configuration."
      },
      "updateRoyaltyInfo(uint256,address)": {
        "notice": "updateRoyaltyInfo Functionupdates the royalty payout address and royalty BPS of a token, emits an event"
      }
    },
    "notice": "-------------------------------------------------------------------------------------------------------------------- XF2************************************************ LEGAL DISCLAIMER: https://catalog.works/terms************************************************ ---------------------------------------------------------------------------------------------------------------------                                                                                                                                                                                                                                                                                                                            RINKEBY CNFT (V4: CODENAME \"XF2\") \"XF2\"                       :   Creator Shared NFT Media Contract for Catalog Records Inc.",
    "version": 1
  },
  "storageLayout": {
    "storage": [
      {
        "astId": 154,
        "contract": "contracts/catalog/XF2.sol:XF2",
        "label": "_initialized",
        "offset": 0,
        "slot": "0",
        "type": "t_bool"
      },
      {
        "astId": 157,
        "contract": "contracts/catalog/XF2.sol:XF2",
        "label": "_initializing",
        "offset": 1,
        "slot": "0",
        "type": "t_bool"
      },
      {
        "astId": 1531,
        "contract": "contracts/catalog/XF2.sol:XF2",
        "label": "__gap",
        "offset": 0,
        "slot": "1",
        "type": "t_array(t_uint256)50_storage"
      },
      {
        "astId": 1942,
        "contract": "contracts/catalog/XF2.sol:XF2",
        "label": "__gap",
        "offset": 0,
        "slot": "51",
        "type": "t_array(t_uint256)50_storage"
      },
      {
        "astId": 250,
        "contract": "contracts/catalog/XF2.sol:XF2",
        "label": "_name",
        "offset": 0,
        "slot": "101",
        "type": "t_string_storage"
      },
      {
        "astId": 252,
        "contract": "contracts/catalog/XF2.sol:XF2",
        "label": "_symbol",
        "offset": 0,
        "slot": "102",
        "type": "t_string_storage"
      },
      {
        "astId": 256,
        "contract": "contracts/catalog/XF2.sol:XF2",
        "label": "_owners",
        "offset": 0,
        "slot": "103",
        "type": "t_mapping(t_uint256,t_address)"
      },
      {
        "astId": 260,
        "contract": "contracts/catalog/XF2.sol:XF2",
        "label": "_balances",
        "offset": 0,
        "slot": "104",
        "type": "t_mapping(t_address,t_uint256)"
      },
      {
        "astId": 264,
        "contract": "contracts/catalog/XF2.sol:XF2",
        "label": "_tokenApprovals",
        "offset": 0,
        "slot": "105",
        "type": "t_mapping(t_uint256,t_address)"
      },
      {
        "astId": 270,
        "contract": "contracts/catalog/XF2.sol:XF2",
        "label": "_operatorApprovals",
        "offset": 0,
        "slot": "106",
        "type": "t_mapping(t_address,t_mapping(t_address,t_bool))"
      },
      {
        "astId": 1081,
        "contract": "contracts/catalog/XF2.sol:XF2",
        "label": "__gap",
        "offset": 0,
        "slot": "107",
        "type": "t_array(t_uint256)44_storage"
      },
      {
        "astId": 10,
        "contract": "contracts/catalog/XF2.sol:XF2",
        "label": "_owner",
        "offset": 0,
        "slot": "151",
        "type": "t_address"
      },
      {
        "astId": 124,
        "contract": "contracts/catalog/XF2.sol:XF2",
        "label": "__gap",
        "offset": 0,
        "slot": "152",
        "type": "t_array(t_uint256)49_storage"
      },
      {
        "astId": 2543,
        "contract": "contracts/catalog/XF2.sol:XF2",
        "label": "merkleRoot",
        "offset": 0,
        "slot": "201",
        "type": "t_bytes32"
      },
      {
        "astId": 2549,
        "contract": "contracts/catalog/XF2.sol:XF2",
        "label": "tokenData",
        "offset": 0,
        "slot": "202",
        "type": "t_mapping(t_uint256,t_struct(TokenData)2536_storage)"
      },
      {
        "astId": 2553,
        "contract": "contracts/catalog/XF2.sol:XF2",
        "label": "_tokenIdCounter",
        "offset": 0,
        "slot": "203",
        "type": "t_struct(Counter)1538_storage"
      }
    ],
    "types": {
      "t_address": {
        "encoding": "inplace",
        "label": "address",
        "numberOfBytes": "20"
      },
      "t_array(t_uint256)44_storage": {
        "base": "t_uint256",
        "encoding": "inplace",
        "label": "uint256[44]",
        "numberOfBytes": "1408"
      },
      "t_array(t_uint256)49_storage": {
        "base": "t_uint256",
        "encoding": "inplace",
        "label": "uint256[49]",
        "numberOfBytes": "1568"
      },
      "t_array(t_uint256)50_storage": {
        "base": "t_uint256",
        "encoding": "inplace",
        "label": "uint256[50]",
        "numberOfBytes": "1600"
      },
      "t_bool": {
        "encoding": "inplace",
        "label": "bool",
        "numberOfBytes": "1"
      },
      "t_bytes32": {
        "encoding": "inplace",
        "label": "bytes32",
        "numberOfBytes": "32"
      },
      "t_mapping(t_address,t_bool)": {
        "encoding": "mapping",
        "key": "t_address",
        "label": "mapping(address => bool)",
        "numberOfBytes": "32",
        "value": "t_bool"
      },
      "t_mapping(t_address,t_mapping(t_address,t_bool))": {
        "encoding": "mapping",
        "key": "t_address",
        "label": "mapping(address => mapping(address => bool))",
        "numberOfBytes": "32",
        "value": "t_mapping(t_address,t_bool)"
      },
      "t_mapping(t_address,t_uint256)": {
        "encoding": "mapping",
        "key": "t_address",
        "label": "mapping(address => uint256)",
        "numberOfBytes": "32",
        "value": "t_uint256"
      },
      "t_mapping(t_uint256,t_address)": {
        "encoding": "mapping",
        "key": "t_uint256",
        "label": "mapping(uint256 => address)",
        "numberOfBytes": "32",
        "value": "t_address"
      },
      "t_mapping(t_uint256,t_struct(TokenData)2536_storage)": {
        "encoding": "mapping",
        "key": "t_uint256",
        "label": "mapping(uint256 => struct XF2.TokenData)",
        "numberOfBytes": "32",
        "value": "t_struct(TokenData)2536_storage"
      },
      "t_string_storage": {
        "encoding": "bytes",
        "label": "string",
        "numberOfBytes": "32"
      },
      "t_struct(Counter)1538_storage": {
        "encoding": "inplace",
        "label": "struct CountersUpgradeable.Counter",
        "members": [
          {
            "astId": 1537,
            "contract": "contracts/catalog/XF2.sol:XF2",
            "label": "_value",
            "offset": 0,
            "slot": "0",
            "type": "t_uint256"
          }
        ],
        "numberOfBytes": "32"
      },
      "t_struct(TokenData)2536_storage": {
        "encoding": "inplace",
        "label": "struct XF2.TokenData",
        "members": [
          {
            "astId": 2529,
            "contract": "contracts/catalog/XF2.sol:XF2",
            "label": "metadataURI",
            "offset": 0,
            "slot": "0",
            "type": "t_string_storage"
          },
          {
            "astId": 2531,
            "contract": "contracts/catalog/XF2.sol:XF2",
            "label": "creator",
            "offset": 0,
            "slot": "1",
            "type": "t_address"
          },
          {
            "astId": 2533,
            "contract": "contracts/catalog/XF2.sol:XF2",
            "label": "royaltyPayout",
            "offset": 0,
            "slot": "2",
            "type": "t_address"
          },
          {
            "astId": 2535,
            "contract": "contracts/catalog/XF2.sol:XF2",
            "label": "royaltyBPS",
            "offset": 20,
            "slot": "2",
            "type": "t_uint16"
          }
        ],
        "numberOfBytes": "96"
      },
      "t_uint16": {
        "encoding": "inplace",
        "label": "uint16",
        "numberOfBytes": "2"
      },
      "t_uint256": {
        "encoding": "inplace",
        "label": "uint256",
        "numberOfBytes": "32"
      }
    }
  }
}